ARM GAS  C:\Users\ELEASO~1\AppData\Local\Temp\ccifzIGS.s 			page 1


   1              		.syntax unified
   2              		.cpu cortex-m0
   3              		.fpu softvfp
   4              		.eabi_attribute 20, 1
   5              		.eabi_attribute 21, 1
   6              		.eabi_attribute 23, 3
   7              		.eabi_attribute 24, 1
   8              		.eabi_attribute 25, 1
   9              		.eabi_attribute 26, 1
  10              		.eabi_attribute 30, 1
  11              		.eabi_attribute 34, 0
  12              		.eabi_attribute 18, 4
  13              		.thumb
  14              		.syntax unified
  15              		.file	"CapSense_INT.c"
  16              		.text
  17              	.Ltext0:
  18              		.cfi_sections	.debug_frame
  19              		.section	.text.CapSense_ISR,"ax",%progbits
  20              		.align	2
  21              		.global	CapSense_ISR
  22              		.code	16
  23              		.thumb_func
  24              		.type	CapSense_ISR, %function
  25              	CapSense_ISR:
  26              	.LFB34:
  27              		.file 1 "Generated_Source\\PSoC4\\CapSense_INT.c"
   1:Generated_Source\PSoC4/CapSense_INT.c **** /*******************************************************************************
   2:Generated_Source\PSoC4/CapSense_INT.c **** * File Name: CapSense_INT.c
   3:Generated_Source\PSoC4/CapSense_INT.c **** * Version 2.60
   4:Generated_Source\PSoC4/CapSense_INT.c **** *
   5:Generated_Source\PSoC4/CapSense_INT.c **** * Description:
   6:Generated_Source\PSoC4/CapSense_INT.c **** *  This file provides the source code of the  Interrupt Service Routine (ISR)
   7:Generated_Source\PSoC4/CapSense_INT.c **** *  for the CapSense CSD component.
   8:Generated_Source\PSoC4/CapSense_INT.c **** *
   9:Generated_Source\PSoC4/CapSense_INT.c **** * Note:
  10:Generated_Source\PSoC4/CapSense_INT.c **** *
  11:Generated_Source\PSoC4/CapSense_INT.c **** ********************************************************************************
  12:Generated_Source\PSoC4/CapSense_INT.c **** * Copyright 2013-2016, Cypress Semiconductor Corporation.  All rights reserved.
  13:Generated_Source\PSoC4/CapSense_INT.c **** * You may use this file only in accordance with the license, terms, conditions,
  14:Generated_Source\PSoC4/CapSense_INT.c **** * disclaimers, and limitations in the end user license agreement accompanying
  15:Generated_Source\PSoC4/CapSense_INT.c **** * the software package with which this file was provided.
  16:Generated_Source\PSoC4/CapSense_INT.c **** *******************************************************************************/
  17:Generated_Source\PSoC4/CapSense_INT.c **** 
  18:Generated_Source\PSoC4/CapSense_INT.c **** #include "CapSense.h"
  19:Generated_Source\PSoC4/CapSense_INT.c **** #include "CapSense_PVT.h"
  20:Generated_Source\PSoC4/CapSense_INT.c **** #include "cyapicallbacks.h"
  21:Generated_Source\PSoC4/CapSense_INT.c **** 
  22:Generated_Source\PSoC4/CapSense_INT.c **** 
  23:Generated_Source\PSoC4/CapSense_INT.c **** /*******************************************************************************
  24:Generated_Source\PSoC4/CapSense_INT.c **** *  Place your includes, defines and code here
  25:Generated_Source\PSoC4/CapSense_INT.c **** ********************************************************************************/
  26:Generated_Source\PSoC4/CapSense_INT.c **** /* `#START CapSense_ISR_INTC` */
  27:Generated_Source\PSoC4/CapSense_INT.c **** 
  28:Generated_Source\PSoC4/CapSense_INT.c **** /* `#END` */
  29:Generated_Source\PSoC4/CapSense_INT.c **** 
  30:Generated_Source\PSoC4/CapSense_INT.c **** 
ARM GAS  C:\Users\ELEASO~1\AppData\Local\Temp\ccifzIGS.s 			page 2


  31:Generated_Source\PSoC4/CapSense_INT.c **** /*******************************************************************************
  32:Generated_Source\PSoC4/CapSense_INT.c **** * Function Name: CapSense_ISR
  33:Generated_Source\PSoC4/CapSense_INT.c **** ********************************************************************************
  34:Generated_Source\PSoC4/CapSense_INT.c **** *
  35:Generated_Source\PSoC4/CapSense_INT.c **** * Summary:
  36:Generated_Source\PSoC4/CapSense_INT.c **** *  This ISR is executed when the measure window is closed. The measure window
  37:Generated_Source\PSoC4/CapSense_INT.c **** *  depends on the sensor scan resolution parameter.
  38:Generated_Source\PSoC4/CapSense_INT.c **** *  The ISR has two modes:
  39:Generated_Source\PSoC4/CapSense_INT.c **** *   1. Scans a single sensor and stores the measure result.
  40:Generated_Source\PSoC4/CapSense_INT.c **** *   2. Stores the result of the current measure and starts the next scan till all
  41:Generated_Source\PSoC4/CapSense_INT.c **** *      the enabled sensors are scanned.
  42:Generated_Source\PSoC4/CapSense_INT.c **** *  This interrupt handler is only used in one channel designs.
  43:Generated_Source\PSoC4/CapSense_INT.c **** *
  44:Generated_Source\PSoC4/CapSense_INT.c **** * Parameters:
  45:Generated_Source\PSoC4/CapSense_INT.c **** *  None
  46:Generated_Source\PSoC4/CapSense_INT.c **** *
  47:Generated_Source\PSoC4/CapSense_INT.c **** * Return:
  48:Generated_Source\PSoC4/CapSense_INT.c **** *  None
  49:Generated_Source\PSoC4/CapSense_INT.c **** *
  50:Generated_Source\PSoC4/CapSense_INT.c **** * Global Variables:
  51:Generated_Source\PSoC4/CapSense_INT.c **** *  CapSense_csv - used to provide the status and mode of the scanning process.
  52:Generated_Source\PSoC4/CapSense_INT.c **** *   Mode - a single scan or scan of all the enabled sensors.
  53:Generated_Source\PSoC4/CapSense_INT.c **** *   Status - scan is in progress or ready for new scan.
  54:Generated_Source\PSoC4/CapSense_INT.c **** *  CapSense_sensorIndex - used to store a sensor scanning sensor number.
  55:Generated_Source\PSoC4/CapSense_INT.c **** *
  56:Generated_Source\PSoC4/CapSense_INT.c **** * Reentrant:
  57:Generated_Source\PSoC4/CapSense_INT.c **** *  No
  58:Generated_Source\PSoC4/CapSense_INT.c **** *
  59:Generated_Source\PSoC4/CapSense_INT.c **** *******************************************************************************/
  60:Generated_Source\PSoC4/CapSense_INT.c **** CY_ISR(CapSense_ISR)
  61:Generated_Source\PSoC4/CapSense_INT.c **** {
  28              		.loc 1 61 0
  29              		.cfi_startproc
  30              		@ args = 0, pretend = 0, frame = 0
  31              		@ frame_needed = 0, uses_anonymous_args = 0
  32 0000 10B5     		push	{r4, lr}
  33              		.cfi_def_cfa_offset 8
  34              		.cfi_offset 4, -8
  35              		.cfi_offset 14, -4
  62:Generated_Source\PSoC4/CapSense_INT.c ****     static uint8 CapSense_snsIndexTmp;
  63:Generated_Source\PSoC4/CapSense_INT.c **** 
  64:Generated_Source\PSoC4/CapSense_INT.c ****     #ifdef CapSense_ISR_ENTRY_CALLBACK
  65:Generated_Source\PSoC4/CapSense_INT.c ****         CapSense_ISR_EntryCallback();
  66:Generated_Source\PSoC4/CapSense_INT.c ****     #endif /* CapSense_ISR_ENTRY_CALLBACK */
  67:Generated_Source\PSoC4/CapSense_INT.c **** 
  68:Generated_Source\PSoC4/CapSense_INT.c ****     /*  Place your Interrupt code here. */
  69:Generated_Source\PSoC4/CapSense_INT.c ****     /* `#START CapSense_ISR_ENTER` */
  70:Generated_Source\PSoC4/CapSense_INT.c **** 
  71:Generated_Source\PSoC4/CapSense_INT.c ****     /* `#END` */
  72:Generated_Source\PSoC4/CapSense_INT.c **** 
  73:Generated_Source\PSoC4/CapSense_INT.c ****     CyIntDisable(CapSense_ISR_NUMBER);
  36              		.loc 1 73 0
  37 0002 0F20     		movs	r0, #15
  38 0004 FFF7FEFF 		bl	CyIntDisable
  39              	.LVL0:
  74:Generated_Source\PSoC4/CapSense_INT.c **** 
  75:Generated_Source\PSoC4/CapSense_INT.c ****     CapSense_CSD_INTR_REG = 1u;
ARM GAS  C:\Users\ELEASO~1\AppData\Local\Temp\ccifzIGS.s 			page 3


  40              		.loc 1 75 0
  41 0008 0122     		movs	r2, #1
  42 000a 1E4B     		ldr	r3, .L7
  43 000c 1A60     		str	r2, [r3]
  76:Generated_Source\PSoC4/CapSense_INT.c **** 
  77:Generated_Source\PSoC4/CapSense_INT.c ****     CapSense_PostScan((uint32)CapSense_sensorIndex);
  44              		.loc 1 77 0
  45 000e 1E4B     		ldr	r3, .L7+4
  46 0010 1878     		ldrb	r0, [r3]
  47 0012 C0B2     		uxtb	r0, r0
  48 0014 FFF7FEFF 		bl	CapSense_PostScan
  49              	.LVL1:
  78:Generated_Source\PSoC4/CapSense_INT.c **** 
  79:Generated_Source\PSoC4/CapSense_INT.c ****     if ((CapSense_csdStatusVar & CapSense_SW_CTRL_SINGLE_SCAN) != 0u)
  50              		.loc 1 79 0
  51 0018 1C4B     		ldr	r3, .L7+8
  52 001a 1B78     		ldrb	r3, [r3]
  53 001c 5BB2     		sxtb	r3, r3
  54 001e 002B     		cmp	r3, #0
  55 0020 05DA     		bge	.L2
  80:Generated_Source\PSoC4/CapSense_INT.c ****     {
  81:Generated_Source\PSoC4/CapSense_INT.c ****         CapSense_csdStatusVar &= (uint8)~CapSense_SW_STS_BUSY;
  56              		.loc 1 81 0
  57 0022 1A4A     		ldr	r2, .L7+8
  58 0024 1378     		ldrb	r3, [r2]
  59 0026 0121     		movs	r1, #1
  60 0028 8B43     		bics	r3, r1
  61 002a 1370     		strb	r3, [r2]
  62 002c 26E0     		b	.L3
  63              	.L2:
  82:Generated_Source\PSoC4/CapSense_INT.c ****     }
  83:Generated_Source\PSoC4/CapSense_INT.c ****     else
  84:Generated_Source\PSoC4/CapSense_INT.c ****     {
  85:Generated_Source\PSoC4/CapSense_INT.c ****         /* Proceed scanning */
  86:Generated_Source\PSoC4/CapSense_INT.c ****         CapSense_sensorIndex = CapSense_FindNextSensor(CapSense_sensorIndex);
  64              		.loc 1 86 0
  65 002e 164C     		ldr	r4, .L7+4
  66 0030 2078     		ldrb	r0, [r4]
  67 0032 C0B2     		uxtb	r0, r0
  68 0034 FFF7FEFF 		bl	CapSense_FindNextSensor
  69              	.LVL2:
  70 0038 2070     		strb	r0, [r4]
  87:Generated_Source\PSoC4/CapSense_INT.c **** 
  88:Generated_Source\PSoC4/CapSense_INT.c ****         /* Check end of scan */
  89:Generated_Source\PSoC4/CapSense_INT.c ****         if(CapSense_sensorIndex < CapSense_TOTAL_SENSOR_COUNT)
  71              		.loc 1 89 0
  72 003a 2378     		ldrb	r3, [r4]
  73 003c DBB2     		uxtb	r3, r3
  74 003e 092B     		cmp	r3, #9
  75 0040 05D8     		bhi	.L4
  90:Generated_Source\PSoC4/CapSense_INT.c ****         {
  91:Generated_Source\PSoC4/CapSense_INT.c ****             CapSense_PreScan((uint32)CapSense_sensorIndex);
  76              		.loc 1 91 0
  77 0042 114B     		ldr	r3, .L7+4
  78 0044 1878     		ldrb	r0, [r3]
  79 0046 C0B2     		uxtb	r0, r0
  80 0048 FFF7FEFF 		bl	CapSense_PreScan
ARM GAS  C:\Users\ELEASO~1\AppData\Local\Temp\ccifzIGS.s 			page 4


  81              	.LVL3:
  82 004c 16E0     		b	.L3
  83              	.L4:
  92:Generated_Source\PSoC4/CapSense_INT.c ****         }
  93:Generated_Source\PSoC4/CapSense_INT.c ****         else
  94:Generated_Source\PSoC4/CapSense_INT.c ****         {
  95:Generated_Source\PSoC4/CapSense_INT.c ****             CapSense_csdStatusVar &= (uint8)~CapSense_SW_STS_BUSY;
  84              		.loc 1 95 0
  85 004e 0F4B     		ldr	r3, .L7+8
  86 0050 1A78     		ldrb	r2, [r3]
  87 0052 0121     		movs	r1, #1
  88 0054 8A43     		bics	r2, r1
  89 0056 1A70     		strb	r2, [r3]
  96:Generated_Source\PSoC4/CapSense_INT.c **** 
  97:Generated_Source\PSoC4/CapSense_INT.c ****              /* Check if widget has been scanned */
  98:Generated_Source\PSoC4/CapSense_INT.c ****             if((CapSense_csdStatusVar & CapSense_SW_CTRL_WIDGET_SCAN) != 0u)
  90              		.loc 1 98 0
  91 0058 1B78     		ldrb	r3, [r3]
  92 005a 5B06     		lsls	r3, r3, #25
  93 005c 0ED5     		bpl	.L3
  99:Generated_Source\PSoC4/CapSense_INT.c ****             {
 100:Generated_Source\PSoC4/CapSense_INT.c ****                 /* Restore sensorEnableMask array */
 101:Generated_Source\PSoC4/CapSense_INT.c ****                 for(CapSense_snsIndexTmp = 0u;
  94              		.loc 1 101 0
  95 005e 0022     		movs	r2, #0
  96 0060 0B4B     		ldr	r3, .L7+12
  97 0062 1A70     		strb	r2, [r3]
  98 0064 06E0     		b	.L5
  99              	.L6:
 102:Generated_Source\PSoC4/CapSense_INT.c ****                     CapSense_snsIndexTmp < CapSense_TOTAL_SENSOR_MASK;
 103:Generated_Source\PSoC4/CapSense_INT.c ****                     CapSense_snsIndexTmp++)
 104:Generated_Source\PSoC4/CapSense_INT.c ****                 {
 105:Generated_Source\PSoC4/CapSense_INT.c ****                     /* Backup sensorEnableMask array */
 106:Generated_Source\PSoC4/CapSense_INT.c ****                     CapSense_sensorEnableMask[CapSense_snsIndexTmp] = CapSense_sensorEnableMaskBack
 100              		.loc 1 106 0
 101 0066 0B4A     		ldr	r2, .L7+16
 102 0068 D15C     		ldrb	r1, [r2, r3]
 103 006a 0B4A     		ldr	r2, .L7+20
 104 006c D154     		strb	r1, [r2, r3]
 103:Generated_Source\PSoC4/CapSense_INT.c ****                 {
 105              		.loc 1 103 0
 106 006e 0133     		adds	r3, r3, #1
 107 0070 074A     		ldr	r2, .L7+12
 108 0072 1370     		strb	r3, [r2]
 109              	.L5:
 102:Generated_Source\PSoC4/CapSense_INT.c ****                     CapSense_snsIndexTmp < CapSense_TOTAL_SENSOR_MASK;
 110              		.loc 1 102 0 discriminator 1
 111 0074 064B     		ldr	r3, .L7+12
 112 0076 1B78     		ldrb	r3, [r3]
 101:Generated_Source\PSoC4/CapSense_INT.c ****                     CapSense_snsIndexTmp < CapSense_TOTAL_SENSOR_MASK;
 113              		.loc 1 101 0 discriminator 1
 114 0078 012B     		cmp	r3, #1
 115 007a F4D9     		bls	.L6
 116              	.L3:
 107:Generated_Source\PSoC4/CapSense_INT.c ****                 }
 108:Generated_Source\PSoC4/CapSense_INT.c ****             }
 109:Generated_Source\PSoC4/CapSense_INT.c ****         }
ARM GAS  C:\Users\ELEASO~1\AppData\Local\Temp\ccifzIGS.s 			page 5


 110:Generated_Source\PSoC4/CapSense_INT.c ****     }
 111:Generated_Source\PSoC4/CapSense_INT.c ****     CyIntEnable(CapSense_ISR_NUMBER);
 117              		.loc 1 111 0
 118 007c 0F20     		movs	r0, #15
 119 007e FFF7FEFF 		bl	CyIntEnable
 120              	.LVL4:
 112:Generated_Source\PSoC4/CapSense_INT.c **** 
 113:Generated_Source\PSoC4/CapSense_INT.c ****     /*  Place your Interrupt code here. */
 114:Generated_Source\PSoC4/CapSense_INT.c ****     /* `#START CapSense_ISR_EXIT` */
 115:Generated_Source\PSoC4/CapSense_INT.c **** 
 116:Generated_Source\PSoC4/CapSense_INT.c ****     /* `#END` */
 117:Generated_Source\PSoC4/CapSense_INT.c **** 
 118:Generated_Source\PSoC4/CapSense_INT.c ****     #ifdef CapSense_ISR_EXIT_CALLBACK
 119:Generated_Source\PSoC4/CapSense_INT.c ****         CapSense_ISR_ExitCallback();
 120:Generated_Source\PSoC4/CapSense_INT.c ****     #endif /* CapSense_ISR_EXIT_CALLBACK */
 121:Generated_Source\PSoC4/CapSense_INT.c **** }
 121              		.loc 1 121 0
 122              		@ sp needed
 123 0082 10BD     		pop	{r4, pc}
 124              	.L8:
 125              		.align	2
 126              	.L7:
 127 0084 14000840 		.word	1074266132
 128 0088 00000000 		.word	CapSense_sensorIndex
 129 008c 00000000 		.word	CapSense_csdStatusVar
 130 0090 00000000 		.word	.LANCHOR0
 131 0094 00000000 		.word	CapSense_sensorEnableMaskBackup
 132 0098 00000000 		.word	CapSense_sensorEnableMask
 133              		.cfi_endproc
 134              	.LFE34:
 135              		.size	CapSense_ISR, .-CapSense_ISR
 136              		.bss
 137              		.set	.LANCHOR0,. + 0
 138              		.type	CapSense_snsIndexTmp.5343, %object
 139              		.size	CapSense_snsIndexTmp.5343, 1
 140              	CapSense_snsIndexTmp.5343:
 141 0000 00       		.space	1
 142              		.text
 143              	.Letext0:
 144              		.file 2 "Generated_Source\\PSoC4\\cytypes.h"
 145              		.file 3 "Generated_Source\\PSoC4\\CapSense.h"
 146              		.file 4 "Generated_Source\\PSoC4\\CyLib.h"
 147              		.file 5 "Generated_Source\\PSoC4\\CapSense_PVT.h"
