ARM GAS  C:\Users\ELEASO~1\AppData\Local\Temp\cc1bKQei.s 			page 1


   1              		.syntax unified
   2              		.cpu cortex-m0
   3              		.fpu softvfp
   4              		.eabi_attribute 20, 1
   5              		.eabi_attribute 21, 1
   6              		.eabi_attribute 23, 3
   7              		.eabi_attribute 24, 1
   8              		.eabi_attribute 25, 1
   9              		.eabi_attribute 26, 1
  10              		.eabi_attribute 30, 1
  11              		.eabi_attribute 34, 0
  12              		.eabi_attribute 18, 4
  13              		.thumb
  14              		.syntax unified
  15              		.file	"CapSense_BIST.c"
  16              		.text
  17              	.Ltext0:
  18              		.cfi_sections	.debug_frame
  19              		.section	.text.CapSense_ConnectElectrode,"ax",%progbits
  20              		.align	2
  21              		.global	CapSense_ConnectElectrode
  22              		.code	16
  23              		.thumb_func
  24              		.type	CapSense_ConnectElectrode, %function
  25              	CapSense_ConnectElectrode:
  26              	.LFB40:
  27              		.file 1 "Generated_Source\\PSoC4\\CapSense_BIST.c"
   1:Generated_Source\PSoC4/CapSense_BIST.c **** /*******************************************************************************
   2:Generated_Source\PSoC4/CapSense_BIST.c **** * File Name: CapSense_BIST.c
   3:Generated_Source\PSoC4/CapSense_BIST.c **** * Version 2.60
   4:Generated_Source\PSoC4/CapSense_BIST.c **** *
   5:Generated_Source\PSoC4/CapSense_BIST.c **** * Description:
   6:Generated_Source\PSoC4/CapSense_BIST.c **** *  This file provides the source code for the Built In Self Test APIs
   7:Generated_Source\PSoC4/CapSense_BIST.c **** *  for the CapSesne CSD component.
   8:Generated_Source\PSoC4/CapSense_BIST.c **** *
   9:Generated_Source\PSoC4/CapSense_BIST.c **** * Note:
  10:Generated_Source\PSoC4/CapSense_BIST.c **** *
  11:Generated_Source\PSoC4/CapSense_BIST.c **** ********************************************************************************
  12:Generated_Source\PSoC4/CapSense_BIST.c **** * Copyright 2014-2016, Cypress Semiconductor Corporation.  All rights reserved.
  13:Generated_Source\PSoC4/CapSense_BIST.c **** * You may use this file only in accordance with the license, terms, conditions,
  14:Generated_Source\PSoC4/CapSense_BIST.c **** * disclaimers, and limitations in the end user license agreement accompanying
  15:Generated_Source\PSoC4/CapSense_BIST.c **** * the software package with which this file was provided.
  16:Generated_Source\PSoC4/CapSense_BIST.c **** *******************************************************************************/
  17:Generated_Source\PSoC4/CapSense_BIST.c **** 
  18:Generated_Source\PSoC4/CapSense_BIST.c **** #include "CapSense_BIST.h"
  19:Generated_Source\PSoC4/CapSense_BIST.c **** #include "CapSense_PVT.h"
  20:Generated_Source\PSoC4/CapSense_BIST.c **** 
  21:Generated_Source\PSoC4/CapSense_BIST.c **** 
  22:Generated_Source\PSoC4/CapSense_BIST.c **** /*******************************************************************************
  23:Generated_Source\PSoC4/CapSense_BIST.c **** * Function Name: CapSense_GetSensorCp
  24:Generated_Source\PSoC4/CapSense_BIST.c **** ********************************************************************************
  25:Generated_Source\PSoC4/CapSense_BIST.c **** *
  26:Generated_Source\PSoC4/CapSense_BIST.c **** * Summary:
  27:Generated_Source\PSoC4/CapSense_BIST.c **** *  This API implements the sensor capacitance measurement in the range from 5 pF to 200 pF.
  28:Generated_Source\PSoC4/CapSense_BIST.c **** *  This is a part of the component BIST feature.
  29:Generated_Source\PSoC4/CapSense_BIST.c **** *
  30:Generated_Source\PSoC4/CapSense_BIST.c **** * Parameters:
ARM GAS  C:\Users\ELEASO~1\AppData\Local\Temp\cc1bKQei.s 			page 2


  31:Generated_Source\PSoC4/CapSense_BIST.c **** *  sensor: Sensor index.
  32:Generated_Source\PSoC4/CapSense_BIST.c **** *
  33:Generated_Source\PSoC4/CapSense_BIST.c **** * Return Value:
  34:Generated_Source\PSoC4/CapSense_BIST.c **** *  This API returns the Sensor parasitic capacitance (Cp) of the sensor indicated
  35:Generated_Source\PSoC4/CapSense_BIST.c **** *  as an argument. The unit of the sensor Cp value is pico-farads.
  36:Generated_Source\PSoC4/CapSense_BIST.c **** *
  37:Generated_Source\PSoC4/CapSense_BIST.c **** * Global Variables:
  38:Generated_Source\PSoC4/CapSense_BIST.c **** *  None
  39:Generated_Source\PSoC4/CapSense_BIST.c **** *
  40:Generated_Source\PSoC4/CapSense_BIST.c **** * Side Effects:
  41:Generated_Source\PSoC4/CapSense_BIST.c **** *  None
  42:Generated_Source\PSoC4/CapSense_BIST.c **** *
  43:Generated_Source\PSoC4/CapSense_BIST.c **** *******************************************************************************/
  44:Generated_Source\PSoC4/CapSense_BIST.c **** uint32 CapSense_GetSensorCp(uint32 sensor)
  45:Generated_Source\PSoC4/CapSense_BIST.c **** {
  46:Generated_Source\PSoC4/CapSense_BIST.c ****     uint32 result;
  47:Generated_Source\PSoC4/CapSense_BIST.c ****     CapSense_CP_MEASURE_CONFIG CapSense_cpMeasureCfg;
  48:Generated_Source\PSoC4/CapSense_BIST.c **** 
  49:Generated_Source\PSoC4/CapSense_BIST.c ****     #if (CapSense_IS_COMPLEX_SCANSLOTS)
  50:Generated_Source\PSoC4/CapSense_BIST.c ****         CapSense_cpMeasureCfg.sensor  = (uint8)sensor;
  51:Generated_Source\PSoC4/CapSense_BIST.c ****     #endif  /* End CapSense_IS_COMPLEX_SCANSLOTS */
  52:Generated_Source\PSoC4/CapSense_BIST.c ****     CapSense_cpMeasureCfg.pinNumber  = CapSense_pinShiftTbl[sensor];
  53:Generated_Source\PSoC4/CapSense_BIST.c ****     CapSense_cpMeasureCfg.portNumber = CapSense_portTable[sensor];
  54:Generated_Source\PSoC4/CapSense_BIST.c ****     CapSense_cpMeasureCfg.senseClkDiv   = CapSense_SENSE_CLK_DIV_MIN >> 1u;
  55:Generated_Source\PSoC4/CapSense_BIST.c ****     CapSense_cpMeasureCfg.sampleClkDiv  = CapSense_SAMPLE_CLK_DIV;
  56:Generated_Source\PSoC4/CapSense_BIST.c ****     CapSense_cpMeasureCfg.avgSamplesNum    = CapSense_AVG_SAMPLES_NUM;
  57:Generated_Source\PSoC4/CapSense_BIST.c ****     CapSense_cpMeasureCfg.calibrationCount = (uint16)CapSense_CALIBRATION_COUNT;
  58:Generated_Source\PSoC4/CapSense_BIST.c ****     CapSense_cpMeasureCfg.scanResolution   = CapSense_SCANNING_RESOLUTION;
  59:Generated_Source\PSoC4/CapSense_BIST.c **** 
  60:Generated_Source\PSoC4/CapSense_BIST.c ****     result = CapSense_GetLowCp(&CapSense_cpMeasureCfg);
  61:Generated_Source\PSoC4/CapSense_BIST.c **** 
  62:Generated_Source\PSoC4/CapSense_BIST.c ****     return(result);
  63:Generated_Source\PSoC4/CapSense_BIST.c **** }
  64:Generated_Source\PSoC4/CapSense_BIST.c **** 
  65:Generated_Source\PSoC4/CapSense_BIST.c **** 
  66:Generated_Source\PSoC4/CapSense_BIST.c **** /*******************************************************************************
  67:Generated_Source\PSoC4/CapSense_BIST.c **** * Function Name: CapSense_MeasureCmod
  68:Generated_Source\PSoC4/CapSense_BIST.c **** ********************************************************************************
  69:Generated_Source\PSoC4/CapSense_BIST.c **** *
  70:Generated_Source\PSoC4/CapSense_BIST.c **** * Summary:
  71:Generated_Source\PSoC4/CapSense_BIST.c **** *  This API measures the CMOD external capacitor value in pF in the range from
  72:Generated_Source\PSoC4/CapSense_BIST.c **** *  100pF to 40000 pF.
  73:Generated_Source\PSoC4/CapSense_BIST.c **** *
  74:Generated_Source\PSoC4/CapSense_BIST.c **** * Parameters:
  75:Generated_Source\PSoC4/CapSense_BIST.c **** *  value: Return measured CMOD in pico-farads.
  76:Generated_Source\PSoC4/CapSense_BIST.c **** *
  77:Generated_Source\PSoC4/CapSense_BIST.c **** * Return Value:
  78:Generated_Source\PSoC4/CapSense_BIST.c **** *  None
  79:Generated_Source\PSoC4/CapSense_BIST.c **** *
  80:Generated_Source\PSoC4/CapSense_BIST.c **** * Global Variables:
  81:Generated_Source\PSoC4/CapSense_BIST.c **** *  None
  82:Generated_Source\PSoC4/CapSense_BIST.c **** *
  83:Generated_Source\PSoC4/CapSense_BIST.c **** * Side Effects:
  84:Generated_Source\PSoC4/CapSense_BIST.c **** *  None
  85:Generated_Source\PSoC4/CapSense_BIST.c **** *
  86:Generated_Source\PSoC4/CapSense_BIST.c **** *******************************************************************************/
  87:Generated_Source\PSoC4/CapSense_BIST.c **** uint32 CapSense_MeasureCmod(void)
ARM GAS  C:\Users\ELEASO~1\AppData\Local\Temp\cc1bKQei.s 			page 3


  88:Generated_Source\PSoC4/CapSense_BIST.c **** {
  89:Generated_Source\PSoC4/CapSense_BIST.c ****     uint32 result;
  90:Generated_Source\PSoC4/CapSense_BIST.c ****     uint32 hsiomConfigBackup;
  91:Generated_Source\PSoC4/CapSense_BIST.c ****     uint32 gpioConfigBackup;
  92:Generated_Source\PSoC4/CapSense_BIST.c **** 
  93:Generated_Source\PSoC4/CapSense_BIST.c ****     CapSense_CP_MEASURE_CONFIG CapSense_cpMeasureCfg;
  94:Generated_Source\PSoC4/CapSense_BIST.c **** 
  95:Generated_Source\PSoC4/CapSense_BIST.c ****     hsiomConfigBackup = CapSense_CMOD_CONNECTION_REG & CapSense_CSD_CMOD_CONNECTION_MASK;
  96:Generated_Source\PSoC4/CapSense_BIST.c ****     gpioConfigBackup  = CapSense_CMOD_PORT_PC_REG & CapSense_CSD_CMOD_PC_MASK;
  97:Generated_Source\PSoC4/CapSense_BIST.c **** 
  98:Generated_Source\PSoC4/CapSense_BIST.c ****     #if (CapSense_IS_COMPLEX_SCANSLOTS)
  99:Generated_Source\PSoC4/CapSense_BIST.c ****         CapSense_cpMeasureCfg.sensor             = 0u;
 100:Generated_Source\PSoC4/CapSense_BIST.c ****     #endif  /* End CapSense_IS_COMPLEX_SCANSLOTS */
 101:Generated_Source\PSoC4/CapSense_BIST.c ****     CapSense_cpMeasureCfg.pinNumber        = (uint8)CapSense_CMOD_PIN_NUMBER;
 102:Generated_Source\PSoC4/CapSense_BIST.c ****     CapSense_cpMeasureCfg.portNumber       = CapSense_CMOD_PRT_NUMBER;
 103:Generated_Source\PSoC4/CapSense_BIST.c ****     CapSense_cpMeasureCfg.idacValue        = CapSense_CMOD_MEASURE_IDAC_VAL;
 104:Generated_Source\PSoC4/CapSense_BIST.c ****     CapSense_cpMeasureCfg.senseClkDiv      = CapSense_CMOD_MEASURE_SENSE_CLK_DIV;
 105:Generated_Source\PSoC4/CapSense_BIST.c ****     CapSense_cpMeasureCfg.sampleClkDiv     = CapSense_CMOD_MEASURE_SAMPLE_CLK_DIV;
 106:Generated_Source\PSoC4/CapSense_BIST.c ****     CapSense_cpMeasureCfg.avgSamplesNum    = CapSense_CMOD_MEASURE_AVG_SAMPLES_NUM;
 107:Generated_Source\PSoC4/CapSense_BIST.c ****     CapSense_cpMeasureCfg.scanResolution   = CapSense_CMOD_MEASURE_RES;
 108:Generated_Source\PSoC4/CapSense_BIST.c **** 
 109:Generated_Source\PSoC4/CapSense_BIST.c ****     result = CapSense_GetHighCp(&CapSense_cpMeasureCfg);
 110:Generated_Source\PSoC4/CapSense_BIST.c **** 
 111:Generated_Source\PSoC4/CapSense_BIST.c ****     CapSense_CMOD_CONNECTION_REG &= ~(CapSense_CSD_CMOD_CONNECTION_MASK);
 112:Generated_Source\PSoC4/CapSense_BIST.c ****     CapSense_CMOD_CONNECTION_REG |= hsiomConfigBackup;
 113:Generated_Source\PSoC4/CapSense_BIST.c **** 
 114:Generated_Source\PSoC4/CapSense_BIST.c ****     CapSense_CMOD_PORT_PC_REG &= ~(CapSense_CSD_CMOD_PC_MASK);
 115:Generated_Source\PSoC4/CapSense_BIST.c ****     CapSense_CMOD_PORT_PC_REG |=  (gpioConfigBackup);
 116:Generated_Source\PSoC4/CapSense_BIST.c **** 
 117:Generated_Source\PSoC4/CapSense_BIST.c **** 
 118:Generated_Source\PSoC4/CapSense_BIST.c ****     return (result);
 119:Generated_Source\PSoC4/CapSense_BIST.c **** }
 120:Generated_Source\PSoC4/CapSense_BIST.c **** 
 121:Generated_Source\PSoC4/CapSense_BIST.c **** 
 122:Generated_Source\PSoC4/CapSense_BIST.c **** #if(0u != CapSense_IS_SHIELD_ENABLE)
 123:Generated_Source\PSoC4/CapSense_BIST.c **** /*******************************************************************************
 124:Generated_Source\PSoC4/CapSense_BIST.c **** * Function Name: CapSense_MeasureCShield
 125:Generated_Source\PSoC4/CapSense_BIST.c **** ********************************************************************************
 126:Generated_Source\PSoC4/CapSense_BIST.c **** *
 127:Generated_Source\PSoC4/CapSense_BIST.c **** * Summary:
 128:Generated_Source\PSoC4/CapSense_BIST.c **** *  This API implements the shield electrode capacitance measurement in the range
 129:Generated_Source\PSoC4/CapSense_BIST.c **** *  from 5 pF to 200 pF. Returns 0 for greater capacitance values.
 130:Generated_Source\PSoC4/CapSense_BIST.c **** *  This is a part of component BIST feature.
 131:Generated_Source\PSoC4/CapSense_BIST.c **** *
 132:Generated_Source\PSoC4/CapSense_BIST.c **** * Parameters:
 133:Generated_Source\PSoC4/CapSense_BIST.c **** *  None.
 134:Generated_Source\PSoC4/CapSense_BIST.c **** *
 135:Generated_Source\PSoC4/CapSense_BIST.c **** * Return Value:
 136:Generated_Source\PSoC4/CapSense_BIST.c **** *  This API returns the shield electrode capacitance (Cp).
 137:Generated_Source\PSoC4/CapSense_BIST.c **** *  The unit of sensor Cp value is pico-farads.
 138:Generated_Source\PSoC4/CapSense_BIST.c **** *
 139:Generated_Source\PSoC4/CapSense_BIST.c **** * Global Variables:
 140:Generated_Source\PSoC4/CapSense_BIST.c **** *  None
 141:Generated_Source\PSoC4/CapSense_BIST.c **** *
 142:Generated_Source\PSoC4/CapSense_BIST.c **** * Side Effects:
 143:Generated_Source\PSoC4/CapSense_BIST.c **** *  None
 144:Generated_Source\PSoC4/CapSense_BIST.c **** *
ARM GAS  C:\Users\ELEASO~1\AppData\Local\Temp\cc1bKQei.s 			page 4


 145:Generated_Source\PSoC4/CapSense_BIST.c **** *******************************************************************************/
 146:Generated_Source\PSoC4/CapSense_BIST.c **** uint32 CapSense_MeasureCShield(void)
 147:Generated_Source\PSoC4/CapSense_BIST.c **** {
 148:Generated_Source\PSoC4/CapSense_BIST.c ****     uint32 result;
 149:Generated_Source\PSoC4/CapSense_BIST.c ****     CapSense_CP_MEASURE_CONFIG CapSense_cpMeasureCfg;
 150:Generated_Source\PSoC4/CapSense_BIST.c **** 
 151:Generated_Source\PSoC4/CapSense_BIST.c ****     CapSense_cpMeasureCfg.pinNumber  =  (uint8)CapSense_SHIELD_PIN_NUMBER;
 152:Generated_Source\PSoC4/CapSense_BIST.c ****     CapSense_cpMeasureCfg.portNumber = CapSense_SHIELD_PORT_NUMBER;
 153:Generated_Source\PSoC4/CapSense_BIST.c ****     CapSense_cpMeasureCfg.senseClkDiv   = CapSense_SENSE_CLK_DIV_MIN >> 1u;
 154:Generated_Source\PSoC4/CapSense_BIST.c ****     CapSense_cpMeasureCfg.sampleClkDiv  = CapSense_SAMPLE_CLK_DIV;
 155:Generated_Source\PSoC4/CapSense_BIST.c ****     CapSense_cpMeasureCfg.avgSamplesNum    = CapSense_AVG_SAMPLES_NUM;
 156:Generated_Source\PSoC4/CapSense_BIST.c ****     CapSense_cpMeasureCfg.calibrationCount = (uint16)CapSense_CALIBRATION_COUNT;
 157:Generated_Source\PSoC4/CapSense_BIST.c ****     CapSense_cpMeasureCfg.scanResolution   = CapSense_SCANNING_RESOLUTION;
 158:Generated_Source\PSoC4/CapSense_BIST.c **** 
 159:Generated_Source\PSoC4/CapSense_BIST.c ****     result = CapSense_GetLowCp(&CapSense_cpMeasureCfg);
 160:Generated_Source\PSoC4/CapSense_BIST.c **** 
 161:Generated_Source\PSoC4/CapSense_BIST.c ****     return(result);
 162:Generated_Source\PSoC4/CapSense_BIST.c **** }
 163:Generated_Source\PSoC4/CapSense_BIST.c **** 
 164:Generated_Source\PSoC4/CapSense_BIST.c **** 
 165:Generated_Source\PSoC4/CapSense_BIST.c **** #if(0u != CapSense_CSH_TANK_ENABLE)
 166:Generated_Source\PSoC4/CapSense_BIST.c ****     /*******************************************************************************
 167:Generated_Source\PSoC4/CapSense_BIST.c ****     * Function Name: CapSense_MeasureCShieldTank
 168:Generated_Source\PSoC4/CapSense_BIST.c ****     ********************************************************************************
 169:Generated_Source\PSoC4/CapSense_BIST.c ****     *
 170:Generated_Source\PSoC4/CapSense_BIST.c ****     * Summary:
 171:Generated_Source\PSoC4/CapSense_BIST.c ****     *  This API measures the CTANK external capacitor value in pF in the range from
 172:Generated_Source\PSoC4/CapSense_BIST.c ****     *  100pF to 40000 pF.
 173:Generated_Source\PSoC4/CapSense_BIST.c ****     *
 174:Generated_Source\PSoC4/CapSense_BIST.c ****     * Parameters:
 175:Generated_Source\PSoC4/CapSense_BIST.c ****     *  value: Returns measured CTANK in pico-farads.
 176:Generated_Source\PSoC4/CapSense_BIST.c ****     *
 177:Generated_Source\PSoC4/CapSense_BIST.c ****     * Return Value:
 178:Generated_Source\PSoC4/CapSense_BIST.c ****     *  None
 179:Generated_Source\PSoC4/CapSense_BIST.c ****     *
 180:Generated_Source\PSoC4/CapSense_BIST.c ****     * Global Variables:
 181:Generated_Source\PSoC4/CapSense_BIST.c ****     *  None
 182:Generated_Source\PSoC4/CapSense_BIST.c ****     *
 183:Generated_Source\PSoC4/CapSense_BIST.c ****     * Side Effects:
 184:Generated_Source\PSoC4/CapSense_BIST.c ****     *  None
 185:Generated_Source\PSoC4/CapSense_BIST.c ****     *
 186:Generated_Source\PSoC4/CapSense_BIST.c ****     *******************************************************************************/
 187:Generated_Source\PSoC4/CapSense_BIST.c ****     uint32 CapSense_MeasureCShieldTank(void)
 188:Generated_Source\PSoC4/CapSense_BIST.c ****     {
 189:Generated_Source\PSoC4/CapSense_BIST.c ****         uint32 result;
 190:Generated_Source\PSoC4/CapSense_BIST.c ****         uint32 hsiomConfigBackup;
 191:Generated_Source\PSoC4/CapSense_BIST.c ****         uint32 gpioConfigBackup;
 192:Generated_Source\PSoC4/CapSense_BIST.c **** 
 193:Generated_Source\PSoC4/CapSense_BIST.c ****         CapSense_CP_MEASURE_CONFIG CapSense_cpMeasureCfg;
 194:Generated_Source\PSoC4/CapSense_BIST.c **** 
 195:Generated_Source\PSoC4/CapSense_BIST.c ****         hsiomConfigBackup = CapSense_CTANK_CONNECTION_REG & CapSense_CSD_CTANK_CONNECTION_MASK;
 196:Generated_Source\PSoC4/CapSense_BIST.c ****         gpioConfigBackup  = CapSense_CTANK_PORT_PC_REG & CapSense_CSD_CTANK_PC_MASK;
 197:Generated_Source\PSoC4/CapSense_BIST.c **** 
 198:Generated_Source\PSoC4/CapSense_BIST.c ****         CapSense_cpMeasureCfg.pinNumber        = (uint8)CapSense_CTANK_PIN_NUMBER;
 199:Generated_Source\PSoC4/CapSense_BIST.c ****         CapSense_cpMeasureCfg.portNumber       = CapSense_CTANK_PRT_NUMBER;
 200:Generated_Source\PSoC4/CapSense_BIST.c ****         CapSense_cpMeasureCfg.idacValue        = CapSense_CTANK_MEASURE_IDAC_VAL;
 201:Generated_Source\PSoC4/CapSense_BIST.c ****         CapSense_cpMeasureCfg.senseClkDiv      = CapSense_CTANK_MEASURE_SENSE_CLK_DIV;
ARM GAS  C:\Users\ELEASO~1\AppData\Local\Temp\cc1bKQei.s 			page 5


 202:Generated_Source\PSoC4/CapSense_BIST.c ****         CapSense_cpMeasureCfg.sampleClkDiv     = CapSense_CTANK_MEASURE_SAMPLE_CLK_DIV;
 203:Generated_Source\PSoC4/CapSense_BIST.c ****         CapSense_cpMeasureCfg.avgSamplesNum    = CapSense_CTANK_MEASURE_AVG_SAMPLES_NUM;
 204:Generated_Source\PSoC4/CapSense_BIST.c ****         CapSense_cpMeasureCfg.scanResolution   = CapSense_CTANK_MEASURE_RES;
 205:Generated_Source\PSoC4/CapSense_BIST.c **** 
 206:Generated_Source\PSoC4/CapSense_BIST.c ****         result = CapSense_GetHighCp(&CapSense_cpMeasureCfg);
 207:Generated_Source\PSoC4/CapSense_BIST.c **** 
 208:Generated_Source\PSoC4/CapSense_BIST.c ****         CapSense_CTANK_CONNECTION_REG &= ~(CapSense_CSD_CTANK_CONNECTION_MASK);
 209:Generated_Source\PSoC4/CapSense_BIST.c ****         CapSense_CTANK_CONNECTION_REG |= hsiomConfigBackup;
 210:Generated_Source\PSoC4/CapSense_BIST.c **** 
 211:Generated_Source\PSoC4/CapSense_BIST.c ****         CapSense_CTANK_PORT_PC_REG &= ~(CapSense_CSD_CTANK_PC_MASK);
 212:Generated_Source\PSoC4/CapSense_BIST.c ****         CapSense_CTANK_PORT_PC_REG |=  (gpioConfigBackup);
 213:Generated_Source\PSoC4/CapSense_BIST.c **** 
 214:Generated_Source\PSoC4/CapSense_BIST.c ****         return (result);
 215:Generated_Source\PSoC4/CapSense_BIST.c ****     }
 216:Generated_Source\PSoC4/CapSense_BIST.c **** #endif /* (0u != CapSense_CSH_TANK_ENABLE) */
 217:Generated_Source\PSoC4/CapSense_BIST.c **** 
 218:Generated_Source\PSoC4/CapSense_BIST.c **** #endif /* (0u != CapSense_IS_SHIELD_ENABLE) */
 219:Generated_Source\PSoC4/CapSense_BIST.c **** 
 220:Generated_Source\PSoC4/CapSense_BIST.c **** 
 221:Generated_Source\PSoC4/CapSense_BIST.c **** /*******************************************************************************
 222:Generated_Source\PSoC4/CapSense_BIST.c **** * Function Name: CapSense_GetLowCp
 223:Generated_Source\PSoC4/CapSense_BIST.c **** ********************************************************************************
 224:Generated_Source\PSoC4/CapSense_BIST.c **** *
 225:Generated_Source\PSoC4/CapSense_BIST.c **** * Summary:
 226:Generated_Source\PSoC4/CapSense_BIST.c **** *  This is internal API function intended to measurement capacitance of electrode
 227:Generated_Source\PSoC4/CapSense_BIST.c **** *  that is connected to the port/pin indicated as argument.
 228:Generated_Source\PSoC4/CapSense_BIST.c **** *  This is part of BIST feature of component.
 229:Generated_Source\PSoC4/CapSense_BIST.c **** *
 230:Generated_Source\PSoC4/CapSense_BIST.c **** * Parameters:
 231:Generated_Source\PSoC4/CapSense_BIST.c **** *  None.
 232:Generated_Source\PSoC4/CapSense_BIST.c **** *
 233:Generated_Source\PSoC4/CapSense_BIST.c **** * Return Value:
 234:Generated_Source\PSoC4/CapSense_BIST.c **** *  This API returns the electrode capacitance (Cp).
 235:Generated_Source\PSoC4/CapSense_BIST.c **** *  The unit of sensor Cp value is pico-farads.
 236:Generated_Source\PSoC4/CapSense_BIST.c **** *
 237:Generated_Source\PSoC4/CapSense_BIST.c **** * Global Variables:
 238:Generated_Source\PSoC4/CapSense_BIST.c **** *  None
 239:Generated_Source\PSoC4/CapSense_BIST.c **** *
 240:Generated_Source\PSoC4/CapSense_BIST.c **** * Side Effects:
 241:Generated_Source\PSoC4/CapSense_BIST.c **** *  None
 242:Generated_Source\PSoC4/CapSense_BIST.c **** *
 243:Generated_Source\PSoC4/CapSense_BIST.c **** *******************************************************************************/
 244:Generated_Source\PSoC4/CapSense_BIST.c **** uint32 CapSense_GetLowCp(CapSense_CP_MEASURE_CONFIG *config)
 245:Generated_Source\PSoC4/CapSense_BIST.c **** {
 246:Generated_Source\PSoC4/CapSense_BIST.c ****     uint32 sensorCp;
 247:Generated_Source\PSoC4/CapSense_BIST.c ****     uint32 sensorRaw;
 248:Generated_Source\PSoC4/CapSense_BIST.c ****     uint32 statusVar;
 249:Generated_Source\PSoC4/CapSense_BIST.c ****     uint32 interruptState;
 250:Generated_Source\PSoC4/CapSense_BIST.c ****     uint32 idacRegisterValue;
 251:Generated_Source\PSoC4/CapSense_BIST.c ****     uint32 newRegisterValue;
 252:Generated_Source\PSoC4/CapSense_BIST.c **** 
 253:Generated_Source\PSoC4/CapSense_BIST.c ****     newRegisterValue  = CapSense_CSD_TRIM1_REG;
 254:Generated_Source\PSoC4/CapSense_BIST.c ****     newRegisterValue &= CapSense_CSD_IDAC1_TRIM_MASK;
 255:Generated_Source\PSoC4/CapSense_BIST.c ****     newRegisterValue |= ((uint32)CapSense_SFLASH_CSD_TRIM1_REG &
 256:Generated_Source\PSoC4/CapSense_BIST.c ****                         (uint32)CapSense_CSFLASH_TRIM_IDAC1_MASK);
 257:Generated_Source\PSoC4/CapSense_BIST.c ****     CapSense_CSD_TRIM1_REG = newRegisterValue;
 258:Generated_Source\PSoC4/CapSense_BIST.c **** 
ARM GAS  C:\Users\ELEASO~1\AppData\Local\Temp\cc1bKQei.s 			page 6


 259:Generated_Source\PSoC4/CapSense_BIST.c ****     interruptState = CyIntGetState(CapSense_ISR_NUMBER);
 260:Generated_Source\PSoC4/CapSense_BIST.c ****     CyIntDisable(CapSense_ISR_NUMBER);
 261:Generated_Source\PSoC4/CapSense_BIST.c **** 
 262:Generated_Source\PSoC4/CapSense_BIST.c ****     /* Save CSD_IDAC_REG value  */
 263:Generated_Source\PSoC4/CapSense_BIST.c ****     idacRegisterValue = CapSense_CSD_IDAC_REG;
 264:Generated_Source\PSoC4/CapSense_BIST.c **** 
 265:Generated_Source\PSoC4/CapSense_BIST.c ****     newRegisterValue = CapSense_CSD_IDAC_REG;
 266:Generated_Source\PSoC4/CapSense_BIST.c ****     #if(CapSense_IDAC_CNT > 1u)
 267:Generated_Source\PSoC4/CapSense_BIST.c ****         newRegisterValue &= ~(CapSense_CSD_IDAC2_MODE_MASK | CapSense_CSD_IDAC1_MODE_MASK |
 268:Generated_Source\PSoC4/CapSense_BIST.c ****                               CapSense_CSD_IDAC2_RANGE_8X | CapSense_CSD_IDAC1_RANGE_8X);
 269:Generated_Source\PSoC4/CapSense_BIST.c ****     #else
 270:Generated_Source\PSoC4/CapSense_BIST.c ****         newRegisterValue &= ~(CapSense_CSD_IDAC1_MODE_MASK | CapSense_CSD_IDAC1_RANGE_8X);
 271:Generated_Source\PSoC4/CapSense_BIST.c ****     #endif /* (CapSense_IDAC_CNT > 1u) */
 272:Generated_Source\PSoC4/CapSense_BIST.c ****     CapSense_CSD_IDAC_REG = newRegisterValue | CapSense_CSD_IDAC1_MODE_VARIABLE;
 273:Generated_Source\PSoC4/CapSense_BIST.c **** 
 274:Generated_Source\PSoC4/CapSense_BIST.c ****     do
 275:Generated_Source\PSoC4/CapSense_BIST.c ****     {
 276:Generated_Source\PSoC4/CapSense_BIST.c ****         do
 277:Generated_Source\PSoC4/CapSense_BIST.c ****         {
 278:Generated_Source\PSoC4/CapSense_BIST.c ****             config->senseClkDiv <<= 1u;
 279:Generated_Source\PSoC4/CapSense_BIST.c ****             statusVar = CapSense_CalibrateIDAC(config);
 280:Generated_Source\PSoC4/CapSense_BIST.c ****         }while((statusVar != CapSense_CALIBRATION_SUCCESS) && (config->senseClkDiv < CapSense_SENSE
 281:Generated_Source\PSoC4/CapSense_BIST.c **** 
 282:Generated_Source\PSoC4/CapSense_BIST.c ****         config->idacValue >>= 1u;
 283:Generated_Source\PSoC4/CapSense_BIST.c **** 
 284:Generated_Source\PSoC4/CapSense_BIST.c ****         /*  Calculate Cp in pF  */
 285:Generated_Source\PSoC4/CapSense_BIST.c ****         sensorRaw = CapSense_ScanSensorCp(config);
 286:Generated_Source\PSoC4/CapSense_BIST.c **** 
 287:Generated_Source\PSoC4/CapSense_BIST.c ****         if((sensorRaw > (uint32)CapSense_CHARGE_VALIDATION_ERROR_TOP) ||
 288:Generated_Source\PSoC4/CapSense_BIST.c ****             (sensorRaw < (uint32)CapSense_CHARGE_VALIDATION_ERROR_BOT))
 289:Generated_Source\PSoC4/CapSense_BIST.c ****         {
 290:Generated_Source\PSoC4/CapSense_BIST.c ****             statusVar = CapSense_VALIDATION_FAIL;
 291:Generated_Source\PSoC4/CapSense_BIST.c ****         }
 292:Generated_Source\PSoC4/CapSense_BIST.c ****         else
 293:Generated_Source\PSoC4/CapSense_BIST.c ****         {
 294:Generated_Source\PSoC4/CapSense_BIST.c ****             statusVar = CapSense_VALIDATION_SUCCESS;
 295:Generated_Source\PSoC4/CapSense_BIST.c ****         }
 296:Generated_Source\PSoC4/CapSense_BIST.c ****     }
 297:Generated_Source\PSoC4/CapSense_BIST.c ****     while((statusVar != CapSense_VALIDATION_SUCCESS) && (config->senseClkDiv < CapSense_SENSE_CLK_D
 298:Generated_Source\PSoC4/CapSense_BIST.c **** 
 299:Generated_Source\PSoC4/CapSense_BIST.c ****     sensorCp = (sensorRaw * config->senseClkDiv * config->idacValue) / CapSense_SENSITIVITY_COEFFIC
 300:Generated_Source\PSoC4/CapSense_BIST.c ****     if(sensorCp >= (CapSense_CP_MEASURE_MAX_VAL))
 301:Generated_Source\PSoC4/CapSense_BIST.c ****     {
 302:Generated_Source\PSoC4/CapSense_BIST.c ****         sensorCp = 0u;
 303:Generated_Source\PSoC4/CapSense_BIST.c ****     }
 304:Generated_Source\PSoC4/CapSense_BIST.c **** 
 305:Generated_Source\PSoC4/CapSense_BIST.c ****     /* Restore CSD_IDAC_REG value */
 306:Generated_Source\PSoC4/CapSense_BIST.c ****     CapSense_CSD_IDAC_REG = idacRegisterValue;
 307:Generated_Source\PSoC4/CapSense_BIST.c **** 
 308:Generated_Source\PSoC4/CapSense_BIST.c ****     if(0u != interruptState)
 309:Generated_Source\PSoC4/CapSense_BIST.c ****     {
 310:Generated_Source\PSoC4/CapSense_BIST.c ****         CyIntEnable(CapSense_ISR_NUMBER);
 311:Generated_Source\PSoC4/CapSense_BIST.c ****     }
 312:Generated_Source\PSoC4/CapSense_BIST.c **** 
 313:Generated_Source\PSoC4/CapSense_BIST.c ****     return (sensorCp);
 314:Generated_Source\PSoC4/CapSense_BIST.c **** }
 315:Generated_Source\PSoC4/CapSense_BIST.c **** 
ARM GAS  C:\Users\ELEASO~1\AppData\Local\Temp\cc1bKQei.s 			page 7


 316:Generated_Source\PSoC4/CapSense_BIST.c **** 
 317:Generated_Source\PSoC4/CapSense_BIST.c **** /*******************************************************************************
 318:Generated_Source\PSoC4/CapSense_BIST.c **** * Function Name: CapSense_GetHighCp
 319:Generated_Source\PSoC4/CapSense_BIST.c **** ********************************************************************************
 320:Generated_Source\PSoC4/CapSense_BIST.c **** *
 321:Generated_Source\PSoC4/CapSense_BIST.c **** * Summary:
 322:Generated_Source\PSoC4/CapSense_BIST.c **** *  This is internal API function intended to measurement capacitance of capacitor
 323:Generated_Source\PSoC4/CapSense_BIST.c **** *  that is connected to the port/pin indicated as argument.
 324:Generated_Source\PSoC4/CapSense_BIST.c **** *  This is part of BIST feature of component.
 325:Generated_Source\PSoC4/CapSense_BIST.c **** *
 326:Generated_Source\PSoC4/CapSense_BIST.c **** * Parameters:
 327:Generated_Source\PSoC4/CapSense_BIST.c **** *  None.
 328:Generated_Source\PSoC4/CapSense_BIST.c **** *
 329:Generated_Source\PSoC4/CapSense_BIST.c **** * Return Value:
 330:Generated_Source\PSoC4/CapSense_BIST.c **** *  This API returns the electrode capacitance (Cp).
 331:Generated_Source\PSoC4/CapSense_BIST.c **** *  The unit of sensor Cp value is pico-farads.
 332:Generated_Source\PSoC4/CapSense_BIST.c **** *
 333:Generated_Source\PSoC4/CapSense_BIST.c **** * Global Variables:
 334:Generated_Source\PSoC4/CapSense_BIST.c **** *  None
 335:Generated_Source\PSoC4/CapSense_BIST.c **** *
 336:Generated_Source\PSoC4/CapSense_BIST.c **** * Side Effects:
 337:Generated_Source\PSoC4/CapSense_BIST.c **** *  CSD component should be stopped before calling this API.
 338:Generated_Source\PSoC4/CapSense_BIST.c **** *
 339:Generated_Source\PSoC4/CapSense_BIST.c **** *******************************************************************************/
 340:Generated_Source\PSoC4/CapSense_BIST.c **** uint32 CapSense_GetHighCp(const CapSense_CP_MEASURE_CONFIG *config)
 341:Generated_Source\PSoC4/CapSense_BIST.c **** {
 342:Generated_Source\PSoC4/CapSense_BIST.c ****     uint32 csdConfigBackup;
 343:Generated_Source\PSoC4/CapSense_BIST.c ****     uint32 idacConfigBackup;
 344:Generated_Source\PSoC4/CapSense_BIST.c ****     uint32 curSample;
 345:Generated_Source\PSoC4/CapSense_BIST.c ****     uint32 tmpResult;
 346:Generated_Source\PSoC4/CapSense_BIST.c ****     uint32 newRegisterValue;
 347:Generated_Source\PSoC4/CapSense_BIST.c **** 
 348:Generated_Source\PSoC4/CapSense_BIST.c ****     uint8 interruptState;
 349:Generated_Source\PSoC4/CapSense_BIST.c **** 
 350:Generated_Source\PSoC4/CapSense_BIST.c ****     newRegisterValue  = CapSense_CSD_TRIM1_REG;
 351:Generated_Source\PSoC4/CapSense_BIST.c ****     newRegisterValue &= CapSense_CSD_IDAC1_TRIM_MASK;
 352:Generated_Source\PSoC4/CapSense_BIST.c ****     newRegisterValue |= ((uint32)CapSense_SFLASH_CSD_TRIM1_REG &\
 353:Generated_Source\PSoC4/CapSense_BIST.c ****                          (uint32)CapSense_CSFLASH_TRIM_IDAC1_MASK);
 354:Generated_Source\PSoC4/CapSense_BIST.c ****     CapSense_CSD_TRIM1_REG = newRegisterValue;
 355:Generated_Source\PSoC4/CapSense_BIST.c **** 
 356:Generated_Source\PSoC4/CapSense_BIST.c ****     CapSense_SenseClk_Stop();
 357:Generated_Source\PSoC4/CapSense_BIST.c ****     CapSense_SampleClk_Stop();
 358:Generated_Source\PSoC4/CapSense_BIST.c **** 
 359:Generated_Source\PSoC4/CapSense_BIST.c ****     /* Set clocks */
 360:Generated_Source\PSoC4/CapSense_BIST.c ****     CapSense_SenseClk_SetDividerValue(config->senseClkDiv);
 361:Generated_Source\PSoC4/CapSense_BIST.c ****     CapSense_SampleClk_SetDividerValue(config->sampleClkDiv);
 362:Generated_Source\PSoC4/CapSense_BIST.c **** 
 363:Generated_Source\PSoC4/CapSense_BIST.c ****     /* Enable Clocks */
 364:Generated_Source\PSoC4/CapSense_BIST.c ****     #if (0u == CapSense_IS_M0S8PERI_BLOCK)
 365:Generated_Source\PSoC4/CapSense_BIST.c ****         CapSense_SenseClk_Start();
 366:Generated_Source\PSoC4/CapSense_BIST.c ****         CapSense_SampleClk_Start();
 367:Generated_Source\PSoC4/CapSense_BIST.c ****     #else
 368:Generated_Source\PSoC4/CapSense_BIST.c ****         CapSense_SampleClk_Start();
 369:Generated_Source\PSoC4/CapSense_BIST.c ****         CapSense_SenseClk_StartEx(CapSense_SampleClk__DIV_ID);
 370:Generated_Source\PSoC4/CapSense_BIST.c ****     #endif /* (0u == CapSense_IS_M0S8PERI_BLOCK) */
 371:Generated_Source\PSoC4/CapSense_BIST.c **** 
 372:Generated_Source\PSoC4/CapSense_BIST.c ****     /* Backup the configuration registers */
ARM GAS  C:\Users\ELEASO~1\AppData\Local\Temp\cc1bKQei.s 			page 8


 373:Generated_Source\PSoC4/CapSense_BIST.c ****     csdConfigBackup = CapSense_CSD_CFG_REG;
 374:Generated_Source\PSoC4/CapSense_BIST.c ****     idacConfigBackup = CapSense_CSD_IDAC_REG & CapSense_IDAC1_CONFIG_MASK;
 375:Generated_Source\PSoC4/CapSense_BIST.c **** 
 376:Generated_Source\PSoC4/CapSense_BIST.c ****     interruptState = CyEnterCriticalSection();
 377:Generated_Source\PSoC4/CapSense_BIST.c **** 
 378:Generated_Source\PSoC4/CapSense_BIST.c ****     CapSense_ConnectElectrode((uint32)config->pinNumber, (uint32)config->portNumber);
 379:Generated_Source\PSoC4/CapSense_BIST.c **** 
 380:Generated_Source\PSoC4/CapSense_BIST.c ****     CapSense_CSD_CFG_REG  = CapSense_HIGH_CP_MEASURE_CSD_CONFIG;
 381:Generated_Source\PSoC4/CapSense_BIST.c **** 
 382:Generated_Source\PSoC4/CapSense_BIST.c ****     CapSense_CSD_IDAC_REG &= ~(CapSense_IDAC1_CONFIG_MASK);
 383:Generated_Source\PSoC4/CapSense_BIST.c ****     CapSense_CSD_IDAC_REG |= (CapSense_HIGH_CP_MEASURE_IDAC_CONFIG | (uint32)config->idacValue);
 384:Generated_Source\PSoC4/CapSense_BIST.c **** 
 385:Generated_Source\PSoC4/CapSense_BIST.c ****     CyExitCriticalSection(interruptState);
 386:Generated_Source\PSoC4/CapSense_BIST.c **** 
 387:Generated_Source\PSoC4/CapSense_BIST.c ****     tmpResult = 0u;
 388:Generated_Source\PSoC4/CapSense_BIST.c ****     interruptState = CyIntGetState(CapSense_ISR_NUMBER);
 389:Generated_Source\PSoC4/CapSense_BIST.c ****     CyIntDisable(CapSense_ISR_NUMBER);
 390:Generated_Source\PSoC4/CapSense_BIST.c **** 
 391:Generated_Source\PSoC4/CapSense_BIST.c ****     /* Scan avgSamples times */
 392:Generated_Source\PSoC4/CapSense_BIST.c ****     for(curSample = 0u; curSample < config->avgSamplesNum; curSample++)
 393:Generated_Source\PSoC4/CapSense_BIST.c ****     {
 394:Generated_Source\PSoC4/CapSense_BIST.c ****         CapSense_CSD_CNT_REG = config->scanResolution;
 395:Generated_Source\PSoC4/CapSense_BIST.c ****         while(0u != (CapSense_CSD_CNT_REG & CapSense_RESOLUTION_16_BITS))
 396:Generated_Source\PSoC4/CapSense_BIST.c ****         {
 397:Generated_Source\PSoC4/CapSense_BIST.c **** 
 398:Generated_Source\PSoC4/CapSense_BIST.c ****         }
 399:Generated_Source\PSoC4/CapSense_BIST.c **** 
 400:Generated_Source\PSoC4/CapSense_BIST.c ****         tmpResult += CapSense_CSD_CNT_REG;
 401:Generated_Source\PSoC4/CapSense_BIST.c ****     }
 402:Generated_Source\PSoC4/CapSense_BIST.c **** 
 403:Generated_Source\PSoC4/CapSense_BIST.c ****     /* Calculate Cmod value */
 404:Generated_Source\PSoC4/CapSense_BIST.c ****     tmpResult /= config->avgSamplesNum;
 405:Generated_Source\PSoC4/CapSense_BIST.c ****     tmpResult = (tmpResult * (uint32)CapSense_FULL_DIVIDER * (uint32)config->idacValue)/
 406:Generated_Source\PSoC4/CapSense_BIST.c ****                 ((uint32)CYDEV_BCLK__HFCLK__MHZ * (uint32)(config->scanResolution >> CapSense_RESOL
 407:Generated_Source\PSoC4/CapSense_BIST.c **** 
 408:Generated_Source\PSoC4/CapSense_BIST.c ****         /* Restore the registers */
 409:Generated_Source\PSoC4/CapSense_BIST.c ****     CapSense_CSD_CFG_REG = csdConfigBackup;
 410:Generated_Source\PSoC4/CapSense_BIST.c **** 
 411:Generated_Source\PSoC4/CapSense_BIST.c ****     CapSense_CSD_IDAC_REG &= ~(CapSense_IDAC1_CONFIG_MASK);
 412:Generated_Source\PSoC4/CapSense_BIST.c ****     CapSense_CSD_IDAC_REG |= idacConfigBackup;
 413:Generated_Source\PSoC4/CapSense_BIST.c **** 
 414:Generated_Source\PSoC4/CapSense_BIST.c ****     /* Restore interrupts */
 415:Generated_Source\PSoC4/CapSense_BIST.c ****     CapSense_CSD_INTR_REG = 1u;
 416:Generated_Source\PSoC4/CapSense_BIST.c ****     CyIntClearPending(CapSense_ISR_NUMBER);
 417:Generated_Source\PSoC4/CapSense_BIST.c **** 
 418:Generated_Source\PSoC4/CapSense_BIST.c ****     if(0u != interruptState)
 419:Generated_Source\PSoC4/CapSense_BIST.c ****     {
 420:Generated_Source\PSoC4/CapSense_BIST.c ****         CyIntEnable(CapSense_ISR_NUMBER);
 421:Generated_Source\PSoC4/CapSense_BIST.c ****     }
 422:Generated_Source\PSoC4/CapSense_BIST.c **** 
 423:Generated_Source\PSoC4/CapSense_BIST.c ****     CapSense_SenseClk_Stop();
 424:Generated_Source\PSoC4/CapSense_BIST.c ****     CapSense_SampleClk_Stop();
 425:Generated_Source\PSoC4/CapSense_BIST.c **** 
 426:Generated_Source\PSoC4/CapSense_BIST.c ****     return (tmpResult);
 427:Generated_Source\PSoC4/CapSense_BIST.c **** }
 428:Generated_Source\PSoC4/CapSense_BIST.c **** 
 429:Generated_Source\PSoC4/CapSense_BIST.c **** 
ARM GAS  C:\Users\ELEASO~1\AppData\Local\Temp\cc1bKQei.s 			page 9


 430:Generated_Source\PSoC4/CapSense_BIST.c **** /*******************************************************************************
 431:Generated_Source\PSoC4/CapSense_BIST.c **** * Function Name: CapSense_ScanSensorCp
 432:Generated_Source\PSoC4/CapSense_BIST.c **** ********************************************************************************
 433:Generated_Source\PSoC4/CapSense_BIST.c **** *
 434:Generated_Source\PSoC4/CapSense_BIST.c **** * Summary:
 435:Generated_Source\PSoC4/CapSense_BIST.c **** *  This function scans sensor with given idac and resolution parameters.
 436:Generated_Source\PSoC4/CapSense_BIST.c **** *
 437:Generated_Source\PSoC4/CapSense_BIST.c **** * Parameters:
 438:Generated_Source\PSoC4/CapSense_BIST.c **** *  sensor - Sensor number.
 439:Generated_Source\PSoC4/CapSense_BIST.c **** *
 440:Generated_Source\PSoC4/CapSense_BIST.c **** *  idac - Sensor's iDAC1 value
 441:Generated_Source\PSoC4/CapSense_BIST.c **** *
 442:Generated_Source\PSoC4/CapSense_BIST.c **** *  resolution - scanning resolution
 443:Generated_Source\PSoC4/CapSense_BIST.c **** *
 444:Generated_Source\PSoC4/CapSense_BIST.c **** *  avgSamples - Number of samples to average
 445:Generated_Source\PSoC4/CapSense_BIST.c **** *
 446:Generated_Source\PSoC4/CapSense_BIST.c **** * Return:
 447:Generated_Source\PSoC4/CapSense_BIST.c **** *  Returns the current raw data value for a defined sensor number.
 448:Generated_Source\PSoC4/CapSense_BIST.c **** *
 449:Generated_Source\PSoC4/CapSense_BIST.c **** * Global Variables:
 450:Generated_Source\PSoC4/CapSense_BIST.c **** *  None
 451:Generated_Source\PSoC4/CapSense_BIST.c **** *
 452:Generated_Source\PSoC4/CapSense_BIST.c **** * Side Effects:
 453:Generated_Source\PSoC4/CapSense_BIST.c **** *  None
 454:Generated_Source\PSoC4/CapSense_BIST.c **** *
 455:Generated_Source\PSoC4/CapSense_BIST.c **** *******************************************************************************/
 456:Generated_Source\PSoC4/CapSense_BIST.c **** uint16  CapSense_ScanSensorCp(const CapSense_CP_MEASURE_CONFIG *config)
 457:Generated_Source\PSoC4/CapSense_BIST.c **** {
 458:Generated_Source\PSoC4/CapSense_BIST.c ****     uint32 curSample;
 459:Generated_Source\PSoC4/CapSense_BIST.c ****     uint32 avgVal = 0u;
 460:Generated_Source\PSoC4/CapSense_BIST.c ****     uint32 watchdogCounter;
 461:Generated_Source\PSoC4/CapSense_BIST.c ****     uint32 newIdacRegisterValue;
 462:Generated_Source\PSoC4/CapSense_BIST.c ****     uint32 newConfigRegisterValue;
 463:Generated_Source\PSoC4/CapSense_BIST.c **** 
 464:Generated_Source\PSoC4/CapSense_BIST.c ****     uint16 senseClkDividerVal;
 465:Generated_Source\PSoC4/CapSense_BIST.c **** 
 466:Generated_Source\PSoC4/CapSense_BIST.c ****     #if (CapSense_IS_COMPLEX_SCANSLOTS)
 467:Generated_Source\PSoC4/CapSense_BIST.c ****         uint8 j;
 468:Generated_Source\PSoC4/CapSense_BIST.c ****         uint8 snsNumber;
 469:Generated_Source\PSoC4/CapSense_BIST.c ****         const uint8 *index;
 470:Generated_Source\PSoC4/CapSense_BIST.c ****         uint8 complexPinNumber;
 471:Generated_Source\PSoC4/CapSense_BIST.c ****         uint8 complexPortNumber;
 472:Generated_Source\PSoC4/CapSense_BIST.c ****     #endif  /* CapSense_IS_COMPLEX_SCANSLOTS */
 473:Generated_Source\PSoC4/CapSense_BIST.c **** 
 474:Generated_Source\PSoC4/CapSense_BIST.c ****     #if (0u != CapSense_IS_M0S8PERI_BLOCK)
 475:Generated_Source\PSoC4/CapSense_BIST.c ****         senseClkDividerVal = config->senseClkDiv;
 476:Generated_Source\PSoC4/CapSense_BIST.c ****     #else
 477:Generated_Source\PSoC4/CapSense_BIST.c ****         senseClkDividerVal = config->senseClkDiv / CapSense_SAMPLE_CLK_DIV;
 478:Generated_Source\PSoC4/CapSense_BIST.c ****     #endif /* (0u != CapSense_IS_M0S8PERI_BLOCK) */
 479:Generated_Source\PSoC4/CapSense_BIST.c **** 
 480:Generated_Source\PSoC4/CapSense_BIST.c ****     /* Set clocks */
 481:Generated_Source\PSoC4/CapSense_BIST.c ****     CapSense_SenseClk_SetDividerValue(senseClkDividerVal);
 482:Generated_Source\PSoC4/CapSense_BIST.c ****     CapSense_SampleClk_SetDividerValue(config->sampleClkDiv);
 483:Generated_Source\PSoC4/CapSense_BIST.c **** 
 484:Generated_Source\PSoC4/CapSense_BIST.c ****     /* Connect the Cmod to pin */
 485:Generated_Source\PSoC4/CapSense_BIST.c ****     newConfigRegisterValue = CapSense_CMOD_CONNECTION_REG;
 486:Generated_Source\PSoC4/CapSense_BIST.c ****     newConfigRegisterValue &= ~(CapSense_CSD_CMOD_CONNECTION_MASK);
ARM GAS  C:\Users\ELEASO~1\AppData\Local\Temp\cc1bKQei.s 			page 10


 487:Generated_Source\PSoC4/CapSense_BIST.c ****     newConfigRegisterValue |= CapSense_CSD_CMOD_TO_AMUXBUS_A;
 488:Generated_Source\PSoC4/CapSense_BIST.c ****     CapSense_CMOD_CONNECTION_REG = newConfigRegisterValue;
 489:Generated_Source\PSoC4/CapSense_BIST.c **** 
 490:Generated_Source\PSoC4/CapSense_BIST.c ****     /* Set Idac Value */
 491:Generated_Source\PSoC4/CapSense_BIST.c ****     newIdacRegisterValue = CapSense_CSD_IDAC_REG;
 492:Generated_Source\PSoC4/CapSense_BIST.c ****     newIdacRegisterValue &= ~(CapSense_CSD_IDAC1_DATA_MASK);
 493:Generated_Source\PSoC4/CapSense_BIST.c ****     newIdacRegisterValue |= config->idacValue;
 494:Generated_Source\PSoC4/CapSense_BIST.c **** 
 495:Generated_Source\PSoC4/CapSense_BIST.c ****     /* Save the CSD configuration */
 496:Generated_Source\PSoC4/CapSense_BIST.c ****     newConfigRegisterValue = CapSense_CSD_CFG_REG;
 497:Generated_Source\PSoC4/CapSense_BIST.c **** 
 498:Generated_Source\PSoC4/CapSense_BIST.c ****     /* Enable the sensor */
 499:Generated_Source\PSoC4/CapSense_BIST.c ****     #if (CapSense_IS_COMPLEX_SCANSLOTS)
 500:Generated_Source\PSoC4/CapSense_BIST.c ****         if (((config->portNumber) & CapSense_COMPLEX_SS_FLAG) == 0u)
 501:Generated_Source\PSoC4/CapSense_BIST.c ****         {
 502:Generated_Source\PSoC4/CapSense_BIST.c ****             CapSense_ConnectElectrode((uint32)config->pinNumber, (uint32)config->portNumber);
 503:Generated_Source\PSoC4/CapSense_BIST.c ****         }
 504:Generated_Source\PSoC4/CapSense_BIST.c ****         else
 505:Generated_Source\PSoC4/CapSense_BIST.c ****         {
 506:Generated_Source\PSoC4/CapSense_BIST.c ****             /* Enable the complex sensor */
 507:Generated_Source\PSoC4/CapSense_BIST.c ****             complexPinNumber = config->portNumber;
 508:Generated_Source\PSoC4/CapSense_BIST.c ****             complexPinNumber &= ~CapSense_COMPLEX_SS_FLAG;
 509:Generated_Source\PSoC4/CapSense_BIST.c ****             index = &CapSense_indexTable[complexPinNumber];
 510:Generated_Source\PSoC4/CapSense_BIST.c ****             snsNumber = CapSense_maskTable[config->sensor];
 511:Generated_Source\PSoC4/CapSense_BIST.c **** 
 512:Generated_Source\PSoC4/CapSense_BIST.c ****             for (j = 0u; j < snsNumber; j++)
 513:Generated_Source\PSoC4/CapSense_BIST.c ****             {
 514:Generated_Source\PSoC4/CapSense_BIST.c ****                 complexPinNumber  = CapSense_pinShiftTbl[index[j]];
 515:Generated_Source\PSoC4/CapSense_BIST.c ****                 complexPortNumber = CapSense_portTable[index[j]];
 516:Generated_Source\PSoC4/CapSense_BIST.c ****                 CapSense_ConnectElectrode((uint32)complexPinNumber, (uint32)complexPortNumber);
 517:Generated_Source\PSoC4/CapSense_BIST.c ****             }
 518:Generated_Source\PSoC4/CapSense_BIST.c ****         }
 519:Generated_Source\PSoC4/CapSense_BIST.c ****     #else
 520:Generated_Source\PSoC4/CapSense_BIST.c ****         CapSense_ConnectElectrode((uint32)config->pinNumber, (uint32)config->portNumber);
 521:Generated_Source\PSoC4/CapSense_BIST.c ****     #endif  /* CapSense_IS_COMPLEX_SCANSLOTS */
 522:Generated_Source\PSoC4/CapSense_BIST.c **** 
 523:Generated_Source\PSoC4/CapSense_BIST.c ****     /* Scan avgSamples times */
 524:Generated_Source\PSoC4/CapSense_BIST.c ****     for(curSample = 0u; curSample < config->avgSamplesNum; curSample++)
 525:Generated_Source\PSoC4/CapSense_BIST.c ****     {
 526:Generated_Source\PSoC4/CapSense_BIST.c ****         /* Configure CSD for precharge */
 527:Generated_Source\PSoC4/CapSense_BIST.c ****         CapSense_CSD_CFG_REG = CapSense_CP_PRECHARGE_CONFIG;
 528:Generated_Source\PSoC4/CapSense_BIST.c ****         CapSense_CSD_IDAC_REG = CapSense_CSD_IDAC_PRECHARGE_CONFIG;
 529:Generated_Source\PSoC4/CapSense_BIST.c **** 
 530:Generated_Source\PSoC4/CapSense_BIST.c ****     #if(CapSense_IDAC1_POLARITY == CapSense__IDAC_SINK)
 531:Generated_Source\PSoC4/CapSense_BIST.c ****         CapSense_CSD_CFG_REG &= ~(CapSense_CSD_CFG_POLARITY_VDDIO);
 532:Generated_Source\PSoC4/CapSense_BIST.c ****     #endif /* (CapSense_IDAC1_POLARITY == CapSense__IDAC_SINK) */
 533:Generated_Source\PSoC4/CapSense_BIST.c **** 
 534:Generated_Source\PSoC4/CapSense_BIST.c ****         watchdogCounter = CapSense_PRECHARGE_WATCHDOG_CYCLES_NUM;
 535:Generated_Source\PSoC4/CapSense_BIST.c ****         while((0u == (CapSense_CSD_STAT_REG & CapSense_CSD_STAT_SAMPLE)) && (0u != watchdogCounter)
 536:Generated_Source\PSoC4/CapSense_BIST.c ****         {
 537:Generated_Source\PSoC4/CapSense_BIST.c ****             watchdogCounter--;
 538:Generated_Source\PSoC4/CapSense_BIST.c ****         }
 539:Generated_Source\PSoC4/CapSense_BIST.c ****     #if(CapSense_IDAC1_POLARITY == CapSense__IDAC_SINK)
 540:Generated_Source\PSoC4/CapSense_BIST.c ****         CapSense_CSD_CFG_REG |= (CapSense_CSD_CFG_POLARITY_VDDIO);
 541:Generated_Source\PSoC4/CapSense_BIST.c ****     #endif /* (CapSense_IDAC1_POLARITY == CapSense__IDAC_SINK) */
 542:Generated_Source\PSoC4/CapSense_BIST.c **** 
 543:Generated_Source\PSoC4/CapSense_BIST.c ****         CapSense_CSD_IDAC_REG = newIdacRegisterValue;
ARM GAS  C:\Users\ELEASO~1\AppData\Local\Temp\cc1bKQei.s 			page 11


 544:Generated_Source\PSoC4/CapSense_BIST.c **** 
 545:Generated_Source\PSoC4/CapSense_BIST.c ****         /* Configure CSD for scanning */
 546:Generated_Source\PSoC4/CapSense_BIST.c ****         CapSense_CSD_CFG_REG = (CapSense_CP_SCANNING_CONFIG);
 547:Generated_Source\PSoC4/CapSense_BIST.c ****         /* Set resolution and begin scanning  */
 548:Generated_Source\PSoC4/CapSense_BIST.c ****         CapSense_CSD_CNT_REG = config->scanResolution;
 549:Generated_Source\PSoC4/CapSense_BIST.c ****         while(0u != (CapSense_CSD_CNT_REG & CapSense_RESOLUTION_16_BITS))
 550:Generated_Source\PSoC4/CapSense_BIST.c ****         {
 551:Generated_Source\PSoC4/CapSense_BIST.c ****             /* Wait until scanning is complete */
 552:Generated_Source\PSoC4/CapSense_BIST.c ****         }
 553:Generated_Source\PSoC4/CapSense_BIST.c ****         /* Read data */
 554:Generated_Source\PSoC4/CapSense_BIST.c ****         if(0u != watchdogCounter)
 555:Generated_Source\PSoC4/CapSense_BIST.c ****         {
 556:Generated_Source\PSoC4/CapSense_BIST.c ****             avgVal += CapSense_CSD_CNT_REG;
 557:Generated_Source\PSoC4/CapSense_BIST.c ****         }
 558:Generated_Source\PSoC4/CapSense_BIST.c ****         else
 559:Generated_Source\PSoC4/CapSense_BIST.c ****         {
 560:Generated_Source\PSoC4/CapSense_BIST.c ****             avgVal = 0u;
 561:Generated_Source\PSoC4/CapSense_BIST.c ****         }
 562:Generated_Source\PSoC4/CapSense_BIST.c ****     }
 563:Generated_Source\PSoC4/CapSense_BIST.c **** 
 564:Generated_Source\PSoC4/CapSense_BIST.c ****     /* Disable the sensor */
 565:Generated_Source\PSoC4/CapSense_BIST.c ****     #if (CapSense_IS_COMPLEX_SCANSLOTS)
 566:Generated_Source\PSoC4/CapSense_BIST.c ****         if (((config->portNumber) & CapSense_COMPLEX_SS_FLAG) == 0u)
 567:Generated_Source\PSoC4/CapSense_BIST.c ****         {
 568:Generated_Source\PSoC4/CapSense_BIST.c ****             CapSense_DisconnectElectrode((uint32)config->pinNumber, (uint32)config->portNumber);
 569:Generated_Source\PSoC4/CapSense_BIST.c ****         }
 570:Generated_Source\PSoC4/CapSense_BIST.c ****         else
 571:Generated_Source\PSoC4/CapSense_BIST.c ****         {
 572:Generated_Source\PSoC4/CapSense_BIST.c ****             /* Disable the complex sensor */
 573:Generated_Source\PSoC4/CapSense_BIST.c ****             complexPinNumber = config->portNumber;
 574:Generated_Source\PSoC4/CapSense_BIST.c ****             complexPinNumber &= ~CapSense_COMPLEX_SS_FLAG;
 575:Generated_Source\PSoC4/CapSense_BIST.c ****             index = &CapSense_indexTable[complexPinNumber];
 576:Generated_Source\PSoC4/CapSense_BIST.c ****             snsNumber = CapSense_maskTable[config->sensor];
 577:Generated_Source\PSoC4/CapSense_BIST.c **** 
 578:Generated_Source\PSoC4/CapSense_BIST.c ****             for (j = 0u; j < snsNumber; j++)
 579:Generated_Source\PSoC4/CapSense_BIST.c ****             {
 580:Generated_Source\PSoC4/CapSense_BIST.c ****                 complexPinNumber  = CapSense_pinShiftTbl[index[j]];
 581:Generated_Source\PSoC4/CapSense_BIST.c ****                 complexPortNumber = CapSense_portTable[index[j]];
 582:Generated_Source\PSoC4/CapSense_BIST.c ****                 CapSense_DisconnectElectrode((uint32)complexPinNumber, (uint32)complexPortNumber);
 583:Generated_Source\PSoC4/CapSense_BIST.c ****             }
 584:Generated_Source\PSoC4/CapSense_BIST.c ****         }
 585:Generated_Source\PSoC4/CapSense_BIST.c ****     #else
 586:Generated_Source\PSoC4/CapSense_BIST.c ****         CapSense_DisconnectElectrode((uint32)config->pinNumber, (uint32)config->portNumber);
 587:Generated_Source\PSoC4/CapSense_BIST.c ****     #endif  /* CapSense_IS_COMPLEX_SCANSLOTS */
 588:Generated_Source\PSoC4/CapSense_BIST.c **** 
 589:Generated_Source\PSoC4/CapSense_BIST.c ****     /* Restore the CSD configuration */
 590:Generated_Source\PSoC4/CapSense_BIST.c ****     CapSense_CSD_CFG_REG = newConfigRegisterValue;
 591:Generated_Source\PSoC4/CapSense_BIST.c **** 
 592:Generated_Source\PSoC4/CapSense_BIST.c ****     /* Restore the interrupts */
 593:Generated_Source\PSoC4/CapSense_BIST.c ****     CapSense_CSD_INTR_REG = 1u;
 594:Generated_Source\PSoC4/CapSense_BIST.c ****     CyIntClearPending(CapSense_ISR_NUMBER);
 595:Generated_Source\PSoC4/CapSense_BIST.c **** 
 596:Generated_Source\PSoC4/CapSense_BIST.c ****     return ((uint16)(avgVal / config->avgSamplesNum));
 597:Generated_Source\PSoC4/CapSense_BIST.c **** }
 598:Generated_Source\PSoC4/CapSense_BIST.c **** 
 599:Generated_Source\PSoC4/CapSense_BIST.c **** 
 600:Generated_Source\PSoC4/CapSense_BIST.c **** /*******************************************************************************
ARM GAS  C:\Users\ELEASO~1\AppData\Local\Temp\cc1bKQei.s 			page 12


 601:Generated_Source\PSoC4/CapSense_BIST.c **** * Function Name: CapSense_GetCalibratedIDAC
 602:Generated_Source\PSoC4/CapSense_BIST.c **** ********************************************************************************
 603:Generated_Source\PSoC4/CapSense_BIST.c **** *
 604:Generated_Source\PSoC4/CapSense_BIST.c **** * Summary:
 605:Generated_Source\PSoC4/CapSense_BIST.c **** *  Computes the IDAC values for sensor, which provide the raw signal on
 606:Generated_Source\PSoC4/CapSense_BIST.c **** *  the specified level, with specified prescaler, speed and resolution.
 607:Generated_Source\PSoC4/CapSense_BIST.c **** *
 608:Generated_Source\PSoC4/CapSense_BIST.c **** * Parameters:
 609:Generated_Source\PSoC4/CapSense_BIST.c **** *
 610:Generated_Source\PSoC4/CapSense_BIST.c **** *  rawLevel -  Raw data level wich should be reached during the callibration
 611:Generated_Source\PSoC4/CapSense_BIST.c **** *              procedure.
 612:Generated_Source\PSoC4/CapSense_BIST.c **** *
 613:Generated_Source\PSoC4/CapSense_BIST.c **** *  sensor - Sensor Number
 614:Generated_Source\PSoC4/CapSense_BIST.c **** *
 615:Generated_Source\PSoC4/CapSense_BIST.c **** *  resolution - Sensor resolution
 616:Generated_Source\PSoC4/CapSense_BIST.c **** *
 617:Generated_Source\PSoC4/CapSense_BIST.c **** * Return:
 618:Generated_Source\PSoC4/CapSense_BIST.c **** *  Calibrated iDAC1 value
 619:Generated_Source\PSoC4/CapSense_BIST.c **** *
 620:Generated_Source\PSoC4/CapSense_BIST.c **** * Global Variables:
 621:Generated_Source\PSoC4/CapSense_BIST.c **** *  None
 622:Generated_Source\PSoC4/CapSense_BIST.c **** *
 623:Generated_Source\PSoC4/CapSense_BIST.c **** * Side Effects:
 624:Generated_Source\PSoC4/CapSense_BIST.c **** *  None
 625:Generated_Source\PSoC4/CapSense_BIST.c **** *
 626:Generated_Source\PSoC4/CapSense_BIST.c **** *******************************************************************************/
 627:Generated_Source\PSoC4/CapSense_BIST.c **** uint32 CapSense_CalibrateIDAC(CapSense_CP_MEASURE_CONFIG *config)
 628:Generated_Source\PSoC4/CapSense_BIST.c **** {
 629:Generated_Source\PSoC4/CapSense_BIST.c ****     uint8 mask;
 630:Generated_Source\PSoC4/CapSense_BIST.c ****     uint32 rawData;
 631:Generated_Source\PSoC4/CapSense_BIST.c ****     uint32 retVal;
 632:Generated_Source\PSoC4/CapSense_BIST.c **** 
 633:Generated_Source\PSoC4/CapSense_BIST.c ****     /* Init calibration bit */
 634:Generated_Source\PSoC4/CapSense_BIST.c ****     mask = 0x80u;
 635:Generated_Source\PSoC4/CapSense_BIST.c ****     /* Init IDAC  */
 636:Generated_Source\PSoC4/CapSense_BIST.c ****     config->idacValue = 0x00u;
 637:Generated_Source\PSoC4/CapSense_BIST.c **** 
 638:Generated_Source\PSoC4/CapSense_BIST.c ****     do
 639:Generated_Source\PSoC4/CapSense_BIST.c ****     {
 640:Generated_Source\PSoC4/CapSense_BIST.c ****         /* Set calibration bit */
 641:Generated_Source\PSoC4/CapSense_BIST.c ****         config->idacValue |= mask;
 642:Generated_Source\PSoC4/CapSense_BIST.c ****         rawData = CapSense_ScanSensorCp(config);
 643:Generated_Source\PSoC4/CapSense_BIST.c **** 
 644:Generated_Source\PSoC4/CapSense_BIST.c ****         if(rawData < config->calibrationCount)
 645:Generated_Source\PSoC4/CapSense_BIST.c ****         {
 646:Generated_Source\PSoC4/CapSense_BIST.c ****             /* Reset calibration bit */
 647:Generated_Source\PSoC4/CapSense_BIST.c ****             config->idacValue &= (uint8)~mask;
 648:Generated_Source\PSoC4/CapSense_BIST.c ****         }
 649:Generated_Source\PSoC4/CapSense_BIST.c **** 
 650:Generated_Source\PSoC4/CapSense_BIST.c ****         /* Prepare next bit to set or reset */
 651:Generated_Source\PSoC4/CapSense_BIST.c ****         mask >>= 1u;
 652:Generated_Source\PSoC4/CapSense_BIST.c **** 
 653:Generated_Source\PSoC4/CapSense_BIST.c ****     }while(mask > 0u);
 654:Generated_Source\PSoC4/CapSense_BIST.c **** 
 655:Generated_Source\PSoC4/CapSense_BIST.c ****     if((rawData > (uint32)CapSense_CALIBRATION_ERROR_TOP) || (rawData < (uint32)CapSense_CALIBRATIO
 656:Generated_Source\PSoC4/CapSense_BIST.c ****     {
 657:Generated_Source\PSoC4/CapSense_BIST.c ****         retVal = CapSense_CALIBRATION_FAIL;
ARM GAS  C:\Users\ELEASO~1\AppData\Local\Temp\cc1bKQei.s 			page 13


 658:Generated_Source\PSoC4/CapSense_BIST.c ****     }
 659:Generated_Source\PSoC4/CapSense_BIST.c ****     else
 660:Generated_Source\PSoC4/CapSense_BIST.c ****     {
 661:Generated_Source\PSoC4/CapSense_BIST.c ****         retVal = CapSense_CALIBRATION_SUCCESS;
 662:Generated_Source\PSoC4/CapSense_BIST.c ****     }
 663:Generated_Source\PSoC4/CapSense_BIST.c **** 
 664:Generated_Source\PSoC4/CapSense_BIST.c ****     return (retVal);
 665:Generated_Source\PSoC4/CapSense_BIST.c **** }
 666:Generated_Source\PSoC4/CapSense_BIST.c **** 
 667:Generated_Source\PSoC4/CapSense_BIST.c **** 
 668:Generated_Source\PSoC4/CapSense_BIST.c **** /*******************************************************************************
 669:Generated_Source\PSoC4/CapSense_BIST.c **** * Function Name: CapSense_ConnectElectrode
 670:Generated_Source\PSoC4/CapSense_BIST.c **** ********************************************************************************
 671:Generated_Source\PSoC4/CapSense_BIST.c **** *
 672:Generated_Source\PSoC4/CapSense_BIST.c **** * Summary:
 673:Generated_Source\PSoC4/CapSense_BIST.c **** *  Connects Shield electrode.
 674:Generated_Source\PSoC4/CapSense_BIST.c **** *
 675:Generated_Source\PSoC4/CapSense_BIST.c **** * Parameters:
 676:Generated_Source\PSoC4/CapSense_BIST.c **** *  pinNumber:  Electrode pin number.
 677:Generated_Source\PSoC4/CapSense_BIST.c **** *  portNumber: Electrode port number.
 678:Generated_Source\PSoC4/CapSense_BIST.c **** *
 679:Generated_Source\PSoC4/CapSense_BIST.c **** * Return:
 680:Generated_Source\PSoC4/CapSense_BIST.c **** *  None
 681:Generated_Source\PSoC4/CapSense_BIST.c **** *
 682:Generated_Source\PSoC4/CapSense_BIST.c **** * Global Variables:
 683:Generated_Source\PSoC4/CapSense_BIST.c **** *  CapSense_prtSelTbl[] - Contains pointers to the HSIOM
 684:Generated_Source\PSoC4/CapSense_BIST.c **** *  registers for every port.
 685:Generated_Source\PSoC4/CapSense_BIST.c **** *  CapSense_PrtCfgTb[] - Contains pointers to the port config
 686:Generated_Source\PSoC4/CapSense_BIST.c **** *  registers for every port.
 687:Generated_Source\PSoC4/CapSense_BIST.c **** *
 688:Generated_Source\PSoC4/CapSense_BIST.c **** * Side Effects:
 689:Generated_Source\PSoC4/CapSense_BIST.c **** *  None
 690:Generated_Source\PSoC4/CapSense_BIST.c **** *
 691:Generated_Source\PSoC4/CapSense_BIST.c **** *******************************************************************************/
 692:Generated_Source\PSoC4/CapSense_BIST.c **** void CapSense_ConnectElectrode(uint32 pinNumber, uint32 portNumber)
 693:Generated_Source\PSoC4/CapSense_BIST.c **** {
  28              		.loc 1 693 0
  29              		.cfi_startproc
  30              		@ args = 0, pretend = 0, frame = 0
  31              		@ frame_needed = 0, uses_anonymous_args = 0
  32              	.LVL0:
  33 0000 30B5     		push	{r4, r5, lr}
  34              		.cfi_def_cfa_offset 12
  35              		.cfi_offset 4, -12
  36              		.cfi_offset 5, -8
  37              		.cfi_offset 14, -4
 694:Generated_Source\PSoC4/CapSense_BIST.c ****     uint32  pinModeShift;
 695:Generated_Source\PSoC4/CapSense_BIST.c ****     uint32  pinHSIOMShift;
 696:Generated_Source\PSoC4/CapSense_BIST.c ****     uint32 newRegisterValue;
 697:Generated_Source\PSoC4/CapSense_BIST.c **** 
 698:Generated_Source\PSoC4/CapSense_BIST.c ****     pinModeShift  = pinNumber * CapSense_PC_PIN_CFG_SIZE;
  38              		.loc 1 698 0
  39 0002 4400     		lsls	r4, r0, #1
  40 0004 2418     		adds	r4, r4, r0
  41              	.LVL1:
 699:Generated_Source\PSoC4/CapSense_BIST.c ****     pinHSIOMShift = pinNumber * CapSense_HSIOM_PIN_CFG_SIZE;
  42              		.loc 1 699 0
ARM GAS  C:\Users\ELEASO~1\AppData\Local\Temp\cc1bKQei.s 			page 14


  43 0006 8000     		lsls	r0, r0, #2
  44              	.LVL2:
 700:Generated_Source\PSoC4/CapSense_BIST.c **** 
 701:Generated_Source\PSoC4/CapSense_BIST.c ****     newRegisterValue = *CapSense_prtSelTbl[portNumber];
  45              		.loc 1 701 0
  46 0008 8900     		lsls	r1, r1, #2
  47              	.LVL3:
  48 000a 094B     		ldr	r3, .L2
  49 000c CD58     		ldr	r5, [r1, r3]
  50 000e 2B68     		ldr	r3, [r5]
  51              	.LVL4:
 702:Generated_Source\PSoC4/CapSense_BIST.c ****     newRegisterValue &= ~(CapSense_CSD_HSIOM_MASK << pinHSIOMShift);
  52              		.loc 1 702 0
  53 0010 0F22     		movs	r2, #15
  54 0012 8240     		lsls	r2, r2, r0
  55 0014 9343     		bics	r3, r2
  56              	.LVL5:
  57 0016 1A00     		movs	r2, r3
  58              	.LVL6:
 703:Generated_Source\PSoC4/CapSense_BIST.c ****     newRegisterValue |= (uint32)((uint32)CapSense_CSD_SENSE_PORT_MODE << pinHSIOMShift);
  59              		.loc 1 703 0
  60 0018 0423     		movs	r3, #4
  61 001a 8340     		lsls	r3, r3, r0
  62 001c 1343     		orrs	r3, r2
  63              	.LVL7:
 704:Generated_Source\PSoC4/CapSense_BIST.c **** 
 705:Generated_Source\PSoC4/CapSense_BIST.c ****     *CapSense_prtCfgTbl[portNumber] &= (uint32)~((uint32)CapSense_CSD_PIN_MODE_MASK << pinModeShift
  64              		.loc 1 705 0
  65 001e 054A     		ldr	r2, .L2+4
  66 0020 8858     		ldr	r0, [r1, r2]
  67              	.LVL8:
  68 0022 0268     		ldr	r2, [r0]
  69 0024 0721     		movs	r1, #7
  70 0026 A140     		lsls	r1, r1, r4
  71 0028 8A43     		bics	r2, r1
  72 002a 0260     		str	r2, [r0]
 706:Generated_Source\PSoC4/CapSense_BIST.c ****     *CapSense_prtSelTbl[portNumber] = newRegisterValue;
  73              		.loc 1 706 0
  74 002c 2B60     		str	r3, [r5]
 707:Generated_Source\PSoC4/CapSense_BIST.c **** 
 708:Generated_Source\PSoC4/CapSense_BIST.c **** }
  75              		.loc 1 708 0
  76              		@ sp needed
  77              	.LVL9:
  78 002e 30BD     		pop	{r4, r5, pc}
  79              	.L3:
  80              		.align	2
  81              	.L2:
  82 0030 00000000 		.word	CapSense_prtSelTbl
  83 0034 00000000 		.word	CapSense_prtCfgTbl
  84              		.cfi_endproc
  85              	.LFE40:
  86              		.size	CapSense_ConnectElectrode, .-CapSense_ConnectElectrode
  87              		.global	__aeabi_uidiv
  88              		.section	.text.CapSense_GetHighCp,"ax",%progbits
  89              		.align	2
  90              		.global	CapSense_GetHighCp
ARM GAS  C:\Users\ELEASO~1\AppData\Local\Temp\cc1bKQei.s 			page 15


  91              		.code	16
  92              		.thumb_func
  93              		.type	CapSense_GetHighCp, %function
  94              	CapSense_GetHighCp:
  95              	.LFB37:
 341:Generated_Source\PSoC4/CapSense_BIST.c ****     uint32 csdConfigBackup;
  96              		.loc 1 341 0
  97              		.cfi_startproc
  98              		@ args = 0, pretend = 0, frame = 8
  99              		@ frame_needed = 0, uses_anonymous_args = 0
 100              	.LVL10:
 101 0000 F0B5     		push	{r4, r5, r6, r7, lr}
 102              		.cfi_def_cfa_offset 20
 103              		.cfi_offset 4, -20
 104              		.cfi_offset 5, -16
 105              		.cfi_offset 6, -12
 106              		.cfi_offset 7, -8
 107              		.cfi_offset 14, -4
 108 0002 4F46     		mov	r7, r9
 109 0004 80B4     		push	{r7}
 110              		.cfi_def_cfa_offset 24
 111              		.cfi_offset 9, -24
 112 0006 82B0     		sub	sp, sp, #8
 113              		.cfi_def_cfa_offset 32
 114 0008 0400     		movs	r4, r0
 350:Generated_Source\PSoC4/CapSense_BIST.c ****     newRegisterValue &= CapSense_CSD_IDAC1_TRIM_MASK;
 115              		.loc 1 350 0
 116 000a 4048     		ldr	r0, .L9
 117              	.LVL11:
 118 000c 0368     		ldr	r3, [r0]
 119              	.LVL12:
 351:Generated_Source\PSoC4/CapSense_BIST.c ****     newRegisterValue |= ((uint32)CapSense_SFLASH_CSD_TRIM1_REG &\
 120              		.loc 1 351 0
 121 000e 0F22     		movs	r2, #15
 122 0010 9343     		bics	r3, r2
 123              	.LVL13:
 124 0012 1900     		movs	r1, r3
 125              	.LVL14:
 352:Generated_Source\PSoC4/CapSense_BIST.c ****                          (uint32)CapSense_CSFLASH_TRIM_IDAC1_MASK);
 126              		.loc 1 352 0
 127 0014 3E4B     		ldr	r3, .L9+4
 128 0016 1B78     		ldrb	r3, [r3]
 129 0018 1340     		ands	r3, r2
 130 001a 0B43     		orrs	r3, r1
 131              	.LVL15:
 354:Generated_Source\PSoC4/CapSense_BIST.c **** 
 132              		.loc 1 354 0
 133 001c 0360     		str	r3, [r0]
 356:Generated_Source\PSoC4/CapSense_BIST.c ****     CapSense_SampleClk_Stop();
 134              		.loc 1 356 0
 135 001e FFF7FEFF 		bl	CapSense_SenseClk_Stop
 136              	.LVL16:
 357:Generated_Source\PSoC4/CapSense_BIST.c **** 
 137              		.loc 1 357 0
 138 0022 FFF7FEFF 		bl	CapSense_SampleClk_Stop
 139              	.LVL17:
 360:Generated_Source\PSoC4/CapSense_BIST.c ****     CapSense_SampleClk_SetDividerValue(config->sampleClkDiv);
ARM GAS  C:\Users\ELEASO~1\AppData\Local\Temp\cc1bKQei.s 			page 16


 140              		.loc 1 360 0
 141 0026 A088     		ldrh	r0, [r4, #4]
 142 0028 0138     		subs	r0, r0, #1
 143 002a 80B2     		uxth	r0, r0
 144 002c 0021     		movs	r1, #0
 145 002e FFF7FEFF 		bl	CapSense_SenseClk_SetFractionalDividerRegister
 146              	.LVL18:
 361:Generated_Source\PSoC4/CapSense_BIST.c **** 
 147              		.loc 1 361 0
 148 0032 E088     		ldrh	r0, [r4, #6]
 149 0034 0138     		subs	r0, r0, #1
 150 0036 80B2     		uxth	r0, r0
 151 0038 0021     		movs	r1, #0
 152 003a FFF7FEFF 		bl	CapSense_SampleClk_SetFractionalDividerRegister
 153              	.LVL19:
 365:Generated_Source\PSoC4/CapSense_BIST.c ****         CapSense_SampleClk_Start();
 154              		.loc 1 365 0
 155 003e FFF7FEFF 		bl	CapSense_SenseClk_Start
 156              	.LVL20:
 366:Generated_Source\PSoC4/CapSense_BIST.c ****     #else
 157              		.loc 1 366 0
 158 0042 FFF7FEFF 		bl	CapSense_SampleClk_Start
 159              	.LVL21:
 373:Generated_Source\PSoC4/CapSense_BIST.c ****     idacConfigBackup = CapSense_CSD_IDAC_REG & CapSense_IDAC1_CONFIG_MASK;
 160              		.loc 1 373 0
 161 0046 334B     		ldr	r3, .L9+8
 162 0048 9946     		mov	r9, r3
 163 004a 1F68     		ldr	r7, [r3]
 164              	.LVL22:
 374:Generated_Source\PSoC4/CapSense_BIST.c **** 
 165              		.loc 1 374 0
 166 004c 324E     		ldr	r6, .L9+12
 167 004e 3568     		ldr	r5, [r6]
 168 0050 6D05     		lsls	r5, r5, #21
 169 0052 6D0D     		lsrs	r5, r5, #21
 170              	.LVL23:
 376:Generated_Source\PSoC4/CapSense_BIST.c **** 
 171              		.loc 1 376 0
 172 0054 FFF7FEFF 		bl	CyEnterCriticalSection
 173              	.LVL24:
 174 0058 0190     		str	r0, [sp, #4]
 175              	.LVL25:
 378:Generated_Source\PSoC4/CapSense_BIST.c **** 
 176              		.loc 1 378 0
 177 005a 2078     		ldrb	r0, [r4]
 178 005c 6178     		ldrb	r1, [r4, #1]
 179 005e FFF7FEFF 		bl	CapSense_ConnectElectrode
 180              	.LVL26:
 380:Generated_Source\PSoC4/CapSense_BIST.c **** 
 181              		.loc 1 380 0
 182 0062 2E4B     		ldr	r3, .L9+16
 183 0064 4A46     		mov	r2, r9
 184 0066 1360     		str	r3, [r2]
 185              	.LVL27:
 382:Generated_Source\PSoC4/CapSense_BIST.c ****     CapSense_CSD_IDAC_REG |= (CapSense_HIGH_CP_MEASURE_IDAC_CONFIG | (uint32)config->idacValue);
 186              		.loc 1 382 0
 187 0068 3368     		ldr	r3, [r6]
ARM GAS  C:\Users\ELEASO~1\AppData\Local\Temp\cc1bKQei.s 			page 17


 188 006a DB0A     		lsrs	r3, r3, #11
 189 006c DB02     		lsls	r3, r3, #11
 190 006e 3360     		str	r3, [r6]
 383:Generated_Source\PSoC4/CapSense_BIST.c **** 
 191              		.loc 1 383 0
 192 0070 3268     		ldr	r2, [r6]
 193 0072 A378     		ldrb	r3, [r4, #2]
 194 0074 1343     		orrs	r3, r2
 195 0076 8022     		movs	r2, #128
 196 0078 5200     		lsls	r2, r2, #1
 197 007a 1343     		orrs	r3, r2
 198 007c 3360     		str	r3, [r6]
 385:Generated_Source\PSoC4/CapSense_BIST.c **** 
 199              		.loc 1 385 0
 200 007e 0198     		ldr	r0, [sp, #4]
 201 0080 FFF7FEFF 		bl	CyExitCriticalSection
 202              	.LVL28:
 388:Generated_Source\PSoC4/CapSense_BIST.c ****     CyIntDisable(CapSense_ISR_NUMBER);
 203              		.loc 1 388 0
 204 0084 0F20     		movs	r0, #15
 205 0086 FFF7FEFF 		bl	CyIntGetState
 206              	.LVL29:
 207 008a 0600     		movs	r6, r0
 208              	.LVL30:
 389:Generated_Source\PSoC4/CapSense_BIST.c **** 
 209              		.loc 1 389 0
 210 008c 0F20     		movs	r0, #15
 211              	.LVL31:
 212 008e FFF7FEFF 		bl	CyIntDisable
 213              	.LVL32:
 387:Generated_Source\PSoC4/CapSense_BIST.c ****     interruptState = CyIntGetState(CapSense_ISR_NUMBER);
 214              		.loc 1 387 0
 215 0092 0020     		movs	r0, #0
 392:Generated_Source\PSoC4/CapSense_BIST.c ****     {
 216              		.loc 1 392 0
 217 0094 0022     		movs	r2, #0
 218 0096 0AE0     		b	.L5
 219              	.LVL33:
 220              	.L7:
 394:Generated_Source\PSoC4/CapSense_BIST.c ****         while(0u != (CapSense_CSD_CNT_REG & CapSense_RESOLUTION_16_BITS))
 221              		.loc 1 394 0
 222 0098 214B     		ldr	r3, .L9+20
 223 009a E168     		ldr	r1, [r4, #12]
 224 009c 1960     		str	r1, [r3]
 225              	.L6:
 395:Generated_Source\PSoC4/CapSense_BIST.c ****         {
 226              		.loc 1 395 0 discriminator 1
 227 009e 204B     		ldr	r3, .L9+20
 228 00a0 1B68     		ldr	r3, [r3]
 229 00a2 1B0C     		lsrs	r3, r3, #16
 230 00a4 FBD1     		bne	.L6
 400:Generated_Source\PSoC4/CapSense_BIST.c ****     }
 231              		.loc 1 400 0 discriminator 2
 232 00a6 1E4B     		ldr	r3, .L9+20
 233 00a8 1B68     		ldr	r3, [r3]
 234 00aa C018     		adds	r0, r0, r3
 235              	.LVL34:
ARM GAS  C:\Users\ELEASO~1\AppData\Local\Temp\cc1bKQei.s 			page 18


 392:Generated_Source\PSoC4/CapSense_BIST.c ****     {
 236              		.loc 1 392 0 discriminator 2
 237 00ac 0132     		adds	r2, r2, #1
 238              	.LVL35:
 239              	.L5:
 392:Generated_Source\PSoC4/CapSense_BIST.c ****     {
 240              		.loc 1 392 0 is_stmt 0 discriminator 1
 241 00ae 217A     		ldrb	r1, [r4, #8]
 242 00b0 8A42     		cmp	r2, r1
 243 00b2 F1D3     		bcc	.L7
 404:Generated_Source\PSoC4/CapSense_BIST.c ****     tmpResult = (tmpResult * (uint32)CapSense_FULL_DIVIDER * (uint32)config->idacValue)/
 244              		.loc 1 404 0 is_stmt 1
 245 00b4 FFF7FEFF 		bl	__aeabi_uidiv
 246              	.LVL36:
 405:Generated_Source\PSoC4/CapSense_BIST.c ****                 ((uint32)CYDEV_BCLK__HFCLK__MHZ * (uint32)(config->scanResolution >> CapSense_RESOL
 247              		.loc 1 405 0
 248 00b8 A378     		ldrb	r3, [r4, #2]
 249 00ba 5843     		muls	r0, r3
 250              	.LVL37:
 251 00bc 194B     		ldr	r3, .L9+24
 252 00be 5843     		muls	r0, r3
 406:Generated_Source\PSoC4/CapSense_BIST.c **** 
 253              		.loc 1 406 0
 254 00c0 E389     		ldrh	r3, [r4, #14]
 255 00c2 5A00     		lsls	r2, r3, #1
 256 00c4 D318     		adds	r3, r2, r3
 257 00c6 D900     		lsls	r1, r3, #3
 405:Generated_Source\PSoC4/CapSense_BIST.c ****                 ((uint32)CYDEV_BCLK__HFCLK__MHZ * (uint32)(config->scanResolution >> CapSense_RESOL
 258              		.loc 1 405 0
 259 00c8 FFF7FEFF 		bl	__aeabi_uidiv
 260              	.LVL38:
 261 00cc 0400     		movs	r4, r0
 262              	.LVL39:
 409:Generated_Source\PSoC4/CapSense_BIST.c **** 
 263              		.loc 1 409 0
 264 00ce 114B     		ldr	r3, .L9+8
 265 00d0 1F60     		str	r7, [r3]
 411:Generated_Source\PSoC4/CapSense_BIST.c ****     CapSense_CSD_IDAC_REG |= idacConfigBackup;
 266              		.loc 1 411 0
 267 00d2 114A     		ldr	r2, .L9+12
 268 00d4 1368     		ldr	r3, [r2]
 269 00d6 DB0A     		lsrs	r3, r3, #11
 270 00d8 DB02     		lsls	r3, r3, #11
 271 00da 1360     		str	r3, [r2]
 412:Generated_Source\PSoC4/CapSense_BIST.c **** 
 272              		.loc 1 412 0
 273 00dc 1368     		ldr	r3, [r2]
 274 00de 1D43     		orrs	r5, r3
 275              	.LVL40:
 276 00e0 1560     		str	r5, [r2]
 415:Generated_Source\PSoC4/CapSense_BIST.c ****     CyIntClearPending(CapSense_ISR_NUMBER);
 277              		.loc 1 415 0
 278 00e2 0122     		movs	r2, #1
 279 00e4 104B     		ldr	r3, .L9+28
 280 00e6 1A60     		str	r2, [r3]
 416:Generated_Source\PSoC4/CapSense_BIST.c **** 
 281              		.loc 1 416 0
ARM GAS  C:\Users\ELEASO~1\AppData\Local\Temp\cc1bKQei.s 			page 19


 282 00e8 0F20     		movs	r0, #15
 283              	.LVL41:
 284 00ea FFF7FEFF 		bl	CyIntClearPending
 285              	.LVL42:
 418:Generated_Source\PSoC4/CapSense_BIST.c ****     {
 286              		.loc 1 418 0
 287 00ee 002E     		cmp	r6, #0
 288 00f0 02D0     		beq	.L8
 420:Generated_Source\PSoC4/CapSense_BIST.c ****     }
 289              		.loc 1 420 0
 290 00f2 0F20     		movs	r0, #15
 291 00f4 FFF7FEFF 		bl	CyIntEnable
 292              	.LVL43:
 293              	.L8:
 423:Generated_Source\PSoC4/CapSense_BIST.c ****     CapSense_SampleClk_Stop();
 294              		.loc 1 423 0
 295 00f8 FFF7FEFF 		bl	CapSense_SenseClk_Stop
 296              	.LVL44:
 424:Generated_Source\PSoC4/CapSense_BIST.c **** 
 297              		.loc 1 424 0
 298 00fc FFF7FEFF 		bl	CapSense_SampleClk_Stop
 299              	.LVL45:
 427:Generated_Source\PSoC4/CapSense_BIST.c **** 
 300              		.loc 1 427 0
 301 0100 2000     		movs	r0, r4
 302 0102 02B0     		add	sp, sp, #8
 303              		@ sp needed
 304              	.LVL46:
 305              	.LVL47:
 306              	.LVL48:
 307 0104 04BC     		pop	{r2}
 308 0106 9146     		mov	r9, r2
 309 0108 F0BD     		pop	{r4, r5, r6, r7, pc}
 310              	.L10:
 311 010a C046     		.align	2
 312              	.L9:
 313 010c 00FF0840 		.word	1074331392
 314 0110 62F1FF0F 		.word	268431714
 315 0114 04000840 		.word	1074266116
 316 0118 08000840 		.word	1074266120
 317 011c 0010E881 		.word	-2115497984
 318 0120 0C000840 		.word	1074266124
 319 0124 02FC0100 		.word	130050
 320 0128 14000840 		.word	1074266132
 321              		.cfi_endproc
 322              	.LFE37:
 323              		.size	CapSense_GetHighCp, .-CapSense_GetHighCp
 324              		.section	.text.CapSense_MeasureCmod,"ax",%progbits
 325              		.align	2
 326              		.global	CapSense_MeasureCmod
 327              		.code	16
 328              		.thumb_func
 329              		.type	CapSense_MeasureCmod, %function
 330              	CapSense_MeasureCmod:
 331              	.LFB35:
  88:Generated_Source\PSoC4/CapSense_BIST.c ****     uint32 result;
 332              		.loc 1 88 0
ARM GAS  C:\Users\ELEASO~1\AppData\Local\Temp\cc1bKQei.s 			page 20


 333              		.cfi_startproc
 334              		@ args = 0, pretend = 0, frame = 16
 335              		@ frame_needed = 0, uses_anonymous_args = 0
 336 0000 F0B5     		push	{r4, r5, r6, r7, lr}
 337              		.cfi_def_cfa_offset 20
 338              		.cfi_offset 4, -20
 339              		.cfi_offset 5, -16
 340              		.cfi_offset 6, -12
 341              		.cfi_offset 7, -8
 342              		.cfi_offset 14, -4
 343 0002 85B0     		sub	sp, sp, #20
 344              		.cfi_def_cfa_offset 40
  95:Generated_Source\PSoC4/CapSense_BIST.c ****     gpioConfigBackup  = CapSense_CMOD_PORT_PC_REG & CapSense_CSD_CMOD_PC_MASK;
 345              		.loc 1 95 0
 346 0004 154D     		ldr	r5, .L12
 347 0006 2F68     		ldr	r7, [r5]
 348 0008 F023     		movs	r3, #240
 349 000a 1B01     		lsls	r3, r3, #4
 350 000c 1F40     		ands	r7, r3
 351              	.LVL49:
  96:Generated_Source\PSoC4/CapSense_BIST.c **** 
 352              		.loc 1 96 0
 353 000e 144C     		ldr	r4, .L12+4
 354 0010 2668     		ldr	r6, [r4]
 355 0012 E023     		movs	r3, #224
 356 0014 5B00     		lsls	r3, r3, #1
 357 0016 1E40     		ands	r6, r3
 358              	.LVL50:
 101:Generated_Source\PSoC4/CapSense_BIST.c ****     CapSense_cpMeasureCfg.portNumber       = CapSense_CMOD_PRT_NUMBER;
 359              		.loc 1 101 0
 360 0018 BF3B     		subs	r3, r3, #191
 361 001a FF3B     		subs	r3, r3, #255
 362 001c 6A46     		mov	r2, sp
 363 001e 1370     		strb	r3, [r2]
 102:Generated_Source\PSoC4/CapSense_BIST.c ****     CapSense_cpMeasureCfg.idacValue        = CapSense_CMOD_MEASURE_IDAC_VAL;
 364              		.loc 1 102 0
 365 0020 0422     		movs	r2, #4
 366 0022 6946     		mov	r1, sp
 367 0024 4A70     		strb	r2, [r1, #1]
 103:Generated_Source\PSoC4/CapSense_BIST.c ****     CapSense_cpMeasureCfg.senseClkDiv      = CapSense_CMOD_MEASURE_SENSE_CLK_DIV;
 368              		.loc 1 103 0
 369 0026 0B32     		adds	r2, r2, #11
 370 0028 8A70     		strb	r2, [r1, #2]
 104:Generated_Source\PSoC4/CapSense_BIST.c ****     CapSense_cpMeasureCfg.sampleClkDiv     = CapSense_CMOD_MEASURE_SAMPLE_CLK_DIV;
 371              		.loc 1 104 0
 372 002a F032     		adds	r2, r2, #240
 373 002c 8A80     		strh	r2, [r1, #4]
 105:Generated_Source\PSoC4/CapSense_BIST.c ****     CapSense_cpMeasureCfg.avgSamplesNum    = CapSense_CMOD_MEASURE_AVG_SAMPLES_NUM;
 374              		.loc 1 105 0
 375 002e CA80     		strh	r2, [r1, #6]
 106:Generated_Source\PSoC4/CapSense_BIST.c ****     CapSense_cpMeasureCfg.scanResolution   = CapSense_CMOD_MEASURE_RES;
 376              		.loc 1 106 0
 377 0030 0B72     		strb	r3, [r1, #8]
 107:Generated_Source\PSoC4/CapSense_BIST.c **** 
 378              		.loc 1 107 0
 379 0032 0C4B     		ldr	r3, .L12+8
 380 0034 0393     		str	r3, [sp, #12]
ARM GAS  C:\Users\ELEASO~1\AppData\Local\Temp\cc1bKQei.s 			page 21


 109:Generated_Source\PSoC4/CapSense_BIST.c **** 
 381              		.loc 1 109 0
 382 0036 6846     		mov	r0, sp
 383 0038 FFF7FEFF 		bl	CapSense_GetHighCp
 384              	.LVL51:
 111:Generated_Source\PSoC4/CapSense_BIST.c ****     CapSense_CMOD_CONNECTION_REG |= hsiomConfigBackup;
 385              		.loc 1 111 0
 386 003c 2A68     		ldr	r2, [r5]
 387 003e 0A4B     		ldr	r3, .L12+12
 388 0040 1340     		ands	r3, r2
 389 0042 2B60     		str	r3, [r5]
 112:Generated_Source\PSoC4/CapSense_BIST.c **** 
 390              		.loc 1 112 0
 391 0044 2B68     		ldr	r3, [r5]
 392 0046 3B43     		orrs	r3, r7
 393 0048 2B60     		str	r3, [r5]
 114:Generated_Source\PSoC4/CapSense_BIST.c ****     CapSense_CMOD_PORT_PC_REG |=  (gpioConfigBackup);
 394              		.loc 1 114 0
 395 004a 2268     		ldr	r2, [r4]
 396 004c 074B     		ldr	r3, .L12+16
 397 004e 1340     		ands	r3, r2
 398 0050 2360     		str	r3, [r4]
 115:Generated_Source\PSoC4/CapSense_BIST.c **** 
 399              		.loc 1 115 0
 400 0052 2368     		ldr	r3, [r4]
 401 0054 3343     		orrs	r3, r6
 402 0056 2360     		str	r3, [r4]
 119:Generated_Source\PSoC4/CapSense_BIST.c **** 
 403              		.loc 1 119 0
 404 0058 05B0     		add	sp, sp, #20
 405              		@ sp needed
 406              	.LVL52:
 407              	.LVL53:
 408 005a F0BD     		pop	{r4, r5, r6, r7, pc}
 409              	.L13:
 410              		.align	2
 411              	.L12:
 412 005c 10000140 		.word	1073807376
 413 0060 08040440 		.word	1074005000
 414 0064 0000FF0F 		.word	268369920
 415 0068 FFF0FFFF 		.word	-3841
 416 006c 3FFEFFFF 		.word	-449
 417              		.cfi_endproc
 418              	.LFE35:
 419              		.size	CapSense_MeasureCmod, .-CapSense_MeasureCmod
 420              		.section	.text.CapSense_DisconnectElectrode,"ax",%progbits
 421              		.align	2
 422              		.global	CapSense_DisconnectElectrode
 423              		.code	16
 424              		.thumb_func
 425              		.type	CapSense_DisconnectElectrode, %function
 426              	CapSense_DisconnectElectrode:
 427              	.LFB41:
 709:Generated_Source\PSoC4/CapSense_BIST.c **** 
 710:Generated_Source\PSoC4/CapSense_BIST.c **** 
 711:Generated_Source\PSoC4/CapSense_BIST.c **** /*******************************************************************************
 712:Generated_Source\PSoC4/CapSense_BIST.c **** * Function Name: CapSense_DisconnectElectrode
ARM GAS  C:\Users\ELEASO~1\AppData\Local\Temp\cc1bKQei.s 			page 22


 713:Generated_Source\PSoC4/CapSense_BIST.c **** ********************************************************************************
 714:Generated_Source\PSoC4/CapSense_BIST.c **** *
 715:Generated_Source\PSoC4/CapSense_BIST.c **** * Summary:
 716:Generated_Source\PSoC4/CapSense_BIST.c **** *  Disconnects Shield electrode.
 717:Generated_Source\PSoC4/CapSense_BIST.c **** *
 718:Generated_Source\PSoC4/CapSense_BIST.c **** * Parameters:
 719:Generated_Source\PSoC4/CapSense_BIST.c **** *  pinNumber:  Electrode pin number.
 720:Generated_Source\PSoC4/CapSense_BIST.c **** *  portNumber: Electrode port number.
 721:Generated_Source\PSoC4/CapSense_BIST.c **** *
 722:Generated_Source\PSoC4/CapSense_BIST.c **** * Return:
 723:Generated_Source\PSoC4/CapSense_BIST.c **** *  None
 724:Generated_Source\PSoC4/CapSense_BIST.c **** *
 725:Generated_Source\PSoC4/CapSense_BIST.c **** * Global Variables:
 726:Generated_Source\PSoC4/CapSense_BIST.c **** *  CapSense_prtSelTbl[] - Contains pointers to the HSIOM
 727:Generated_Source\PSoC4/CapSense_BIST.c **** *  registers for every port.
 728:Generated_Source\PSoC4/CapSense_BIST.c **** *  CapSense_PrtCfgTb[] - Contains pointers to the port config
 729:Generated_Source\PSoC4/CapSense_BIST.c **** *  registers for every port.
 730:Generated_Source\PSoC4/CapSense_BIST.c **** *
 731:Generated_Source\PSoC4/CapSense_BIST.c **** * Side Effects:
 732:Generated_Source\PSoC4/CapSense_BIST.c **** *  None
 733:Generated_Source\PSoC4/CapSense_BIST.c **** *
 734:Generated_Source\PSoC4/CapSense_BIST.c **** *******************************************************************************/
 735:Generated_Source\PSoC4/CapSense_BIST.c **** void CapSense_DisconnectElectrode(uint32 pinNumber, uint32 portNumber)
 736:Generated_Source\PSoC4/CapSense_BIST.c **** {
 428              		.loc 1 736 0
 429              		.cfi_startproc
 430              		@ args = 0, pretend = 0, frame = 0
 431              		@ frame_needed = 0, uses_anonymous_args = 0
 432              	.LVL54:
 433 0000 70B5     		push	{r4, r5, r6, lr}
 434              		.cfi_def_cfa_offset 16
 435              		.cfi_offset 4, -16
 436              		.cfi_offset 5, -12
 437              		.cfi_offset 6, -8
 438              		.cfi_offset 14, -4
 737:Generated_Source\PSoC4/CapSense_BIST.c ****     uint32  pinHSIOMShift;
 738:Generated_Source\PSoC4/CapSense_BIST.c **** 
 739:Generated_Source\PSoC4/CapSense_BIST.c ****     #if (CapSense_CONNECT_INACTIVE_SNS != CapSense__SHIELD)
 740:Generated_Source\PSoC4/CapSense_BIST.c ****         uint32 newRegisterValue;
 741:Generated_Source\PSoC4/CapSense_BIST.c ****         uint32  pinModeShift;
 742:Generated_Source\PSoC4/CapSense_BIST.c ****         pinModeShift = pinNumber  * CapSense_PC_PIN_CFG_SIZE;
 439              		.loc 1 742 0
 440 0002 4200     		lsls	r2, r0, #1
 441 0004 1218     		adds	r2, r2, r0
 442              	.LVL55:
 743:Generated_Source\PSoC4/CapSense_BIST.c ****     #endif
 744:Generated_Source\PSoC4/CapSense_BIST.c **** 
 745:Generated_Source\PSoC4/CapSense_BIST.c ****     pinHSIOMShift = pinNumber * CapSense_HSIOM_PIN_CFG_SIZE;
 443              		.loc 1 745 0
 444 0006 8600     		lsls	r6, r0, #2
 445              	.LVL56:
 746:Generated_Source\PSoC4/CapSense_BIST.c **** 
 747:Generated_Source\PSoC4/CapSense_BIST.c ****     *CapSense_prtSelTbl[portNumber] &= ~(CapSense_CSD_HSIOM_MASK << pinHSIOMShift);
 446              		.loc 1 747 0
 447 0008 8900     		lsls	r1, r1, #2
 448              	.LVL57:
 449 000a 0D4B     		ldr	r3, .L15
ARM GAS  C:\Users\ELEASO~1\AppData\Local\Temp\cc1bKQei.s 			page 23


 450 000c CD58     		ldr	r5, [r1, r3]
 451 000e 2B68     		ldr	r3, [r5]
 452 0010 0F24     		movs	r4, #15
 453 0012 B440     		lsls	r4, r4, r6
 454 0014 A343     		bics	r3, r4
 455 0016 2B60     		str	r3, [r5]
 748:Generated_Source\PSoC4/CapSense_BIST.c **** 
 749:Generated_Source\PSoC4/CapSense_BIST.c ****     #if (CapSense_CONNECT_INACTIVE_SNS == CapSense__SHIELD)
 750:Generated_Source\PSoC4/CapSense_BIST.c ****         *CapSense_prtSelTbl[portNumber] |= (CapSense_CSD_SHIELD_PORT_MODE << pinHSIOMShift);
 751:Generated_Source\PSoC4/CapSense_BIST.c ****     #else
 752:Generated_Source\PSoC4/CapSense_BIST.c **** 
 753:Generated_Source\PSoC4/CapSense_BIST.c ****     newRegisterValue = *CapSense_prtCfgTbl[portNumber];
 456              		.loc 1 753 0
 457 0018 0A4B     		ldr	r3, .L15+4
 458 001a CD58     		ldr	r5, [r1, r3]
 459 001c 2B68     		ldr	r3, [r5]
 460              	.LVL58:
 754:Generated_Source\PSoC4/CapSense_BIST.c ****     newRegisterValue &= ~(CapSense_CSD_PIN_MODE_MASK << pinModeShift);
 461              		.loc 1 754 0
 462 001e 0724     		movs	r4, #7
 463 0020 9440     		lsls	r4, r4, r2
 464 0022 A343     		bics	r3, r4
 465              	.LVL59:
 466 0024 1C00     		movs	r4, r3
 467              	.LVL60:
 755:Generated_Source\PSoC4/CapSense_BIST.c ****     newRegisterValue |=  (uint32)((uint32)CapSense_CSD_INACTIVE_CONNECT << pinModeShift);
 468              		.loc 1 755 0
 469 0026 0623     		movs	r3, #6
 470              	.LVL61:
 471 0028 9340     		lsls	r3, r3, r2
 472 002a 2343     		orrs	r3, r4
 473              	.LVL62:
 756:Generated_Source\PSoC4/CapSense_BIST.c ****     *CapSense_prtCfgTbl[portNumber] =  newRegisterValue;
 474              		.loc 1 756 0
 475 002c 2B60     		str	r3, [r5]
 757:Generated_Source\PSoC4/CapSense_BIST.c **** 
 758:Generated_Source\PSoC4/CapSense_BIST.c ****     *CapSense_prtDRTbl[portNumber]  &=  (uint32)~(uint32)((uint32)1u << pinNumber);
 476              		.loc 1 758 0
 477 002e 064B     		ldr	r3, .L15+8
 478              	.LVL63:
 479 0030 C958     		ldr	r1, [r1, r3]
 480 0032 0B68     		ldr	r3, [r1]
 481 0034 0122     		movs	r2, #1
 482              	.LVL64:
 483 0036 8240     		lsls	r2, r2, r0
 484 0038 9343     		bics	r3, r2
 485 003a 0B60     		str	r3, [r1]
 486              	.LVL65:
 759:Generated_Source\PSoC4/CapSense_BIST.c **** 
 760:Generated_Source\PSoC4/CapSense_BIST.c **** #endif /* CapSense_CONNECT_INACTIVE_SNS == CapSense__SHIELD */
 761:Generated_Source\PSoC4/CapSense_BIST.c **** }
 487              		.loc 1 761 0
 488              		@ sp needed
 489              	.LVL66:
 490              	.LVL67:
 491 003c 70BD     		pop	{r4, r5, r6, pc}
 492              	.L16:
ARM GAS  C:\Users\ELEASO~1\AppData\Local\Temp\cc1bKQei.s 			page 24


 493 003e C046     		.align	2
 494              	.L15:
 495 0040 00000000 		.word	CapSense_prtSelTbl
 496 0044 00000000 		.word	CapSense_prtCfgTbl
 497 0048 00000000 		.word	CapSense_prtDRTbl
 498              		.cfi_endproc
 499              	.LFE41:
 500              		.size	CapSense_DisconnectElectrode, .-CapSense_DisconnectElectrode
 501              		.section	.text.CapSense_ScanSensorCp,"ax",%progbits
 502              		.align	2
 503              		.global	CapSense_ScanSensorCp
 504              		.code	16
 505              		.thumb_func
 506              		.type	CapSense_ScanSensorCp, %function
 507              	CapSense_ScanSensorCp:
 508              	.LFB38:
 457:Generated_Source\PSoC4/CapSense_BIST.c ****     uint32 curSample;
 509              		.loc 1 457 0
 510              		.cfi_startproc
 511              		@ args = 0, pretend = 0, frame = 0
 512              		@ frame_needed = 0, uses_anonymous_args = 0
 513              	.LVL68:
 514 0000 F8B5     		push	{r3, r4, r5, r6, r7, lr}
 515              		.cfi_def_cfa_offset 24
 516              		.cfi_offset 3, -24
 517              		.cfi_offset 4, -20
 518              		.cfi_offset 5, -16
 519              		.cfi_offset 6, -12
 520              		.cfi_offset 7, -8
 521              		.cfi_offset 14, -4
 522 0002 0400     		movs	r4, r0
 523              	.LVL69:
 477:Generated_Source\PSoC4/CapSense_BIST.c ****     #endif /* (0u != CapSense_IS_M0S8PERI_BLOCK) */
 524              		.loc 1 477 0
 525 0004 8088     		ldrh	r0, [r0, #4]
 526              	.LVL70:
 527 0006 4008     		lsrs	r0, r0, #1
 528              	.LVL71:
 481:Generated_Source\PSoC4/CapSense_BIST.c ****     CapSense_SampleClk_SetDividerValue(config->sampleClkDiv);
 529              		.loc 1 481 0
 530 0008 0138     		subs	r0, r0, #1
 531              	.LVL72:
 532 000a 80B2     		uxth	r0, r0
 533              	.LVL73:
 534 000c 0021     		movs	r1, #0
 535 000e FFF7FEFF 		bl	CapSense_SenseClk_SetFractionalDividerRegister
 536              	.LVL74:
 482:Generated_Source\PSoC4/CapSense_BIST.c **** 
 537              		.loc 1 482 0
 538 0012 E088     		ldrh	r0, [r4, #6]
 539 0014 0138     		subs	r0, r0, #1
 540 0016 80B2     		uxth	r0, r0
 541 0018 0021     		movs	r1, #0
 542 001a FFF7FEFF 		bl	CapSense_SampleClk_SetFractionalDividerRegister
 543              	.LVL75:
 485:Generated_Source\PSoC4/CapSense_BIST.c ****     newConfigRegisterValue &= ~(CapSense_CSD_CMOD_CONNECTION_MASK);
 544              		.loc 1 485 0
ARM GAS  C:\Users\ELEASO~1\AppData\Local\Temp\cc1bKQei.s 			page 25


 545 001e 294A     		ldr	r2, .L26
 546 0020 1168     		ldr	r1, [r2]
 547              	.LVL76:
 486:Generated_Source\PSoC4/CapSense_BIST.c ****     newConfigRegisterValue |= CapSense_CSD_CMOD_TO_AMUXBUS_A;
 548              		.loc 1 486 0
 549 0022 294B     		ldr	r3, .L26+4
 550 0024 0B40     		ands	r3, r1
 551              	.LVL77:
 487:Generated_Source\PSoC4/CapSense_BIST.c ****     CapSense_CMOD_CONNECTION_REG = newConfigRegisterValue;
 552              		.loc 1 487 0
 553 0026 C021     		movs	r1, #192
 554 0028 C900     		lsls	r1, r1, #3
 555 002a 0B43     		orrs	r3, r1
 556              	.LVL78:
 488:Generated_Source\PSoC4/CapSense_BIST.c **** 
 557              		.loc 1 488 0
 558 002c 1360     		str	r3, [r2]
 491:Generated_Source\PSoC4/CapSense_BIST.c ****     newIdacRegisterValue &= ~(CapSense_CSD_IDAC1_DATA_MASK);
 559              		.loc 1 491 0
 560 002e 274B     		ldr	r3, .L26+8
 561              	.LVL79:
 562 0030 1E68     		ldr	r6, [r3]
 563              	.LVL80:
 492:Generated_Source\PSoC4/CapSense_BIST.c ****     newIdacRegisterValue |= config->idacValue;
 564              		.loc 1 492 0
 565 0032 FF23     		movs	r3, #255
 566 0034 9E43     		bics	r6, r3
 567              	.LVL81:
 568 0036 3300     		movs	r3, r6
 569              	.LVL82:
 493:Generated_Source\PSoC4/CapSense_BIST.c **** 
 570              		.loc 1 493 0
 571 0038 A678     		ldrb	r6, [r4, #2]
 572 003a 1E43     		orrs	r6, r3
 573              	.LVL83:
 496:Generated_Source\PSoC4/CapSense_BIST.c **** 
 574              		.loc 1 496 0
 575 003c 244B     		ldr	r3, .L26+12
 576 003e 1F68     		ldr	r7, [r3]
 577              	.LVL84:
 520:Generated_Source\PSoC4/CapSense_BIST.c ****     #endif  /* CapSense_IS_COMPLEX_SCANSLOTS */
 578              		.loc 1 520 0
 579 0040 2078     		ldrb	r0, [r4]
 580 0042 6178     		ldrb	r1, [r4, #1]
 581 0044 FFF7FEFF 		bl	CapSense_ConnectElectrode
 582              	.LVL85:
 459:Generated_Source\PSoC4/CapSense_BIST.c ****     uint32 watchdogCounter;
 583              		.loc 1 459 0
 584 0048 0025     		movs	r5, #0
 524:Generated_Source\PSoC4/CapSense_BIST.c ****     {
 585              		.loc 1 524 0
 586 004a 0021     		movs	r1, #0
 587 004c 24E0     		b	.L18
 588              	.LVL86:
 589              	.L24:
 527:Generated_Source\PSoC4/CapSense_BIST.c ****         CapSense_CSD_IDAC_REG = CapSense_CSD_IDAC_PRECHARGE_CONFIG;
 590              		.loc 1 527 0
ARM GAS  C:\Users\ELEASO~1\AppData\Local\Temp\cc1bKQei.s 			page 26


 591 004e 214A     		ldr	r2, .L26+16
 592 0050 1F4B     		ldr	r3, .L26+12
 593 0052 1A60     		str	r2, [r3]
 528:Generated_Source\PSoC4/CapSense_BIST.c **** 
 594              		.loc 1 528 0
 595 0054 FD22     		movs	r2, #253
 596 0056 5200     		lsls	r2, r2, #1
 597 0058 1C4B     		ldr	r3, .L26+8
 598 005a 1A60     		str	r2, [r3]
 599              	.LVL87:
 534:Generated_Source\PSoC4/CapSense_BIST.c ****         while((0u == (CapSense_CSD_STAT_REG & CapSense_CSD_STAT_SAMPLE)) && (0u != watchdogCounter)
 600              		.loc 1 534 0
 601 005c F023     		movs	r3, #240
 602 005e 5B00     		lsls	r3, r3, #1
 535:Generated_Source\PSoC4/CapSense_BIST.c ****         {
 603              		.loc 1 535 0
 604 0060 00E0     		b	.L19
 605              	.LVL88:
 606              	.L21:
 537:Generated_Source\PSoC4/CapSense_BIST.c ****         }
 607              		.loc 1 537 0
 608 0062 013B     		subs	r3, r3, #1
 609              	.LVL89:
 610              	.L19:
 535:Generated_Source\PSoC4/CapSense_BIST.c ****         {
 611              		.loc 1 535 0
 612 0064 1C4A     		ldr	r2, .L26+20
 613 0066 1268     		ldr	r2, [r2]
 614 0068 1207     		lsls	r2, r2, #28
 615 006a 01D4     		bmi	.L20
 535:Generated_Source\PSoC4/CapSense_BIST.c ****         {
 616              		.loc 1 535 0 is_stmt 0 discriminator 1
 617 006c 002B     		cmp	r3, #0
 618 006e F8D1     		bne	.L21
 619              	.L20:
 543:Generated_Source\PSoC4/CapSense_BIST.c **** 
 620              		.loc 1 543 0 is_stmt 1
 621 0070 164A     		ldr	r2, .L26+8
 622 0072 1660     		str	r6, [r2]
 546:Generated_Source\PSoC4/CapSense_BIST.c ****         /* Set resolution and begin scanning  */
 623              		.loc 1 546 0
 624 0074 1948     		ldr	r0, .L26+24
 625 0076 164A     		ldr	r2, .L26+12
 626 0078 1060     		str	r0, [r2]
 548:Generated_Source\PSoC4/CapSense_BIST.c ****         while(0u != (CapSense_CSD_CNT_REG & CapSense_RESOLUTION_16_BITS))
 627              		.loc 1 548 0
 628 007a 194A     		ldr	r2, .L26+28
 629 007c E068     		ldr	r0, [r4, #12]
 630 007e 1060     		str	r0, [r2]
 631              	.L22:
 549:Generated_Source\PSoC4/CapSense_BIST.c ****         {
 632              		.loc 1 549 0 discriminator 1
 633 0080 174A     		ldr	r2, .L26+28
 634 0082 1268     		ldr	r2, [r2]
 635 0084 120C     		lsrs	r2, r2, #16
 636 0086 FBD1     		bne	.L22
 554:Generated_Source\PSoC4/CapSense_BIST.c ****         {
ARM GAS  C:\Users\ELEASO~1\AppData\Local\Temp\cc1bKQei.s 			page 27


 637              		.loc 1 554 0
 638 0088 002B     		cmp	r3, #0
 639 008a 03D0     		beq	.L25
 556:Generated_Source\PSoC4/CapSense_BIST.c ****         }
 640              		.loc 1 556 0
 641 008c 144B     		ldr	r3, .L26+28
 642              	.LVL90:
 643 008e 1B68     		ldr	r3, [r3]
 644 0090 ED18     		adds	r5, r5, r3
 645              	.LVL91:
 646 0092 00E0     		b	.L23
 647              	.LVL92:
 648              	.L25:
 560:Generated_Source\PSoC4/CapSense_BIST.c ****         }
 649              		.loc 1 560 0
 650 0094 0025     		movs	r5, #0
 651              	.LVL93:
 652              	.L23:
 524:Generated_Source\PSoC4/CapSense_BIST.c ****     {
 653              		.loc 1 524 0 discriminator 2
 654 0096 0131     		adds	r1, r1, #1
 655              	.LVL94:
 656              	.L18:
 524:Generated_Source\PSoC4/CapSense_BIST.c ****     {
 657              		.loc 1 524 0 is_stmt 0 discriminator 1
 658 0098 237A     		ldrb	r3, [r4, #8]
 659 009a 9942     		cmp	r1, r3
 660 009c D7D3     		bcc	.L24
 586:Generated_Source\PSoC4/CapSense_BIST.c ****     #endif  /* CapSense_IS_COMPLEX_SCANSLOTS */
 661              		.loc 1 586 0 is_stmt 1
 662 009e 2078     		ldrb	r0, [r4]
 663 00a0 6178     		ldrb	r1, [r4, #1]
 664              	.LVL95:
 665 00a2 FFF7FEFF 		bl	CapSense_DisconnectElectrode
 666              	.LVL96:
 590:Generated_Source\PSoC4/CapSense_BIST.c **** 
 667              		.loc 1 590 0
 668 00a6 0A4B     		ldr	r3, .L26+12
 669 00a8 1F60     		str	r7, [r3]
 593:Generated_Source\PSoC4/CapSense_BIST.c ****     CyIntClearPending(CapSense_ISR_NUMBER);
 670              		.loc 1 593 0
 671 00aa 0122     		movs	r2, #1
 672 00ac 0D4B     		ldr	r3, .L26+32
 673 00ae 1A60     		str	r2, [r3]
 594:Generated_Source\PSoC4/CapSense_BIST.c **** 
 674              		.loc 1 594 0
 675 00b0 0F20     		movs	r0, #15
 676 00b2 FFF7FEFF 		bl	CyIntClearPending
 677              	.LVL97:
 596:Generated_Source\PSoC4/CapSense_BIST.c **** }
 678              		.loc 1 596 0
 679 00b6 217A     		ldrb	r1, [r4, #8]
 680 00b8 2800     		movs	r0, r5
 681 00ba FFF7FEFF 		bl	__aeabi_uidiv
 682              	.LVL98:
 683 00be 80B2     		uxth	r0, r0
 597:Generated_Source\PSoC4/CapSense_BIST.c **** 
ARM GAS  C:\Users\ELEASO~1\AppData\Local\Temp\cc1bKQei.s 			page 28


 684              		.loc 1 597 0
 685              		@ sp needed
 686              	.LVL99:
 687              	.LVL100:
 688              	.LVL101:
 689              	.LVL102:
 690 00c0 F8BD     		pop	{r3, r4, r5, r6, r7, pc}
 691              	.L27:
 692 00c2 C046     		.align	2
 693              	.L26:
 694 00c4 10000140 		.word	1073807376
 695 00c8 FFF0FFFF 		.word	-3841
 696 00cc 08000840 		.word	1074266120
 697 00d0 04000840 		.word	1074266116
 698 00d4 0030C881 		.word	-2117586944
 699 00d8 10000840 		.word	1074266128
 700 00dc 0038E881 		.word	-2115487744
 701 00e0 0C000840 		.word	1074266124
 702 00e4 14000840 		.word	1074266132
 703              		.cfi_endproc
 704              	.LFE38:
 705              		.size	CapSense_ScanSensorCp, .-CapSense_ScanSensorCp
 706              		.section	.text.CapSense_CalibrateIDAC,"ax",%progbits
 707              		.align	2
 708              		.global	CapSense_CalibrateIDAC
 709              		.code	16
 710              		.thumb_func
 711              		.type	CapSense_CalibrateIDAC, %function
 712              	CapSense_CalibrateIDAC:
 713              	.LFB39:
 628:Generated_Source\PSoC4/CapSense_BIST.c ****     uint8 mask;
 714              		.loc 1 628 0
 715              		.cfi_startproc
 716              		@ args = 0, pretend = 0, frame = 0
 717              		@ frame_needed = 0, uses_anonymous_args = 0
 718              	.LVL103:
 719 0000 70B5     		push	{r4, r5, r6, lr}
 720              		.cfi_def_cfa_offset 16
 721              		.cfi_offset 4, -16
 722              		.cfi_offset 5, -12
 723              		.cfi_offset 6, -8
 724              		.cfi_offset 14, -4
 725 0002 0400     		movs	r4, r0
 726              	.LVL104:
 636:Generated_Source\PSoC4/CapSense_BIST.c **** 
 727              		.loc 1 636 0
 728 0004 0023     		movs	r3, #0
 729 0006 8370     		strb	r3, [r0, #2]
 634:Generated_Source\PSoC4/CapSense_BIST.c ****     /* Init IDAC  */
 730              		.loc 1 634 0
 731 0008 8025     		movs	r5, #128
 732              	.LVL105:
 733              	.L30:
 641:Generated_Source\PSoC4/CapSense_BIST.c ****         rawData = CapSense_ScanSensorCp(config);
 734              		.loc 1 641 0
 735 000a A378     		ldrb	r3, [r4, #2]
 736 000c 2B43     		orrs	r3, r5
ARM GAS  C:\Users\ELEASO~1\AppData\Local\Temp\cc1bKQei.s 			page 29


 737 000e A370     		strb	r3, [r4, #2]
 642:Generated_Source\PSoC4/CapSense_BIST.c **** 
 738              		.loc 1 642 0
 739 0010 2000     		movs	r0, r4
 740 0012 FFF7FEFF 		bl	CapSense_ScanSensorCp
 741              	.LVL106:
 644:Generated_Source\PSoC4/CapSense_BIST.c ****         {
 742              		.loc 1 644 0
 743 0016 6389     		ldrh	r3, [r4, #10]
 744 0018 9842     		cmp	r0, r3
 745 001a 02D2     		bcs	.L29
 647:Generated_Source\PSoC4/CapSense_BIST.c ****         }
 746              		.loc 1 647 0
 747 001c A378     		ldrb	r3, [r4, #2]
 748 001e AB43     		bics	r3, r5
 749 0020 A370     		strb	r3, [r4, #2]
 750              	.L29:
 651:Generated_Source\PSoC4/CapSense_BIST.c **** 
 751              		.loc 1 651 0
 752 0022 6D08     		lsrs	r5, r5, #1
 753              	.LVL107:
 653:Generated_Source\PSoC4/CapSense_BIST.c **** 
 754              		.loc 1 653 0
 755 0024 F1D1     		bne	.L30
 655:Generated_Source\PSoC4/CapSense_BIST.c ****     {
 756              		.loc 1 655 0
 757 0026 044B     		ldr	r3, .L33
 758 0028 9C46     		mov	ip, r3
 759 002a 6044     		add	r0, r0, ip
 760              	.LVL108:
 761 002c B828     		cmp	r0, #184
 762 002e 01D9     		bls	.L32
 657:Generated_Source\PSoC4/CapSense_BIST.c ****     }
 763              		.loc 1 657 0
 764 0030 0120     		movs	r0, #1
 765              	.LVL109:
 766 0032 00E0     		b	.L31
 767              	.LVL110:
 768              	.L32:
 661:Generated_Source\PSoC4/CapSense_BIST.c ****     }
 769              		.loc 1 661 0
 770 0034 0020     		movs	r0, #0
 771              	.LVL111:
 772              	.L31:
 665:Generated_Source\PSoC4/CapSense_BIST.c **** 
 773              		.loc 1 665 0
 774              		@ sp needed
 775              	.LVL112:
 776              	.LVL113:
 777 0036 70BD     		pop	{r4, r5, r6, pc}
 778              	.L34:
 779              		.align	2
 780              	.L33:
 781 0038 F6FDFFFF 		.word	-522
 782              		.cfi_endproc
 783              	.LFE39:
 784              		.size	CapSense_CalibrateIDAC, .-CapSense_CalibrateIDAC
ARM GAS  C:\Users\ELEASO~1\AppData\Local\Temp\cc1bKQei.s 			page 30


 785              		.section	.text.CapSense_GetLowCp,"ax",%progbits
 786              		.align	2
 787              		.global	CapSense_GetLowCp
 788              		.code	16
 789              		.thumb_func
 790              		.type	CapSense_GetLowCp, %function
 791              	CapSense_GetLowCp:
 792              	.LFB36:
 245:Generated_Source\PSoC4/CapSense_BIST.c ****     uint32 sensorCp;
 793              		.loc 1 245 0
 794              		.cfi_startproc
 795              		@ args = 0, pretend = 0, frame = 0
 796              		@ frame_needed = 0, uses_anonymous_args = 0
 797              	.LVL114:
 798 0000 70B5     		push	{r4, r5, r6, lr}
 799              		.cfi_def_cfa_offset 16
 800              		.cfi_offset 4, -16
 801              		.cfi_offset 5, -12
 802              		.cfi_offset 6, -8
 803              		.cfi_offset 14, -4
 804 0002 0400     		movs	r4, r0
 253:Generated_Source\PSoC4/CapSense_BIST.c ****     newRegisterValue &= CapSense_CSD_IDAC1_TRIM_MASK;
 805              		.loc 1 253 0
 806 0004 2748     		ldr	r0, .L45
 807              	.LVL115:
 808 0006 0368     		ldr	r3, [r0]
 809              	.LVL116:
 254:Generated_Source\PSoC4/CapSense_BIST.c ****     newRegisterValue |= ((uint32)CapSense_SFLASH_CSD_TRIM1_REG &
 810              		.loc 1 254 0
 811 0008 0F22     		movs	r2, #15
 812 000a 9343     		bics	r3, r2
 813              	.LVL117:
 814 000c 1900     		movs	r1, r3
 815              	.LVL118:
 255:Generated_Source\PSoC4/CapSense_BIST.c ****                         (uint32)CapSense_CSFLASH_TRIM_IDAC1_MASK);
 816              		.loc 1 255 0
 817 000e 264B     		ldr	r3, .L45+4
 818 0010 1B78     		ldrb	r3, [r3]
 819 0012 1340     		ands	r3, r2
 820 0014 0B43     		orrs	r3, r1
 821              	.LVL119:
 257:Generated_Source\PSoC4/CapSense_BIST.c **** 
 822              		.loc 1 257 0
 823 0016 0360     		str	r3, [r0]
 259:Generated_Source\PSoC4/CapSense_BIST.c ****     CyIntDisable(CapSense_ISR_NUMBER);
 824              		.loc 1 259 0
 825 0018 0F20     		movs	r0, #15
 826 001a FFF7FEFF 		bl	CyIntGetState
 827              	.LVL120:
 828 001e 0500     		movs	r5, r0
 829              	.LVL121:
 260:Generated_Source\PSoC4/CapSense_BIST.c **** 
 830              		.loc 1 260 0
 831 0020 0F20     		movs	r0, #15
 832              	.LVL122:
 833 0022 FFF7FEFF 		bl	CyIntDisable
 834              	.LVL123:
ARM GAS  C:\Users\ELEASO~1\AppData\Local\Temp\cc1bKQei.s 			page 31


 263:Generated_Source\PSoC4/CapSense_BIST.c **** 
 835              		.loc 1 263 0
 836 0026 214A     		ldr	r2, .L45+8
 837 0028 1668     		ldr	r6, [r2]
 838              	.LVL124:
 265:Generated_Source\PSoC4/CapSense_BIST.c ****     #if(CapSense_IDAC_CNT > 1u)
 839              		.loc 1 265 0
 840 002a 1168     		ldr	r1, [r2]
 841              	.LVL125:
 267:Generated_Source\PSoC4/CapSense_BIST.c ****                               CapSense_CSD_IDAC2_RANGE_8X | CapSense_CSD_IDAC1_RANGE_8X);
 842              		.loc 1 267 0
 843 002c 204B     		ldr	r3, .L45+12
 844 002e 0B40     		ands	r3, r1
 845              	.LVL126:
 272:Generated_Source\PSoC4/CapSense_BIST.c **** 
 846              		.loc 1 272 0
 847 0030 8021     		movs	r1, #128
 848 0032 8900     		lsls	r1, r1, #2
 849 0034 0B43     		orrs	r3, r1
 850              	.LVL127:
 851 0036 1360     		str	r3, [r2]
 852              	.L36:
 278:Generated_Source\PSoC4/CapSense_BIST.c ****             statusVar = CapSense_CalibrateIDAC(config);
 853              		.loc 1 278 0 discriminator 2
 854 0038 A388     		ldrh	r3, [r4, #4]
 855 003a 5B00     		lsls	r3, r3, #1
 856 003c A380     		strh	r3, [r4, #4]
 279:Generated_Source\PSoC4/CapSense_BIST.c ****         }while((statusVar != CapSense_CALIBRATION_SUCCESS) && (config->senseClkDiv < CapSense_SENSE
 857              		.loc 1 279 0 discriminator 2
 858 003e 2000     		movs	r0, r4
 859 0040 FFF7FEFF 		bl	CapSense_CalibrateIDAC
 860              	.LVL128:
 280:Generated_Source\PSoC4/CapSense_BIST.c **** 
 861              		.loc 1 280 0 discriminator 2
 862 0044 0028     		cmp	r0, #0
 863 0046 02D0     		beq	.L37
 280:Generated_Source\PSoC4/CapSense_BIST.c **** 
 864              		.loc 1 280 0 is_stmt 0 discriminator 1
 865 0048 A388     		ldrh	r3, [r4, #4]
 866 004a 3F2B     		cmp	r3, #63
 867 004c F4D9     		bls	.L36
 868              	.L37:
 282:Generated_Source\PSoC4/CapSense_BIST.c **** 
 869              		.loc 1 282 0 is_stmt 1
 870 004e A378     		ldrb	r3, [r4, #2]
 871 0050 5B08     		lsrs	r3, r3, #1
 872 0052 A370     		strb	r3, [r4, #2]
 285:Generated_Source\PSoC4/CapSense_BIST.c **** 
 873              		.loc 1 285 0
 874 0054 2000     		movs	r0, r4
 875              	.LVL129:
 876 0056 FFF7FEFF 		bl	CapSense_ScanSensorCp
 877              	.LVL130:
 878 005a 0300     		movs	r3, r0
 879              	.LVL131:
 287:Generated_Source\PSoC4/CapSense_BIST.c ****             (sensorRaw < (uint32)CapSense_CHARGE_VALIDATION_ERROR_BOT))
 880              		.loc 1 287 0
ARM GAS  C:\Users\ELEASO~1\AppData\Local\Temp\cc1bKQei.s 			page 32


 881 005c 154A     		ldr	r2, .L45+16
 882 005e 9446     		mov	ip, r2
 883 0060 6044     		add	r0, r0, ip
 884              	.LVL132:
 885 0062 B822     		movs	r2, #184
 886 0064 5200     		lsls	r2, r2, #1
 887 0066 9042     		cmp	r0, r2
 888 0068 02D9     		bls	.L43
 290:Generated_Source\PSoC4/CapSense_BIST.c ****         }
 889              		.loc 1 290 0
 890 006a 703A     		subs	r2, r2, #112
 891 006c FF3A     		subs	r2, r2, #255
 892 006e 00E0     		b	.L39
 893              	.L43:
 294:Generated_Source\PSoC4/CapSense_BIST.c ****         }
 894              		.loc 1 294 0
 895 0070 0022     		movs	r2, #0
 896              	.L39:
 897              	.LVL133:
 297:Generated_Source\PSoC4/CapSense_BIST.c **** 
 898              		.loc 1 297 0
 899 0072 002A     		cmp	r2, #0
 900 0074 02D0     		beq	.L40
 297:Generated_Source\PSoC4/CapSense_BIST.c **** 
 901              		.loc 1 297 0 is_stmt 0 discriminator 1
 902 0076 A288     		ldrh	r2, [r4, #4]
 903              	.LVL134:
 904 0078 3F2A     		cmp	r2, #63
 905 007a DDD9     		bls	.L36
 906              	.L40:
 299:Generated_Source\PSoC4/CapSense_BIST.c ****     if(sensorCp >= (CapSense_CP_MEASURE_MAX_VAL))
 907              		.loc 1 299 0 is_stmt 1
 908 007c A088     		ldrh	r0, [r4, #4]
 909 007e 4343     		muls	r3, r0
 910              	.LVL135:
 911 0080 A078     		ldrb	r0, [r4, #2]
 912 0082 5843     		muls	r0, r3
 913 0084 0C49     		ldr	r1, .L45+20
 914 0086 FFF7FEFF 		bl	__aeabi_uidiv
 915              	.LVL136:
 916 008a 0400     		movs	r4, r0
 917              	.LVL137:
 300:Generated_Source\PSoC4/CapSense_BIST.c ****     {
 918              		.loc 1 300 0
 919 008c C728     		cmp	r0, #199
 920 008e 00D9     		bls	.L41
 302:Generated_Source\PSoC4/CapSense_BIST.c ****     }
 921              		.loc 1 302 0
 922 0090 0024     		movs	r4, #0
 923              	.L41:
 924              	.LVL138:
 306:Generated_Source\PSoC4/CapSense_BIST.c **** 
 925              		.loc 1 306 0
 926 0092 064B     		ldr	r3, .L45+8
 927 0094 1E60     		str	r6, [r3]
 308:Generated_Source\PSoC4/CapSense_BIST.c ****     {
 928              		.loc 1 308 0
ARM GAS  C:\Users\ELEASO~1\AppData\Local\Temp\cc1bKQei.s 			page 33


 929 0096 002D     		cmp	r5, #0
 930 0098 02D0     		beq	.L42
 310:Generated_Source\PSoC4/CapSense_BIST.c ****     }
 931              		.loc 1 310 0
 932 009a 0F20     		movs	r0, #15
 933 009c FFF7FEFF 		bl	CyIntEnable
 934              	.LVL139:
 935              	.L42:
 314:Generated_Source\PSoC4/CapSense_BIST.c **** 
 936              		.loc 1 314 0
 937 00a0 2000     		movs	r0, r4
 938              		@ sp needed
 939              	.LVL140:
 940              	.LVL141:
 941              	.LVL142:
 942 00a2 70BD     		pop	{r4, r5, r6, pc}
 943              	.L46:
 944              		.align	2
 945              	.L45:
 946 00a4 00FF0840 		.word	1074331392
 947 00a8 62F1FF0F 		.word	268431714
 948 00ac 08000840 		.word	1074266120
 949 00b0 FFF8FFF8 		.word	-117442305
 950 00b4 ECFBFFFF 		.word	-1044
 951 00b8 F4BF0000 		.word	49140
 952              		.cfi_endproc
 953              	.LFE36:
 954              		.size	CapSense_GetLowCp, .-CapSense_GetLowCp
 955              		.section	.text.CapSense_GetSensorCp,"ax",%progbits
 956              		.align	2
 957              		.global	CapSense_GetSensorCp
 958              		.code	16
 959              		.thumb_func
 960              		.type	CapSense_GetSensorCp, %function
 961              	CapSense_GetSensorCp:
 962              	.LFB34:
  45:Generated_Source\PSoC4/CapSense_BIST.c ****     uint32 result;
 963              		.loc 1 45 0
 964              		.cfi_startproc
 965              		@ args = 0, pretend = 0, frame = 16
 966              		@ frame_needed = 0, uses_anonymous_args = 0
 967              	.LVL143:
 968 0000 00B5     		push	{lr}
 969              		.cfi_def_cfa_offset 4
 970              		.cfi_offset 14, -4
 971 0002 85B0     		sub	sp, sp, #20
 972              		.cfi_def_cfa_offset 24
  52:Generated_Source\PSoC4/CapSense_BIST.c ****     CapSense_cpMeasureCfg.portNumber = CapSense_portTable[sensor];
 973              		.loc 1 52 0
 974 0004 0A4B     		ldr	r3, .L48
 975 0006 1B5C     		ldrb	r3, [r3, r0]
 976 0008 6A46     		mov	r2, sp
 977 000a 1370     		strb	r3, [r2]
  53:Generated_Source\PSoC4/CapSense_BIST.c ****     CapSense_cpMeasureCfg.senseClkDiv   = CapSense_SENSE_CLK_DIV_MIN >> 1u;
 978              		.loc 1 53 0
 979 000c 094B     		ldr	r3, .L48+4
 980 000e 1B5C     		ldrb	r3, [r3, r0]
ARM GAS  C:\Users\ELEASO~1\AppData\Local\Temp\cc1bKQei.s 			page 34


 981 0010 5370     		strb	r3, [r2, #1]
  54:Generated_Source\PSoC4/CapSense_BIST.c ****     CapSense_cpMeasureCfg.sampleClkDiv  = CapSense_SAMPLE_CLK_DIV;
 982              		.loc 1 54 0
 983 0012 0123     		movs	r3, #1
 984 0014 9380     		strh	r3, [r2, #4]
  55:Generated_Source\PSoC4/CapSense_BIST.c ****     CapSense_cpMeasureCfg.avgSamplesNum    = CapSense_AVG_SAMPLES_NUM;
 985              		.loc 1 55 0
 986 0016 0133     		adds	r3, r3, #1
 987 0018 D380     		strh	r3, [r2, #6]
  56:Generated_Source\PSoC4/CapSense_BIST.c ****     CapSense_cpMeasureCfg.calibrationCount = (uint16)CapSense_CALIBRATION_COUNT;
 988              		.loc 1 56 0
 989 001a 0123     		movs	r3, #1
 990 001c 1372     		strb	r3, [r2, #8]
  57:Generated_Source\PSoC4/CapSense_BIST.c ****     CapSense_cpMeasureCfg.scanResolution   = CapSense_SCANNING_RESOLUTION;
 991              		.loc 1 57 0
 992 001e 064B     		ldr	r3, .L48+8
 993 0020 5381     		strh	r3, [r2, #10]
  58:Generated_Source\PSoC4/CapSense_BIST.c **** 
 994              		.loc 1 58 0
 995 0022 064B     		ldr	r3, .L48+12
 996 0024 0393     		str	r3, [sp, #12]
  60:Generated_Source\PSoC4/CapSense_BIST.c **** 
 997              		.loc 1 60 0
 998 0026 6846     		mov	r0, sp
 999              	.LVL144:
 1000 0028 FFF7FEFF 		bl	CapSense_GetLowCp
 1001              	.LVL145:
  63:Generated_Source\PSoC4/CapSense_BIST.c **** 
 1002              		.loc 1 63 0
 1003 002c 05B0     		add	sp, sp, #20
 1004              		@ sp needed
 1005 002e 00BD     		pop	{pc}
 1006              	.L49:
 1007              		.align	2
 1008              	.L48:
 1009 0030 00000000 		.word	CapSense_pinShiftTbl
 1010 0034 00000000 		.word	CapSense_portTable
 1011 0038 66020000 		.word	614
 1012 003c 0000FF0F 		.word	268369920
 1013              		.cfi_endproc
 1014              	.LFE34:
 1015              		.size	CapSense_GetSensorCp, .-CapSense_GetSensorCp
 1016              		.text
 1017              	.Letext0:
 1018              		.file 2 "Generated_Source\\PSoC4\\cytypes.h"
 1019              		.file 3 "Generated_Source\\PSoC4\\CapSense_PVT.h"
 1020              		.file 4 "Generated_Source\\PSoC4\\CapSense.h"
 1021              		.file 5 "Generated_Source\\PSoC4\\CapSense_SenseClk.h"
 1022              		.file 6 "Generated_Source\\PSoC4\\CapSense_SampleClk.h"
 1023              		.file 7 "Generated_Source\\PSoC4\\CyLib.h"
