:4000000000100020110000004D0A00004D0A000010B500F023FDC04610B5154C23688022D20213432360182000F002FE2268114B13402360104A114B1A603022104B1A60BB
:40004000103A104B1A60103A0F4B1A60802212060E4B1A6000232360FE210D4A11600D490D4A11600D490E4A11600E4A136010BD00010B40FFFFFBFF0600008004010B403A
:4000800008020240140202401802024008010B4000000240FE0000404000024022000080800002400C020B4010B572B600240FE032486200131959000B00411889881A5AE3
:4000C000C31858880004104300F094FC0134E4B2012CEDD9294801000C31303000F070FC9922274B1A600022264B1A6099231B04254A1360254A136080218903244A1160E6
:40010000244A1360244A136080229205234B1A6023490B783C22934314221343DBB20B70204A117816230B43DBB21370C0221E4B1A601E4A1E4B1A6004221E4B1A601E4A1A
:400140001E4B1A6020221E4B1A601E4A1E4B1A6042221E4B1A601E4A1E4B1A6002221E4B1A6006231D4A13601D491E4A11601E4A1360FFF751FF00F063FC10BD782200007A
:40018000100001400C00014000500F4010500F4014500F4020500F4030500F4038500F4001700F4000700F4000000440DBB6D90008000440000104409BB66D000801044072
:4001C0000C010440DBB66D000802044000030440C3B6D90008030440180304400004044031060000080404401804044010B5064C2378002B07D1054B002B02D0044800E0BE
:4002000000BF0123237010BD8802002000000000441E0000084B10B5002B03D00749084800E000BF07480368002B00D110BD064B002BFBD09847F9E7000000008C020020E3
:40024000441E0000C00000200000000010B5084B1B78012B03D1074B01221A705A70C82000F0C4FC01F084FC01F07CFC10BDC046DA020020A402002010B584B001AC2000FB
:4002800000F008FB2378F62B06D101AB5B79F32B02D10122044B9A70044B1A68044B1A6001F0D6FC04B010BDA4020020CC0F0640C00F064010B5084BDB78002B03D0012067
:4002C00000F0C2FA06E0044B1B78002B02D0022000F0BAFA10BDC046A402002010B500F05FFA0D4801F030FC0C4801F099FA0C4801F0A0FC0121002000F0FEFDC8210901D5
:40030000002000F071FE0121002000F011FE012000F028FE10BDC0464D020000910600007902000010B501F05BF801F0FFF8002001F05CF910BDC04610B5012000F012FE82
:4003400001F0A4F8134B1B78032B06D1124B1B79012B02D100F040FD01E000F04BFD012000F020FE01F0AAF8002000F07FFF01E000F032FD00F0DAFE0028F9D101F0C0F910
:40038000002001F02BF9002801D0012000E0002010BDC046DA020020A402002070B5354B00225A719A71DA711A72322501260024304AD3790133DBB2D37101342E4A127841
:4003C000032A1ED1B32E01D99625AD00022C06D9284B1B79012B02D100F0E2F91FE0A5421DD1012000F080F900F0B4F90A2000F0FDFB002000F078F9FFF75CFF01360024A6
:400400000DE0642B0BD1012000F06EF9642000F0EDFB002000F068F90022164BDA71FFF78BFF144A937901339371002803D053790133537103E00F4B00225A719A710D4BE3
:400440009B79322B06D10B4B5B79322B02D10122084B1A72074B9B78002B03D00422064B1A7006E0034B1B7A002BA1D00522024B1A7070BDA4020020DA02002070B51D4B95
:400480001C79012000F030F900F064F9322000F0ADFB0D2000F07EFC322000F0A7FB00F049FB022805D100F035FB00F04BFB042500E00525002000F017F900F02BFB042D97
:4004C00010D1012000F022F9FA20400000F08EFB002000F01BF9042000F0B6F90122054B5A7202E0052000F0AFF9002C01D100F057F970BDA402002010B562B60022604B7C
:400500001A70FFF7EBFEFA20800000F06FFBFFF7B5FF01245A4B1A78052AFBD89300594AD3589F4600F03CF9574800F05FFB002C02D1012000F0D8F8FA20400000F056FB87
:40054000002000F0D1F8FFF7EDFE01224C4B1A700024DFE74D4B00225A70DA701A7007E0FFF7EAFE002803D0484B0122DA705A70464B5B78002BF3D00222414B1A70C9E775
:40058000012000F0B1F8E120400000F02FFB00F0E1F8322000F02AFB002000F0A5F8FFF789FE0022394B5A700332354B1A70B1E7FFF7F4FE00F0F4F8344B9B78002B20D014
:4005C000642000F013FB0022304B9A7215E0012000F0AEF8012000F087F8C82000F006FB002000F0A5F8002000F07EF8C82000F0FDFA264A937A01339372244B9B7A022B52
:40060000E5D90022214B9A7084E700F0C9F8FFF7C5FE7FE7012000F067F8322000F0E6FA00F098F8192000F0E1FA002000F05CF8032000F009F900F0B3F80022134B9A7273
:4006400015E0012000F074F8012000F04DF8642000F0CCFA002000F06BF8002000F044F8962000F0C3FA094A937A01339372074B9B7A012BE5D90022014B1A704AE7C0463D
:40068000DA020020481E0000DC050000A402002010B5134AD3680133D360124A934204D900220F4BDA60FFF7E9FE0D4BD868642101F08EFB00290CD1094B5B7A002B08D003
:4006C000012000F023F8642000F090FA002000F01DF8042000F0A4FC01F0B0F810BDC046A4020020C04B030010B5012806D1053001F0E4F8002001F0EDF805E0012001F003
:40070000E9F8022001F0DAF810BDC04610B5012806D1053001F0EAF8002001F0F3F805E0012001F0EFF8022001F0E0F810BDC04610B5012806D1023001F034F8012001F095
:400740003BF805E0002001F037F8032001F02AF810BDC04610B50122104B1A70062001F029FA062001F00EFA062001F08FFA062001F076FA012001F029FA002001F00EFA7D
:40078000022000F033FA002001F020FA01F0DEF8142000F02BFA01F007F910BDA802002010B500220C4B1A7001F0E0F8012001F06DFA002001F05EFA032001F051FA012044
:4007C00001F0ECF9002001F001FA032001F0F2F9012001F0D7F910BDA802002070B50500002404E0A300585901F0EEF80134042CF8DD0020012206E093005B595840800080
:40080000104B185C0132042AF6DD01F0DDF8052404E0A300585901F0D7F801340B2CF8DD0020052206E093005B5958408000054B185C01320B2AF6DD01F0C6F8642000F0DF
:40084000D5F970BD781E000010B505281AD880000D4B1B589F460D48FFF7C0FF12E00B483030FFF7BBFF0DE008486030FFF7B6FF08E007481030FFF7B1FF03E00448403040
:40088000FFF7ACFF10BDC046601E0000C40000204401002030B587B0050017220021684601F0C8FA01F078F80028FBD0002401F073F8002805D001F009F96B46185501340A
:4008C000E4B26B461B78552B1FD16B461B79022B01D1082C19D06B469B78012B01D1082C13D06B469B79F62B01D1142C0DD0D52B01D1142C09D0A52B01D1172C05D0D22BFD
:4009000001D1172C01D0172CD1D96B469B79F62B13D12B706B46DB796B716B461B7A6B706B465B7AAB706B469B7AEB706B46DB7A2B716B461B7B6B723CE0D52B13D12B705A
:400940006B46DB796B716B461B7A6B706B465B7AAB706B469B7AEB706B46DB7A2B716B461B7B6B7226E0A52B1CD12B706B46DB796B716B461B7AAB716B465B7AEB716B46B9
:400980009B7A2B726B46DB7A6B706B461B7BAB706B465B7BEB706B469B7B2B716B46DB7B6B7207E000232B706B716B70AB70EB702B716B7200F0F8FF280007B030BDC04615
:4009C000F0B50025002711E0BB00C658F3B2FF22964308E06A008A181478A419527822700135013BDBB2002BF4D10137042FEBD9F0BDC04610B50A00002101F01BFA10BD70
:400A00000C4B1B68002803D080221206134301E05B005B08074A1360074B1B68002803D080229204134301E0044A1340024A13607047C04680031A4008010B40FFFFFFFDE7
:400A400010B50120FFF7DCFF10BDC04610B501F0C5F903680C2B00D1FEE7FEE770B50F4E0F4D13E029686B68AC68002202E001C901C30432A242FAD1E868002202E0002106
:400A800002C304328242FAD11035013E002EE9D101F0AAF9FFF730FDFEE7C046010000005C23000010B500230AE0032B03D89A000949505800E009489900094A8850013386
:400AC0002F2BF2D9FFF7F0FA8022D205116801230B43136010BDC046000000004D0A00000000002010B5040001F0E4F8E304E022920313401900054C2368054A1A400B00C0
:400B00001343236001F0DAF810BDC04600010B40FFFFC7FF054A136802218B431360044A136801398B4313607047C04608000B4018000B40024B1B68022018407047C0464A
:400B400004000B400222014B1A60704704000B401F2318401E3B8340014A13607047C04600E100E01F2318401E3B8340014A13607047C04680E100E001BE704770B5040033
:400B80000D001F2802D90020FFF7F6FF1034A40080239B059C4664442068256070BDC04670B504000E00032902D90020FFF7E4FF1F2C02D90020FFF7DFFF03252540ED003B
:400BC000063501F077F8A408A400074B9C46644421680323AB4099430B003100A9401943216001F06BF870BD00E400E010B5040006E0084B586801F053F8074B9C46644497
:400C000080231B029C42F4D8024B9868604301F047F810BDDC0100200080FFFF10B5034B1B7B584301F03CF810BDC046DC010020F0B557464E46C0B483B0040001F03AF805
:400C40000190E71E2D2F74D83F4B1B78DBB29C4208D83E4B1B78DBB29A463D4B1B78DBB2994631E03B4B1B78DBB29C4208D83A4B1B78DBB29A46394B1B78DBB2994623E03E
:400C8000374B1B78DBB29C4208D8364B1B78DBB29A46354B1B78DBB2994615E0334B1B78DBB29C4208D8324B1B78DBB29A46314B1B78DBB2994607E02F4B1B78DBB29A462A
:400CC0002E4B1B78DBB299462D4BDE5D2F2E09D92A2C07D919222B4B1A60052000F0E0FF192503E0274B1D683F231D40B54206D9234BDA5D234B1A60052000F0D1FF1F4BAC
:400D00009C4664442378DBB21F4A13601F4B52461A601F4B4A461A600520FFF77FFFB5420AD2174BDA5D174B1A60052000F0B8FF02E00020FFF720FF019800F0BFFF03B077
:400D40000CBC91469A46F0BDC0F1FF0FC1F1FF0FC2F1FF0FC3F1FF0FC4F1FF0FC5F1FF0FC6F1FF0FC7F1FF0FC8F1FF0FC9F1FF0FCAF1FF0FCBF1FF0FCCF1FF0FCDF1FF0F7A
:400D8000BC2200002CFF0B4028FF0B401CFF0B4020FF0B4070B503000D4C22680225AA4322600C4A11681E2081435B00184008431060116801230B431360FA208000FFF7CF
:400DC0002DFFFFF7BFFE23681D43256070BDC04608000B4018000B4010B500F06BFF044A136804218B43136030BF00F067FF10BD10ED00E0F0B583B000F05CFF0400134AFA
:400E000013685B005B0813608025ED052B68022633432B600E4B1B889BB20E4A13600E4A116804230B4313600C4F3B6801930220FFF758FE30BF019B3B602B68B3432B60AC
:400E4000200000F03BFF03B0F0BDC04600000B4052F1FF0F0C000B4010ED00E000010B40034B1868C0231B02184000D00120704700010B40034A1368802109060B43136053
:400E80007047C04604010B4010B500F013FF044A1368C02109020B43136000F00FFF10BD00010B4010B500F005FF08490A68084B1A408024E40122430A600A6813408022E9
:400EC000120213430B6000F0F9FE10BD00010B40FF3FFFFF10B50400022802D90020FFF74BFE044B1868E4000134E0400123184010BDC04610020B4070B504000D000228A0
:400F000002D90020FFF738FE2000FFF7E3FF00280AD1064A1368E40003210800A04083430D40A5401D43156070BDC0460C020B4070B504000D00012802D90020FFF71CFE11
:400F40002000FFF7C7FF002809D105490B68E40002340122A2409343A5401D430D6070BD0C020B4010B50400FFF784FF0C4A136823431360E30704D50020FFF7ABFF00280E
:400F8000FAD0E30504D50120FFF7A4FF0028FAD0E30304D50220FFF79DFF0028FAD010BD10020B4010B50400FFF75AFF002818D10C4A1368A3431360E30704D50020FFF73F
:400FC00089FF0028FAD1E30504D50120FFF782FF0028FAD1E30304D50220FFF77BFF0028FAD110BD10020B4070B505000C00012802D90020FFF7C0FDC920FFF70FFE064974
:401000000B682D01054AAA409343AC401C430C604320FFF703FE70BD08020B40FFFF000070B5050000F046FE0400FFF719FF002803D0FFF737FF012100E0002108482840FD
:40104000084A1568084B2B40184310601368012901D1FFF719FF200000F030FE70BDC0460404040010020B40FBFBFBFF70B516480368DBB2154A13700F24A3431900144DD9
:401080002B780F2213400B43E13293432A78A243134303600F4A104B1A60104A104B1A60104A1168104B0B40C021C9000B4313600F20FFF757FD0D490F20FFF75FFD0321DD
:4010C0000F20FFF76DFD70BD00FF0840DC02002062F1FF0F00020001080008400008A0010400084010000140FFF0FFFF0917000010B500F0D1FB00F0B3FB0021002000F098
:40110000B7FB0021002000F0CFFB00F0BBFB00F09DFB044A136804490B4313600F20FFF717FD10BD0400084000100880024B1878012318407047C046B40200204000024B9A
:40114000181880887047C046B402002070B500F0B1FD07490B68F0229343B03A1343054C22683825AA4322600B6000F0A7FD70BD0C0001400803044010B5104B1A5C104998
:401180000B68F02083430B60022A00D10022012A01D1002400E0062400F08CFD09490B68382293431A00E30013430B6000F086FD054A136802218B43136010BDE402002091
:4011C0000C000140080304400003044010B5002403E02000FFF7D0FF0134002CF9D010BDF8B504001A4D2E682D182879013880B2002100F03DFB287A013880B2002100F0FE
:4012000053FB0F20FFF7AEFC12480168124B19402B7B2A7C120413430B4303600F4F3D680F4B1D400F4B1D430F20FFF791FC2000FFF78CFF00F03EFD04003D60002000F00C
:401240002FFD094B1E60200000F038FDF8BDC046F00100200800084000FF80FF04000840FF1FDFFF200020000C00084010B5054B00221A70C2B29A7181221A70FFF7B0FFA3
:4012800010BDC046B402002010B50E4B1A6843000D49CB189A80FFF76FFF0F20FFF762FC0A4A11680A4B0B40A02109020B431360084A1168084B0B4013600F20FFF748FC29
:4012C00010BDC0460C000840B402002004000840FF1FDFFF0800084000FF80FF044A11684002C023DB001840084310607047C04604000840CA0807231940063B8B40825CB9
:40130000134201D0012000E00020704710B504000134E4B2012C06D0210004480830FFF7E9FF0028F4D0200010BDC046B402002010B5CC0807231940063B8B40DBB2002A01
:4013400004D0041922781343237003E0041922789A43227010BDC04670B50600002400250BE03000FFF782FFFFF7E0FE0128FBD03000FFF7E3FE24180135002DF1D0A0B296
:4013800070BDC046F8B505000F0016180023337080243378234333702800FFF7DDFFB84202D23378A34333706408F2D1F8BDC046014B19547047C046E402002010B50024A2
:4013C00004E000212000FFF7F3FF0134002CF8D0FFF74CFE0020FFF781FFFFF7F7FE10BD70B51F4B5B7A002B04D1FFF7E7FF01221B4B5A72FFF77CFE1A4A11681A4B0B4097
:40140000136000240FE0194D6B889800C0180301C018642100F056FC01002A000C322000FFF7B0FF0134002CEDD0002208E00F4989180B7B5808087401335B080B730132C1
:40144000002AF4D0074A1368802149040B431360074A13688021C9030B43136070BDC046B402002008000840FFFFFFFCF001002004000840034B1B68002B02DA0122024B12
:401480001A70704704000840C002002010B5FFF7F1FF0F20FFF766FB064A1168064B0B40136013685B005B08136000F0F5F900F0D7F910BD04000840FFEFF7FF10B500F0B8
:4014C000E1F900F0C3F9034B1B78002B01D0FFF70FFE10BDC002002030B5094B1B5C42000849545A0849545208180025057105720648C05CCB181873054BD45230BDC0467C
:4015000028230000B8020020C402002008020020EC02002010B50400FFF7A8FEFFF706FE0028FBD12000FFF7D7FF10BD10B5002403E02000FFF7EEFF0134002CF9D010BD96
:40154000F0B5474680B40400214B1D5C214B5A191779167B5B5D984601001F481030FFF7C9FE002810D01C4B1B191B7ABE1BB34223DA194E3000103000222100FFF7D8FE38
:40158000751943462B7318E0134B1B191B7ABE19B3420EDB104B5D192B7B013BDBB22B73002B0AD1012221000B481030FFF7C0FE03E0094B5D1943462B73210006481030B0
:4015C000FFF798FE002800D0012004BC9046F0BD2823000008020020C402002010B50020FFF7AEFF002800D0012010BD10B5012200210248FFF79CFE10BDC046BC020020A6
:40160000401849004018800880B27047F0B54F464646C0B483B00400334B1E5C334B9A19127A91464100324A885A5B7D002B05D0304D0F00495BFFF7E3FF785363002E4A1E
:401640009A5A904206D300212C4B1955851AADB2012702E0151AADB20027002F16D1234B9B191B7C9D4211D9244B1B5D1F4A1219127D934206D32000FFF72EFF00221F4BE9
:401680001A5515E001331D4A135511E013029846194B9C4619190B7946463343C018801A020A63006646F25208710022134B1A554B466A46D380D688B5420CD9002F0AD0D1
:4016C000FF2D04D90C4B1C19FF23237207E00A4B1C19257203E0084B1C190023237203B00CBC90469946F0BD2823000008020020B8020020EC020020C4020020E802002049
:4017000010B5FFF783FF10BD10B50F20FFF72AFA01221E4B1A601E4B1878C0B2FFF7B4FD1C4B1B785BB2002B05DA1A4A137801218B43137025E0164C2078C0B2FFF7E6FDBC
:4017400020702378002B05D1114B1878C0B2FFF747FD16E00F4B1A7801218A431A701B785B060ED500220C4B1A7006E00B4AD15C0B4AD1540133084A1370074B1B78002B75
:40178000F4D00F20FFF7E4F910BDC04614000840BA020020B4020020D5020020E0020020BC020020034A136838218B43C0001843106070470801044004490A68D2B20223C5
:4017C0009A434000184010430860704700010440014B58667047C0460000002010B5040000F068FA044A1168044B0B40A4031C43146000F063FA10BD08E400E0FF3FFFFFBE
:4018000080229200014B1A607047C04600E100E080229200014B1A607047C04680E100E010B50400FFF7F4FF2000FFF7D1FF0320FFF7D4FFFFF7E4FF10BDC04680229200D4
:40184000014B1A607047C04680E200E0034A1368802109060B4313607047C04600000240024A13685B005B081360704700000240034A13681B0C1B04034313607047C046F6
:4018800000000240034A1368802109060B4313607047C04640000240024A13685B005B081360704740000240034A13681B0C1B04034313607047C04640000240034A116871
:4018C000034B0B40400518431060704708000440FFFF1FFF04490A687F231A40C301D8B2104308607047C04600000440034A1168034B0B40800418431060704708000440AA
:40190000FFFFE3FF04490A68D2B240239A43800118401043086070470000044010B500F0AFF810BD10B500F0BDF810BD10B500F059F810BD10B5044A1368802109060B43F6
:401940001360FFF7EBFF10BD0000064010B5064B1B78002B04D1FFF7E9FF0122024B1A70FFF7E8FF10BDC046D602002010B5FFF7D9FF044A13685B005B0813600022024BDC
:401980001A6010BD00000640880F0640014B18687047C04640030640024B1B680F2018407047C04608030640054B1A68802149020A431A601968034A0A401A607047C04672
:4019C00004030640FFFFFEFF044B1B680F221340082BF9D0024B18607047C046080206404002064010B5144A144B1A600023144A13600121134A1160134A144802600724CD
:401A000013480460134803601348016013490A60134A1360134A1360134A1360134A1360134A13600421134A1160134A13601268124B1A8010BDC0460B000002000006403D
:401A4000400006404800064007000080000306400403064010030640440006400002064004020640880E0640C80E0640480F0640080F0640C80F0640880F0640D8020020D8
:401A800005490B68F0229343603A13430B60034B1A88034B1A60704710000140D8020020880F0640064A1368F0218B431360054B1A68E423DB001340034A13807047C046CA
:401AC00010000140880F0640D802002010B5FFF763FF002802D0FFF759FF01E0064B1868064A1368D821890011601B02D82292021340184310BDC04640030640C00F06401F
:401B0000014B58647047C0460000002010B5040000F0D0F8044A1168044B0B40A4031C43146000F0CBF810BD00E400E0FF3FFFFF0222014B1A60704700E100E00222014B12
:401B40001A60704780E100E010B50400FFF7F6FF2000FFF7D5FF0320FFF7D8FFFFF7E8FF10BDC0460222014B1A60704780E200E0034A10680423184010608008C0B270476D
:401B800010010440034A1168034B0B40800418431060704708030440FFFFE3FF04490A68D2B240239A438001184010430860704700030440034A1168034B0B404005184328
:401BC0001060704708030440FFFF1FFF04490A687F231A40C301D8B2104308607047C04600030440014B98667047C0460000002010B5040000F05EF8044A1168044B0B40F4
:401C0000A4051C43146000F059F810BD08E400E0FFFF3FFF8022D200014B1A607047C04600E100E08022D200014B1A607047C04680E100E010B50400FFF7F4FF2000FFF75A
:401C4000D1FF0020FFF7D4FFFFF7E4FF10BDC0468022D200014B1A607047C04680E200E0034A136838218B43C0001843106070470804044004490A68D2B202239A434000C0
:401C8000184010430860704700040440034A136807218B43184310607047C046080404400230800804D0C0460138FDD1C046C046C0467047EFF3108072B6704780F31088BC
:401CC0007047C046002243088B4274D303098B425FD3030A8B4244D3030B8B4228D3030C8B420DD3FF22090212BA030C8B4202D31212090265D0030B8B4219D300E0090A51
:401D0000C30B8B4201D3CB03C01A5241830B8B4201D38B03C01A5241430B8B4201D34B03C01A5241030B8B4201D30B03C01A5241C30A8B4201D3CB02C01A5241830A8B42F9
:401D400001D38B02C01A5241430A8B4201D34B02C01A5241030A8B4201D30B02C01A5241CDD2C3098B4201D3CB01C01A524183098B4201D38B01C01A524143098B4201D36D
:401D80004B01C01A524103098B4201D30B01C01A5241C3088B4201D3CB00C01A524183088B4201D38B00C01A524143088B4201D34B00C01A5241411A00D20146524110467B
:401DC0007047FFE701B5002000F006F802BDC0460029F7D076E770477047C046014B18687047C046800200200E4B70B500251E000D4CE41AA410A54204D0AB00F358984775
:401E00000135F8E700F098FA084B00251E00084CE41AA410A54204D0AB00F35898470135F8E770BD4423000044230000442300004C23000003008218934202D019700133F8
:401E4000FAE7704700000000240500005405000080050000B00500000A0600001406000084080000560800005E08000068080000720800007C08000000000000070000001F
:401E80000E000000090000001C0000001B0000001200000015000000380000003F000000360000003100000024000000230000002A0000002D00000070000000770000004A
:401EC0007E000000790000006C0000006B0000006200000065000000480000004F000000460000004100000054000000530000005A0000005D000000E0000000E70000000A
:401F0000EE000000E9000000FC000000FB000000F2000000F5000000D8000000DF000000D6000000D1000000C4000000C3000000CA000000CD000000900000009700000049
:401F40009E000000990000008C0000008B0000008200000085000000A8000000AF000000A6000000A1000000B4000000B3000000BA000000BD000000C7000000C000000009
:401F8000C9000000CE000000DB000000DC000000D5000000D2000000FF000000F8000000F1000000F6000000E3000000E4000000ED000000EA000000B7000000B000000049
:401FC000B9000000BE000000AB000000AC000000A5000000A20000008F00000088000000810000008600000093000000940000009D0000009A000000270000002000000009
:40200000290000002E0000003B0000003C00000035000000320000001F00000018000000110000001600000003000000040000000D0000000A000000570000005000000048
:40204000590000005E0000004B0000004C00000045000000420000006F00000068000000610000006600000073000000740000007D0000007A000000890000008E000000F8
:40208000870000008000000095000000920000009B0000009C000000B1000000B6000000BF000000B8000000AD000000AA000000A3000000A4000000F9000000FE00000048
:4020C000F7000000F0000000E5000000E2000000EB000000EC000000C1000000C6000000CF000000C8000000DD000000DA000000D3000000D4000000690000006E00000008
:40210000670000006000000075000000720000007B0000007C00000051000000560000005F000000580000004D0000004A0000004300000044000000190000001E00000047
:40214000170000001000000005000000020000000B0000000C00000021000000260000002F000000280000003D0000003A00000033000000340000004E0000004900000007
:40218000400000004700000052000000550000005C0000005B0000007600000071000000780000007F0000006A0000006D00000064000000630000003E0000003900000047
:4021C000300000003700000022000000250000002C0000002B0000000600000001000000080000000F0000001A0000001D0000001400000013000000AE000000A900000007
:40220000A0000000A7000000B2000000B5000000BC000000BB0000009600000091000000980000009F0000008A0000008D0000008400000083000000DE000000D900000046
:40224000D0000000D7000000C2000000C5000000CC000000CB000000E6000000E1000000E8000000EF000000FA000000FD000000F4000000F300000000300F40000400405A
:402280000F400004B880BE40D804DF0118018C016C407008DC0361028C488D029480A408D802E4080201110104320F4002330F4003420F4007430F4002600F4003040506D6
:4022C0000708090A0B0C0E0F101112131415161718191B1C1D1E1F2021222325262728292A2B2E2F303132333435000008000440080104400802044008030440080404407A
:402300000000014004000140080001400C00014010000140000004400001044000020440000304400004044000000000010000000200000003430000F8B5C046F8BC08BC5E
:402340009E46704715020000A50A0000F8B5C046F8BC08BC9E467047ED01000070230000C0000020C801000068000000000000000000000055000000000000000700000048
:402380000000000001000000F6000000AF000000450000004C0000004500000041000000200000005500000000000000070000000000000001000000F6000000B00000003D
:4023C000450000004C0000004500000041000000200000005500000000000000070000000000000001000000F6000000F2000000450000004C00000045000000410000004A
:40240000200000005500000000000000070000000000000001000000F6000000F1000000450000004C000000450000004100000020000000550000000000000007000000A5
:402440000000000001000000F6000000F0000000450000004C00000045000000410000002000000055000000000000000500000000000000050000000100000000000000DE
:40248000FF000000FF000000FF000000010000000000E02EC05D00001800000000366E010000FF0F0200000002000000500000005000000008030440010000001E00000016
:4024C0001E00000005000000320000001E01000000000000000000000000000000000000000000000000000000000000000000003523000000000000000000000000000010
:402500000000000000000000000000000000000000000000000000000000000000000000000000000000000000000000000000002002002000000000000000000000000059
:40254000000000000000000000000000000000000000000000000000000000000000000000000000000000000000000000000000000000000000000000000000000000005B
:40258000000000000000000000000000000000000000000000000000000000000000000000000000000000000000000000000000000000000000000000000000000000001B
:4025C00000000000000000000000000000000000000000000000000000000000000000000000000000000000000000000000000000000000000000000000000000000000DB
:40260000000000000000000000000000000000000000000000000000000000000000000000000000000000000000000000000000000000000000000000000000000000009A
:0200000490303A
:0200000063E5B6
:0200000490402A
:1000000000000000000000000000000000000000F0
:0200000490501A
:0C0000000002041A119311000425757809
:0200000490600A
:0100000001FE
:00000001FF