ARM GAS  C:\Users\ELEASO~1\AppData\Local\Temp\ccPHNbG3.s 			page 1


   1              		.syntax unified
   2              		.cpu cortex-m0
   3              		.fpu softvfp
   4              		.eabi_attribute 20, 1
   5              		.eabi_attribute 21, 1
   6              		.eabi_attribute 23, 3
   7              		.eabi_attribute 24, 1
   8              		.eabi_attribute 25, 1
   9              		.eabi_attribute 26, 1
  10              		.eabi_attribute 30, 1
  11              		.eabi_attribute 34, 0
  12              		.eabi_attribute 18, 4
  13              		.thumb
  14              		.syntax unified
  15              		.file	"funciones.c"
  16              		.text
  17              	.Ltext0:
  18              		.cfi_sections	.debug_frame
  19              		.section	.text.Rele_TESA,"ax",%progbits
  20              		.align	2
  21              		.global	Rele_TESA
  22              		.code	16
  23              		.thumb_func
  24              		.type	Rele_TESA, %function
  25              	Rele_TESA:
  26              	.LFB34:
  27              		.file 1 "funciones.c"
   1:funciones.c   **** /* ========================================
   2:funciones.c   ****  *
   3:funciones.c   ****  * Copyright YOUR COMPANY, THE YEAR
   4:funciones.c   ****  * All Rights Reserved
   5:funciones.c   ****  * UNPUBLISHED, LICENSED SOFTWARE.
   6:funciones.c   ****  *
   7:funciones.c   ****  * CONFIDENTIAL AND PROPRIETARY INFORMATION
   8:funciones.c   ****  * WHICH IS THE PROPERTY OF your company.
   9:funciones.c   ****  *
  10:funciones.c   ****  * ========================================
  11:funciones.c   **** */
  12:funciones.c   **** #include "funciones.h"
  13:funciones.c   **** #include <project.h>
  14:funciones.c   **** 
  15:funciones.c   **** //------------------------------------------------------------------------------------
  16:funciones.c   **** /* 
  17:funciones.c   **** Rele_TESA(int accion)
  18:funciones.c   ****     Esta funcion activa un rele para accionar un mando pulsador de TESA.
  19:funciones.c   **** */
  20:funciones.c   **** //------------------------------------------------------------------------------------
  21:funciones.c   **** void Rele_TESA(int accion)
  22:funciones.c   **** {
  28              		.loc 1 22 0
  29              		.cfi_startproc
  30              		@ args = 0, pretend = 0, frame = 0
  31              		@ frame_needed = 0, uses_anonymous_args = 0
  32              	.LVL0:
  33 0000 10B5     		push	{r4, lr}
  34              		.cfi_def_cfa_offset 8
  35              		.cfi_offset 4, -8
ARM GAS  C:\Users\ELEASO~1\AppData\Local\Temp\ccPHNbG3.s 			page 2


  36              		.cfi_offset 14, -4
  23:funciones.c   ****     if (accion==ON)
  37              		.loc 1 23 0
  38 0002 0128     		cmp	r0, #1
  39 0004 06D1     		bne	.L2
  24:funciones.c   ****     {
  25:funciones.c   ****         Relay_SetDriveMode(Relay_DM_STRONG);
  40              		.loc 1 25 0
  41 0006 0530     		adds	r0, r0, #5
  42              	.LVL1:
  43 0008 FFF7FEFF 		bl	Relay_SetDriveMode
  44              	.LVL2:
  26:funciones.c   ****         Relay_Write(0u);
  45              		.loc 1 26 0
  46 000c 0020     		movs	r0, #0
  47 000e FFF7FEFF 		bl	Relay_Write
  48              	.LVL3:
  49 0012 05E0     		b	.L1
  50              	.LVL4:
  51              	.L2:
  27:funciones.c   ****         
  28:funciones.c   ****     }
  29:funciones.c   ****     else
  30:funciones.c   ****     {
  31:funciones.c   ****         
  32:funciones.c   ****         Relay_Write(1u);
  52              		.loc 1 32 0
  53 0014 0120     		movs	r0, #1
  54              	.LVL5:
  55 0016 FFF7FEFF 		bl	Relay_Write
  56              	.LVL6:
  33:funciones.c   ****         Relay_SetDriveMode(Relay_DM_RES_UP);       
  57              		.loc 1 33 0
  58 001a 0220     		movs	r0, #2
  59 001c FFF7FEFF 		bl	Relay_SetDriveMode
  60              	.LVL7:
  61              	.L1:
  34:funciones.c   ****     }
  35:funciones.c   **** }
  62              		.loc 1 35 0
  63              		@ sp needed
  64 0020 10BD     		pop	{r4, pc}
  65              		.cfi_endproc
  66              	.LFE34:
  67              		.size	Rele_TESA, .-Rele_TESA
  68 0022 C046     		.section	.text.LED_Alarma,"ax",%progbits
  69              		.align	2
  70              		.global	LED_Alarma
  71              		.code	16
  72              		.thumb_func
  73              		.type	LED_Alarma, %function
  74              	LED_Alarma:
  75              	.LFB35:
  36:funciones.c   **** 
  37:funciones.c   **** //------------------------------------------------------------------------------------
  38:funciones.c   **** /* 
  39:funciones.c   **** LED_Alarma(int accion)
ARM GAS  C:\Users\ELEASO~1\AppData\Local\Temp\ccPHNbG3.s 			page 3


  40:funciones.c   ****     Esta funcion recibe un ON o un OFF y en funcion de ello enciende o apaga el 
  41:funciones.c   ****     LED de aviso de emergencias.
  42:funciones.c   **** */
  43:funciones.c   **** //------------------------------------------------------------------------------------
  44:funciones.c   **** void LED_Alarma(int accion)
  45:funciones.c   **** {
  76              		.loc 1 45 0
  77              		.cfi_startproc
  78              		@ args = 0, pretend = 0, frame = 0
  79              		@ frame_needed = 0, uses_anonymous_args = 0
  80              	.LVL8:
  81 0000 10B5     		push	{r4, lr}
  82              		.cfi_def_cfa_offset 8
  83              		.cfi_offset 4, -8
  84              		.cfi_offset 14, -4
  46:funciones.c   ****     if (accion==ON)
  85              		.loc 1 46 0
  86 0002 0128     		cmp	r0, #1
  87 0004 06D1     		bne	.L5
  47:funciones.c   ****     {
  48:funciones.c   ****         LED_A_SetDriveMode(LED_A_DM_STRONG);
  88              		.loc 1 48 0
  89 0006 0530     		adds	r0, r0, #5
  90              	.LVL9:
  91 0008 FFF7FEFF 		bl	LED_A_SetDriveMode
  92              	.LVL10:
  49:funciones.c   ****         LED_A_Write(0u);
  93              		.loc 1 49 0
  94 000c 0020     		movs	r0, #0
  95 000e FFF7FEFF 		bl	LED_A_Write
  96              	.LVL11:
  97 0012 05E0     		b	.L4
  98              	.LVL12:
  99              	.L5:
  50:funciones.c   ****         
  51:funciones.c   ****     }
  52:funciones.c   ****     else
  53:funciones.c   ****     {
  54:funciones.c   ****         
  55:funciones.c   ****         LED_A_Write(1u);
 100              		.loc 1 55 0
 101 0014 0120     		movs	r0, #1
 102              	.LVL13:
 103 0016 FFF7FEFF 		bl	LED_A_Write
 104              	.LVL14:
  56:funciones.c   ****         LED_A_SetDriveMode(LED_A_DM_RES_UP);       
 105              		.loc 1 56 0
 106 001a 0220     		movs	r0, #2
 107 001c FFF7FEFF 		bl	LED_A_SetDriveMode
 108              	.LVL15:
 109              	.L4:
  57:funciones.c   ****     }
  58:funciones.c   **** }
 110              		.loc 1 58 0
 111              		@ sp needed
 112 0020 10BD     		pop	{r4, pc}
 113              		.cfi_endproc
ARM GAS  C:\Users\ELEASO~1\AppData\Local\Temp\ccPHNbG3.s 			page 4


 114              	.LFE35:
 115              		.size	LED_Alarma, .-LED_Alarma
 116 0022 C046     		.section	.text.LED_Bateria,"ax",%progbits
 117              		.align	2
 118              		.global	LED_Bateria
 119              		.code	16
 120              		.thumb_func
 121              		.type	LED_Bateria, %function
 122              	LED_Bateria:
 123              	.LFB36:
  59:funciones.c   **** //------------------------------------------------------------------------------------
  60:funciones.c   **** /* 
  61:funciones.c   **** LED_Bateria(int accion)
  62:funciones.c   ****     Esta funcion recibe un ON o un OFF y en funcion de ello enciende o apaga el 
  63:funciones.c   ****     LED de aviso de bateria baja.
  64:funciones.c   **** */
  65:funciones.c   **** //------------------------------------------------------------------------------------
  66:funciones.c   **** void LED_Bateria(int accion)
  67:funciones.c   **** {
 124              		.loc 1 67 0
 125              		.cfi_startproc
 126              		@ args = 0, pretend = 0, frame = 0
 127              		@ frame_needed = 0, uses_anonymous_args = 0
 128              	.LVL16:
 129 0000 10B5     		push	{r4, lr}
 130              		.cfi_def_cfa_offset 8
 131              		.cfi_offset 4, -8
 132              		.cfi_offset 14, -4
  68:funciones.c   ****     if (accion==ON)
 133              		.loc 1 68 0
 134 0002 0128     		cmp	r0, #1
 135 0004 06D1     		bne	.L8
  69:funciones.c   ****     {
  70:funciones.c   ****         LED_B_SetDriveMode(LED_B_DM_STRONG);
 136              		.loc 1 70 0
 137 0006 0530     		adds	r0, r0, #5
 138              	.LVL17:
 139 0008 FFF7FEFF 		bl	LED_B_SetDriveMode
 140              	.LVL18:
  71:funciones.c   ****         LED_B_Write(0u);
 141              		.loc 1 71 0
 142 000c 0020     		movs	r0, #0
 143 000e FFF7FEFF 		bl	LED_B_Write
 144              	.LVL19:
 145 0012 05E0     		b	.L7
 146              	.LVL20:
 147              	.L8:
  72:funciones.c   ****     }
  73:funciones.c   ****     else
  74:funciones.c   ****     {
  75:funciones.c   ****         LED_B_Write(1u);
 148              		.loc 1 75 0
 149 0014 0120     		movs	r0, #1
 150              	.LVL21:
 151 0016 FFF7FEFF 		bl	LED_B_Write
 152              	.LVL22:
  76:funciones.c   ****         LED_B_SetDriveMode(LED_B_DM_RES_UP);       
ARM GAS  C:\Users\ELEASO~1\AppData\Local\Temp\ccPHNbG3.s 			page 5


 153              		.loc 1 76 0
 154 001a 0220     		movs	r0, #2
 155 001c FFF7FEFF 		bl	LED_B_SetDriveMode
 156              	.LVL23:
 157              	.L7:
  77:funciones.c   ****     }
  78:funciones.c   **** }
 158              		.loc 1 78 0
 159              		@ sp needed
 160 0020 10BD     		pop	{r4, pc}
 161              		.cfi_endproc
 162              	.LFE36:
 163              		.size	LED_Bateria, .-LED_Bateria
 164 0022 C046     		.section	.text.Zumbador,"ax",%progbits
 165              		.align	2
 166              		.global	Zumbador
 167              		.code	16
 168              		.thumb_func
 169              		.type	Zumbador, %function
 170              	Zumbador:
 171              	.LFB37:
  79:funciones.c   **** //------------------------------------------------------------------------------------
  80:funciones.c   **** /* 
  81:funciones.c   **** Zumbador(int accion)
  82:funciones.c   ****     Esta funcion recibe un ON o un OFF y en funcion de ello enciende o apaga el 
  83:funciones.c   ****     zumbador.
  84:funciones.c   **** */
  85:funciones.c   **** //------------------------------------------------------------------------------------
  86:funciones.c   **** void Zumbador(int accion)
  87:funciones.c   **** {    
 172              		.loc 1 87 0
 173              		.cfi_startproc
 174              		@ args = 0, pretend = 0, frame = 0
 175              		@ frame_needed = 0, uses_anonymous_args = 0
 176              	.LVL24:
 177 0000 10B5     		push	{r4, lr}
 178              		.cfi_def_cfa_offset 8
 179              		.cfi_offset 4, -8
 180              		.cfi_offset 14, -4
  88:funciones.c   ****     if (accion==ON)
 181              		.loc 1 88 0
 182 0002 0128     		cmp	r0, #1
 183 0004 06D1     		bne	.L11
  89:funciones.c   ****     {
  90:funciones.c   ****         
  91:funciones.c   **** #ifdef BUZZER_ACT_LOW
  92:funciones.c   ****         BUZZER_SetDriveMode(BUZZER_DM_STRONG);
  93:funciones.c   ****         BUZZER_Write(0u);
  94:funciones.c   **** #else
  95:funciones.c   ****         BUZZER_SetDriveMode(BUZZER_DM_RES_DWN);
 184              		.loc 1 95 0
 185 0006 0230     		adds	r0, r0, #2
 186              	.LVL25:
 187 0008 FFF7FEFF 		bl	BUZZER_SetDriveMode
 188              	.LVL26:
  96:funciones.c   ****         BUZZER_Write(1u);
 189              		.loc 1 96 0
ARM GAS  C:\Users\ELEASO~1\AppData\Local\Temp\ccPHNbG3.s 			page 6


 190 000c 0120     		movs	r0, #1
 191 000e FFF7FEFF 		bl	BUZZER_Write
 192              	.LVL27:
 193 0012 05E0     		b	.L10
 194              	.LVL28:
 195              	.L11:
  97:funciones.c   **** #endif
  98:funciones.c   ****         
  99:funciones.c   ****    
 100:funciones.c   ****     }
 101:funciones.c   ****     else
 102:funciones.c   ****     {
 103:funciones.c   **** #ifdef BUZZER_ACT_LOW
 104:funciones.c   ****         BUZZER_Write(1u);
 105:funciones.c   ****         BUZZER_SetDriveMode(BUZZER_DM_RES_UP);
 106:funciones.c   **** #else
 107:funciones.c   ****         BUZZER_Write(0u);
 196              		.loc 1 107 0
 197 0014 0020     		movs	r0, #0
 198              	.LVL29:
 199 0016 FFF7FEFF 		bl	BUZZER_Write
 200              	.LVL30:
 108:funciones.c   ****         BUZZER_SetDriveMode(BUZZER_DM_RES_DWN);
 201              		.loc 1 108 0
 202 001a 0320     		movs	r0, #3
 203 001c FFF7FEFF 		bl	BUZZER_SetDriveMode
 204              	.LVL31:
 205              	.L10:
 109:funciones.c   **** #endif
 110:funciones.c   ****         
 111:funciones.c   ****     }
 112:funciones.c   **** }
 206              		.loc 1 112 0
 207              		@ sp needed
 208 0020 10BD     		pop	{r4, pc}
 209              		.cfi_endproc
 210              	.LFE37:
 211              		.size	Zumbador, .-Zumbador
 212 0022 C046     		.text
 213              	.Letext0:
 214              		.file 2 "Generated_Source\\PSoC4/Relay.h"
 215              		.file 3 "Generated_Source\\PSoC4/LED_A.h"
 216              		.file 4 "Generated_Source\\PSoC4/LED_B.h"
 217              		.file 5 "Generated_Source\\PSoC4/BUZZER.h"
