ARM GAS  C:\Users\ELEASO~1\AppData\Local\Temp\ccMmZBWf.s 			page 1


   1              		.syntax unified
   2              		.cpu cortex-m0
   3              		.fpu softvfp
   4              		.eabi_attribute 20, 1
   5              		.eabi_attribute 21, 1
   6              		.eabi_attribute 23, 3
   7              		.eabi_attribute 24, 1
   8              		.eabi_attribute 25, 1
   9              		.eabi_attribute 26, 1
  10              		.eabi_attribute 30, 1
  11              		.eabi_attribute 34, 0
  12              		.eabi_attribute 18, 4
  13              		.thumb
  14              		.syntax unified
  15              		.file	"IsrEnoUART.c"
  16              		.text
  17              	.Ltext0:
  18              		.cfi_sections	.debug_frame
  19              		.section	.text.IsrEnoUART_Interrupt,"ax",%progbits
  20              		.align	2
  21              		.global	IsrEnoUART_Interrupt
  22              		.code	16
  23              		.thumb_func
  24              		.type	IsrEnoUART_Interrupt, %function
  25              	IsrEnoUART_Interrupt:
  26              	.LFB3:
  27              		.file 1 "Generated_Source\\PSoC4\\IsrEnoUART.c"
   1:Generated_Source\PSoC4/IsrEnoUART.c **** /*******************************************************************************
   2:Generated_Source\PSoC4/IsrEnoUART.c **** * File Name: IsrEnoUART.c  
   3:Generated_Source\PSoC4/IsrEnoUART.c **** * Version 1.70
   4:Generated_Source\PSoC4/IsrEnoUART.c **** *
   5:Generated_Source\PSoC4/IsrEnoUART.c **** *  Description:
   6:Generated_Source\PSoC4/IsrEnoUART.c **** *   API for controlling the state of an interrupt.
   7:Generated_Source\PSoC4/IsrEnoUART.c **** *
   8:Generated_Source\PSoC4/IsrEnoUART.c **** *
   9:Generated_Source\PSoC4/IsrEnoUART.c **** *  Note:
  10:Generated_Source\PSoC4/IsrEnoUART.c **** *
  11:Generated_Source\PSoC4/IsrEnoUART.c **** ********************************************************************************
  12:Generated_Source\PSoC4/IsrEnoUART.c **** * Copyright 2008-2015, Cypress Semiconductor Corporation.  All rights reserved.
  13:Generated_Source\PSoC4/IsrEnoUART.c **** * You may use this file only in accordance with the license, terms, conditions, 
  14:Generated_Source\PSoC4/IsrEnoUART.c **** * disclaimers, and limitations in the end user license agreement accompanying 
  15:Generated_Source\PSoC4/IsrEnoUART.c **** * the software package with which this file was provided.
  16:Generated_Source\PSoC4/IsrEnoUART.c **** *******************************************************************************/
  17:Generated_Source\PSoC4/IsrEnoUART.c **** 
  18:Generated_Source\PSoC4/IsrEnoUART.c **** 
  19:Generated_Source\PSoC4/IsrEnoUART.c **** #include <cydevice_trm.h>
  20:Generated_Source\PSoC4/IsrEnoUART.c **** #include <CyLib.h>
  21:Generated_Source\PSoC4/IsrEnoUART.c **** #include <IsrEnoUART.h>
  22:Generated_Source\PSoC4/IsrEnoUART.c **** #include "cyapicallbacks.h"
  23:Generated_Source\PSoC4/IsrEnoUART.c **** 
  24:Generated_Source\PSoC4/IsrEnoUART.c **** #if !defined(IsrEnoUART__REMOVED) /* Check for removal by optimization */
  25:Generated_Source\PSoC4/IsrEnoUART.c **** 
  26:Generated_Source\PSoC4/IsrEnoUART.c **** /*******************************************************************************
  27:Generated_Source\PSoC4/IsrEnoUART.c **** *  Place your includes, defines and code here 
  28:Generated_Source\PSoC4/IsrEnoUART.c **** ********************************************************************************/
  29:Generated_Source\PSoC4/IsrEnoUART.c **** /* `#START IsrEnoUART_intc` */
  30:Generated_Source\PSoC4/IsrEnoUART.c **** 
ARM GAS  C:\Users\ELEASO~1\AppData\Local\Temp\ccMmZBWf.s 			page 2


  31:Generated_Source\PSoC4/IsrEnoUART.c **** /* `#END` */
  32:Generated_Source\PSoC4/IsrEnoUART.c **** 
  33:Generated_Source\PSoC4/IsrEnoUART.c **** extern cyisraddress CyRamVectors[CYINT_IRQ_BASE + CY_NUM_INTERRUPTS];
  34:Generated_Source\PSoC4/IsrEnoUART.c **** 
  35:Generated_Source\PSoC4/IsrEnoUART.c **** /* Declared in startup, used to set unused interrupts to. */
  36:Generated_Source\PSoC4/IsrEnoUART.c **** CY_ISR_PROTO(IntDefaultHandler);
  37:Generated_Source\PSoC4/IsrEnoUART.c **** 
  38:Generated_Source\PSoC4/IsrEnoUART.c **** 
  39:Generated_Source\PSoC4/IsrEnoUART.c **** /*******************************************************************************
  40:Generated_Source\PSoC4/IsrEnoUART.c **** * Function Name: IsrEnoUART_Start
  41:Generated_Source\PSoC4/IsrEnoUART.c **** ********************************************************************************
  42:Generated_Source\PSoC4/IsrEnoUART.c **** *
  43:Generated_Source\PSoC4/IsrEnoUART.c **** * Summary:
  44:Generated_Source\PSoC4/IsrEnoUART.c **** *  Set up the interrupt and enable it. This function disables the interrupt, 
  45:Generated_Source\PSoC4/IsrEnoUART.c **** *  sets the default interrupt vector, sets the priority from the value in the
  46:Generated_Source\PSoC4/IsrEnoUART.c **** *  Design Wide Resources Interrupt Editor, then enables the interrupt to the 
  47:Generated_Source\PSoC4/IsrEnoUART.c **** *  interrupt controller.
  48:Generated_Source\PSoC4/IsrEnoUART.c **** *
  49:Generated_Source\PSoC4/IsrEnoUART.c **** * Parameters:  
  50:Generated_Source\PSoC4/IsrEnoUART.c **** *   None
  51:Generated_Source\PSoC4/IsrEnoUART.c **** *
  52:Generated_Source\PSoC4/IsrEnoUART.c **** * Return:
  53:Generated_Source\PSoC4/IsrEnoUART.c **** *   None
  54:Generated_Source\PSoC4/IsrEnoUART.c **** *
  55:Generated_Source\PSoC4/IsrEnoUART.c **** *******************************************************************************/
  56:Generated_Source\PSoC4/IsrEnoUART.c **** void IsrEnoUART_Start(void)
  57:Generated_Source\PSoC4/IsrEnoUART.c **** {
  58:Generated_Source\PSoC4/IsrEnoUART.c ****     /* For all we know the interrupt is active. */
  59:Generated_Source\PSoC4/IsrEnoUART.c ****     IsrEnoUART_Disable();
  60:Generated_Source\PSoC4/IsrEnoUART.c **** 
  61:Generated_Source\PSoC4/IsrEnoUART.c ****     /* Set the ISR to point to the IsrEnoUART Interrupt. */
  62:Generated_Source\PSoC4/IsrEnoUART.c ****     IsrEnoUART_SetVector(&IsrEnoUART_Interrupt);
  63:Generated_Source\PSoC4/IsrEnoUART.c **** 
  64:Generated_Source\PSoC4/IsrEnoUART.c ****     /* Set the priority. */
  65:Generated_Source\PSoC4/IsrEnoUART.c ****     IsrEnoUART_SetPriority((uint8)IsrEnoUART_INTC_PRIOR_NUMBER);
  66:Generated_Source\PSoC4/IsrEnoUART.c **** 
  67:Generated_Source\PSoC4/IsrEnoUART.c ****     /* Enable it. */
  68:Generated_Source\PSoC4/IsrEnoUART.c ****     IsrEnoUART_Enable();
  69:Generated_Source\PSoC4/IsrEnoUART.c **** }
  70:Generated_Source\PSoC4/IsrEnoUART.c **** 
  71:Generated_Source\PSoC4/IsrEnoUART.c **** 
  72:Generated_Source\PSoC4/IsrEnoUART.c **** /*******************************************************************************
  73:Generated_Source\PSoC4/IsrEnoUART.c **** * Function Name: IsrEnoUART_StartEx
  74:Generated_Source\PSoC4/IsrEnoUART.c **** ********************************************************************************
  75:Generated_Source\PSoC4/IsrEnoUART.c **** *
  76:Generated_Source\PSoC4/IsrEnoUART.c **** * Summary:
  77:Generated_Source\PSoC4/IsrEnoUART.c **** *  Sets up the interrupt and enables it. This function disables the interrupt,
  78:Generated_Source\PSoC4/IsrEnoUART.c **** *  sets the interrupt vector based on the address passed in, sets the priority 
  79:Generated_Source\PSoC4/IsrEnoUART.c **** *  from the value in the Design Wide Resources Interrupt Editor, then enables 
  80:Generated_Source\PSoC4/IsrEnoUART.c **** *  the interrupt to the interrupt controller.
  81:Generated_Source\PSoC4/IsrEnoUART.c **** *  
  82:Generated_Source\PSoC4/IsrEnoUART.c **** *  When defining ISR functions, the CY_ISR and CY_ISR_PROTO macros should be 
  83:Generated_Source\PSoC4/IsrEnoUART.c **** *  used to provide consistent definition across compilers:
  84:Generated_Source\PSoC4/IsrEnoUART.c **** *  
  85:Generated_Source\PSoC4/IsrEnoUART.c **** *  Function definition example:
  86:Generated_Source\PSoC4/IsrEnoUART.c **** *   CY_ISR(MyISR)
  87:Generated_Source\PSoC4/IsrEnoUART.c **** *   {
ARM GAS  C:\Users\ELEASO~1\AppData\Local\Temp\ccMmZBWf.s 			page 3


  88:Generated_Source\PSoC4/IsrEnoUART.c **** *   }
  89:Generated_Source\PSoC4/IsrEnoUART.c **** *   Function prototype example:
  90:Generated_Source\PSoC4/IsrEnoUART.c **** *   CY_ISR_PROTO(MyISR);
  91:Generated_Source\PSoC4/IsrEnoUART.c **** *
  92:Generated_Source\PSoC4/IsrEnoUART.c **** * Parameters:  
  93:Generated_Source\PSoC4/IsrEnoUART.c **** *   address: Address of the ISR to set in the interrupt vector table.
  94:Generated_Source\PSoC4/IsrEnoUART.c **** *
  95:Generated_Source\PSoC4/IsrEnoUART.c **** * Return:
  96:Generated_Source\PSoC4/IsrEnoUART.c **** *   None
  97:Generated_Source\PSoC4/IsrEnoUART.c **** *
  98:Generated_Source\PSoC4/IsrEnoUART.c **** *******************************************************************************/
  99:Generated_Source\PSoC4/IsrEnoUART.c **** void IsrEnoUART_StartEx(cyisraddress address)
 100:Generated_Source\PSoC4/IsrEnoUART.c **** {
 101:Generated_Source\PSoC4/IsrEnoUART.c ****     /* For all we know the interrupt is active. */
 102:Generated_Source\PSoC4/IsrEnoUART.c ****     IsrEnoUART_Disable();
 103:Generated_Source\PSoC4/IsrEnoUART.c **** 
 104:Generated_Source\PSoC4/IsrEnoUART.c ****     /* Set the ISR to point to the IsrEnoUART Interrupt. */
 105:Generated_Source\PSoC4/IsrEnoUART.c ****     IsrEnoUART_SetVector(address);
 106:Generated_Source\PSoC4/IsrEnoUART.c **** 
 107:Generated_Source\PSoC4/IsrEnoUART.c ****     /* Set the priority. */
 108:Generated_Source\PSoC4/IsrEnoUART.c ****     IsrEnoUART_SetPriority((uint8)IsrEnoUART_INTC_PRIOR_NUMBER);
 109:Generated_Source\PSoC4/IsrEnoUART.c **** 
 110:Generated_Source\PSoC4/IsrEnoUART.c ****     /* Enable it. */
 111:Generated_Source\PSoC4/IsrEnoUART.c ****     IsrEnoUART_Enable();
 112:Generated_Source\PSoC4/IsrEnoUART.c **** }
 113:Generated_Source\PSoC4/IsrEnoUART.c **** 
 114:Generated_Source\PSoC4/IsrEnoUART.c **** 
 115:Generated_Source\PSoC4/IsrEnoUART.c **** /*******************************************************************************
 116:Generated_Source\PSoC4/IsrEnoUART.c **** * Function Name: IsrEnoUART_Stop
 117:Generated_Source\PSoC4/IsrEnoUART.c **** ********************************************************************************
 118:Generated_Source\PSoC4/IsrEnoUART.c **** *
 119:Generated_Source\PSoC4/IsrEnoUART.c **** * Summary:
 120:Generated_Source\PSoC4/IsrEnoUART.c **** *   Disables and removes the interrupt.
 121:Generated_Source\PSoC4/IsrEnoUART.c **** *
 122:Generated_Source\PSoC4/IsrEnoUART.c **** * Parameters:  
 123:Generated_Source\PSoC4/IsrEnoUART.c **** *   None
 124:Generated_Source\PSoC4/IsrEnoUART.c **** *
 125:Generated_Source\PSoC4/IsrEnoUART.c **** * Return:
 126:Generated_Source\PSoC4/IsrEnoUART.c **** *   None
 127:Generated_Source\PSoC4/IsrEnoUART.c **** *
 128:Generated_Source\PSoC4/IsrEnoUART.c **** *******************************************************************************/
 129:Generated_Source\PSoC4/IsrEnoUART.c **** void IsrEnoUART_Stop(void)
 130:Generated_Source\PSoC4/IsrEnoUART.c **** {
 131:Generated_Source\PSoC4/IsrEnoUART.c ****     /* Disable this interrupt. */
 132:Generated_Source\PSoC4/IsrEnoUART.c ****     IsrEnoUART_Disable();
 133:Generated_Source\PSoC4/IsrEnoUART.c **** 
 134:Generated_Source\PSoC4/IsrEnoUART.c ****     /* Set the ISR to point to the passive one. */
 135:Generated_Source\PSoC4/IsrEnoUART.c ****     IsrEnoUART_SetVector(&IntDefaultHandler);
 136:Generated_Source\PSoC4/IsrEnoUART.c **** }
 137:Generated_Source\PSoC4/IsrEnoUART.c **** 
 138:Generated_Source\PSoC4/IsrEnoUART.c **** 
 139:Generated_Source\PSoC4/IsrEnoUART.c **** /*******************************************************************************
 140:Generated_Source\PSoC4/IsrEnoUART.c **** * Function Name: IsrEnoUART_Interrupt
 141:Generated_Source\PSoC4/IsrEnoUART.c **** ********************************************************************************
 142:Generated_Source\PSoC4/IsrEnoUART.c **** *
 143:Generated_Source\PSoC4/IsrEnoUART.c **** * Summary:
 144:Generated_Source\PSoC4/IsrEnoUART.c **** *   The default Interrupt Service Routine for IsrEnoUART.
ARM GAS  C:\Users\ELEASO~1\AppData\Local\Temp\ccMmZBWf.s 			page 4


 145:Generated_Source\PSoC4/IsrEnoUART.c **** *
 146:Generated_Source\PSoC4/IsrEnoUART.c **** *   Add custom code between the START and END comments to keep the next version
 147:Generated_Source\PSoC4/IsrEnoUART.c **** *   of this file from over-writing your code.
 148:Generated_Source\PSoC4/IsrEnoUART.c **** *
 149:Generated_Source\PSoC4/IsrEnoUART.c **** *   Note You may use either the default ISR by using this API, or you may define
 150:Generated_Source\PSoC4/IsrEnoUART.c **** *   your own separate ISR through ISR_StartEx().
 151:Generated_Source\PSoC4/IsrEnoUART.c **** *
 152:Generated_Source\PSoC4/IsrEnoUART.c **** * Parameters:  
 153:Generated_Source\PSoC4/IsrEnoUART.c **** *   None
 154:Generated_Source\PSoC4/IsrEnoUART.c **** *
 155:Generated_Source\PSoC4/IsrEnoUART.c **** * Return:
 156:Generated_Source\PSoC4/IsrEnoUART.c **** *   None
 157:Generated_Source\PSoC4/IsrEnoUART.c **** *
 158:Generated_Source\PSoC4/IsrEnoUART.c **** *******************************************************************************/
 159:Generated_Source\PSoC4/IsrEnoUART.c **** CY_ISR(IsrEnoUART_Interrupt)
 160:Generated_Source\PSoC4/IsrEnoUART.c **** {
  28              		.loc 1 160 0
  29              		.cfi_startproc
  30              		@ args = 0, pretend = 0, frame = 0
  31              		@ frame_needed = 0, uses_anonymous_args = 0
  32              		@ link register save eliminated.
 161:Generated_Source\PSoC4/IsrEnoUART.c ****     #ifdef IsrEnoUART_INTERRUPT_INTERRUPT_CALLBACK
 162:Generated_Source\PSoC4/IsrEnoUART.c ****         IsrEnoUART_Interrupt_InterruptCallback();
 163:Generated_Source\PSoC4/IsrEnoUART.c ****     #endif /* IsrEnoUART_INTERRUPT_INTERRUPT_CALLBACK */ 
 164:Generated_Source\PSoC4/IsrEnoUART.c **** 
 165:Generated_Source\PSoC4/IsrEnoUART.c ****     /*  Place your Interrupt code here. */
 166:Generated_Source\PSoC4/IsrEnoUART.c ****     /* `#START IsrEnoUART_Interrupt` */
 167:Generated_Source\PSoC4/IsrEnoUART.c **** 
 168:Generated_Source\PSoC4/IsrEnoUART.c ****     /* `#END` */
 169:Generated_Source\PSoC4/IsrEnoUART.c **** }
  33              		.loc 1 169 0
  34              		@ sp needed
  35 0000 7047     		bx	lr
  36              		.cfi_endproc
  37              	.LFE3:
  38              		.size	IsrEnoUART_Interrupt, .-IsrEnoUART_Interrupt
  39 0002 C046     		.section	.text.IsrEnoUART_SetVector,"ax",%progbits
  40              		.align	2
  41              		.global	IsrEnoUART_SetVector
  42              		.code	16
  43              		.thumb_func
  44              		.type	IsrEnoUART_SetVector, %function
  45              	IsrEnoUART_SetVector:
  46              	.LFB4:
 170:Generated_Source\PSoC4/IsrEnoUART.c **** 
 171:Generated_Source\PSoC4/IsrEnoUART.c **** 
 172:Generated_Source\PSoC4/IsrEnoUART.c **** /*******************************************************************************
 173:Generated_Source\PSoC4/IsrEnoUART.c **** * Function Name: IsrEnoUART_SetVector
 174:Generated_Source\PSoC4/IsrEnoUART.c **** ********************************************************************************
 175:Generated_Source\PSoC4/IsrEnoUART.c **** *
 176:Generated_Source\PSoC4/IsrEnoUART.c **** * Summary:
 177:Generated_Source\PSoC4/IsrEnoUART.c **** *   Change the ISR vector for the Interrupt. Note calling IsrEnoUART_Start
 178:Generated_Source\PSoC4/IsrEnoUART.c **** *   will override any effect this method would have had. To set the vector 
 179:Generated_Source\PSoC4/IsrEnoUART.c **** *   before the component has been started use IsrEnoUART_StartEx instead.
 180:Generated_Source\PSoC4/IsrEnoUART.c **** * 
 181:Generated_Source\PSoC4/IsrEnoUART.c **** *   When defining ISR functions, the CY_ISR and CY_ISR_PROTO macros should be 
 182:Generated_Source\PSoC4/IsrEnoUART.c **** *   used to provide consistent definition across compilers:
ARM GAS  C:\Users\ELEASO~1\AppData\Local\Temp\ccMmZBWf.s 			page 5


 183:Generated_Source\PSoC4/IsrEnoUART.c **** *
 184:Generated_Source\PSoC4/IsrEnoUART.c **** *   Function definition example:
 185:Generated_Source\PSoC4/IsrEnoUART.c **** *   CY_ISR(MyISR)
 186:Generated_Source\PSoC4/IsrEnoUART.c **** *   {
 187:Generated_Source\PSoC4/IsrEnoUART.c **** *   }
 188:Generated_Source\PSoC4/IsrEnoUART.c **** *
 189:Generated_Source\PSoC4/IsrEnoUART.c **** *   Function prototype example:
 190:Generated_Source\PSoC4/IsrEnoUART.c **** *     CY_ISR_PROTO(MyISR);
 191:Generated_Source\PSoC4/IsrEnoUART.c **** *
 192:Generated_Source\PSoC4/IsrEnoUART.c **** * Parameters:
 193:Generated_Source\PSoC4/IsrEnoUART.c **** *   address: Address of the ISR to set in the interrupt vector table.
 194:Generated_Source\PSoC4/IsrEnoUART.c **** *
 195:Generated_Source\PSoC4/IsrEnoUART.c **** * Return:
 196:Generated_Source\PSoC4/IsrEnoUART.c **** *   None
 197:Generated_Source\PSoC4/IsrEnoUART.c **** *
 198:Generated_Source\PSoC4/IsrEnoUART.c **** *******************************************************************************/
 199:Generated_Source\PSoC4/IsrEnoUART.c **** void IsrEnoUART_SetVector(cyisraddress address)
 200:Generated_Source\PSoC4/IsrEnoUART.c **** {
  47              		.loc 1 200 0
  48              		.cfi_startproc
  49              		@ args = 0, pretend = 0, frame = 0
  50              		@ frame_needed = 0, uses_anonymous_args = 0
  51              		@ link register save eliminated.
  52              	.LVL0:
 201:Generated_Source\PSoC4/IsrEnoUART.c ****     CyRamVectors[CYINT_IRQ_BASE + IsrEnoUART__INTC_NUMBER] = address;
  53              		.loc 1 201 0
  54 0000 014B     		ldr	r3, .L3
  55 0002 9866     		str	r0, [r3, #104]
 202:Generated_Source\PSoC4/IsrEnoUART.c **** }
  56              		.loc 1 202 0
  57              		@ sp needed
  58 0004 7047     		bx	lr
  59              	.L4:
  60 0006 C046     		.align	2
  61              	.L3:
  62 0008 00000000 		.word	CyRamVectors
  63              		.cfi_endproc
  64              	.LFE4:
  65              		.size	IsrEnoUART_SetVector, .-IsrEnoUART_SetVector
  66              		.section	.text.IsrEnoUART_GetVector,"ax",%progbits
  67              		.align	2
  68              		.global	IsrEnoUART_GetVector
  69              		.code	16
  70              		.thumb_func
  71              		.type	IsrEnoUART_GetVector, %function
  72              	IsrEnoUART_GetVector:
  73              	.LFB5:
 203:Generated_Source\PSoC4/IsrEnoUART.c **** 
 204:Generated_Source\PSoC4/IsrEnoUART.c **** 
 205:Generated_Source\PSoC4/IsrEnoUART.c **** /*******************************************************************************
 206:Generated_Source\PSoC4/IsrEnoUART.c **** * Function Name: IsrEnoUART_GetVector
 207:Generated_Source\PSoC4/IsrEnoUART.c **** ********************************************************************************
 208:Generated_Source\PSoC4/IsrEnoUART.c **** *
 209:Generated_Source\PSoC4/IsrEnoUART.c **** * Summary:
 210:Generated_Source\PSoC4/IsrEnoUART.c **** *   Gets the "address" of the current ISR vector for the Interrupt.
 211:Generated_Source\PSoC4/IsrEnoUART.c **** *
 212:Generated_Source\PSoC4/IsrEnoUART.c **** * Parameters:
ARM GAS  C:\Users\ELEASO~1\AppData\Local\Temp\ccMmZBWf.s 			page 6


 213:Generated_Source\PSoC4/IsrEnoUART.c **** *   None
 214:Generated_Source\PSoC4/IsrEnoUART.c **** *
 215:Generated_Source\PSoC4/IsrEnoUART.c **** * Return:
 216:Generated_Source\PSoC4/IsrEnoUART.c **** *   Address of the ISR in the interrupt vector table.
 217:Generated_Source\PSoC4/IsrEnoUART.c **** *
 218:Generated_Source\PSoC4/IsrEnoUART.c **** *******************************************************************************/
 219:Generated_Source\PSoC4/IsrEnoUART.c **** cyisraddress IsrEnoUART_GetVector(void)
 220:Generated_Source\PSoC4/IsrEnoUART.c **** {
  74              		.loc 1 220 0
  75              		.cfi_startproc
  76              		@ args = 0, pretend = 0, frame = 0
  77              		@ frame_needed = 0, uses_anonymous_args = 0
  78              		@ link register save eliminated.
 221:Generated_Source\PSoC4/IsrEnoUART.c ****     return CyRamVectors[CYINT_IRQ_BASE + IsrEnoUART__INTC_NUMBER];
  79              		.loc 1 221 0
  80 0000 014B     		ldr	r3, .L6
  81 0002 986E     		ldr	r0, [r3, #104]
 222:Generated_Source\PSoC4/IsrEnoUART.c **** }
  82              		.loc 1 222 0
  83              		@ sp needed
  84 0004 7047     		bx	lr
  85              	.L7:
  86 0006 C046     		.align	2
  87              	.L6:
  88 0008 00000000 		.word	CyRamVectors
  89              		.cfi_endproc
  90              	.LFE5:
  91              		.size	IsrEnoUART_GetVector, .-IsrEnoUART_GetVector
  92              		.section	.text.IsrEnoUART_SetPriority,"ax",%progbits
  93              		.align	2
  94              		.global	IsrEnoUART_SetPriority
  95              		.code	16
  96              		.thumb_func
  97              		.type	IsrEnoUART_SetPriority, %function
  98              	IsrEnoUART_SetPriority:
  99              	.LFB6:
 223:Generated_Source\PSoC4/IsrEnoUART.c **** 
 224:Generated_Source\PSoC4/IsrEnoUART.c **** 
 225:Generated_Source\PSoC4/IsrEnoUART.c **** /*******************************************************************************
 226:Generated_Source\PSoC4/IsrEnoUART.c **** * Function Name: IsrEnoUART_SetPriority
 227:Generated_Source\PSoC4/IsrEnoUART.c **** ********************************************************************************
 228:Generated_Source\PSoC4/IsrEnoUART.c **** *
 229:Generated_Source\PSoC4/IsrEnoUART.c **** * Summary:
 230:Generated_Source\PSoC4/IsrEnoUART.c **** *   Sets the Priority of the Interrupt. 
 231:Generated_Source\PSoC4/IsrEnoUART.c **** *
 232:Generated_Source\PSoC4/IsrEnoUART.c **** *   Note calling IsrEnoUART_Start or IsrEnoUART_StartEx will 
 233:Generated_Source\PSoC4/IsrEnoUART.c **** *   override any effect this API would have had. This API should only be called
 234:Generated_Source\PSoC4/IsrEnoUART.c **** *   after IsrEnoUART_Start or IsrEnoUART_StartEx has been called. 
 235:Generated_Source\PSoC4/IsrEnoUART.c **** *   To set the initial priority for the component, use the Design-Wide Resources
 236:Generated_Source\PSoC4/IsrEnoUART.c **** *   Interrupt Editor.
 237:Generated_Source\PSoC4/IsrEnoUART.c **** *
 238:Generated_Source\PSoC4/IsrEnoUART.c **** *   Note This API has no effect on Non-maskable interrupt NMI).
 239:Generated_Source\PSoC4/IsrEnoUART.c **** *
 240:Generated_Source\PSoC4/IsrEnoUART.c **** * Parameters:
 241:Generated_Source\PSoC4/IsrEnoUART.c **** *   priority: Priority of the interrupt, 0 being the highest priority
 242:Generated_Source\PSoC4/IsrEnoUART.c **** *             PSoC 3 and PSoC 5LP: Priority is from 0 to 7.
 243:Generated_Source\PSoC4/IsrEnoUART.c **** *             PSoC 4: Priority is from 0 to 3.
ARM GAS  C:\Users\ELEASO~1\AppData\Local\Temp\ccMmZBWf.s 			page 7


 244:Generated_Source\PSoC4/IsrEnoUART.c **** *
 245:Generated_Source\PSoC4/IsrEnoUART.c **** * Return:
 246:Generated_Source\PSoC4/IsrEnoUART.c **** *   None
 247:Generated_Source\PSoC4/IsrEnoUART.c **** *
 248:Generated_Source\PSoC4/IsrEnoUART.c **** *******************************************************************************/
 249:Generated_Source\PSoC4/IsrEnoUART.c **** void IsrEnoUART_SetPriority(uint8 priority)
 250:Generated_Source\PSoC4/IsrEnoUART.c **** {
 100              		.loc 1 250 0
 101              		.cfi_startproc
 102              		@ args = 0, pretend = 0, frame = 0
 103              		@ frame_needed = 0, uses_anonymous_args = 0
 104              	.LVL1:
 105 0000 10B5     		push	{r4, lr}
 106              		.cfi_def_cfa_offset 8
 107              		.cfi_offset 4, -8
 108              		.cfi_offset 14, -4
 109 0002 0400     		movs	r4, r0
 110              	.LVL2:
 251:Generated_Source\PSoC4/IsrEnoUART.c **** 	uint8 interruptState;
 252:Generated_Source\PSoC4/IsrEnoUART.c ****     uint32 priorityOffset = ((IsrEnoUART__INTC_NUMBER % 4u) * 8u) + 6u;
 253:Generated_Source\PSoC4/IsrEnoUART.c ****     
 254:Generated_Source\PSoC4/IsrEnoUART.c **** 	interruptState = CyEnterCriticalSection();
 111              		.loc 1 254 0
 112 0004 FFF7FEFF 		bl	CyEnterCriticalSection
 113              	.LVL3:
 255:Generated_Source\PSoC4/IsrEnoUART.c ****     *IsrEnoUART_INTC_PRIOR = (*IsrEnoUART_INTC_PRIOR & (uint32)(~IsrEnoUART__INTC_PRIOR_MASK)) |
 114              		.loc 1 255 0
 115 0008 044A     		ldr	r2, .L9
 116 000a 1168     		ldr	r1, [r2]
 117 000c 044B     		ldr	r3, .L9+4
 118 000e 0B40     		ands	r3, r1
 256:Generated_Source\PSoC4/IsrEnoUART.c ****                                     ((uint32)priority << priorityOffset);
 119              		.loc 1 256 0
 120 0010 A405     		lsls	r4, r4, #22
 255:Generated_Source\PSoC4/IsrEnoUART.c ****     *IsrEnoUART_INTC_PRIOR = (*IsrEnoUART_INTC_PRIOR & (uint32)(~IsrEnoUART__INTC_PRIOR_MASK)) |
 121              		.loc 1 255 0
 122 0012 1C43     		orrs	r4, r3
 123 0014 1460     		str	r4, [r2]
 257:Generated_Source\PSoC4/IsrEnoUART.c **** 	CyExitCriticalSection(interruptState);
 124              		.loc 1 257 0
 125 0016 FFF7FEFF 		bl	CyExitCriticalSection
 126              	.LVL4:
 258:Generated_Source\PSoC4/IsrEnoUART.c **** }
 127              		.loc 1 258 0
 128              		@ sp needed
 129 001a 10BD     		pop	{r4, pc}
 130              	.L10:
 131              		.align	2
 132              	.L9:
 133 001c 08E400E0 		.word	-536812536
 134 0020 FFFF3FFF 		.word	-12582913
 135              		.cfi_endproc
 136              	.LFE6:
 137              		.size	IsrEnoUART_SetPriority, .-IsrEnoUART_SetPriority
 138              		.section	.text.IsrEnoUART_GetPriority,"ax",%progbits
 139              		.align	2
 140              		.global	IsrEnoUART_GetPriority
ARM GAS  C:\Users\ELEASO~1\AppData\Local\Temp\ccMmZBWf.s 			page 8


 141              		.code	16
 142              		.thumb_func
 143              		.type	IsrEnoUART_GetPriority, %function
 144              	IsrEnoUART_GetPriority:
 145              	.LFB7:
 259:Generated_Source\PSoC4/IsrEnoUART.c **** 
 260:Generated_Source\PSoC4/IsrEnoUART.c **** 
 261:Generated_Source\PSoC4/IsrEnoUART.c **** /*******************************************************************************
 262:Generated_Source\PSoC4/IsrEnoUART.c **** * Function Name: IsrEnoUART_GetPriority
 263:Generated_Source\PSoC4/IsrEnoUART.c **** ********************************************************************************
 264:Generated_Source\PSoC4/IsrEnoUART.c **** *
 265:Generated_Source\PSoC4/IsrEnoUART.c **** * Summary:
 266:Generated_Source\PSoC4/IsrEnoUART.c **** *   Gets the Priority of the Interrupt.
 267:Generated_Source\PSoC4/IsrEnoUART.c **** *
 268:Generated_Source\PSoC4/IsrEnoUART.c **** * Parameters:
 269:Generated_Source\PSoC4/IsrEnoUART.c **** *   None
 270:Generated_Source\PSoC4/IsrEnoUART.c **** *
 271:Generated_Source\PSoC4/IsrEnoUART.c **** * Return:
 272:Generated_Source\PSoC4/IsrEnoUART.c **** *   Priority of the interrupt, 0 being the highest priority
 273:Generated_Source\PSoC4/IsrEnoUART.c **** *    PSoC 3 and PSoC 5LP: Priority is from 0 to 7.
 274:Generated_Source\PSoC4/IsrEnoUART.c **** *    PSoC 4: Priority is from 0 to 3.
 275:Generated_Source\PSoC4/IsrEnoUART.c **** *
 276:Generated_Source\PSoC4/IsrEnoUART.c **** *******************************************************************************/
 277:Generated_Source\PSoC4/IsrEnoUART.c **** uint8 IsrEnoUART_GetPriority(void)
 278:Generated_Source\PSoC4/IsrEnoUART.c **** {
 146              		.loc 1 278 0
 147              		.cfi_startproc
 148              		@ args = 0, pretend = 0, frame = 0
 149              		@ frame_needed = 0, uses_anonymous_args = 0
 150              		@ link register save eliminated.
 151              	.LVL5:
 279:Generated_Source\PSoC4/IsrEnoUART.c ****     uint32 priority;
 280:Generated_Source\PSoC4/IsrEnoUART.c **** 	uint32 priorityOffset = ((IsrEnoUART__INTC_NUMBER % 4u) * 8u) + 6u;
 281:Generated_Source\PSoC4/IsrEnoUART.c **** 
 282:Generated_Source\PSoC4/IsrEnoUART.c ****     priority = (*IsrEnoUART_INTC_PRIOR & IsrEnoUART__INTC_PRIOR_MASK) >> priorityOffset;
 152              		.loc 1 282 0
 153 0000 024B     		ldr	r3, .L12
 154 0002 1868     		ldr	r0, [r3]
 155 0004 800D     		lsrs	r0, r0, #22
 156              	.LVL6:
 283:Generated_Source\PSoC4/IsrEnoUART.c **** 
 284:Generated_Source\PSoC4/IsrEnoUART.c ****     return (uint8)priority;
 157              		.loc 1 284 0
 158 0006 0323     		movs	r3, #3
 159 0008 1840     		ands	r0, r3
 160              	.LVL7:
 285:Generated_Source\PSoC4/IsrEnoUART.c **** }
 161              		.loc 1 285 0
 162              		@ sp needed
 163 000a 7047     		bx	lr
 164              	.L13:
 165              		.align	2
 166              	.L12:
 167 000c 08E400E0 		.word	-536812536
 168              		.cfi_endproc
 169              	.LFE7:
 170              		.size	IsrEnoUART_GetPriority, .-IsrEnoUART_GetPriority
ARM GAS  C:\Users\ELEASO~1\AppData\Local\Temp\ccMmZBWf.s 			page 9


 171              		.section	.text.IsrEnoUART_Enable,"ax",%progbits
 172              		.align	2
 173              		.global	IsrEnoUART_Enable
 174              		.code	16
 175              		.thumb_func
 176              		.type	IsrEnoUART_Enable, %function
 177              	IsrEnoUART_Enable:
 178              	.LFB8:
 286:Generated_Source\PSoC4/IsrEnoUART.c **** 
 287:Generated_Source\PSoC4/IsrEnoUART.c **** 
 288:Generated_Source\PSoC4/IsrEnoUART.c **** /*******************************************************************************
 289:Generated_Source\PSoC4/IsrEnoUART.c **** * Function Name: IsrEnoUART_Enable
 290:Generated_Source\PSoC4/IsrEnoUART.c **** ********************************************************************************
 291:Generated_Source\PSoC4/IsrEnoUART.c **** *
 292:Generated_Source\PSoC4/IsrEnoUART.c **** * Summary:
 293:Generated_Source\PSoC4/IsrEnoUART.c **** *   Enables the interrupt to the interrupt controller. Do not call this function
 294:Generated_Source\PSoC4/IsrEnoUART.c **** *   unless ISR_Start() has been called or the functionality of the ISR_Start() 
 295:Generated_Source\PSoC4/IsrEnoUART.c **** *   function, which sets the vector and the priority, has been called.
 296:Generated_Source\PSoC4/IsrEnoUART.c **** *
 297:Generated_Source\PSoC4/IsrEnoUART.c **** * Parameters:
 298:Generated_Source\PSoC4/IsrEnoUART.c **** *   None
 299:Generated_Source\PSoC4/IsrEnoUART.c **** *
 300:Generated_Source\PSoC4/IsrEnoUART.c **** * Return:
 301:Generated_Source\PSoC4/IsrEnoUART.c **** *   None
 302:Generated_Source\PSoC4/IsrEnoUART.c **** *
 303:Generated_Source\PSoC4/IsrEnoUART.c **** *******************************************************************************/
 304:Generated_Source\PSoC4/IsrEnoUART.c **** void IsrEnoUART_Enable(void)
 305:Generated_Source\PSoC4/IsrEnoUART.c **** {
 179              		.loc 1 305 0
 180              		.cfi_startproc
 181              		@ args = 0, pretend = 0, frame = 0
 182              		@ frame_needed = 0, uses_anonymous_args = 0
 183              		@ link register save eliminated.
 306:Generated_Source\PSoC4/IsrEnoUART.c ****     /* Enable the general interrupt. */
 307:Generated_Source\PSoC4/IsrEnoUART.c ****     *IsrEnoUART_INTC_SET_EN = IsrEnoUART__INTC_MASK;
 184              		.loc 1 307 0
 185 0000 8022     		movs	r2, #128
 186 0002 D200     		lsls	r2, r2, #3
 187 0004 014B     		ldr	r3, .L15
 188 0006 1A60     		str	r2, [r3]
 308:Generated_Source\PSoC4/IsrEnoUART.c **** }
 189              		.loc 1 308 0
 190              		@ sp needed
 191 0008 7047     		bx	lr
 192              	.L16:
 193 000a C046     		.align	2
 194              	.L15:
 195 000c 00E100E0 		.word	-536813312
 196              		.cfi_endproc
 197              	.LFE8:
 198              		.size	IsrEnoUART_Enable, .-IsrEnoUART_Enable
 199              		.section	.text.IsrEnoUART_GetState,"ax",%progbits
 200              		.align	2
 201              		.global	IsrEnoUART_GetState
 202              		.code	16
 203              		.thumb_func
 204              		.type	IsrEnoUART_GetState, %function
ARM GAS  C:\Users\ELEASO~1\AppData\Local\Temp\ccMmZBWf.s 			page 10


 205              	IsrEnoUART_GetState:
 206              	.LFB9:
 309:Generated_Source\PSoC4/IsrEnoUART.c **** 
 310:Generated_Source\PSoC4/IsrEnoUART.c **** 
 311:Generated_Source\PSoC4/IsrEnoUART.c **** /*******************************************************************************
 312:Generated_Source\PSoC4/IsrEnoUART.c **** * Function Name: IsrEnoUART_GetState
 313:Generated_Source\PSoC4/IsrEnoUART.c **** ********************************************************************************
 314:Generated_Source\PSoC4/IsrEnoUART.c **** *
 315:Generated_Source\PSoC4/IsrEnoUART.c **** * Summary:
 316:Generated_Source\PSoC4/IsrEnoUART.c **** *   Gets the state (enabled, disabled) of the Interrupt.
 317:Generated_Source\PSoC4/IsrEnoUART.c **** *
 318:Generated_Source\PSoC4/IsrEnoUART.c **** * Parameters:
 319:Generated_Source\PSoC4/IsrEnoUART.c **** *   None
 320:Generated_Source\PSoC4/IsrEnoUART.c **** *
 321:Generated_Source\PSoC4/IsrEnoUART.c **** * Return:
 322:Generated_Source\PSoC4/IsrEnoUART.c **** *   1 if enabled, 0 if disabled.
 323:Generated_Source\PSoC4/IsrEnoUART.c **** *
 324:Generated_Source\PSoC4/IsrEnoUART.c **** *******************************************************************************/
 325:Generated_Source\PSoC4/IsrEnoUART.c **** uint8 IsrEnoUART_GetState(void)
 326:Generated_Source\PSoC4/IsrEnoUART.c **** {
 207              		.loc 1 326 0
 208              		.cfi_startproc
 209              		@ args = 0, pretend = 0, frame = 0
 210              		@ frame_needed = 0, uses_anonymous_args = 0
 211              		@ link register save eliminated.
 327:Generated_Source\PSoC4/IsrEnoUART.c ****     /* Get the state of the general interrupt. */
 328:Generated_Source\PSoC4/IsrEnoUART.c ****     return ((*IsrEnoUART_INTC_SET_EN & (uint32)IsrEnoUART__INTC_MASK) != 0u) ? 1u:0u;
 212              		.loc 1 328 0
 213 0000 034B     		ldr	r3, .L20
 214 0002 1B68     		ldr	r3, [r3]
 215 0004 5B05     		lsls	r3, r3, #21
 216 0006 01D5     		bpl	.L19
 217 0008 0120     		movs	r0, #1
 218 000a 00E0     		b	.L18
 219              	.L19:
 220 000c 0020     		movs	r0, #0
 221              	.L18:
 329:Generated_Source\PSoC4/IsrEnoUART.c **** }
 222              		.loc 1 329 0 discriminator 4
 223              		@ sp needed
 224 000e 7047     		bx	lr
 225              	.L21:
 226              		.align	2
 227              	.L20:
 228 0010 00E100E0 		.word	-536813312
 229              		.cfi_endproc
 230              	.LFE9:
 231              		.size	IsrEnoUART_GetState, .-IsrEnoUART_GetState
 232              		.section	.text.IsrEnoUART_Disable,"ax",%progbits
 233              		.align	2
 234              		.global	IsrEnoUART_Disable
 235              		.code	16
 236              		.thumb_func
 237              		.type	IsrEnoUART_Disable, %function
 238              	IsrEnoUART_Disable:
 239              	.LFB10:
 330:Generated_Source\PSoC4/IsrEnoUART.c **** 
ARM GAS  C:\Users\ELEASO~1\AppData\Local\Temp\ccMmZBWf.s 			page 11


 331:Generated_Source\PSoC4/IsrEnoUART.c **** 
 332:Generated_Source\PSoC4/IsrEnoUART.c **** /*******************************************************************************
 333:Generated_Source\PSoC4/IsrEnoUART.c **** * Function Name: IsrEnoUART_Disable
 334:Generated_Source\PSoC4/IsrEnoUART.c **** ********************************************************************************
 335:Generated_Source\PSoC4/IsrEnoUART.c **** *
 336:Generated_Source\PSoC4/IsrEnoUART.c **** * Summary:
 337:Generated_Source\PSoC4/IsrEnoUART.c **** *   Disables the Interrupt in the interrupt controller.
 338:Generated_Source\PSoC4/IsrEnoUART.c **** *
 339:Generated_Source\PSoC4/IsrEnoUART.c **** * Parameters:
 340:Generated_Source\PSoC4/IsrEnoUART.c **** *   None
 341:Generated_Source\PSoC4/IsrEnoUART.c **** *
 342:Generated_Source\PSoC4/IsrEnoUART.c **** * Return:
 343:Generated_Source\PSoC4/IsrEnoUART.c **** *   None
 344:Generated_Source\PSoC4/IsrEnoUART.c **** *
 345:Generated_Source\PSoC4/IsrEnoUART.c **** *******************************************************************************/
 346:Generated_Source\PSoC4/IsrEnoUART.c **** void IsrEnoUART_Disable(void)
 347:Generated_Source\PSoC4/IsrEnoUART.c **** {
 240              		.loc 1 347 0
 241              		.cfi_startproc
 242              		@ args = 0, pretend = 0, frame = 0
 243              		@ frame_needed = 0, uses_anonymous_args = 0
 244              		@ link register save eliminated.
 348:Generated_Source\PSoC4/IsrEnoUART.c ****     /* Disable the general interrupt. */
 349:Generated_Source\PSoC4/IsrEnoUART.c ****     *IsrEnoUART_INTC_CLR_EN = IsrEnoUART__INTC_MASK;
 245              		.loc 1 349 0
 246 0000 8022     		movs	r2, #128
 247 0002 D200     		lsls	r2, r2, #3
 248 0004 014B     		ldr	r3, .L23
 249 0006 1A60     		str	r2, [r3]
 350:Generated_Source\PSoC4/IsrEnoUART.c **** }
 250              		.loc 1 350 0
 251              		@ sp needed
 252 0008 7047     		bx	lr
 253              	.L24:
 254 000a C046     		.align	2
 255              	.L23:
 256 000c 80E100E0 		.word	-536813184
 257              		.cfi_endproc
 258              	.LFE10:
 259              		.size	IsrEnoUART_Disable, .-IsrEnoUART_Disable
 260              		.section	.text.IsrEnoUART_Start,"ax",%progbits
 261              		.align	2
 262              		.global	IsrEnoUART_Start
 263              		.code	16
 264              		.thumb_func
 265              		.type	IsrEnoUART_Start, %function
 266              	IsrEnoUART_Start:
 267              	.LFB0:
  57:Generated_Source\PSoC4/IsrEnoUART.c ****     /* For all we know the interrupt is active. */
 268              		.loc 1 57 0
 269              		.cfi_startproc
 270              		@ args = 0, pretend = 0, frame = 0
 271              		@ frame_needed = 0, uses_anonymous_args = 0
 272 0000 10B5     		push	{r4, lr}
 273              		.cfi_def_cfa_offset 8
 274              		.cfi_offset 4, -8
 275              		.cfi_offset 14, -4
ARM GAS  C:\Users\ELEASO~1\AppData\Local\Temp\ccMmZBWf.s 			page 12


  59:Generated_Source\PSoC4/IsrEnoUART.c **** 
 276              		.loc 1 59 0
 277 0002 FFF7FEFF 		bl	IsrEnoUART_Disable
 278              	.LVL8:
  62:Generated_Source\PSoC4/IsrEnoUART.c **** 
 279              		.loc 1 62 0
 280 0006 0448     		ldr	r0, .L26
 281 0008 FFF7FEFF 		bl	IsrEnoUART_SetVector
 282              	.LVL9:
  65:Generated_Source\PSoC4/IsrEnoUART.c **** 
 283              		.loc 1 65 0
 284 000c 0020     		movs	r0, #0
 285 000e FFF7FEFF 		bl	IsrEnoUART_SetPriority
 286              	.LVL10:
  68:Generated_Source\PSoC4/IsrEnoUART.c **** }
 287              		.loc 1 68 0
 288 0012 FFF7FEFF 		bl	IsrEnoUART_Enable
 289              	.LVL11:
  69:Generated_Source\PSoC4/IsrEnoUART.c **** 
 290              		.loc 1 69 0
 291              		@ sp needed
 292 0016 10BD     		pop	{r4, pc}
 293              	.L27:
 294              		.align	2
 295              	.L26:
 296 0018 00000000 		.word	IsrEnoUART_Interrupt
 297              		.cfi_endproc
 298              	.LFE0:
 299              		.size	IsrEnoUART_Start, .-IsrEnoUART_Start
 300              		.section	.text.IsrEnoUART_StartEx,"ax",%progbits
 301              		.align	2
 302              		.global	IsrEnoUART_StartEx
 303              		.code	16
 304              		.thumb_func
 305              		.type	IsrEnoUART_StartEx, %function
 306              	IsrEnoUART_StartEx:
 307              	.LFB1:
 100:Generated_Source\PSoC4/IsrEnoUART.c ****     /* For all we know the interrupt is active. */
 308              		.loc 1 100 0
 309              		.cfi_startproc
 310              		@ args = 0, pretend = 0, frame = 0
 311              		@ frame_needed = 0, uses_anonymous_args = 0
 312              	.LVL12:
 313 0000 10B5     		push	{r4, lr}
 314              		.cfi_def_cfa_offset 8
 315              		.cfi_offset 4, -8
 316              		.cfi_offset 14, -4
 317 0002 0400     		movs	r4, r0
 102:Generated_Source\PSoC4/IsrEnoUART.c **** 
 318              		.loc 1 102 0
 319 0004 FFF7FEFF 		bl	IsrEnoUART_Disable
 320              	.LVL13:
 105:Generated_Source\PSoC4/IsrEnoUART.c **** 
 321              		.loc 1 105 0
 322 0008 2000     		movs	r0, r4
 323 000a FFF7FEFF 		bl	IsrEnoUART_SetVector
 324              	.LVL14:
ARM GAS  C:\Users\ELEASO~1\AppData\Local\Temp\ccMmZBWf.s 			page 13


 108:Generated_Source\PSoC4/IsrEnoUART.c **** 
 325              		.loc 1 108 0
 326 000e 0020     		movs	r0, #0
 327 0010 FFF7FEFF 		bl	IsrEnoUART_SetPriority
 328              	.LVL15:
 111:Generated_Source\PSoC4/IsrEnoUART.c **** }
 329              		.loc 1 111 0
 330 0014 FFF7FEFF 		bl	IsrEnoUART_Enable
 331              	.LVL16:
 112:Generated_Source\PSoC4/IsrEnoUART.c **** 
 332              		.loc 1 112 0
 333              		@ sp needed
 334              	.LVL17:
 335 0018 10BD     		pop	{r4, pc}
 336              		.cfi_endproc
 337              	.LFE1:
 338              		.size	IsrEnoUART_StartEx, .-IsrEnoUART_StartEx
 339 001a C046     		.section	.text.IsrEnoUART_Stop,"ax",%progbits
 340              		.align	2
 341              		.global	IsrEnoUART_Stop
 342              		.code	16
 343              		.thumb_func
 344              		.type	IsrEnoUART_Stop, %function
 345              	IsrEnoUART_Stop:
 346              	.LFB2:
 130:Generated_Source\PSoC4/IsrEnoUART.c ****     /* Disable this interrupt. */
 347              		.loc 1 130 0
 348              		.cfi_startproc
 349              		@ args = 0, pretend = 0, frame = 0
 350              		@ frame_needed = 0, uses_anonymous_args = 0
 351 0000 10B5     		push	{r4, lr}
 352              		.cfi_def_cfa_offset 8
 353              		.cfi_offset 4, -8
 354              		.cfi_offset 14, -4
 132:Generated_Source\PSoC4/IsrEnoUART.c **** 
 355              		.loc 1 132 0
 356 0002 FFF7FEFF 		bl	IsrEnoUART_Disable
 357              	.LVL18:
 135:Generated_Source\PSoC4/IsrEnoUART.c **** }
 358              		.loc 1 135 0
 359 0006 0248     		ldr	r0, .L30
 360 0008 FFF7FEFF 		bl	IsrEnoUART_SetVector
 361              	.LVL19:
 136:Generated_Source\PSoC4/IsrEnoUART.c **** 
 362              		.loc 1 136 0
 363              		@ sp needed
 364 000c 10BD     		pop	{r4, pc}
 365              	.L31:
 366 000e C046     		.align	2
 367              	.L30:
 368 0010 00000000 		.word	IntDefaultHandler
 369              		.cfi_endproc
 370              	.LFE2:
 371              		.size	IsrEnoUART_Stop, .-IsrEnoUART_Stop
 372              		.section	.text.IsrEnoUART_SetPending,"ax",%progbits
 373              		.align	2
 374              		.global	IsrEnoUART_SetPending
ARM GAS  C:\Users\ELEASO~1\AppData\Local\Temp\ccMmZBWf.s 			page 14


 375              		.code	16
 376              		.thumb_func
 377              		.type	IsrEnoUART_SetPending, %function
 378              	IsrEnoUART_SetPending:
 379              	.LFB11:
 351:Generated_Source\PSoC4/IsrEnoUART.c **** 
 352:Generated_Source\PSoC4/IsrEnoUART.c **** 
 353:Generated_Source\PSoC4/IsrEnoUART.c **** /*******************************************************************************
 354:Generated_Source\PSoC4/IsrEnoUART.c **** * Function Name: IsrEnoUART_SetPending
 355:Generated_Source\PSoC4/IsrEnoUART.c **** ********************************************************************************
 356:Generated_Source\PSoC4/IsrEnoUART.c **** *
 357:Generated_Source\PSoC4/IsrEnoUART.c **** * Summary:
 358:Generated_Source\PSoC4/IsrEnoUART.c **** *   Causes the Interrupt to enter the pending state, a software method of
 359:Generated_Source\PSoC4/IsrEnoUART.c **** *   generating the interrupt.
 360:Generated_Source\PSoC4/IsrEnoUART.c **** *
 361:Generated_Source\PSoC4/IsrEnoUART.c **** * Parameters:
 362:Generated_Source\PSoC4/IsrEnoUART.c **** *   None
 363:Generated_Source\PSoC4/IsrEnoUART.c **** *
 364:Generated_Source\PSoC4/IsrEnoUART.c **** * Return:
 365:Generated_Source\PSoC4/IsrEnoUART.c **** *   None
 366:Generated_Source\PSoC4/IsrEnoUART.c **** *
 367:Generated_Source\PSoC4/IsrEnoUART.c **** * Side Effects:
 368:Generated_Source\PSoC4/IsrEnoUART.c **** *   If interrupts are enabled and the interrupt is set up properly, the ISR is
 369:Generated_Source\PSoC4/IsrEnoUART.c **** *   entered (depending on the priority of this interrupt and other pending 
 370:Generated_Source\PSoC4/IsrEnoUART.c **** *   interrupts).
 371:Generated_Source\PSoC4/IsrEnoUART.c **** *
 372:Generated_Source\PSoC4/IsrEnoUART.c **** *******************************************************************************/
 373:Generated_Source\PSoC4/IsrEnoUART.c **** void IsrEnoUART_SetPending(void)
 374:Generated_Source\PSoC4/IsrEnoUART.c **** {
 380              		.loc 1 374 0
 381              		.cfi_startproc
 382              		@ args = 0, pretend = 0, frame = 0
 383              		@ frame_needed = 0, uses_anonymous_args = 0
 384              		@ link register save eliminated.
 375:Generated_Source\PSoC4/IsrEnoUART.c ****     *IsrEnoUART_INTC_SET_PD = IsrEnoUART__INTC_MASK;
 385              		.loc 1 375 0
 386 0000 8022     		movs	r2, #128
 387 0002 D200     		lsls	r2, r2, #3
 388 0004 014B     		ldr	r3, .L33
 389 0006 1A60     		str	r2, [r3]
 376:Generated_Source\PSoC4/IsrEnoUART.c **** }
 390              		.loc 1 376 0
 391              		@ sp needed
 392 0008 7047     		bx	lr
 393              	.L34:
 394 000a C046     		.align	2
 395              	.L33:
 396 000c 00E200E0 		.word	-536813056
 397              		.cfi_endproc
 398              	.LFE11:
 399              		.size	IsrEnoUART_SetPending, .-IsrEnoUART_SetPending
 400              		.section	.text.IsrEnoUART_ClearPending,"ax",%progbits
 401              		.align	2
 402              		.global	IsrEnoUART_ClearPending
 403              		.code	16
 404              		.thumb_func
 405              		.type	IsrEnoUART_ClearPending, %function
ARM GAS  C:\Users\ELEASO~1\AppData\Local\Temp\ccMmZBWf.s 			page 15


 406              	IsrEnoUART_ClearPending:
 407              	.LFB12:
 377:Generated_Source\PSoC4/IsrEnoUART.c **** 
 378:Generated_Source\PSoC4/IsrEnoUART.c **** 
 379:Generated_Source\PSoC4/IsrEnoUART.c **** /*******************************************************************************
 380:Generated_Source\PSoC4/IsrEnoUART.c **** * Function Name: IsrEnoUART_ClearPending
 381:Generated_Source\PSoC4/IsrEnoUART.c **** ********************************************************************************
 382:Generated_Source\PSoC4/IsrEnoUART.c **** *
 383:Generated_Source\PSoC4/IsrEnoUART.c **** * Summary:
 384:Generated_Source\PSoC4/IsrEnoUART.c **** *   Clears a pending interrupt in the interrupt controller.
 385:Generated_Source\PSoC4/IsrEnoUART.c **** *
 386:Generated_Source\PSoC4/IsrEnoUART.c **** *   Note Some interrupt sources are clear-on-read and require the block 
 387:Generated_Source\PSoC4/IsrEnoUART.c **** *   interrupt/status register to be read/cleared with the appropriate block API 
 388:Generated_Source\PSoC4/IsrEnoUART.c **** *   (GPIO, UART, and so on). Otherwise the ISR will continue to remain in 
 389:Generated_Source\PSoC4/IsrEnoUART.c **** *   pending state even though the interrupt itself is cleared using this API.
 390:Generated_Source\PSoC4/IsrEnoUART.c **** *
 391:Generated_Source\PSoC4/IsrEnoUART.c **** * Parameters:
 392:Generated_Source\PSoC4/IsrEnoUART.c **** *   None
 393:Generated_Source\PSoC4/IsrEnoUART.c **** *
 394:Generated_Source\PSoC4/IsrEnoUART.c **** * Return:
 395:Generated_Source\PSoC4/IsrEnoUART.c **** *   None
 396:Generated_Source\PSoC4/IsrEnoUART.c **** *
 397:Generated_Source\PSoC4/IsrEnoUART.c **** *******************************************************************************/
 398:Generated_Source\PSoC4/IsrEnoUART.c **** void IsrEnoUART_ClearPending(void)
 399:Generated_Source\PSoC4/IsrEnoUART.c **** {
 408              		.loc 1 399 0
 409              		.cfi_startproc
 410              		@ args = 0, pretend = 0, frame = 0
 411              		@ frame_needed = 0, uses_anonymous_args = 0
 412              		@ link register save eliminated.
 400:Generated_Source\PSoC4/IsrEnoUART.c ****     *IsrEnoUART_INTC_CLR_PD = IsrEnoUART__INTC_MASK;
 413              		.loc 1 400 0
 414 0000 8022     		movs	r2, #128
 415 0002 D200     		lsls	r2, r2, #3
 416 0004 014B     		ldr	r3, .L36
 417 0006 1A60     		str	r2, [r3]
 401:Generated_Source\PSoC4/IsrEnoUART.c **** }
 418              		.loc 1 401 0
 419              		@ sp needed
 420 0008 7047     		bx	lr
 421              	.L37:
 422 000a C046     		.align	2
 423              	.L36:
 424 000c 80E200E0 		.word	-536812928
 425              		.cfi_endproc
 426              	.LFE12:
 427              		.size	IsrEnoUART_ClearPending, .-IsrEnoUART_ClearPending
 428              		.text
 429              	.Letext0:
 430              		.file 2 "Generated_Source\\PSoC4/cytypes.h"
 431              		.file 3 "Generated_Source\\PSoC4/CyLib.h"
