ARM GAS  C:\Users\ELEASO~1\AppData\Local\Temp\ccerTvWP.s 			page 1


   1              		.syntax unified
   2              		.cpu cortex-m0
   3              		.fpu softvfp
   4              		.eabi_attribute 20, 1
   5              		.eabi_attribute 21, 1
   6              		.eabi_attribute 23, 3
   7              		.eabi_attribute 24, 1
   8              		.eabi_attribute 25, 1
   9              		.eabi_attribute 26, 1
  10              		.eabi_attribute 30, 1
  11              		.eabi_attribute 34, 0
  12              		.eabi_attribute 18, 4
  13              		.thumb
  14              		.syntax unified
  15              		.file	"SinUsar_1.c"
  16              		.text
  17              	.Ltext0:
  18              		.cfi_sections	.debug_frame
  19              		.section	.text.SinUsar_1_SetDriveMode,"ax",%progbits
  20              		.align	2
  21              		.global	SinUsar_1_SetDriveMode
  22              		.code	16
  23              		.thumb_func
  24              		.type	SinUsar_1_SetDriveMode, %function
  25              	SinUsar_1_SetDriveMode:
  26              	.LFB0:
  27              		.file 1 "Generated_Source\\PSoC4\\SinUsar_1.c"
   1:Generated_Source\PSoC4/SinUsar_1.c **** /*******************************************************************************
   2:Generated_Source\PSoC4/SinUsar_1.c **** * File Name: SinUsar_1.c  
   3:Generated_Source\PSoC4/SinUsar_1.c **** * Version 2.20
   4:Generated_Source\PSoC4/SinUsar_1.c **** *
   5:Generated_Source\PSoC4/SinUsar_1.c **** * Description:
   6:Generated_Source\PSoC4/SinUsar_1.c **** *  This file contains API to enable firmware control of a Pins component.
   7:Generated_Source\PSoC4/SinUsar_1.c **** *
   8:Generated_Source\PSoC4/SinUsar_1.c **** ********************************************************************************
   9:Generated_Source\PSoC4/SinUsar_1.c **** * Copyright 2008-2015, Cypress Semiconductor Corporation.  All rights reserved.
  10:Generated_Source\PSoC4/SinUsar_1.c **** * You may use this file only in accordance with the license, terms, conditions, 
  11:Generated_Source\PSoC4/SinUsar_1.c **** * disclaimers, and limitations in the end user license agreement accompanying 
  12:Generated_Source\PSoC4/SinUsar_1.c **** * the software package with which this file was provided.
  13:Generated_Source\PSoC4/SinUsar_1.c **** *******************************************************************************/
  14:Generated_Source\PSoC4/SinUsar_1.c **** 
  15:Generated_Source\PSoC4/SinUsar_1.c **** #include "cytypes.h"
  16:Generated_Source\PSoC4/SinUsar_1.c **** #include "SinUsar_1.h"
  17:Generated_Source\PSoC4/SinUsar_1.c **** 
  18:Generated_Source\PSoC4/SinUsar_1.c **** 
  19:Generated_Source\PSoC4/SinUsar_1.c **** #if defined(SinUsar_1__PC)
  20:Generated_Source\PSoC4/SinUsar_1.c ****     #define SinUsar_1_SetP4PinDriveMode(shift, mode)  \
  21:Generated_Source\PSoC4/SinUsar_1.c ****     do { \
  22:Generated_Source\PSoC4/SinUsar_1.c ****         SinUsar_1_PC =   (SinUsar_1_PC & \
  23:Generated_Source\PSoC4/SinUsar_1.c ****                                 (uint32)(~(uint32)(SinUsar_1_DRIVE_MODE_IND_MASK << \
  24:Generated_Source\PSoC4/SinUsar_1.c ****                                 (SinUsar_1_DRIVE_MODE_BITS * (shift))))) | \
  25:Generated_Source\PSoC4/SinUsar_1.c ****                                 (uint32)((uint32)(mode) << \
  26:Generated_Source\PSoC4/SinUsar_1.c ****                                 (SinUsar_1_DRIVE_MODE_BITS * (shift))); \
  27:Generated_Source\PSoC4/SinUsar_1.c ****     } while (0)
  28:Generated_Source\PSoC4/SinUsar_1.c **** #else
  29:Generated_Source\PSoC4/SinUsar_1.c ****     #if (CY_PSOC4_4200L)
  30:Generated_Source\PSoC4/SinUsar_1.c ****         #define SinUsar_1_SetP4PinDriveMode(shift, mode)  \
ARM GAS  C:\Users\ELEASO~1\AppData\Local\Temp\ccerTvWP.s 			page 2


  31:Generated_Source\PSoC4/SinUsar_1.c ****         do { \
  32:Generated_Source\PSoC4/SinUsar_1.c ****             SinUsar_1_USBIO_CTRL_REG = (SinUsar_1_USBIO_CTRL_REG & \
  33:Generated_Source\PSoC4/SinUsar_1.c ****                                     (uint32)(~(uint32)(SinUsar_1_DRIVE_MODE_IND_MASK << \
  34:Generated_Source\PSoC4/SinUsar_1.c ****                                     (SinUsar_1_DRIVE_MODE_BITS * (shift))))) | \
  35:Generated_Source\PSoC4/SinUsar_1.c ****                                     (uint32)((uint32)(mode) << \
  36:Generated_Source\PSoC4/SinUsar_1.c ****                                     (SinUsar_1_DRIVE_MODE_BITS * (shift))); \
  37:Generated_Source\PSoC4/SinUsar_1.c ****         } while (0)
  38:Generated_Source\PSoC4/SinUsar_1.c ****     #endif
  39:Generated_Source\PSoC4/SinUsar_1.c **** #endif
  40:Generated_Source\PSoC4/SinUsar_1.c ****   
  41:Generated_Source\PSoC4/SinUsar_1.c **** 
  42:Generated_Source\PSoC4/SinUsar_1.c **** #if defined(SinUsar_1__PC) || (CY_PSOC4_4200L) 
  43:Generated_Source\PSoC4/SinUsar_1.c ****     /*******************************************************************************
  44:Generated_Source\PSoC4/SinUsar_1.c ****     * Function Name: SinUsar_1_SetDriveMode
  45:Generated_Source\PSoC4/SinUsar_1.c ****     ****************************************************************************//**
  46:Generated_Source\PSoC4/SinUsar_1.c ****     *
  47:Generated_Source\PSoC4/SinUsar_1.c ****     * \brief Sets the drive mode for each of the Pins component's pins.
  48:Generated_Source\PSoC4/SinUsar_1.c ****     * 
  49:Generated_Source\PSoC4/SinUsar_1.c ****     * <b>Note</b> This affects all pins in the Pins component instance. Use the
  50:Generated_Source\PSoC4/SinUsar_1.c ****     * Per-Pin APIs if you wish to control individual pin's drive modes.
  51:Generated_Source\PSoC4/SinUsar_1.c ****     *
  52:Generated_Source\PSoC4/SinUsar_1.c ****     * <b>Note</b> USBIOs have limited drive functionality. Refer to the Drive Mode
  53:Generated_Source\PSoC4/SinUsar_1.c ****     * parameter for more information.
  54:Generated_Source\PSoC4/SinUsar_1.c ****     *
  55:Generated_Source\PSoC4/SinUsar_1.c ****     * \param mode
  56:Generated_Source\PSoC4/SinUsar_1.c ****     *  Mode for the selected signals. Valid options are documented in 
  57:Generated_Source\PSoC4/SinUsar_1.c ****     *  \ref driveMode.
  58:Generated_Source\PSoC4/SinUsar_1.c ****     *
  59:Generated_Source\PSoC4/SinUsar_1.c ****     * \return
  60:Generated_Source\PSoC4/SinUsar_1.c ****     *  None
  61:Generated_Source\PSoC4/SinUsar_1.c ****     *
  62:Generated_Source\PSoC4/SinUsar_1.c ****     * \sideeffect
  63:Generated_Source\PSoC4/SinUsar_1.c ****     *  If you use read-modify-write operations that are not atomic, the ISR can
  64:Generated_Source\PSoC4/SinUsar_1.c ****     *  cause corruption of this function. An ISR that interrupts this function 
  65:Generated_Source\PSoC4/SinUsar_1.c ****     *  and performs writes to the Pins component Drive Mode registers can cause 
  66:Generated_Source\PSoC4/SinUsar_1.c ****     *  corrupted port data. To avoid this issue, you should either use the Per-Pin
  67:Generated_Source\PSoC4/SinUsar_1.c ****     *  APIs (primary method) or disable interrupts around this function.
  68:Generated_Source\PSoC4/SinUsar_1.c ****     *
  69:Generated_Source\PSoC4/SinUsar_1.c ****     * \funcusage
  70:Generated_Source\PSoC4/SinUsar_1.c ****     *  \snippet SinUsar_1_SUT.c usage_SinUsar_1_SetDriveMode
  71:Generated_Source\PSoC4/SinUsar_1.c ****     *******************************************************************************/
  72:Generated_Source\PSoC4/SinUsar_1.c ****     void SinUsar_1_SetDriveMode(uint8 mode)
  73:Generated_Source\PSoC4/SinUsar_1.c ****     {
  28              		.loc 1 73 0
  29              		.cfi_startproc
  30              		@ args = 0, pretend = 0, frame = 0
  31              		@ frame_needed = 0, uses_anonymous_args = 0
  32              		@ link register save eliminated.
  33              	.LVL0:
  74:Generated_Source\PSoC4/SinUsar_1.c **** 		SinUsar_1_SetP4PinDriveMode(SinUsar_1__0__SHIFT, mode);
  34              		.loc 1 74 0
  35 0000 034A     		ldr	r2, .L2
  36 0002 1368     		ldr	r3, [r2]
  37 0004 0721     		movs	r1, #7
  38 0006 8B43     		bics	r3, r1
  39 0008 1843     		orrs	r0, r3
  40              	.LVL1:
ARM GAS  C:\Users\ELEASO~1\AppData\Local\Temp\ccerTvWP.s 			page 3


  41 000a 1060     		str	r0, [r2]
  75:Generated_Source\PSoC4/SinUsar_1.c ****     }
  42              		.loc 1 75 0
  43              		@ sp needed
  44 000c 7047     		bx	lr
  45              	.L3:
  46 000e C046     		.align	2
  47              	.L2:
  48 0010 08020440 		.word	1074004488
  49              		.cfi_endproc
  50              	.LFE0:
  51              		.size	SinUsar_1_SetDriveMode, .-SinUsar_1_SetDriveMode
  52              		.section	.text.SinUsar_1_Write,"ax",%progbits
  53              		.align	2
  54              		.global	SinUsar_1_Write
  55              		.code	16
  56              		.thumb_func
  57              		.type	SinUsar_1_Write, %function
  58              	SinUsar_1_Write:
  59              	.LFB1:
  76:Generated_Source\PSoC4/SinUsar_1.c **** #endif
  77:Generated_Source\PSoC4/SinUsar_1.c **** 
  78:Generated_Source\PSoC4/SinUsar_1.c **** 
  79:Generated_Source\PSoC4/SinUsar_1.c **** /*******************************************************************************
  80:Generated_Source\PSoC4/SinUsar_1.c **** * Function Name: SinUsar_1_Write
  81:Generated_Source\PSoC4/SinUsar_1.c **** ****************************************************************************//**
  82:Generated_Source\PSoC4/SinUsar_1.c **** *
  83:Generated_Source\PSoC4/SinUsar_1.c **** * \brief Writes the value to the physical port (data output register), masking
  84:Generated_Source\PSoC4/SinUsar_1.c **** *  and shifting the bits appropriately. 
  85:Generated_Source\PSoC4/SinUsar_1.c **** *
  86:Generated_Source\PSoC4/SinUsar_1.c **** * The data output register controls the signal applied to the physical pin in 
  87:Generated_Source\PSoC4/SinUsar_1.c **** * conjunction with the drive mode parameter. This function avoids changing 
  88:Generated_Source\PSoC4/SinUsar_1.c **** * other bits in the port by using the appropriate method (read-modify-write or
  89:Generated_Source\PSoC4/SinUsar_1.c **** * bit banding).
  90:Generated_Source\PSoC4/SinUsar_1.c **** *
  91:Generated_Source\PSoC4/SinUsar_1.c **** * <b>Note</b> This function should not be used on a hardware digital output pin 
  92:Generated_Source\PSoC4/SinUsar_1.c **** * as it is driven by the hardware signal attached to it.
  93:Generated_Source\PSoC4/SinUsar_1.c **** *
  94:Generated_Source\PSoC4/SinUsar_1.c **** * \param value
  95:Generated_Source\PSoC4/SinUsar_1.c **** *  Value to write to the component instance.
  96:Generated_Source\PSoC4/SinUsar_1.c **** *
  97:Generated_Source\PSoC4/SinUsar_1.c **** * \return 
  98:Generated_Source\PSoC4/SinUsar_1.c **** *  None 
  99:Generated_Source\PSoC4/SinUsar_1.c **** *
 100:Generated_Source\PSoC4/SinUsar_1.c **** * \sideeffect
 101:Generated_Source\PSoC4/SinUsar_1.c **** *  If you use read-modify-write operations that are not atomic; the Interrupt 
 102:Generated_Source\PSoC4/SinUsar_1.c **** *  Service Routines (ISR) can cause corruption of this function. An ISR that 
 103:Generated_Source\PSoC4/SinUsar_1.c **** *  interrupts this function and performs writes to the Pins component data 
 104:Generated_Source\PSoC4/SinUsar_1.c **** *  register can cause corrupted port data. To avoid this issue, you should 
 105:Generated_Source\PSoC4/SinUsar_1.c **** *  either use the Per-Pin APIs (primary method) or disable interrupts around 
 106:Generated_Source\PSoC4/SinUsar_1.c **** *  this function.
 107:Generated_Source\PSoC4/SinUsar_1.c **** *
 108:Generated_Source\PSoC4/SinUsar_1.c **** * \funcusage
 109:Generated_Source\PSoC4/SinUsar_1.c **** *  \snippet SinUsar_1_SUT.c usage_SinUsar_1_Write
 110:Generated_Source\PSoC4/SinUsar_1.c **** *******************************************************************************/
 111:Generated_Source\PSoC4/SinUsar_1.c **** void SinUsar_1_Write(uint8 value)
 112:Generated_Source\PSoC4/SinUsar_1.c **** {
ARM GAS  C:\Users\ELEASO~1\AppData\Local\Temp\ccerTvWP.s 			page 4


  60              		.loc 1 112 0
  61              		.cfi_startproc
  62              		@ args = 0, pretend = 0, frame = 0
  63              		@ frame_needed = 0, uses_anonymous_args = 0
  64              		@ link register save eliminated.
  65              	.LVL2:
 113:Generated_Source\PSoC4/SinUsar_1.c ****     uint8 drVal = (uint8)(SinUsar_1_DR & (uint8)(~SinUsar_1_MASK));
  66              		.loc 1 113 0
  67 0000 044A     		ldr	r2, .L5
  68 0002 1368     		ldr	r3, [r2]
  69 0004 DBB2     		uxtb	r3, r3
  70 0006 0121     		movs	r1, #1
  71 0008 8B43     		bics	r3, r1
  72              	.LVL3:
 114:Generated_Source\PSoC4/SinUsar_1.c ****     drVal = (drVal | ((uint8)(value << SinUsar_1_SHIFT) & SinUsar_1_MASK));
  73              		.loc 1 114 0
  74 000a 0840     		ands	r0, r1
  75              	.LVL4:
  76 000c 1843     		orrs	r0, r3
  77              	.LVL5:
 115:Generated_Source\PSoC4/SinUsar_1.c ****     SinUsar_1_DR = (uint32)drVal;
  78              		.loc 1 115 0
  79 000e 1060     		str	r0, [r2]
 116:Generated_Source\PSoC4/SinUsar_1.c **** }
  80              		.loc 1 116 0
  81              		@ sp needed
  82 0010 7047     		bx	lr
  83              	.L6:
  84 0012 C046     		.align	2
  85              	.L5:
  86 0014 00020440 		.word	1074004480
  87              		.cfi_endproc
  88              	.LFE1:
  89              		.size	SinUsar_1_Write, .-SinUsar_1_Write
  90              		.section	.text.SinUsar_1_Read,"ax",%progbits
  91              		.align	2
  92              		.global	SinUsar_1_Read
  93              		.code	16
  94              		.thumb_func
  95              		.type	SinUsar_1_Read, %function
  96              	SinUsar_1_Read:
  97              	.LFB2:
 117:Generated_Source\PSoC4/SinUsar_1.c **** 
 118:Generated_Source\PSoC4/SinUsar_1.c **** 
 119:Generated_Source\PSoC4/SinUsar_1.c **** /*******************************************************************************
 120:Generated_Source\PSoC4/SinUsar_1.c **** * Function Name: SinUsar_1_Read
 121:Generated_Source\PSoC4/SinUsar_1.c **** ****************************************************************************//**
 122:Generated_Source\PSoC4/SinUsar_1.c **** *
 123:Generated_Source\PSoC4/SinUsar_1.c **** * \brief Reads the associated physical port (pin status register) and masks 
 124:Generated_Source\PSoC4/SinUsar_1.c **** *  the required bits according to the width and bit position of the component
 125:Generated_Source\PSoC4/SinUsar_1.c **** *  instance. 
 126:Generated_Source\PSoC4/SinUsar_1.c **** *
 127:Generated_Source\PSoC4/SinUsar_1.c **** * The pin's status register returns the current logic level present on the 
 128:Generated_Source\PSoC4/SinUsar_1.c **** * physical pin.
 129:Generated_Source\PSoC4/SinUsar_1.c **** *
 130:Generated_Source\PSoC4/SinUsar_1.c **** * \return 
 131:Generated_Source\PSoC4/SinUsar_1.c **** *  The current value for the pins in the component as a right justified number.
ARM GAS  C:\Users\ELEASO~1\AppData\Local\Temp\ccerTvWP.s 			page 5


 132:Generated_Source\PSoC4/SinUsar_1.c **** *
 133:Generated_Source\PSoC4/SinUsar_1.c **** * \funcusage
 134:Generated_Source\PSoC4/SinUsar_1.c **** *  \snippet SinUsar_1_SUT.c usage_SinUsar_1_Read  
 135:Generated_Source\PSoC4/SinUsar_1.c **** *******************************************************************************/
 136:Generated_Source\PSoC4/SinUsar_1.c **** uint8 SinUsar_1_Read(void)
 137:Generated_Source\PSoC4/SinUsar_1.c **** {
  98              		.loc 1 137 0
  99              		.cfi_startproc
 100              		@ args = 0, pretend = 0, frame = 0
 101              		@ frame_needed = 0, uses_anonymous_args = 0
 102              		@ link register save eliminated.
 138:Generated_Source\PSoC4/SinUsar_1.c ****     return (uint8)((SinUsar_1_PS & SinUsar_1_MASK) >> SinUsar_1_SHIFT);
 103              		.loc 1 138 0
 104 0000 024B     		ldr	r3, .L8
 105 0002 1B68     		ldr	r3, [r3]
 106 0004 0120     		movs	r0, #1
 107 0006 1840     		ands	r0, r3
 139:Generated_Source\PSoC4/SinUsar_1.c **** }
 108              		.loc 1 139 0
 109              		@ sp needed
 110 0008 7047     		bx	lr
 111              	.L9:
 112 000a C046     		.align	2
 113              	.L8:
 114 000c 04020440 		.word	1074004484
 115              		.cfi_endproc
 116              	.LFE2:
 117              		.size	SinUsar_1_Read, .-SinUsar_1_Read
 118              		.section	.text.SinUsar_1_ReadDataReg,"ax",%progbits
 119              		.align	2
 120              		.global	SinUsar_1_ReadDataReg
 121              		.code	16
 122              		.thumb_func
 123              		.type	SinUsar_1_ReadDataReg, %function
 124              	SinUsar_1_ReadDataReg:
 125              	.LFB3:
 140:Generated_Source\PSoC4/SinUsar_1.c **** 
 141:Generated_Source\PSoC4/SinUsar_1.c **** 
 142:Generated_Source\PSoC4/SinUsar_1.c **** /*******************************************************************************
 143:Generated_Source\PSoC4/SinUsar_1.c **** * Function Name: SinUsar_1_ReadDataReg
 144:Generated_Source\PSoC4/SinUsar_1.c **** ****************************************************************************//**
 145:Generated_Source\PSoC4/SinUsar_1.c **** *
 146:Generated_Source\PSoC4/SinUsar_1.c **** * \brief Reads the associated physical port's data output register and masks 
 147:Generated_Source\PSoC4/SinUsar_1.c **** *  the correct bits according to the width and bit position of the component 
 148:Generated_Source\PSoC4/SinUsar_1.c **** *  instance. 
 149:Generated_Source\PSoC4/SinUsar_1.c **** *
 150:Generated_Source\PSoC4/SinUsar_1.c **** * The data output register controls the signal applied to the physical pin in 
 151:Generated_Source\PSoC4/SinUsar_1.c **** * conjunction with the drive mode parameter. This is not the same as the 
 152:Generated_Source\PSoC4/SinUsar_1.c **** * preferred SinUsar_1_Read() API because the 
 153:Generated_Source\PSoC4/SinUsar_1.c **** * SinUsar_1_ReadDataReg() reads the data register instead of the status 
 154:Generated_Source\PSoC4/SinUsar_1.c **** * register. For output pins this is a useful function to determine the value 
 155:Generated_Source\PSoC4/SinUsar_1.c **** * just written to the pin.
 156:Generated_Source\PSoC4/SinUsar_1.c **** *
 157:Generated_Source\PSoC4/SinUsar_1.c **** * \return 
 158:Generated_Source\PSoC4/SinUsar_1.c **** *  The current value of the data register masked and shifted into a right 
 159:Generated_Source\PSoC4/SinUsar_1.c **** *  justified number for the component instance.
 160:Generated_Source\PSoC4/SinUsar_1.c **** *
ARM GAS  C:\Users\ELEASO~1\AppData\Local\Temp\ccerTvWP.s 			page 6


 161:Generated_Source\PSoC4/SinUsar_1.c **** * \funcusage
 162:Generated_Source\PSoC4/SinUsar_1.c **** *  \snippet SinUsar_1_SUT.c usage_SinUsar_1_ReadDataReg 
 163:Generated_Source\PSoC4/SinUsar_1.c **** *******************************************************************************/
 164:Generated_Source\PSoC4/SinUsar_1.c **** uint8 SinUsar_1_ReadDataReg(void)
 165:Generated_Source\PSoC4/SinUsar_1.c **** {
 126              		.loc 1 165 0
 127              		.cfi_startproc
 128              		@ args = 0, pretend = 0, frame = 0
 129              		@ frame_needed = 0, uses_anonymous_args = 0
 130              		@ link register save eliminated.
 166:Generated_Source\PSoC4/SinUsar_1.c ****     return (uint8)((SinUsar_1_DR & SinUsar_1_MASK) >> SinUsar_1_SHIFT);
 131              		.loc 1 166 0
 132 0000 024B     		ldr	r3, .L11
 133 0002 1B68     		ldr	r3, [r3]
 134 0004 0120     		movs	r0, #1
 135 0006 1840     		ands	r0, r3
 167:Generated_Source\PSoC4/SinUsar_1.c **** }
 136              		.loc 1 167 0
 137              		@ sp needed
 138 0008 7047     		bx	lr
 139              	.L12:
 140 000a C046     		.align	2
 141              	.L11:
 142 000c 00020440 		.word	1074004480
 143              		.cfi_endproc
 144              	.LFE3:
 145              		.size	SinUsar_1_ReadDataReg, .-SinUsar_1_ReadDataReg
 146              		.section	.text.SinUsar_1_SetInterruptMode,"ax",%progbits
 147              		.align	2
 148              		.global	SinUsar_1_SetInterruptMode
 149              		.code	16
 150              		.thumb_func
 151              		.type	SinUsar_1_SetInterruptMode, %function
 152              	SinUsar_1_SetInterruptMode:
 153              	.LFB4:
 168:Generated_Source\PSoC4/SinUsar_1.c **** 
 169:Generated_Source\PSoC4/SinUsar_1.c **** 
 170:Generated_Source\PSoC4/SinUsar_1.c **** /*******************************************************************************
 171:Generated_Source\PSoC4/SinUsar_1.c **** * Function Name: SinUsar_1_SetInterruptMode
 172:Generated_Source\PSoC4/SinUsar_1.c **** ****************************************************************************//**
 173:Generated_Source\PSoC4/SinUsar_1.c **** *
 174:Generated_Source\PSoC4/SinUsar_1.c **** * \brief Configures the interrupt mode for each of the Pins component's
 175:Generated_Source\PSoC4/SinUsar_1.c **** *  pins. Alternatively you may set the interrupt mode for all the pins
 176:Generated_Source\PSoC4/SinUsar_1.c **** *  specified in the Pins component.
 177:Generated_Source\PSoC4/SinUsar_1.c **** *
 178:Generated_Source\PSoC4/SinUsar_1.c **** *  <b>Note</b> The interrupt is port-wide and therefore any enabled pin
 179:Generated_Source\PSoC4/SinUsar_1.c **** *  interrupt may trigger it.
 180:Generated_Source\PSoC4/SinUsar_1.c **** *
 181:Generated_Source\PSoC4/SinUsar_1.c **** * \param position
 182:Generated_Source\PSoC4/SinUsar_1.c **** *  The pin position as listed in the Pins component. You may OR these to be 
 183:Generated_Source\PSoC4/SinUsar_1.c **** *  able to configure the interrupt mode of multiple pins within a Pins 
 184:Generated_Source\PSoC4/SinUsar_1.c **** *  component. Or you may use SinUsar_1_INTR_ALL to configure the
 185:Generated_Source\PSoC4/SinUsar_1.c **** *  interrupt mode of all the pins in the Pins component.       
 186:Generated_Source\PSoC4/SinUsar_1.c **** *  - SinUsar_1_0_INTR       (First pin in the list)
 187:Generated_Source\PSoC4/SinUsar_1.c **** *  - SinUsar_1_1_INTR       (Second pin in the list)
 188:Generated_Source\PSoC4/SinUsar_1.c **** *  - ...
 189:Generated_Source\PSoC4/SinUsar_1.c **** *  - SinUsar_1_INTR_ALL     (All pins in Pins component)
ARM GAS  C:\Users\ELEASO~1\AppData\Local\Temp\ccerTvWP.s 			page 7


 190:Generated_Source\PSoC4/SinUsar_1.c **** *
 191:Generated_Source\PSoC4/SinUsar_1.c **** * \param mode
 192:Generated_Source\PSoC4/SinUsar_1.c **** *  Interrupt mode for the selected pins. Valid options are documented in
 193:Generated_Source\PSoC4/SinUsar_1.c **** *  \ref intrMode.
 194:Generated_Source\PSoC4/SinUsar_1.c **** *
 195:Generated_Source\PSoC4/SinUsar_1.c **** * \return 
 196:Generated_Source\PSoC4/SinUsar_1.c **** *  None
 197:Generated_Source\PSoC4/SinUsar_1.c **** *  
 198:Generated_Source\PSoC4/SinUsar_1.c **** * \sideeffect
 199:Generated_Source\PSoC4/SinUsar_1.c **** *  It is recommended that the interrupt be disabled before calling this 
 200:Generated_Source\PSoC4/SinUsar_1.c **** *  function to avoid unintended interrupt requests. Note that the interrupt
 201:Generated_Source\PSoC4/SinUsar_1.c **** *  type is port wide, and therefore will trigger for any enabled pin on the 
 202:Generated_Source\PSoC4/SinUsar_1.c **** *  port.
 203:Generated_Source\PSoC4/SinUsar_1.c **** *
 204:Generated_Source\PSoC4/SinUsar_1.c **** * \funcusage
 205:Generated_Source\PSoC4/SinUsar_1.c **** *  \snippet SinUsar_1_SUT.c usage_SinUsar_1_SetInterruptMode
 206:Generated_Source\PSoC4/SinUsar_1.c **** *******************************************************************************/
 207:Generated_Source\PSoC4/SinUsar_1.c **** void SinUsar_1_SetInterruptMode(uint16 position, uint16 mode)
 208:Generated_Source\PSoC4/SinUsar_1.c **** {
 154              		.loc 1 208 0
 155              		.cfi_startproc
 156              		@ args = 0, pretend = 0, frame = 0
 157              		@ frame_needed = 0, uses_anonymous_args = 0
 158              		@ link register save eliminated.
 159              	.LVL6:
 209:Generated_Source\PSoC4/SinUsar_1.c ****     uint32 intrCfg;
 210:Generated_Source\PSoC4/SinUsar_1.c ****     
 211:Generated_Source\PSoC4/SinUsar_1.c ****     intrCfg =  SinUsar_1_INTCFG & (uint32)(~(uint32)position);
 160              		.loc 1 211 0
 161 0000 034A     		ldr	r2, .L14
 162 0002 1368     		ldr	r3, [r2]
 163 0004 8343     		bics	r3, r0
 164              	.LVL7:
 212:Generated_Source\PSoC4/SinUsar_1.c ****     SinUsar_1_INTCFG = intrCfg | ((uint32)position & (uint32)mode);
 165              		.loc 1 212 0
 166 0006 0840     		ands	r0, r1
 167              	.LVL8:
 168 0008 1843     		orrs	r0, r3
 169 000a 1060     		str	r0, [r2]
 213:Generated_Source\PSoC4/SinUsar_1.c **** }
 170              		.loc 1 213 0
 171              		@ sp needed
 172 000c 7047     		bx	lr
 173              	.L15:
 174 000e C046     		.align	2
 175              	.L14:
 176 0010 0C020440 		.word	1074004492
 177              		.cfi_endproc
 178              	.LFE4:
 179              		.size	SinUsar_1_SetInterruptMode, .-SinUsar_1_SetInterruptMode
 180              		.section	.text.SinUsar_1_ClearInterrupt,"ax",%progbits
 181              		.align	2
 182              		.global	SinUsar_1_ClearInterrupt
 183              		.code	16
 184              		.thumb_func
 185              		.type	SinUsar_1_ClearInterrupt, %function
 186              	SinUsar_1_ClearInterrupt:
ARM GAS  C:\Users\ELEASO~1\AppData\Local\Temp\ccerTvWP.s 			page 8


 187              	.LFB5:
 214:Generated_Source\PSoC4/SinUsar_1.c **** 
 215:Generated_Source\PSoC4/SinUsar_1.c **** 
 216:Generated_Source\PSoC4/SinUsar_1.c **** /*******************************************************************************
 217:Generated_Source\PSoC4/SinUsar_1.c **** * Function Name: SinUsar_1_ClearInterrupt
 218:Generated_Source\PSoC4/SinUsar_1.c **** ****************************************************************************//**
 219:Generated_Source\PSoC4/SinUsar_1.c **** *
 220:Generated_Source\PSoC4/SinUsar_1.c **** * \brief Clears any active interrupts attached with the component and returns 
 221:Generated_Source\PSoC4/SinUsar_1.c **** *  the value of the interrupt status register allowing determination of which
 222:Generated_Source\PSoC4/SinUsar_1.c **** *  pins generated an interrupt event.
 223:Generated_Source\PSoC4/SinUsar_1.c **** *
 224:Generated_Source\PSoC4/SinUsar_1.c **** * \return 
 225:Generated_Source\PSoC4/SinUsar_1.c **** *  The right-shifted current value of the interrupt status register. Each pin 
 226:Generated_Source\PSoC4/SinUsar_1.c **** *  has one bit set if it generated an interrupt event. For example, bit 0 is 
 227:Generated_Source\PSoC4/SinUsar_1.c **** *  for pin 0 and bit 1 is for pin 1 of the Pins component.
 228:Generated_Source\PSoC4/SinUsar_1.c **** *  
 229:Generated_Source\PSoC4/SinUsar_1.c **** * \sideeffect
 230:Generated_Source\PSoC4/SinUsar_1.c **** *  Clears all bits of the physical port's interrupt status register, not just
 231:Generated_Source\PSoC4/SinUsar_1.c **** *  those associated with the Pins component.
 232:Generated_Source\PSoC4/SinUsar_1.c **** *
 233:Generated_Source\PSoC4/SinUsar_1.c **** * \funcusage
 234:Generated_Source\PSoC4/SinUsar_1.c **** *  \snippet SinUsar_1_SUT.c usage_SinUsar_1_ClearInterrupt
 235:Generated_Source\PSoC4/SinUsar_1.c **** *******************************************************************************/
 236:Generated_Source\PSoC4/SinUsar_1.c **** uint8 SinUsar_1_ClearInterrupt(void)
 237:Generated_Source\PSoC4/SinUsar_1.c **** {
 188              		.loc 1 237 0
 189              		.cfi_startproc
 190              		@ args = 0, pretend = 0, frame = 0
 191              		@ frame_needed = 0, uses_anonymous_args = 0
 192              		@ link register save eliminated.
 238:Generated_Source\PSoC4/SinUsar_1.c **** 	uint8 maskedStatus = (uint8)(SinUsar_1_INTSTAT & SinUsar_1_MASK);
 193              		.loc 1 238 0
 194 0000 024A     		ldr	r2, .L17
 195 0002 1068     		ldr	r0, [r2]
 196 0004 0123     		movs	r3, #1
 197 0006 1840     		ands	r0, r3
 198              	.LVL9:
 239:Generated_Source\PSoC4/SinUsar_1.c **** 	SinUsar_1_INTSTAT = maskedStatus;
 199              		.loc 1 239 0
 200 0008 1060     		str	r0, [r2]
 240:Generated_Source\PSoC4/SinUsar_1.c ****     return maskedStatus >> SinUsar_1_SHIFT;
 241:Generated_Source\PSoC4/SinUsar_1.c **** }
 201              		.loc 1 241 0
 202              		@ sp needed
 203 000a 7047     		bx	lr
 204              	.L18:
 205              		.align	2
 206              	.L17:
 207 000c 10020440 		.word	1074004496
 208              		.cfi_endproc
 209              	.LFE5:
 210              		.size	SinUsar_1_ClearInterrupt, .-SinUsar_1_ClearInterrupt
 211              		.text
 212              	.Letext0:
 213              		.file 2 "Generated_Source\\PSoC4\\cytypes.h"
