ARM GAS  C:\Users\Elea\AppData\Local\Temp\cckJmM5v.s 			page 1


   1              		.cpu cortex-m0
   2              		.fpu softvfp
   3              		.eabi_attribute 20, 1
   4              		.eabi_attribute 21, 1
   5              		.eabi_attribute 23, 3
   6              		.eabi_attribute 24, 1
   7              		.eabi_attribute 25, 1
   8              		.eabi_attribute 26, 1
   9              		.eabi_attribute 30, 1
  10              		.eabi_attribute 34, 0
  11              		.eabi_attribute 18, 4
  12              		.code	16
  13              		.file	"CyFlash.c"
  14              		.text
  15              	.Ltext0:
  16              		.cfi_sections	.debug_frame
  17              		.section	.text.CySysFlashClockBackup,"ax",%progbits
  18              		.align	2
  19              		.code	16
  20              		.thumb_func
  21              		.type	CySysFlashClockBackup, %function
  22              	CySysFlashClockBackup:
  23              	.LFB2:
  24              		.file 1 "Generated_Source\\PSoC4\\CyFlash.c"
   1:Generated_Source\PSoC4/CyFlash.c **** /***************************************************************************//**
   2:Generated_Source\PSoC4/CyFlash.c **** * \file CyFlash.c
   3:Generated_Source\PSoC4/CyFlash.c **** * \version 5.50
   4:Generated_Source\PSoC4/CyFlash.c **** *
   5:Generated_Source\PSoC4/CyFlash.c **** * \brief Provides an API for the FLASH.
   6:Generated_Source\PSoC4/CyFlash.c **** *
   7:Generated_Source\PSoC4/CyFlash.c **** * \note This code is endian agnostic.
   8:Generated_Source\PSoC4/CyFlash.c **** *
   9:Generated_Source\PSoC4/CyFlash.c **** * \note Documentation of the API's in this file is located in the System
  10:Generated_Source\PSoC4/CyFlash.c **** * Reference Guide provided with PSoC Creator.
  11:Generated_Source\PSoC4/CyFlash.c **** *
  12:Generated_Source\PSoC4/CyFlash.c **** ********************************************************************************
  13:Generated_Source\PSoC4/CyFlash.c **** * \copyright
  14:Generated_Source\PSoC4/CyFlash.c **** * Copyright 2010-2016, Cypress Semiconductor Corporation.  All rights reserved.
  15:Generated_Source\PSoC4/CyFlash.c **** * You may use this file only in accordance with the license, terms, conditions,
  16:Generated_Source\PSoC4/CyFlash.c **** * disclaimers, and limitations in the end user license agreement accompanying
  17:Generated_Source\PSoC4/CyFlash.c **** * the software package with which this file was provided.
  18:Generated_Source\PSoC4/CyFlash.c **** *******************************************************************************/
  19:Generated_Source\PSoC4/CyFlash.c **** 
  20:Generated_Source\PSoC4/CyFlash.c **** #include "CyFlash.h"
  21:Generated_Source\PSoC4/CyFlash.c **** 
  22:Generated_Source\PSoC4/CyFlash.c **** 
  23:Generated_Source\PSoC4/CyFlash.c **** /*******************************************************************************
  24:Generated_Source\PSoC4/CyFlash.c **** * Cypress identified a defect with the Flash write functionality of the
  25:Generated_Source\PSoC4/CyFlash.c **** * PSoC 4000, PSoC 4100, and PSoC 4200 devices. The CySysFlashWriteRow() function
  26:Generated_Source\PSoC4/CyFlash.c **** * now checks the data to be written and, if necessary, modifies it to have a
  27:Generated_Source\PSoC4/CyFlash.c **** * non-zero checksum. After writing to Flash, the modified data is replaced
  28:Generated_Source\PSoC4/CyFlash.c **** * (Flash program) with the correct (original) data.
  29:Generated_Source\PSoC4/CyFlash.c **** *******************************************************************************/
  30:Generated_Source\PSoC4/CyFlash.c **** #define CY_FLASH_CHECKSUM_WORKAROUND    (CY_PSOC4_4000 || CY_PSOC4_4100 || CY_PSOC4_4200)
  31:Generated_Source\PSoC4/CyFlash.c **** 
  32:Generated_Source\PSoC4/CyFlash.c **** #if (CY_IP_FM || ((!CY_PSOC4_4000) && CY_IP_SPCIF_SYNCHRONOUS) || (!CY_IP_FM) && CY_PSOC4_4000)
  33:Generated_Source\PSoC4/CyFlash.c ****     static CY_SYS_FLASH_CLOCK_BACKUP_STRUCT cySysFlashBackup;
ARM GAS  C:\Users\Elea\AppData\Local\Temp\cckJmM5v.s 			page 2


  34:Generated_Source\PSoC4/CyFlash.c **** #endif /* (CY_IP_FM || ((!CY_PSOC4_4000) && CY_IP_SPCIF_SYNCHRONOUS) || (!CY_IP_FM) && CY_PSOC4_400
  35:Generated_Source\PSoC4/CyFlash.c **** 
  36:Generated_Source\PSoC4/CyFlash.c **** static cystatus CySysFlashClockBackup(void);
  37:Generated_Source\PSoC4/CyFlash.c **** static cystatus CySysFlashClockRestore(void);
  38:Generated_Source\PSoC4/CyFlash.c **** #if(CY_IP_SPCIF_SYNCHRONOUS)
  39:Generated_Source\PSoC4/CyFlash.c ****     static cystatus CySysFlashClockConfig(void);
  40:Generated_Source\PSoC4/CyFlash.c **** #endif  /* (CY_IP_SPCIF_SYNCHRONOUS) */
  41:Generated_Source\PSoC4/CyFlash.c **** 
  42:Generated_Source\PSoC4/CyFlash.c **** 
  43:Generated_Source\PSoC4/CyFlash.c **** /*******************************************************************************
  44:Generated_Source\PSoC4/CyFlash.c **** * Function Name: CySysFlashWriteRow
  45:Generated_Source\PSoC4/CyFlash.c **** ****************************************************************************//**
  46:Generated_Source\PSoC4/CyFlash.c **** *
  47:Generated_Source\PSoC4/CyFlash.c **** * Erases a row of Flash and programs it with the new data.
  48:Generated_Source\PSoC4/CyFlash.c **** *
  49:Generated_Source\PSoC4/CyFlash.c **** * The IMO must be enabled before calling this function. The operation of the
  50:Generated_Source\PSoC4/CyFlash.c **** * flash writing hardware is dependent on the IMO.
  51:Generated_Source\PSoC4/CyFlash.c **** *
  52:Generated_Source\PSoC4/CyFlash.c **** * For PSoC 4000, PSoC 4100 BLE and PSoC 4200 BLE devices (PSoC 4100 BLE and
  53:Generated_Source\PSoC4/CyFlash.c **** * PSoC 4200 BLE devices with 256K of Flash memory are not affected), this API
  54:Generated_Source\PSoC4/CyFlash.c **** * will automatically modify the clock settings for the device. Writing to
  55:Generated_Source\PSoC4/CyFlash.c **** * flash requires that changes be made to the IMO and HFCLK settings. The
  56:Generated_Source\PSoC4/CyFlash.c **** * configuration is restored before returning. This will impact the operation
  57:Generated_Source\PSoC4/CyFlash.c **** * of most of the hardware in the device.
  58:Generated_Source\PSoC4/CyFlash.c **** *
  59:Generated_Source\PSoC4/CyFlash.c **** * For PSoC 4000 devices this API will automatically modify the clock settings
  60:Generated_Source\PSoC4/CyFlash.c **** * for the device. Writing to flash requires that changes be made to the IMO
  61:Generated_Source\PSoC4/CyFlash.c **** * and HFCLK settings. The configuration is restored before returning. HFCLK
  62:Generated_Source\PSoC4/CyFlash.c **** * will have several frequency changes during the operation of this API between
  63:Generated_Source\PSoC4/CyFlash.c **** * a minimum frequency of the current IMO frequency divided by 8 and a maximum
  64:Generated_Source\PSoC4/CyFlash.c **** * frequency of 12 MHz. This will impact the operation of most of the hardware
  65:Generated_Source\PSoC4/CyFlash.c **** * in the device.
  66:Generated_Source\PSoC4/CyFlash.c **** *
  67:Generated_Source\PSoC4/CyFlash.c **** * \param rowNum The flash row number. The number of the flash rows is defined by
  68:Generated_Source\PSoC4/CyFlash.c **** * the \ref CY_FLASH_NUMBER_ROWS macro for the selected device. Refer to the
  69:Generated_Source\PSoC4/CyFlash.c **** * device datasheet for the details.
  70:Generated_Source\PSoC4/CyFlash.c **** * \note The target flash array is calculated based on the specified flash row.
  71:Generated_Source\PSoC4/CyFlash.c **** *
  72:Generated_Source\PSoC4/CyFlash.c **** * \param rowData Array of bytes to write. The size of the array must be equal to
  73:Generated_Source\PSoC4/CyFlash.c **** * the flash row size. The flash row size for the selected device is defined by
  74:Generated_Source\PSoC4/CyFlash.c **** * the \ref CY_FLASH_SIZEOF_ROW macro. Refer to the device datasheet for the
  75:Generated_Source\PSoC4/CyFlash.c **** * details.
  76:Generated_Source\PSoC4/CyFlash.c **** *
  77:Generated_Source\PSoC4/CyFlash.c **** * \return \ref group_flash_status_codes
  78:Generated_Source\PSoC4/CyFlash.c **** *
  79:Generated_Source\PSoC4/CyFlash.c **** *******************************************************************************/
  80:Generated_Source\PSoC4/CyFlash.c **** uint32 CySysFlashWriteRow(uint32 rowNum, const uint8 rowData[])
  81:Generated_Source\PSoC4/CyFlash.c **** {
  82:Generated_Source\PSoC4/CyFlash.c ****     volatile uint32 retValue = CY_SYS_FLASH_SUCCESS;
  83:Generated_Source\PSoC4/CyFlash.c ****     volatile uint32 clkCnfRetValue = CY_SYS_FLASH_SUCCESS;
  84:Generated_Source\PSoC4/CyFlash.c ****     volatile uint32 parameters[(CY_FLASH_SIZEOF_ROW + CY_FLASH_SRAM_ROM_DATA) / sizeof(uint32)];
  85:Generated_Source\PSoC4/CyFlash.c ****     uint8  interruptState;
  86:Generated_Source\PSoC4/CyFlash.c **** 
  87:Generated_Source\PSoC4/CyFlash.c ****     #if (CY_FLASH_CHECKSUM_WORKAROUND)
  88:Generated_Source\PSoC4/CyFlash.c ****         uint32 needChecksumWorkaround = 0u;
  89:Generated_Source\PSoC4/CyFlash.c ****         uint32 savedIndex = 0u;
  90:Generated_Source\PSoC4/CyFlash.c ****         uint32 savedValue = 0u;
ARM GAS  C:\Users\Elea\AppData\Local\Temp\cckJmM5v.s 			page 3


  91:Generated_Source\PSoC4/CyFlash.c ****         uint32 checksum = 0u;
  92:Generated_Source\PSoC4/CyFlash.c ****         uint32 bits = 0u;
  93:Generated_Source\PSoC4/CyFlash.c ****         uint32 i;
  94:Generated_Source\PSoC4/CyFlash.c ****     #endif  /* (CY_FLASH_CHECKSUM_WORKAROUND) */
  95:Generated_Source\PSoC4/CyFlash.c **** 
  96:Generated_Source\PSoC4/CyFlash.c ****     if ((rowNum < CY_FLASH_NUMBER_ROWS) && (rowData != 0u))
  97:Generated_Source\PSoC4/CyFlash.c ****     {
  98:Generated_Source\PSoC4/CyFlash.c ****         /* Copy data to be written into internal variable */
  99:Generated_Source\PSoC4/CyFlash.c ****         (void)memcpy((void *)&parameters[2u], rowData, CY_FLASH_SIZEOF_ROW);
 100:Generated_Source\PSoC4/CyFlash.c **** 
 101:Generated_Source\PSoC4/CyFlash.c ****         #if (CY_FLASH_CHECKSUM_WORKAROUND)
 102:Generated_Source\PSoC4/CyFlash.c **** 
 103:Generated_Source\PSoC4/CyFlash.c ****             for (i = 2u; i < ((CY_FLASH_SIZEOF_ROW / sizeof(uint32)) + 2u); i++)
 104:Generated_Source\PSoC4/CyFlash.c ****             {
 105:Generated_Source\PSoC4/CyFlash.c ****                 uint32 tmp = parameters[i];
 106:Generated_Source\PSoC4/CyFlash.c ****                 if (tmp != 0u)
 107:Generated_Source\PSoC4/CyFlash.c ****                 {
 108:Generated_Source\PSoC4/CyFlash.c ****                     checksum += tmp;
 109:Generated_Source\PSoC4/CyFlash.c ****                     bits |= tmp;
 110:Generated_Source\PSoC4/CyFlash.c ****                     savedIndex = i;
 111:Generated_Source\PSoC4/CyFlash.c ****                 }
 112:Generated_Source\PSoC4/CyFlash.c ****             }
 113:Generated_Source\PSoC4/CyFlash.c **** 
 114:Generated_Source\PSoC4/CyFlash.c ****             needChecksumWorkaround = ((checksum == 0u) && (bits != 0u)) ? 1u : 0u;
 115:Generated_Source\PSoC4/CyFlash.c ****             if (needChecksumWorkaround != 0u)
 116:Generated_Source\PSoC4/CyFlash.c ****             {
 117:Generated_Source\PSoC4/CyFlash.c ****                 savedValue = parameters[savedIndex];
 118:Generated_Source\PSoC4/CyFlash.c ****                 parameters[savedIndex] = 0u;
 119:Generated_Source\PSoC4/CyFlash.c ****             }
 120:Generated_Source\PSoC4/CyFlash.c ****         #endif  /* (CY_FLASH_CHECKSUM_WORKAROUND) */
 121:Generated_Source\PSoC4/CyFlash.c **** 
 122:Generated_Source\PSoC4/CyFlash.c ****         /* Load Flash Bytes */
 123:Generated_Source\PSoC4/CyFlash.c ****         parameters[0u] = (uint32) (CY_FLASH_GET_MACRO_FROM_ROW(rowNum)        << CY_FLASH_PARAM_MAC
 124:Generated_Source\PSoC4/CyFlash.c ****                          (uint32) (CY_FLASH_PAGE_LATCH_START_ADDR             << CY_FLASH_PARAM_ADD
 125:Generated_Source\PSoC4/CyFlash.c ****                          (uint32) (CY_FLASH_KEY_TWO(CY_FLASH_API_OPCODE_LOAD) << CY_FLASH_PARAM_KEY
 126:Generated_Source\PSoC4/CyFlash.c ****                          CY_FLASH_KEY_ONE;
 127:Generated_Source\PSoC4/CyFlash.c ****         parameters[1u] = CY_FLASH_SIZEOF_ROW - 1u;
 128:Generated_Source\PSoC4/CyFlash.c **** 
 129:Generated_Source\PSoC4/CyFlash.c ****         CY_FLASH_CPUSS_SYSARG_REG = (uint32) &parameters[0u];
 130:Generated_Source\PSoC4/CyFlash.c ****         CY_FLASH_CPUSS_SYSREQ_REG = CY_FLASH_CPUSS_REQ_START | CY_FLASH_API_OPCODE_LOAD;
 131:Generated_Source\PSoC4/CyFlash.c ****         CY_NOP;
 132:Generated_Source\PSoC4/CyFlash.c ****         retValue = CY_FLASH_API_RETURN;
 133:Generated_Source\PSoC4/CyFlash.c **** 
 134:Generated_Source\PSoC4/CyFlash.c ****         if(retValue == CY_SYS_FLASH_SUCCESS)
 135:Generated_Source\PSoC4/CyFlash.c ****         {
 136:Generated_Source\PSoC4/CyFlash.c ****             /***************************************************************
 137:Generated_Source\PSoC4/CyFlash.c ****             * Mask all the exceptions to guarantee that Flash write will
 138:Generated_Source\PSoC4/CyFlash.c ****             * occur in the atomic way. It will not affect system call
 139:Generated_Source\PSoC4/CyFlash.c ****             * execution (flash row write) since it is executed in the NMI
 140:Generated_Source\PSoC4/CyFlash.c ****             * context.
 141:Generated_Source\PSoC4/CyFlash.c ****             ***************************************************************/
 142:Generated_Source\PSoC4/CyFlash.c ****             interruptState = CyEnterCriticalSection();
 143:Generated_Source\PSoC4/CyFlash.c **** 
 144:Generated_Source\PSoC4/CyFlash.c ****             clkCnfRetValue = CySysFlashClockBackup();
 145:Generated_Source\PSoC4/CyFlash.c **** 
 146:Generated_Source\PSoC4/CyFlash.c ****         #if(CY_IP_SPCIF_SYNCHRONOUS)
 147:Generated_Source\PSoC4/CyFlash.c ****             if(clkCnfRetValue == CY_SYS_FLASH_SUCCESS)
ARM GAS  C:\Users\Elea\AppData\Local\Temp\cckJmM5v.s 			page 4


 148:Generated_Source\PSoC4/CyFlash.c ****             {
 149:Generated_Source\PSoC4/CyFlash.c ****                 retValue = CySysFlashClockConfig();
 150:Generated_Source\PSoC4/CyFlash.c ****             }
 151:Generated_Source\PSoC4/CyFlash.c ****         #endif  /* (CY_IP_SPCIF_SYNCHRONOUS) */
 152:Generated_Source\PSoC4/CyFlash.c **** 
 153:Generated_Source\PSoC4/CyFlash.c ****             if(retValue == CY_SYS_FLASH_SUCCESS)
 154:Generated_Source\PSoC4/CyFlash.c ****             {
 155:Generated_Source\PSoC4/CyFlash.c ****                 /* Write Row */
 156:Generated_Source\PSoC4/CyFlash.c ****                 parameters[0u]  = (uint32) (((uint32) CY_FLASH_KEY_TWO(CY_FLASH_API_OPCODE_WRITE_RO
 157:Generated_Source\PSoC4/CyFlash.c ****                 parameters[0u] |= (uint32)(rowNum << 16u);
 158:Generated_Source\PSoC4/CyFlash.c **** 
 159:Generated_Source\PSoC4/CyFlash.c ****                 CY_FLASH_CPUSS_SYSARG_REG = (uint32) &parameters[0u];
 160:Generated_Source\PSoC4/CyFlash.c ****                 CY_FLASH_CPUSS_SYSREQ_REG = CY_FLASH_CPUSS_REQ_START | CY_FLASH_API_OPCODE_WRITE_RO
 161:Generated_Source\PSoC4/CyFlash.c ****                 CY_NOP;
 162:Generated_Source\PSoC4/CyFlash.c ****                 retValue = CY_FLASH_API_RETURN;
 163:Generated_Source\PSoC4/CyFlash.c ****             }
 164:Generated_Source\PSoC4/CyFlash.c **** 
 165:Generated_Source\PSoC4/CyFlash.c ****             #if (CY_FLASH_CHECKSUM_WORKAROUND)
 166:Generated_Source\PSoC4/CyFlash.c **** 
 167:Generated_Source\PSoC4/CyFlash.c ****                 if ((retValue == CYRET_SUCCESS) && (needChecksumWorkaround != 0u))
 168:Generated_Source\PSoC4/CyFlash.c ****                 {
 169:Generated_Source\PSoC4/CyFlash.c ****                     (void)memset((void *)&parameters[2u], 0, CY_FLASH_SIZEOF_ROW);
 170:Generated_Source\PSoC4/CyFlash.c ****                     parameters[savedIndex] = savedValue;
 171:Generated_Source\PSoC4/CyFlash.c **** 
 172:Generated_Source\PSoC4/CyFlash.c ****                     /* Load Flash Bytes */
 173:Generated_Source\PSoC4/CyFlash.c ****                     parameters[0u] = (uint32) (CY_FLASH_GET_MACRO_FROM_ROW(rowNum)        << CY_FLA
 174:Generated_Source\PSoC4/CyFlash.c ****                                      (uint32) (CY_FLASH_PAGE_LATCH_START_ADDR             << CY_FLA
 175:Generated_Source\PSoC4/CyFlash.c ****                                      (uint32) (CY_FLASH_KEY_TWO(CY_FLASH_API_OPCODE_LOAD) << CY_FLA
 176:Generated_Source\PSoC4/CyFlash.c ****                                      CY_FLASH_KEY_ONE;
 177:Generated_Source\PSoC4/CyFlash.c ****                     parameters[1u] = CY_FLASH_SIZEOF_ROW - 1u;
 178:Generated_Source\PSoC4/CyFlash.c **** 
 179:Generated_Source\PSoC4/CyFlash.c ****                     CY_FLASH_CPUSS_SYSARG_REG = (uint32) &parameters[0u];
 180:Generated_Source\PSoC4/CyFlash.c ****                     CY_FLASH_CPUSS_SYSREQ_REG = CY_FLASH_CPUSS_REQ_START | CY_FLASH_API_OPCODE_LOAD
 181:Generated_Source\PSoC4/CyFlash.c ****                     CY_NOP;
 182:Generated_Source\PSoC4/CyFlash.c ****                     retValue = CY_FLASH_API_RETURN;
 183:Generated_Source\PSoC4/CyFlash.c **** 
 184:Generated_Source\PSoC4/CyFlash.c **** 
 185:Generated_Source\PSoC4/CyFlash.c ****                     if(retValue == CY_SYS_FLASH_SUCCESS)
 186:Generated_Source\PSoC4/CyFlash.c ****                     {
 187:Generated_Source\PSoC4/CyFlash.c ****                         /* Program Row */
 188:Generated_Source\PSoC4/CyFlash.c ****                         parameters[0u]  =
 189:Generated_Source\PSoC4/CyFlash.c ****                             (uint32) (((uint32) CY_FLASH_KEY_TWO(CY_FLASH_API_OPCODE_PROGRAM_ROW) <
 190:Generated_Source\PSoC4/CyFlash.c ****                                                     CY_FLASH_PARAM_KEY_TWO_OFFSET) | CY_FLASH_KEY_O
 191:Generated_Source\PSoC4/CyFlash.c ****                         parameters[0u] |= (uint32)(rowNum << 16u);
 192:Generated_Source\PSoC4/CyFlash.c **** 
 193:Generated_Source\PSoC4/CyFlash.c ****                         CY_FLASH_CPUSS_SYSARG_REG = (uint32) &parameters[0u];
 194:Generated_Source\PSoC4/CyFlash.c ****                         CY_FLASH_CPUSS_SYSREQ_REG = CY_FLASH_CPUSS_REQ_START | CY_FLASH_API_OPCODE_
 195:Generated_Source\PSoC4/CyFlash.c ****                         CY_NOP;
 196:Generated_Source\PSoC4/CyFlash.c ****                         retValue = CY_FLASH_API_RETURN;
 197:Generated_Source\PSoC4/CyFlash.c ****                     }
 198:Generated_Source\PSoC4/CyFlash.c ****                 }
 199:Generated_Source\PSoC4/CyFlash.c ****             #endif  /* (CY_FLASH_CHECKSUM_WORKAROUND) */
 200:Generated_Source\PSoC4/CyFlash.c **** 
 201:Generated_Source\PSoC4/CyFlash.c ****             if(clkCnfRetValue == CY_SYS_FLASH_SUCCESS)
 202:Generated_Source\PSoC4/CyFlash.c ****             {
 203:Generated_Source\PSoC4/CyFlash.c ****                 clkCnfRetValue = CySysFlashClockRestore();
 204:Generated_Source\PSoC4/CyFlash.c ****             }
ARM GAS  C:\Users\Elea\AppData\Local\Temp\cckJmM5v.s 			page 5


 205:Generated_Source\PSoC4/CyFlash.c **** 
 206:Generated_Source\PSoC4/CyFlash.c ****             CyExitCriticalSection(interruptState);
 207:Generated_Source\PSoC4/CyFlash.c ****         }
 208:Generated_Source\PSoC4/CyFlash.c ****     }
 209:Generated_Source\PSoC4/CyFlash.c ****     else
 210:Generated_Source\PSoC4/CyFlash.c ****     {
 211:Generated_Source\PSoC4/CyFlash.c ****         retValue = CY_SYS_FLASH_INVALID_ADDR;
 212:Generated_Source\PSoC4/CyFlash.c ****     }
 213:Generated_Source\PSoC4/CyFlash.c **** 
 214:Generated_Source\PSoC4/CyFlash.c ****     return (retValue);
 215:Generated_Source\PSoC4/CyFlash.c **** }
 216:Generated_Source\PSoC4/CyFlash.c **** 
 217:Generated_Source\PSoC4/CyFlash.c **** 
 218:Generated_Source\PSoC4/CyFlash.c **** 
 219:Generated_Source\PSoC4/CyFlash.c **** #if (CY_IP_FLASH_PARALLEL_PGM_EN && (CY_IP_FLASH_MACROS > 1u))
 220:Generated_Source\PSoC4/CyFlash.c **** /*******************************************************************************
 221:Generated_Source\PSoC4/CyFlash.c **** * Function Name: CySysFlashStartWriteRow
 222:Generated_Source\PSoC4/CyFlash.c **** ****************************************************************************//**
 223:Generated_Source\PSoC4/CyFlash.c **** *
 224:Generated_Source\PSoC4/CyFlash.c **** * Initiates a write to a row of Flash. A call to this API is non-blocking. 
 225:Generated_Source\PSoC4/CyFlash.c **** * Use CySysFlashResumeWriteRow() to resume flash writes and 
 226:Generated_Source\PSoC4/CyFlash.c **** * CySysFlashGetWriteRowStatus() to ascertain status of the write operation.
 227:Generated_Source\PSoC4/CyFlash.c **** *
 228:Generated_Source\PSoC4/CyFlash.c **** * The devices require HFCLK to be sourced by 48 MHz IMO during flash write.
 229:Generated_Source\PSoC4/CyFlash.c **** * This API will modify IMO configuration; it can be later restored to original
 230:Generated_Source\PSoC4/CyFlash.c **** * configuration by calling \ref CySysFlashGetWriteRowStatus().
 231:Generated_Source\PSoC4/CyFlash.c **** *
 232:Generated_Source\PSoC4/CyFlash.c **** * \note The non-blocking operation does not return success status 
 233:Generated_Source\PSoC4/CyFlash.c **** * CY_SYS_FLASH_SUCCESS until the last \ref CySysFlashResumeWriteRow API 
 234:Generated_Source\PSoC4/CyFlash.c **** * is complete. The CPUSS_SYSARG register will be reflecting the SRAM address 
 235:Generated_Source\PSoC4/CyFlash.c **** * during an ongoing non-blocking operation.
 236:Generated_Source\PSoC4/CyFlash.c **** *    
 237:Generated_Source\PSoC4/CyFlash.c **** * \param rowNum The flash row number. The number of the flash rows is defined by
 238:Generated_Source\PSoC4/CyFlash.c **** * the \ref CY_FLASH_NUMBER_ROWS macro for the selected device. Refer to the
 239:Generated_Source\PSoC4/CyFlash.c **** * device datasheet for the details.
 240:Generated_Source\PSoC4/CyFlash.c **** * \note The target flash array is calculated based on the specified flash row.
 241:Generated_Source\PSoC4/CyFlash.c **** *
 242:Generated_Source\PSoC4/CyFlash.c **** * \param rowData Array of bytes to write. The size of the array must be equal to
 243:Generated_Source\PSoC4/CyFlash.c **** * the flash row size. The flash row size for the selected device is defined by
 244:Generated_Source\PSoC4/CyFlash.c **** * the \ref CY_FLASH_SIZEOF_ROW macro. Refer to the device datasheet for the
 245:Generated_Source\PSoC4/CyFlash.c **** * details.
 246:Generated_Source\PSoC4/CyFlash.c **** *
 247:Generated_Source\PSoC4/CyFlash.c **** * \return \ref group_flash_status_codes
 248:Generated_Source\PSoC4/CyFlash.c **** *
 249:Generated_Source\PSoC4/CyFlash.c **** *******************************************************************************/
 250:Generated_Source\PSoC4/CyFlash.c **** uint32 CySysFlashStartWriteRow(uint32 rowNum, const uint8 rowData[])
 251:Generated_Source\PSoC4/CyFlash.c **** {
 252:Generated_Source\PSoC4/CyFlash.c ****     volatile uint32 retValue = CY_SYS_FLASH_SUCCESS;
 253:Generated_Source\PSoC4/CyFlash.c ****     volatile uint32 parameters[(CY_FLASH_SIZEOF_ROW + CY_FLASH_SRAM_ROM_DATA) / sizeof(uint32)];
 254:Generated_Source\PSoC4/CyFlash.c ****     uint8  interruptState;
 255:Generated_Source\PSoC4/CyFlash.c **** 
 256:Generated_Source\PSoC4/CyFlash.c **** #if(CY_IP_SPCIF_SYNCHRONOUS)
 257:Generated_Source\PSoC4/CyFlash.c ****     volatile uint32 clkCnfRetValue = CY_SYS_FLASH_SUCCESS;
 258:Generated_Source\PSoC4/CyFlash.c **** #endif  /* (CY_IP_SPCIF_SYNCHRONOUS) */    
 259:Generated_Source\PSoC4/CyFlash.c **** 
 260:Generated_Source\PSoC4/CyFlash.c ****     if ((rowNum < CY_FLASH_NUMBER_ROWS) && (rowData != 0u))
 261:Generated_Source\PSoC4/CyFlash.c ****     {
ARM GAS  C:\Users\Elea\AppData\Local\Temp\cckJmM5v.s 			page 6


 262:Generated_Source\PSoC4/CyFlash.c ****         /* Copy data to be written into internal variable */
 263:Generated_Source\PSoC4/CyFlash.c ****         (void)memcpy((void *)&parameters[2u], rowData, CY_FLASH_SIZEOF_ROW);
 264:Generated_Source\PSoC4/CyFlash.c **** 
 265:Generated_Source\PSoC4/CyFlash.c ****         /* Load Flash Bytes */
 266:Generated_Source\PSoC4/CyFlash.c ****         parameters[0u] = (uint32) (CY_FLASH_GET_MACRO_FROM_ROW(rowNum)        << CY_FLASH_PARAM_MAC
 267:Generated_Source\PSoC4/CyFlash.c ****                          (uint32) (CY_FLASH_PAGE_LATCH_START_ADDR             << CY_FLASH_PARAM_ADD
 268:Generated_Source\PSoC4/CyFlash.c ****                          (uint32) (CY_FLASH_KEY_TWO(CY_FLASH_API_OPCODE_LOAD) << CY_FLASH_PARAM_KEY
 269:Generated_Source\PSoC4/CyFlash.c ****                          CY_FLASH_KEY_ONE;
 270:Generated_Source\PSoC4/CyFlash.c ****         parameters[1u] = CY_FLASH_SIZEOF_ROW - 1u;
 271:Generated_Source\PSoC4/CyFlash.c **** 
 272:Generated_Source\PSoC4/CyFlash.c ****         CY_FLASH_CPUSS_SYSARG_REG = (uint32) &parameters[0u];
 273:Generated_Source\PSoC4/CyFlash.c ****         CY_FLASH_CPUSS_SYSREQ_REG = CY_FLASH_CPUSS_REQ_START | CY_FLASH_API_OPCODE_LOAD;
 274:Generated_Source\PSoC4/CyFlash.c ****         CY_NOP;
 275:Generated_Source\PSoC4/CyFlash.c ****         retValue = CY_FLASH_API_RETURN;
 276:Generated_Source\PSoC4/CyFlash.c **** 
 277:Generated_Source\PSoC4/CyFlash.c ****         if(retValue == CY_SYS_FLASH_SUCCESS)
 278:Generated_Source\PSoC4/CyFlash.c ****         {
 279:Generated_Source\PSoC4/CyFlash.c ****             /***************************************************************
 280:Generated_Source\PSoC4/CyFlash.c ****             * Mask all the exceptions to guarantee that Flash write will
 281:Generated_Source\PSoC4/CyFlash.c ****             * occur in the atomic way. It will not affect system call
 282:Generated_Source\PSoC4/CyFlash.c ****             * execution (flash row write) since it is executed in the NMI
 283:Generated_Source\PSoC4/CyFlash.c ****             * context.
 284:Generated_Source\PSoC4/CyFlash.c ****             ***************************************************************/
 285:Generated_Source\PSoC4/CyFlash.c ****             interruptState = CyEnterCriticalSection();
 286:Generated_Source\PSoC4/CyFlash.c **** 
 287:Generated_Source\PSoC4/CyFlash.c ****         #if(CY_IP_SPCIF_SYNCHRONOUS)
 288:Generated_Source\PSoC4/CyFlash.c ****             clkCnfRetValue = CySysFlashClockBackup();
 289:Generated_Source\PSoC4/CyFlash.c ****             
 290:Generated_Source\PSoC4/CyFlash.c ****             if(clkCnfRetValue == CY_SYS_FLASH_SUCCESS)
 291:Generated_Source\PSoC4/CyFlash.c ****             {
 292:Generated_Source\PSoC4/CyFlash.c ****                 retValue = CySysFlashClockConfig();
 293:Generated_Source\PSoC4/CyFlash.c ****             }
 294:Generated_Source\PSoC4/CyFlash.c ****         #else
 295:Generated_Source\PSoC4/CyFlash.c ****             (void)CySysFlashClockBackup();
 296:Generated_Source\PSoC4/CyFlash.c ****         #endif  /* (CY_IP_SPCIF_SYNCHRONOUS) */
 297:Generated_Source\PSoC4/CyFlash.c **** 
 298:Generated_Source\PSoC4/CyFlash.c ****             if(retValue == CY_SYS_FLASH_SUCCESS)
 299:Generated_Source\PSoC4/CyFlash.c ****             {
 300:Generated_Source\PSoC4/CyFlash.c ****                 /* Non-blocking Write Row */
 301:Generated_Source\PSoC4/CyFlash.c ****                 parameters[0u]  = (uint32) (((uint32) CY_FLASH_KEY_TWO(CY_FLASH_API_OPCODE_NON_BLOC
 302:Generated_Source\PSoC4/CyFlash.c ****                                                         CY_FLASH_PARAM_KEY_TWO_OFFSET) | CY_FLASH_K
 303:Generated_Source\PSoC4/CyFlash.c ****                 parameters[0u] |= (uint32)(rowNum << 16u);
 304:Generated_Source\PSoC4/CyFlash.c **** 
 305:Generated_Source\PSoC4/CyFlash.c ****                 CY_FLASH_CPUSS_SYSARG_REG = (uint32) &parameters[0u];
 306:Generated_Source\PSoC4/CyFlash.c ****                 CY_FLASH_CPUSS_SYSREQ_REG = CY_FLASH_CPUSS_REQ_START | CY_FLASH_API_OPCODE_NON_BLOC
 307:Generated_Source\PSoC4/CyFlash.c ****                 CY_NOP;
 308:Generated_Source\PSoC4/CyFlash.c ****                 retValue = CY_FLASH_API_RETURN;
 309:Generated_Source\PSoC4/CyFlash.c ****             }
 310:Generated_Source\PSoC4/CyFlash.c **** 
 311:Generated_Source\PSoC4/CyFlash.c ****             CyExitCriticalSection(interruptState);
 312:Generated_Source\PSoC4/CyFlash.c ****         }
 313:Generated_Source\PSoC4/CyFlash.c ****     }
 314:Generated_Source\PSoC4/CyFlash.c ****     else
 315:Generated_Source\PSoC4/CyFlash.c ****     {
 316:Generated_Source\PSoC4/CyFlash.c ****         retValue = CY_SYS_FLASH_INVALID_ADDR;
 317:Generated_Source\PSoC4/CyFlash.c ****     }
 318:Generated_Source\PSoC4/CyFlash.c **** 
ARM GAS  C:\Users\Elea\AppData\Local\Temp\cckJmM5v.s 			page 7


 319:Generated_Source\PSoC4/CyFlash.c ****     return (retValue);
 320:Generated_Source\PSoC4/CyFlash.c **** }
 321:Generated_Source\PSoC4/CyFlash.c **** 
 322:Generated_Source\PSoC4/CyFlash.c **** 
 323:Generated_Source\PSoC4/CyFlash.c **** /*******************************************************************************
 324:Generated_Source\PSoC4/CyFlash.c **** * Function Name: CySysFlashGetWriteRowStatus
 325:Generated_Source\PSoC4/CyFlash.c **** ****************************************************************************//**
 326:Generated_Source\PSoC4/CyFlash.c **** *
 327:Generated_Source\PSoC4/CyFlash.c **** * Returns the current status of the flash write operation.
 328:Generated_Source\PSoC4/CyFlash.c **** *
 329:Generated_Source\PSoC4/CyFlash.c **** ** \note The non-blocking operation does not return success status 
 330:Generated_Source\PSoC4/CyFlash.c **** * CY_SYS_FLASH_SUCCESS until the last \ref CySysFlashResumeWriteRow API 
 331:Generated_Source\PSoC4/CyFlash.c **** * is complete. The CPUSS_SYSARG register will be reflecting the SRAM address 
 332:Generated_Source\PSoC4/CyFlash.c **** * during an ongoing non-blocking operation.
 333:Generated_Source\PSoC4/CyFlash.c **** * Calling this API before starting a non-blocking write row operation 
 334:Generated_Source\PSoC4/CyFlash.c **** * using the \ref CySysFlashStartWriteRow() API will cause improper operation.
 335:Generated_Source\PSoC4/CyFlash.c **** *
 336:Generated_Source\PSoC4/CyFlash.c **** * \return \ref group_flash_status_codes
 337:Generated_Source\PSoC4/CyFlash.c **** *
 338:Generated_Source\PSoC4/CyFlash.c **** *******************************************************************************/
 339:Generated_Source\PSoC4/CyFlash.c **** uint32 CySysFlashGetWriteRowStatus(void)
 340:Generated_Source\PSoC4/CyFlash.c **** {
 341:Generated_Source\PSoC4/CyFlash.c ****     volatile uint32 retValue = CY_SYS_FLASH_SUCCESS;
 342:Generated_Source\PSoC4/CyFlash.c **** 
 343:Generated_Source\PSoC4/CyFlash.c ****     CY_NOP;
 344:Generated_Source\PSoC4/CyFlash.c ****     retValue = CY_FLASH_API_RETURN;
 345:Generated_Source\PSoC4/CyFlash.c **** 
 346:Generated_Source\PSoC4/CyFlash.c ****     (void) CySysFlashClockRestore();
 347:Generated_Source\PSoC4/CyFlash.c **** 
 348:Generated_Source\PSoC4/CyFlash.c ****     return (retValue);
 349:Generated_Source\PSoC4/CyFlash.c **** }
 350:Generated_Source\PSoC4/CyFlash.c **** 
 351:Generated_Source\PSoC4/CyFlash.c **** 
 352:Generated_Source\PSoC4/CyFlash.c **** /*******************************************************************************
 353:Generated_Source\PSoC4/CyFlash.c **** * Function Name: CySysFlashResumeWriteRow
 354:Generated_Source\PSoC4/CyFlash.c **** ****************************************************************************//**
 355:Generated_Source\PSoC4/CyFlash.c **** *
 356:Generated_Source\PSoC4/CyFlash.c **** * This API must be called, once the SPC interrupt is triggered to complete the
 357:Generated_Source\PSoC4/CyFlash.c **** * non-blocking operation. It is advised not to prolong calling this API for
 358:Generated_Source\PSoC4/CyFlash.c **** * more than 25 ms.
 359:Generated_Source\PSoC4/CyFlash.c **** *
 360:Generated_Source\PSoC4/CyFlash.c **** * The non-blocking write row API \ref CySysFlashStartWriteRow() requires that
 361:Generated_Source\PSoC4/CyFlash.c **** * this API be called 3 times to complete the write. This can be done by
 362:Generated_Source\PSoC4/CyFlash.c **** * configuring SPCIF interrupt and placing a call to this API.
 363:Generated_Source\PSoC4/CyFlash.c **** *
 364:Generated_Source\PSoC4/CyFlash.c **** * For CM0 based device, a non-blocking call to program a row of macro 0
 365:Generated_Source\PSoC4/CyFlash.c **** * requires the user to set the CPUSS_CONFIG.VECS_IN_RAM bit so that the
 366:Generated_Source\PSoC4/CyFlash.c **** * interrupt vector for the SPC is fetched from the SRAM rather than the FLASH.
 367:Generated_Source\PSoC4/CyFlash.c **** *
 368:Generated_Source\PSoC4/CyFlash.c **** * For CM0+ based device, if the user wants to keep the vector table in flash
 369:Generated_Source\PSoC4/CyFlash.c **** * when performing non-blocking flash write then they need to make sure the
 370:Generated_Source\PSoC4/CyFlash.c **** * vector table is placed in the flash macro which is not getting programmed by
 371:Generated_Source\PSoC4/CyFlash.c **** * configuring the VTOR register.
 372:Generated_Source\PSoC4/CyFlash.c **** *
 373:Generated_Source\PSoC4/CyFlash.c **** * \note The non-blocking operation does not return success status 
 374:Generated_Source\PSoC4/CyFlash.c **** * CY_SYS_FLASH_SUCCESS until the last Resume API is complete. 
 375:Generated_Source\PSoC4/CyFlash.c **** * The CPUSS_SYSARG register will be reflecting the SRAM address during an 
ARM GAS  C:\Users\Elea\AppData\Local\Temp\cckJmM5v.s 			page 8


 376:Generated_Source\PSoC4/CyFlash.c **** * ongoing non-blocking operation.
 377:Generated_Source\PSoC4/CyFlash.c **** *
 378:Generated_Source\PSoC4/CyFlash.c **** * \return \ref group_flash_status_codes
 379:Generated_Source\PSoC4/CyFlash.c **** *
 380:Generated_Source\PSoC4/CyFlash.c **** *******************************************************************************/
 381:Generated_Source\PSoC4/CyFlash.c **** uint32 CySysFlashResumeWriteRow(void)
 382:Generated_Source\PSoC4/CyFlash.c **** {
 383:Generated_Source\PSoC4/CyFlash.c ****     volatile uint32 retValue = CY_SYS_FLASH_SUCCESS;
 384:Generated_Source\PSoC4/CyFlash.c ****     static volatile uint32 parameters[1u];
 385:Generated_Source\PSoC4/CyFlash.c **** 
 386:Generated_Source\PSoC4/CyFlash.c ****     /* Resume */
 387:Generated_Source\PSoC4/CyFlash.c ****     parameters[0u] = (uint32) (((uint32) CY_FLASH_KEY_TWO(CY_FLASH_API_OPCODE_RESUME_NON_BLOCKING) 
 388:Generated_Source\PSoC4/CyFlash.c ****                                          CY_FLASH_PARAM_KEY_TWO_OFFSET) | CY_FLASH_KEY_ONE);
 389:Generated_Source\PSoC4/CyFlash.c ****     CY_FLASH_CPUSS_SYSARG_REG = (uint32) &parameters[0u];
 390:Generated_Source\PSoC4/CyFlash.c ****     CY_FLASH_CPUSS_SYSREQ_REG = CY_FLASH_CPUSS_REQ_START | CY_FLASH_API_OPCODE_RESUME_NON_BLOCKING;
 391:Generated_Source\PSoC4/CyFlash.c ****     
 392:Generated_Source\PSoC4/CyFlash.c ****     CY_NOP;
 393:Generated_Source\PSoC4/CyFlash.c ****     retValue = CY_FLASH_API_RETURN;
 394:Generated_Source\PSoC4/CyFlash.c ****     
 395:Generated_Source\PSoC4/CyFlash.c ****     return (retValue);
 396:Generated_Source\PSoC4/CyFlash.c **** }
 397:Generated_Source\PSoC4/CyFlash.c **** 
 398:Generated_Source\PSoC4/CyFlash.c **** #endif /* (CY_IP_FLASH_PARALLEL_PGM_EN && (CY_IP_FLASH_MACROS > 1u)) */
 399:Generated_Source\PSoC4/CyFlash.c **** 
 400:Generated_Source\PSoC4/CyFlash.c **** 
 401:Generated_Source\PSoC4/CyFlash.c **** /*******************************************************************************
 402:Generated_Source\PSoC4/CyFlash.c **** * Function Name: CySysFlashSetWaitCycles
 403:Generated_Source\PSoC4/CyFlash.c **** ****************************************************************************//**
 404:Generated_Source\PSoC4/CyFlash.c **** *
 405:Generated_Source\PSoC4/CyFlash.c **** * Sets the number of clock cycles the cache will wait before it samples data
 406:Generated_Source\PSoC4/CyFlash.c **** * coming back from Flash. This function must be called before increasing the
 407:Generated_Source\PSoC4/CyFlash.c **** * SYSCLK clock frequency. It can optionally be called after lowering SYSCLK
 408:Generated_Source\PSoC4/CyFlash.c **** * clock frequency in order to improve the CPU performance.
 409:Generated_Source\PSoC4/CyFlash.c **** *
 410:Generated_Source\PSoC4/CyFlash.c **** * \param freq The System clock frequency in MHz.
 411:Generated_Source\PSoC4/CyFlash.c **** *
 412:Generated_Source\PSoC4/CyFlash.c **** * \note Invalid frequency will be ignored in Release mode and the CPU will be
 413:Generated_Source\PSoC4/CyFlash.c **** * halted if project is compiled in Debug mode.
 414:Generated_Source\PSoC4/CyFlash.c **** *
 415:Generated_Source\PSoC4/CyFlash.c **** *******************************************************************************/
 416:Generated_Source\PSoC4/CyFlash.c **** void CySysFlashSetWaitCycles(uint32 freq)
 417:Generated_Source\PSoC4/CyFlash.c **** {
 418:Generated_Source\PSoC4/CyFlash.c ****     uint8  interruptState;
 419:Generated_Source\PSoC4/CyFlash.c **** 
 420:Generated_Source\PSoC4/CyFlash.c ****     interruptState = CyEnterCriticalSection();
 421:Generated_Source\PSoC4/CyFlash.c **** 
 422:Generated_Source\PSoC4/CyFlash.c ****     #if (CY_IP_CPUSS)
 423:Generated_Source\PSoC4/CyFlash.c **** 
 424:Generated_Source\PSoC4/CyFlash.c ****         if ( freq <= CY_FLASH_SYSCLK_BOUNDARY_MHZ )
 425:Generated_Source\PSoC4/CyFlash.c ****         {
 426:Generated_Source\PSoC4/CyFlash.c ****             CY_SYS_CLK_SELECT_REG &= (uint32)(~CY_FLASH_WAIT_STATE_EN);
 427:Generated_Source\PSoC4/CyFlash.c ****         }
 428:Generated_Source\PSoC4/CyFlash.c ****         else
 429:Generated_Source\PSoC4/CyFlash.c ****         {
 430:Generated_Source\PSoC4/CyFlash.c ****             CY_SYS_CLK_SELECT_REG |= CY_FLASH_WAIT_STATE_EN;
 431:Generated_Source\PSoC4/CyFlash.c ****         }
 432:Generated_Source\PSoC4/CyFlash.c ****     #else
ARM GAS  C:\Users\Elea\AppData\Local\Temp\cckJmM5v.s 			page 9


 433:Generated_Source\PSoC4/CyFlash.c ****         #if (CY_IP_CPUSS_FLASHC_PRESENT)
 434:Generated_Source\PSoC4/CyFlash.c ****             /* CY_IP_FM and CY_IP_FS */
 435:Generated_Source\PSoC4/CyFlash.c ****             if (freq <= CY_FLASH_CTL_WS_0_FREQ_MAX)
 436:Generated_Source\PSoC4/CyFlash.c ****             {
 437:Generated_Source\PSoC4/CyFlash.c ****                 CY_FLASH_CTL_REG = (CY_FLASH_CTL_REG & ~CY_FLASH_CTL_WS_MASK) | CY_FLASH_CTL_WS_0_V
 438:Generated_Source\PSoC4/CyFlash.c ****             } else
 439:Generated_Source\PSoC4/CyFlash.c ****             if (freq <= CY_FLASH_CTL_WS_1_FREQ_MAX)
 440:Generated_Source\PSoC4/CyFlash.c ****             {
 441:Generated_Source\PSoC4/CyFlash.c ****                 CY_FLASH_CTL_REG = (CY_FLASH_CTL_REG & ~CY_FLASH_CTL_WS_MASK) | CY_FLASH_CTL_WS_1_V
 442:Generated_Source\PSoC4/CyFlash.c ****             } else
 443:Generated_Source\PSoC4/CyFlash.c ****             #if (CY_IP_FMLT || CY_IP_FSLT)
 444:Generated_Source\PSoC4/CyFlash.c ****                 if (freq <= CY_FLASH_CTL_WS_2_FREQ_MAX)
 445:Generated_Source\PSoC4/CyFlash.c ****                 {
 446:Generated_Source\PSoC4/CyFlash.c ****                     CY_FLASH_CTL_REG = (CY_FLASH_CTL_REG & ~CY_FLASH_CTL_WS_MASK) | CY_FLASH_CTL_WS
 447:Generated_Source\PSoC4/CyFlash.c ****                 }
 448:Generated_Source\PSoC4/CyFlash.c ****                 else
 449:Generated_Source\PSoC4/CyFlash.c ****             #endif  /* (CY_IP_FMLT || CY_IP_FSLT) */
 450:Generated_Source\PSoC4/CyFlash.c ****         #endif /* (CY_IP_CPUSS_FLASHC_PRESENT) */
 451:Generated_Source\PSoC4/CyFlash.c ****         {
 452:Generated_Source\PSoC4/CyFlash.c ****             /* Halt CPU in debug mode if frequency is invalid */
 453:Generated_Source\PSoC4/CyFlash.c ****             CYASSERT(0u != 0u);
 454:Generated_Source\PSoC4/CyFlash.c ****         }
 455:Generated_Source\PSoC4/CyFlash.c **** 
 456:Generated_Source\PSoC4/CyFlash.c ****     #endif  /* (CY_IP_CPUSS) */
 457:Generated_Source\PSoC4/CyFlash.c **** 
 458:Generated_Source\PSoC4/CyFlash.c ****     CyExitCriticalSection(interruptState);
 459:Generated_Source\PSoC4/CyFlash.c **** }
 460:Generated_Source\PSoC4/CyFlash.c **** 
 461:Generated_Source\PSoC4/CyFlash.c **** 
 462:Generated_Source\PSoC4/CyFlash.c **** #if (CY_SFLASH_XTRA_ROWS)
 463:Generated_Source\PSoC4/CyFlash.c **** /*******************************************************************************
 464:Generated_Source\PSoC4/CyFlash.c **** * Function Name: CySysSFlashWriteUserRow
 465:Generated_Source\PSoC4/CyFlash.c **** ****************************************************************************//**
 466:Generated_Source\PSoC4/CyFlash.c **** *
 467:Generated_Source\PSoC4/CyFlash.c **** * Writes data to a row of SFlash user configurable area.
 468:Generated_Source\PSoC4/CyFlash.c **** *
 469:Generated_Source\PSoC4/CyFlash.c **** * This API is applicable for PSoC 4100 BLE, PSoC 4200 BLE, PSoC 4100M,
 470:Generated_Source\PSoC4/CyFlash.c **** * PSoC 4200M, and PSoC 4200L family of devices.
 471:Generated_Source\PSoC4/CyFlash.c **** *
 472:Generated_Source\PSoC4/CyFlash.c **** * \param rowNum The flash row number. The flash row number. The number of the
 473:Generated_Source\PSoC4/CyFlash.c **** * flash rows is defined by the CY_SFLASH_NUMBER_USERROWS macro for the selected
 474:Generated_Source\PSoC4/CyFlash.c **** * device. Valid range is 0-3. Refer to the device TRM for details.
 475:Generated_Source\PSoC4/CyFlash.c **** *
 476:Generated_Source\PSoC4/CyFlash.c **** * \param rowData Array of bytes to write. The size of the array must be equal to
 477:Generated_Source\PSoC4/CyFlash.c **** * the flash row size. The flash row size for the selected device is defined by
 478:Generated_Source\PSoC4/CyFlash.c **** * the \ref CY_SFLASH_SIZEOF_USERROW macro. Refer to the device TRM for the
 479:Generated_Source\PSoC4/CyFlash.c **** * details.
 480:Generated_Source\PSoC4/CyFlash.c **** *
 481:Generated_Source\PSoC4/CyFlash.c **** * \return \ref group_flash_status_codes
 482:Generated_Source\PSoC4/CyFlash.c **** *
 483:Generated_Source\PSoC4/CyFlash.c **** *******************************************************************************/
 484:Generated_Source\PSoC4/CyFlash.c **** uint32 CySysSFlashWriteUserRow(uint32 rowNum, const uint8 rowData[])
 485:Generated_Source\PSoC4/CyFlash.c **** {
 486:Generated_Source\PSoC4/CyFlash.c ****     volatile uint32 retValue = CY_SYS_FLASH_SUCCESS;
 487:Generated_Source\PSoC4/CyFlash.c ****     volatile uint32 clkCnfRetValue = CY_SYS_FLASH_SUCCESS;
 488:Generated_Source\PSoC4/CyFlash.c ****     volatile uint32 parameters[(CY_FLASH_SIZEOF_ROW + CY_FLASH_SRAM_ROM_DATA)/4u];
 489:Generated_Source\PSoC4/CyFlash.c ****     uint8  interruptState;
ARM GAS  C:\Users\Elea\AppData\Local\Temp\cckJmM5v.s 			page 10


 490:Generated_Source\PSoC4/CyFlash.c **** 
 491:Generated_Source\PSoC4/CyFlash.c **** 
 492:Generated_Source\PSoC4/CyFlash.c ****     if ((rowNum < CY_SFLASH_NUMBER_USERROWS) && (rowData != 0u))
 493:Generated_Source\PSoC4/CyFlash.c ****     {
 494:Generated_Source\PSoC4/CyFlash.c ****         /* Load Flash Bytes */
 495:Generated_Source\PSoC4/CyFlash.c ****         parameters[0u] = (uint32) (CY_FLASH_GET_MACRO_FROM_ROW(rowNum)        << CY_FLASH_PARAM_MAC
 496:Generated_Source\PSoC4/CyFlash.c ****                          (uint32) (CY_FLASH_PAGE_LATCH_START_ADDR             << CY_FLASH_PARAM_ADD
 497:Generated_Source\PSoC4/CyFlash.c ****                          (uint32) (CY_FLASH_KEY_TWO(CY_FLASH_API_OPCODE_LOAD) << CY_FLASH_PARAM_KEY
 498:Generated_Source\PSoC4/CyFlash.c ****                          CY_FLASH_KEY_ONE;
 499:Generated_Source\PSoC4/CyFlash.c ****         parameters[1u] = CY_FLASH_SIZEOF_ROW - 1u;
 500:Generated_Source\PSoC4/CyFlash.c **** 
 501:Generated_Source\PSoC4/CyFlash.c ****         (void)memcpy((void *)&parameters[2u], rowData, CY_FLASH_SIZEOF_ROW);
 502:Generated_Source\PSoC4/CyFlash.c ****         CY_FLASH_CPUSS_SYSARG_REG = (uint32) &parameters[0u];
 503:Generated_Source\PSoC4/CyFlash.c ****         CY_FLASH_CPUSS_SYSREQ_REG = CY_FLASH_CPUSS_REQ_START | CY_FLASH_API_OPCODE_LOAD;
 504:Generated_Source\PSoC4/CyFlash.c ****         CY_NOP;
 505:Generated_Source\PSoC4/CyFlash.c ****         retValue = CY_FLASH_API_RETURN;
 506:Generated_Source\PSoC4/CyFlash.c **** 
 507:Generated_Source\PSoC4/CyFlash.c ****         if(retValue == CY_SYS_FLASH_SUCCESS)
 508:Generated_Source\PSoC4/CyFlash.c ****         {
 509:Generated_Source\PSoC4/CyFlash.c ****             /***************************************************************
 510:Generated_Source\PSoC4/CyFlash.c ****             * Mask all the exceptions to guarantee that Flash write will
 511:Generated_Source\PSoC4/CyFlash.c ****             * occur in the atomic way. It will not affect system call
 512:Generated_Source\PSoC4/CyFlash.c ****             * execution (flash row write) since it is executed in the NMI
 513:Generated_Source\PSoC4/CyFlash.c ****             * context.
 514:Generated_Source\PSoC4/CyFlash.c ****             ***************************************************************/
 515:Generated_Source\PSoC4/CyFlash.c ****             interruptState = CyEnterCriticalSection();
 516:Generated_Source\PSoC4/CyFlash.c **** 
 517:Generated_Source\PSoC4/CyFlash.c ****             clkCnfRetValue = CySysFlashClockBackup();
 518:Generated_Source\PSoC4/CyFlash.c **** 
 519:Generated_Source\PSoC4/CyFlash.c ****         #if(CY_IP_SPCIF_SYNCHRONOUS)
 520:Generated_Source\PSoC4/CyFlash.c ****             if(clkCnfRetValue == CY_SYS_FLASH_SUCCESS)
 521:Generated_Source\PSoC4/CyFlash.c ****             {
 522:Generated_Source\PSoC4/CyFlash.c ****                 retValue = CySysFlashClockConfig();
 523:Generated_Source\PSoC4/CyFlash.c ****             }
 524:Generated_Source\PSoC4/CyFlash.c ****         #endif  /* (CY_IP_SPCIF_SYNCHRONOUS) */
 525:Generated_Source\PSoC4/CyFlash.c **** 
 526:Generated_Source\PSoC4/CyFlash.c ****             if(retValue == CY_SYS_FLASH_SUCCESS)
 527:Generated_Source\PSoC4/CyFlash.c ****             {
 528:Generated_Source\PSoC4/CyFlash.c ****                 /* Write User Sflash Row */
 529:Generated_Source\PSoC4/CyFlash.c ****                 parameters[0u]  = (uint32) (((uint32) CY_FLASH_KEY_TWO(CY_FLASH_API_OPCODE_WRITE_SF
 530:Generated_Source\PSoC4/CyFlash.c ****                 parameters[1u] = (uint32) rowNum;
 531:Generated_Source\PSoC4/CyFlash.c **** 
 532:Generated_Source\PSoC4/CyFlash.c ****                 CY_FLASH_CPUSS_SYSARG_REG = (uint32) &parameters[0u];
 533:Generated_Source\PSoC4/CyFlash.c ****                 CY_FLASH_CPUSS_SYSREQ_REG = CY_FLASH_CPUSS_REQ_START | CY_FLASH_API_OPCODE_WRITE_SF
 534:Generated_Source\PSoC4/CyFlash.c ****                 CY_NOP;
 535:Generated_Source\PSoC4/CyFlash.c ****                 retValue = CY_FLASH_API_RETURN;
 536:Generated_Source\PSoC4/CyFlash.c ****             }
 537:Generated_Source\PSoC4/CyFlash.c **** 
 538:Generated_Source\PSoC4/CyFlash.c ****             if(clkCnfRetValue == CY_SYS_FLASH_SUCCESS)
 539:Generated_Source\PSoC4/CyFlash.c ****             {
 540:Generated_Source\PSoC4/CyFlash.c ****                 clkCnfRetValue = CySysFlashClockRestore();
 541:Generated_Source\PSoC4/CyFlash.c ****             }
 542:Generated_Source\PSoC4/CyFlash.c ****             CyExitCriticalSection(interruptState);
 543:Generated_Source\PSoC4/CyFlash.c ****         }
 544:Generated_Source\PSoC4/CyFlash.c ****     }
 545:Generated_Source\PSoC4/CyFlash.c ****     else
 546:Generated_Source\PSoC4/CyFlash.c ****     {
ARM GAS  C:\Users\Elea\AppData\Local\Temp\cckJmM5v.s 			page 11


 547:Generated_Source\PSoC4/CyFlash.c ****         retValue = CY_SYS_FLASH_INVALID_ADDR;
 548:Generated_Source\PSoC4/CyFlash.c ****     }
 549:Generated_Source\PSoC4/CyFlash.c **** 
 550:Generated_Source\PSoC4/CyFlash.c ****     return (retValue);
 551:Generated_Source\PSoC4/CyFlash.c **** }
 552:Generated_Source\PSoC4/CyFlash.c **** #endif /* (CY_SFLASH_XTRA_ROWS) */
 553:Generated_Source\PSoC4/CyFlash.c **** 
 554:Generated_Source\PSoC4/CyFlash.c **** 
 555:Generated_Source\PSoC4/CyFlash.c **** /*******************************************************************************
 556:Generated_Source\PSoC4/CyFlash.c **** * Function Name: CySysFlashClockBackup
 557:Generated_Source\PSoC4/CyFlash.c **** ****************************************************************************//**
 558:Generated_Source\PSoC4/CyFlash.c **** *
 559:Generated_Source\PSoC4/CyFlash.c **** * Backups the device clock configuration.
 560:Generated_Source\PSoC4/CyFlash.c **** *
 561:Generated_Source\PSoC4/CyFlash.c **** * \return The same as \ref CySysFlashWriteRow().
 562:Generated_Source\PSoC4/CyFlash.c **** *
 563:Generated_Source\PSoC4/CyFlash.c **** *******************************************************************************/
 564:Generated_Source\PSoC4/CyFlash.c **** static cystatus CySysFlashClockBackup(void)
 565:Generated_Source\PSoC4/CyFlash.c **** {
  25              		.loc 1 565 0
  26              		.cfi_startproc
  27              	.LVL0:
 566:Generated_Source\PSoC4/CyFlash.c ****     cystatus retValue = CY_SYS_FLASH_SUCCESS;
 567:Generated_Source\PSoC4/CyFlash.c **** #if(!CY_IP_FM)
 568:Generated_Source\PSoC4/CyFlash.c ****     #if !(CY_PSOC4_4000)
 569:Generated_Source\PSoC4/CyFlash.c ****         #if (CY_IP_SPCIF_SYNCHRONOUS)
 570:Generated_Source\PSoC4/CyFlash.c ****             volatile uint32   parameters[2u];
 571:Generated_Source\PSoC4/CyFlash.c ****         #endif /* (CY_IP_SPCIF_SYNCHRONOUS) */
 572:Generated_Source\PSoC4/CyFlash.c ****     #endif  /* !(CY_PSOC4_4000) */
 573:Generated_Source\PSoC4/CyFlash.c **** #endif  /* (!CY_IP_FM) */
 574:Generated_Source\PSoC4/CyFlash.c **** 
 575:Generated_Source\PSoC4/CyFlash.c **** #if(CY_IP_FM)
 576:Generated_Source\PSoC4/CyFlash.c **** 
 577:Generated_Source\PSoC4/CyFlash.c ****     /***************************************************************
 578:Generated_Source\PSoC4/CyFlash.c ****     * Preserve IMO configuration that could be changed during
 579:Generated_Source\PSoC4/CyFlash.c ****     * system call execution (Cypress ID #150448).
 580:Generated_Source\PSoC4/CyFlash.c ****     ***************************************************************/
 581:Generated_Source\PSoC4/CyFlash.c ****     cySysFlashBackup.imoConfigReg = CY_SYS_CLK_IMO_CONFIG_REG;
  28              		.loc 1 581 0
  29 0000 024B     		ldr	r3, .L2
  30 0002 1A68     		ldr	r2, [r3]
  31 0004 024B     		ldr	r3, .L2+4
  32 0006 1A60     		str	r2, [r3]
 582:Generated_Source\PSoC4/CyFlash.c **** 
 583:Generated_Source\PSoC4/CyFlash.c **** #else   /* (CY_IP_FMLT) */
 584:Generated_Source\PSoC4/CyFlash.c **** 
 585:Generated_Source\PSoC4/CyFlash.c ****     #if (CY_PSOC4_4000)
 586:Generated_Source\PSoC4/CyFlash.c **** 
 587:Generated_Source\PSoC4/CyFlash.c ****         /***************************************************************************
 588:Generated_Source\PSoC4/CyFlash.c ****         * Perform firmware clock settings backup for the PSOC4 4000 devices (the
 589:Generated_Source\PSoC4/CyFlash.c ****         * corresponding system call is not available).
 590:Generated_Source\PSoC4/CyFlash.c ****         ***************************************************************************/
 591:Generated_Source\PSoC4/CyFlash.c **** 
 592:Generated_Source\PSoC4/CyFlash.c ****         /***************************************************************************
 593:Generated_Source\PSoC4/CyFlash.c ****         * The registers listed below are modified by CySysFlashClockConfig().
 594:Generated_Source\PSoC4/CyFlash.c ****         *
 595:Generated_Source\PSoC4/CyFlash.c ****         * The registers to be saved:
ARM GAS  C:\Users\Elea\AppData\Local\Temp\cckJmM5v.s 			page 12


 596:Generated_Source\PSoC4/CyFlash.c ****         * - CY_SYS_CLK_IMO_CONFIG_REG - IMO enable state.
 597:Generated_Source\PSoC4/CyFlash.c ****         * - CY_SYS_CLK_SELECT_REG     - HFCLK source, divider, pump source. Save
 598:Generated_Source\PSoC4/CyFlash.c ****         *                               entire register as it can be directly
 599:Generated_Source\PSoC4/CyFlash.c ****         *                               written on restore (no special
 600:Generated_Source\PSoC4/CyFlash.c ****         *                               requirements).
 601:Generated_Source\PSoC4/CyFlash.c ****         * - CY_SYS_CLK_IMO_SELECT_REG - Save IMO frequency.
 602:Generated_Source\PSoC4/CyFlash.c ****         *
 603:Generated_Source\PSoC4/CyFlash.c ****         * The registers not to be saved:
 604:Generated_Source\PSoC4/CyFlash.c ****         * - CY_SYS_CLK_IMO_TRIM1_REG  - No need to save. Function of frequency.
 605:Generated_Source\PSoC4/CyFlash.c ****         *                               Restored by CySysClkWriteImoFreq().
 606:Generated_Source\PSoC4/CyFlash.c ****         * - CY_SYS_CLK_IMO_TRIM3_REG  - No need to save. Function of frequency.
 607:Generated_Source\PSoC4/CyFlash.c ****         *                               Restored by CySysClkWriteImoFreq().
 608:Generated_Source\PSoC4/CyFlash.c ****         * - REG_CPUSS_FLASH_CTL       - Flash wait cycles. Unmodified due to system
 609:Generated_Source\PSoC4/CyFlash.c ****         *                               clock 16 MHz limit.
 610:Generated_Source\PSoC4/CyFlash.c ****         ***************************************************************************/
 611:Generated_Source\PSoC4/CyFlash.c **** 
 612:Generated_Source\PSoC4/CyFlash.c ****         cySysFlashBackup.clkSelectReg = CY_SYS_CLK_SELECT_REG;
 613:Generated_Source\PSoC4/CyFlash.c ****         cySysFlashBackup.clkImoEna    = CY_SYS_CLK_IMO_CONFIG_REG & CY_SYS_CLK_IMO_CONFIG_ENABLE;
 614:Generated_Source\PSoC4/CyFlash.c ****         cySysFlashBackup.clkImoFreq   = CY_SYS_CLK_IMO_MIN_FREQ_MHZ + (CY_SYS_CLK_IMO_SELECT_REG <<
 615:Generated_Source\PSoC4/CyFlash.c **** 
 616:Generated_Source\PSoC4/CyFlash.c ****     #else
 617:Generated_Source\PSoC4/CyFlash.c **** 
 618:Generated_Source\PSoC4/CyFlash.c ****         #if (CY_IP_SPCIF_SYNCHRONOUS)
 619:Generated_Source\PSoC4/CyFlash.c ****             /* FM-Lite Clock Backup System Call */
 620:Generated_Source\PSoC4/CyFlash.c ****             parameters[0u] =
 621:Generated_Source\PSoC4/CyFlash.c ****                 (uint32) ((CY_FLASH_KEY_TWO(CY_FLASH_API_OPCODE_CLK_BACKUP) <<  CY_FLASH_PARAM_KEY_
 622:Generated_Source\PSoC4/CyFlash.c ****                             CY_FLASH_KEY_ONE);
 623:Generated_Source\PSoC4/CyFlash.c ****             parameters[1u] = (uint32) &cySysFlashBackup.clockSettings[0u];
 624:Generated_Source\PSoC4/CyFlash.c ****             CY_FLASH_CPUSS_SYSARG_REG = (uint32) &parameters[0u];
 625:Generated_Source\PSoC4/CyFlash.c ****             CY_FLASH_CPUSS_SYSREQ_REG = CY_FLASH_CPUSS_REQ_START | CY_FLASH_API_OPCODE_CLK_BACKUP;
 626:Generated_Source\PSoC4/CyFlash.c ****             CY_NOP;
 627:Generated_Source\PSoC4/CyFlash.c ****             retValue = CY_FLASH_API_RETURN;
 628:Generated_Source\PSoC4/CyFlash.c ****         #endif /* (CY_IP_SPCIF_SYNCHRONOUS) */
 629:Generated_Source\PSoC4/CyFlash.c **** 
 630:Generated_Source\PSoC4/CyFlash.c ****     #endif  /* (CY_PSOC4_4000) */
 631:Generated_Source\PSoC4/CyFlash.c **** 
 632:Generated_Source\PSoC4/CyFlash.c **** #endif  /* (CY_IP_FM) */
 633:Generated_Source\PSoC4/CyFlash.c **** 
 634:Generated_Source\PSoC4/CyFlash.c ****     return (retValue);
 635:Generated_Source\PSoC4/CyFlash.c **** }
  33              		.loc 1 635 0
  34 0008 0020     		mov	r0, #0
  35              		@ sp needed
  36 000a 7047     		bx	lr
  37              	.L3:
  38              		.align	2
  39              	.L2:
  40 000c 08010B40 		.word	1074462984
  41 0010 00000000 		.word	.LANCHOR0
  42              		.cfi_endproc
  43              	.LFE2:
  44              		.size	CySysFlashClockBackup, .-CySysFlashClockBackup
  45              		.section	.text.CySysFlashClockRestore,"ax",%progbits
  46              		.align	2
  47              		.code	16
  48              		.thumb_func
  49              		.type	CySysFlashClockRestore, %function
ARM GAS  C:\Users\Elea\AppData\Local\Temp\cckJmM5v.s 			page 13


  50              	CySysFlashClockRestore:
  51              	.LFB3:
 636:Generated_Source\PSoC4/CyFlash.c **** 
 637:Generated_Source\PSoC4/CyFlash.c **** 
 638:Generated_Source\PSoC4/CyFlash.c **** #if(CY_IP_SPCIF_SYNCHRONOUS)
 639:Generated_Source\PSoC4/CyFlash.c **** /*******************************************************************************
 640:Generated_Source\PSoC4/CyFlash.c **** * Function Name: CySysFlashClockConfig
 641:Generated_Source\PSoC4/CyFlash.c **** ****************************************************************************//**
 642:Generated_Source\PSoC4/CyFlash.c **** *
 643:Generated_Source\PSoC4/CyFlash.c **** * Configures the device clocks for the flash writing.
 644:Generated_Source\PSoC4/CyFlash.c **** *
 645:Generated_Source\PSoC4/CyFlash.c **** * \return The same as \ref CySysFlashWriteRow().
 646:Generated_Source\PSoC4/CyFlash.c **** *
 647:Generated_Source\PSoC4/CyFlash.c **** *******************************************************************************/
 648:Generated_Source\PSoC4/CyFlash.c **** static cystatus CySysFlashClockConfig(void)
 649:Generated_Source\PSoC4/CyFlash.c **** {
 650:Generated_Source\PSoC4/CyFlash.c ****     cystatus retValue = CY_SYS_FLASH_SUCCESS;
 651:Generated_Source\PSoC4/CyFlash.c **** 
 652:Generated_Source\PSoC4/CyFlash.c ****     /***************************************************************************
 653:Generated_Source\PSoC4/CyFlash.c ****     * The FM-Lite IP uses the IMO at 48MHz for the pump clock and SPC timer
 654:Generated_Source\PSoC4/CyFlash.c ****     * clock. The PUMP_SEL and HF clock must be set to IMO before calling Flash
 655:Generated_Source\PSoC4/CyFlash.c ****     * write or erase operation.
 656:Generated_Source\PSoC4/CyFlash.c ****     ***************************************************************************/
 657:Generated_Source\PSoC4/CyFlash.c **** #if (CY_PSOC4_4000)
 658:Generated_Source\PSoC4/CyFlash.c **** 
 659:Generated_Source\PSoC4/CyFlash.c ****     /***************************************************************************
 660:Generated_Source\PSoC4/CyFlash.c ****     * Perform firmware clock settings setup for the PSOC4 4000 devices (the
 661:Generated_Source\PSoC4/CyFlash.c ****     * corresponding system call is not reliable):
 662:Generated_Source\PSoC4/CyFlash.c ****     * - The IMO frequency should be 48 MHz
 663:Generated_Source\PSoC4/CyFlash.c ****     * - The IMO should be source for the HFCLK
 664:Generated_Source\PSoC4/CyFlash.c ****     * - The IMO should be the source for the charge pump clock
 665:Generated_Source\PSoC4/CyFlash.c ****     *
 666:Generated_Source\PSoC4/CyFlash.c ****     * Note The structure members used below are initialized by
 667:Generated_Source\PSoC4/CyFlash.c ****     * the CySysFlashClockBackup() function.
 668:Generated_Source\PSoC4/CyFlash.c ****     ***************************************************************************/
 669:Generated_Source\PSoC4/CyFlash.c ****     if ((cySysFlashBackup.clkImoFreq != 48u) ||
 670:Generated_Source\PSoC4/CyFlash.c ****         ((cySysFlashBackup.clkSelectReg & CY_SYS_CLK_SELECT_DIRECT_SEL_MASK) != CY_SYS_CLK_HFCLK_IM
 671:Generated_Source\PSoC4/CyFlash.c ****         (((cySysFlashBackup.clkSelectReg >> CY_SYS_CLK_SELECT_PUMP_SEL_SHIFT) & CY_SYS_CLK_SELECT_P
 672:Generated_Source\PSoC4/CyFlash.c ****             CY_SYS_CLK_SELECT_PUMP_SEL_IMO))
 673:Generated_Source\PSoC4/CyFlash.c ****     {
 674:Generated_Source\PSoC4/CyFlash.c ****         /***********************************************************************
 675:Generated_Source\PSoC4/CyFlash.c ****          Set HFCLK divider to divide-by-4 to ensure that System clock frequency
 676:Generated_Source\PSoC4/CyFlash.c ****         * is within the valid limit (16 MHz for the PSoC4 4000).
 677:Generated_Source\PSoC4/CyFlash.c ****         ***********************************************************************/
 678:Generated_Source\PSoC4/CyFlash.c ****         CySysClkWriteHfclkDiv(CY_SYS_CLK_HFCLK_DIV_4);
 679:Generated_Source\PSoC4/CyFlash.c **** 
 680:Generated_Source\PSoC4/CyFlash.c ****         /* The IMO frequency should be 48 MHz */
 681:Generated_Source\PSoC4/CyFlash.c ****         if (cySysFlashBackup.clkImoFreq != 48u)
 682:Generated_Source\PSoC4/CyFlash.c ****         {
 683:Generated_Source\PSoC4/CyFlash.c ****             CySysClkWriteImoFreq(48u);
 684:Generated_Source\PSoC4/CyFlash.c ****         }
 685:Generated_Source\PSoC4/CyFlash.c ****         CySysClkImoStart();
 686:Generated_Source\PSoC4/CyFlash.c **** 
 687:Generated_Source\PSoC4/CyFlash.c ****         /* The IMO should be source for the HFCLK */
 688:Generated_Source\PSoC4/CyFlash.c ****         CySysClkWriteHfclkDirect(CY_SYS_CLK_HFCLK_IMO);
 689:Generated_Source\PSoC4/CyFlash.c **** 
 690:Generated_Source\PSoC4/CyFlash.c ****         /* The IMO should be the source for the charge pump clock */
ARM GAS  C:\Users\Elea\AppData\Local\Temp\cckJmM5v.s 			page 14


 691:Generated_Source\PSoC4/CyFlash.c ****         CY_SYS_CLK_SELECT_REG =  (CY_SYS_CLK_SELECT_REG &
 692:Generated_Source\PSoC4/CyFlash.c ****             ((uint32)~(uint32)(CY_SYS_CLK_SELECT_PUMP_SEL_MASK << CY_SYS_CLK_SELECT_PUMP_SEL_SHIFT)
 693:Generated_Source\PSoC4/CyFlash.c ****             ((uint32)((uint32)1u << CY_SYS_CLK_SELECT_PUMP_SEL_SHIFT));
 694:Generated_Source\PSoC4/CyFlash.c ****     }
 695:Generated_Source\PSoC4/CyFlash.c **** 
 696:Generated_Source\PSoC4/CyFlash.c **** #else
 697:Generated_Source\PSoC4/CyFlash.c **** 
 698:Generated_Source\PSoC4/CyFlash.c ****     /* FM-Lite Clock Configuration */
 699:Generated_Source\PSoC4/CyFlash.c ****     CY_FLASH_CPUSS_SYSARG_REG =
 700:Generated_Source\PSoC4/CyFlash.c ****         (uint32) ((CY_FLASH_KEY_TWO(CY_FLASH_API_OPCODE_CLK_CONFIG) <<  CY_FLASH_PARAM_KEY_TWO_OFFS
 701:Generated_Source\PSoC4/CyFlash.c ****                     CY_FLASH_KEY_ONE);
 702:Generated_Source\PSoC4/CyFlash.c ****     CY_FLASH_CPUSS_SYSREQ_REG = CY_FLASH_CPUSS_REQ_START | CY_FLASH_API_OPCODE_CLK_CONFIG;
 703:Generated_Source\PSoC4/CyFlash.c ****     CY_NOP;
 704:Generated_Source\PSoC4/CyFlash.c ****     retValue = CY_FLASH_API_RETURN;
 705:Generated_Source\PSoC4/CyFlash.c **** 
 706:Generated_Source\PSoC4/CyFlash.c **** #endif  /* (CY_PSOC4_4000) */
 707:Generated_Source\PSoC4/CyFlash.c **** 
 708:Generated_Source\PSoC4/CyFlash.c ****     return (retValue);
 709:Generated_Source\PSoC4/CyFlash.c **** }
 710:Generated_Source\PSoC4/CyFlash.c **** #endif  /* (CY_IP_SPCIF_SYNCHRONOUS) */
 711:Generated_Source\PSoC4/CyFlash.c **** 
 712:Generated_Source\PSoC4/CyFlash.c **** 
 713:Generated_Source\PSoC4/CyFlash.c **** /*******************************************************************************
 714:Generated_Source\PSoC4/CyFlash.c **** * Function Name: CySysFlashClockRestore
 715:Generated_Source\PSoC4/CyFlash.c **** ****************************************************************************//**
 716:Generated_Source\PSoC4/CyFlash.c **** *
 717:Generated_Source\PSoC4/CyFlash.c **** * Restores the device clock configuration.
 718:Generated_Source\PSoC4/CyFlash.c **** *
 719:Generated_Source\PSoC4/CyFlash.c **** * \return The same as \ref CySysFlashWriteRow().
 720:Generated_Source\PSoC4/CyFlash.c **** *
 721:Generated_Source\PSoC4/CyFlash.c **** *******************************************************************************/
 722:Generated_Source\PSoC4/CyFlash.c **** static cystatus CySysFlashClockRestore(void)
 723:Generated_Source\PSoC4/CyFlash.c **** {
  52              		.loc 1 723 0
  53              		.cfi_startproc
  54              	.LVL1:
 724:Generated_Source\PSoC4/CyFlash.c ****     cystatus retValue = CY_SYS_FLASH_SUCCESS;
 725:Generated_Source\PSoC4/CyFlash.c **** #if(!CY_IP_FM)
 726:Generated_Source\PSoC4/CyFlash.c ****     #if !(CY_PSOC4_4000)
 727:Generated_Source\PSoC4/CyFlash.c ****         #if (CY_IP_SPCIF_SYNCHRONOUS)
 728:Generated_Source\PSoC4/CyFlash.c ****             volatile uint32   parameters[2u];
 729:Generated_Source\PSoC4/CyFlash.c ****         #endif /* (CY_IP_SPCIF_SYNCHRONOUS) */
 730:Generated_Source\PSoC4/CyFlash.c ****     #endif  /* !(CY_PSOC4_4000) */
 731:Generated_Source\PSoC4/CyFlash.c **** #endif  /* (!CY_IP_FM) */
 732:Generated_Source\PSoC4/CyFlash.c **** 
 733:Generated_Source\PSoC4/CyFlash.c **** #if(CY_IP_FM)
 734:Generated_Source\PSoC4/CyFlash.c **** 
 735:Generated_Source\PSoC4/CyFlash.c ****     /***************************************************************
 736:Generated_Source\PSoC4/CyFlash.c ****     * Restore IMO configuration that could be changed during
 737:Generated_Source\PSoC4/CyFlash.c ****     * system call execution (Cypress ID #150448).
 738:Generated_Source\PSoC4/CyFlash.c ****     ***************************************************************/
 739:Generated_Source\PSoC4/CyFlash.c ****     CY_SYS_CLK_IMO_CONFIG_REG = cySysFlashBackup.imoConfigReg;
  55              		.loc 1 739 0
  56 0000 024B     		ldr	r3, .L5
  57 0002 1A68     		ldr	r2, [r3]
  58 0004 024B     		ldr	r3, .L5+4
  59 0006 1A60     		str	r2, [r3]
ARM GAS  C:\Users\Elea\AppData\Local\Temp\cckJmM5v.s 			page 15


 740:Generated_Source\PSoC4/CyFlash.c **** 
 741:Generated_Source\PSoC4/CyFlash.c **** #else
 742:Generated_Source\PSoC4/CyFlash.c **** 
 743:Generated_Source\PSoC4/CyFlash.c ****     #if (CY_PSOC4_4000)
 744:Generated_Source\PSoC4/CyFlash.c **** 
 745:Generated_Source\PSoC4/CyFlash.c ****         /***************************************************************************
 746:Generated_Source\PSoC4/CyFlash.c ****         * Perform firmware clock settings restore for the PSOC4 4000 devices (the
 747:Generated_Source\PSoC4/CyFlash.c ****         * corresponding system call is not available).
 748:Generated_Source\PSoC4/CyFlash.c ****         ***************************************************************************/
 749:Generated_Source\PSoC4/CyFlash.c **** 
 750:Generated_Source\PSoC4/CyFlash.c ****         /* Restore clock settings */
 751:Generated_Source\PSoC4/CyFlash.c ****         if ((cySysFlashBackup.clkImoFreq != 48u) ||
 752:Generated_Source\PSoC4/CyFlash.c ****             ((cySysFlashBackup.clkSelectReg & CY_SYS_CLK_SELECT_DIRECT_SEL_MASK) != CY_SYS_CLK_HFCL
 753:Generated_Source\PSoC4/CyFlash.c ****             (((cySysFlashBackup.clkSelectReg >> CY_SYS_CLK_SELECT_PUMP_SEL_SHIFT) & CY_SYS_CLK_SELE
 754:Generated_Source\PSoC4/CyFlash.c ****                 CY_SYS_CLK_SELECT_PUMP_SEL_IMO))
 755:Generated_Source\PSoC4/CyFlash.c ****         {
 756:Generated_Source\PSoC4/CyFlash.c ****             /* Restore IMO frequency if needed */
 757:Generated_Source\PSoC4/CyFlash.c ****             if (cySysFlashBackup.clkImoFreq != 48u)
 758:Generated_Source\PSoC4/CyFlash.c ****             {
 759:Generated_Source\PSoC4/CyFlash.c ****                 CySysClkWriteImoFreq(cySysFlashBackup.clkImoFreq);
 760:Generated_Source\PSoC4/CyFlash.c ****             }
 761:Generated_Source\PSoC4/CyFlash.c **** 
 762:Generated_Source\PSoC4/CyFlash.c ****             /* Restore HFCLK clock source */
 763:Generated_Source\PSoC4/CyFlash.c ****             CySysClkWriteHfclkDirect(cySysFlashBackup.clkSelectReg & CY_SYS_CLK_SELECT_DIRECT_SEL_M
 764:Generated_Source\PSoC4/CyFlash.c **** 
 765:Generated_Source\PSoC4/CyFlash.c ****             /* Restore HFCLK divider and source for pump  */
 766:Generated_Source\PSoC4/CyFlash.c ****             CY_SYS_CLK_SELECT_REG = cySysFlashBackup.clkSelectReg;
 767:Generated_Source\PSoC4/CyFlash.c **** 
 768:Generated_Source\PSoC4/CyFlash.c ****             /* Stop IMO if needed */
 769:Generated_Source\PSoC4/CyFlash.c ****             if (0u == cySysFlashBackup.clkImoEna)
 770:Generated_Source\PSoC4/CyFlash.c ****             {
 771:Generated_Source\PSoC4/CyFlash.c ****                 CySysClkImoStop();
 772:Generated_Source\PSoC4/CyFlash.c ****             }
 773:Generated_Source\PSoC4/CyFlash.c ****         }
 774:Generated_Source\PSoC4/CyFlash.c **** 
 775:Generated_Source\PSoC4/CyFlash.c ****     #else
 776:Generated_Source\PSoC4/CyFlash.c **** 
 777:Generated_Source\PSoC4/CyFlash.c ****         #if (CY_IP_SPCIF_SYNCHRONOUS)
 778:Generated_Source\PSoC4/CyFlash.c ****             /* FM-Lite Clock Restore */
 779:Generated_Source\PSoC4/CyFlash.c ****             parameters[0u] =
 780:Generated_Source\PSoC4/CyFlash.c ****                 (uint32) ((CY_FLASH_KEY_TWO(CY_FLASH_API_OPCODE_CLK_RESTORE) <<  CY_FLASH_PARAM_KEY
 781:Generated_Source\PSoC4/CyFlash.c ****                             CY_FLASH_KEY_ONE);
 782:Generated_Source\PSoC4/CyFlash.c ****             parameters[1u] = (uint32) &cySysFlashBackup.clockSettings[0u];
 783:Generated_Source\PSoC4/CyFlash.c ****             CY_FLASH_CPUSS_SYSARG_REG = (uint32) &parameters[0u];
 784:Generated_Source\PSoC4/CyFlash.c ****             CY_FLASH_CPUSS_SYSREQ_REG = CY_FLASH_CPUSS_REQ_START | CY_FLASH_API_OPCODE_CLK_RESTORE;
 785:Generated_Source\PSoC4/CyFlash.c ****             CY_NOP;
 786:Generated_Source\PSoC4/CyFlash.c ****             retValue = CY_FLASH_API_RETURN;
 787:Generated_Source\PSoC4/CyFlash.c ****         #endif /* (CY_IP_SPCIF_SYNCHRONOUS) */
 788:Generated_Source\PSoC4/CyFlash.c **** 
 789:Generated_Source\PSoC4/CyFlash.c ****     #endif  /* (CY_PSOC4_4000) */
 790:Generated_Source\PSoC4/CyFlash.c **** 
 791:Generated_Source\PSoC4/CyFlash.c **** #endif  /* (CY_IP_FM) */
 792:Generated_Source\PSoC4/CyFlash.c **** 
 793:Generated_Source\PSoC4/CyFlash.c ****     return (retValue);
 794:Generated_Source\PSoC4/CyFlash.c **** }
  60              		.loc 1 794 0
  61 0008 0020     		mov	r0, #0
ARM GAS  C:\Users\Elea\AppData\Local\Temp\cckJmM5v.s 			page 16


  62              		@ sp needed
  63 000a 7047     		bx	lr
  64              	.L6:
  65              		.align	2
  66              	.L5:
  67 000c 00000000 		.word	.LANCHOR0
  68 0010 08010B40 		.word	1074462984
  69              		.cfi_endproc
  70              	.LFE3:
  71              		.size	CySysFlashClockRestore, .-CySysFlashClockRestore
  72              		.section	.text.CySysFlashWriteRow,"ax",%progbits
  73              		.align	2
  74              		.global	CySysFlashWriteRow
  75              		.code	16
  76              		.thumb_func
  77              		.type	CySysFlashWriteRow, %function
  78              	CySysFlashWriteRow:
  79              	.LFB0:
  81:Generated_Source\PSoC4/CyFlash.c ****     volatile uint32 retValue = CY_SYS_FLASH_SUCCESS;
  80              		.loc 1 81 0
  81              		.cfi_startproc
  82              	.LVL2:
  83 0000 F0B5     		push	{r4, r5, r6, r7, lr}
  84              		.cfi_def_cfa_offset 20
  85              		.cfi_offset 4, -20
  86              		.cfi_offset 5, -16
  87              		.cfi_offset 6, -12
  88              		.cfi_offset 7, -8
  89              		.cfi_offset 14, -4
  90 0002 A7B0     		sub	sp, sp, #156
  91              		.cfi_def_cfa_offset 176
  82:Generated_Source\PSoC4/CyFlash.c ****     volatile uint32 clkCnfRetValue = CY_SYS_FLASH_SUCCESS;
  92              		.loc 1 82 0
  93 0004 0023     		mov	r3, #0
  94 0006 2593     		str	r3, [sp, #148]
  83:Generated_Source\PSoC4/CyFlash.c ****     volatile uint32 parameters[(CY_FLASH_SIZEOF_ROW + CY_FLASH_SRAM_ROM_DATA) / sizeof(uint32)];
  95              		.loc 1 83 0
  96 0008 2493     		str	r3, [sp, #144]
  97              	.LVL3:
  96:Generated_Source\PSoC4/CyFlash.c ****     {
  98              		.loc 1 96 0
  99 000a 7F28     		cmp	r0, #127
 100 000c 00D9     		bls	.LCB72
 101 000e CDE0     		b	.L8	@long jump
 102              	.LCB72:
  96:Generated_Source\PSoC4/CyFlash.c ****     {
 103              		.loc 1 96 0 is_stmt 0 discriminator 1
 104 0010 0029     		cmp	r1, #0
 105 0012 00D1     		bne	.LCB74
 106 0014 CAE0     		b	.L8	@long jump
 107              	.LCB74:
 108 0016 051C     		mov	r5, r0
  99:Generated_Source\PSoC4/CyFlash.c **** 
 109              		.loc 1 99 0 is_stmt 1
 110 0018 04A8     		add	r0, sp, #16
 111              	.LVL4:
 112 001a 8022     		mov	r2, #128
ARM GAS  C:\Users\Elea\AppData\Local\Temp\cckJmM5v.s 			page 17


 113 001c FFF7FEFF 		bl	memcpy
 114              	.LVL5:
 103:Generated_Source\PSoC4/CyFlash.c ****             {
 115              		.loc 1 103 0
 116 0020 0223     		mov	r3, #2
  92:Generated_Source\PSoC4/CyFlash.c ****         uint32 i;
 117              		.loc 1 92 0
 118 0022 0020     		mov	r0, #0
  91:Generated_Source\PSoC4/CyFlash.c ****         uint32 bits = 0u;
 119              		.loc 1 91 0
 120 0024 0021     		mov	r1, #0
  89:Generated_Source\PSoC4/CyFlash.c ****         uint32 savedValue = 0u;
 121              		.loc 1 89 0
 122 0026 0024     		mov	r4, #0
 103:Generated_Source\PSoC4/CyFlash.c ****             {
 123              		.loc 1 103 0
 124 0028 08E0     		b	.L9
 125              	.LVL6:
 126              	.L11:
 127              	.LBB2:
 105:Generated_Source\PSoC4/CyFlash.c ****                 if (tmp != 0u)
 128              		.loc 1 105 0
 129 002a 9A00     		lsl	r2, r3, #2
 130 002c 02AE     		add	r6, sp, #8
 131 002e 9259     		ldr	r2, [r2, r6]
 132              	.LVL7:
 106:Generated_Source\PSoC4/CyFlash.c ****                 {
 133              		.loc 1 106 0
 134 0030 002A     		cmp	r2, #0
 135 0032 02D0     		beq	.L10
 108:Generated_Source\PSoC4/CyFlash.c ****                     bits |= tmp;
 136              		.loc 1 108 0
 137 0034 8918     		add	r1, r1, r2
 138              	.LVL8:
 109:Generated_Source\PSoC4/CyFlash.c ****                     savedIndex = i;
 139              		.loc 1 109 0
 140 0036 1043     		orr	r0, r2
 141              	.LVL9:
 110:Generated_Source\PSoC4/CyFlash.c ****                 }
 142              		.loc 1 110 0
 143 0038 1C1C     		mov	r4, r3
 144              	.LVL10:
 145              	.L10:
 146              	.LBE2:
 103:Generated_Source\PSoC4/CyFlash.c ****             {
 147              		.loc 1 103 0 discriminator 2
 148 003a 0133     		add	r3, r3, #1
 149              	.LVL11:
 150              	.L9:
 103:Generated_Source\PSoC4/CyFlash.c ****             {
 151              		.loc 1 103 0 is_stmt 0 discriminator 1
 152 003c 212B     		cmp	r3, #33
 153 003e F4D9     		bls	.L11
 114:Generated_Source\PSoC4/CyFlash.c ****             if (needChecksumWorkaround != 0u)
 154              		.loc 1 114 0 is_stmt 1
 155 0040 0029     		cmp	r1, #0
 156 0042 03D1     		bne	.L30
ARM GAS  C:\Users\Elea\AppData\Local\Temp\cckJmM5v.s 			page 18


 114:Generated_Source\PSoC4/CyFlash.c ****             if (needChecksumWorkaround != 0u)
 157              		.loc 1 114 0 is_stmt 0 discriminator 1
 158 0044 0028     		cmp	r0, #0
 159 0046 03D1     		bne	.L31
 114:Generated_Source\PSoC4/CyFlash.c ****             if (needChecksumWorkaround != 0u)
 160              		.loc 1 114 0
 161 0048 0026     		mov	r6, #0
 162 004a 02E0     		b	.L12
 163              	.L30:
 164 004c 0026     		mov	r6, #0
 165 004e 00E0     		b	.L12
 166              	.L31:
 167 0050 0126     		mov	r6, #1
 168              	.L12:
 169              	.LVL12:
 115:Generated_Source\PSoC4/CyFlash.c ****             {
 170              		.loc 1 115 0 is_stmt 1 discriminator 6
 171 0052 002E     		cmp	r6, #0
 172 0054 06D0     		beq	.L32
 117:Generated_Source\PSoC4/CyFlash.c ****                 parameters[savedIndex] = 0u;
 173              		.loc 1 117 0
 174 0056 A300     		lsl	r3, r4, #2
 175              	.LVL13:
 176 0058 02AA     		add	r2, sp, #8
 177 005a 9F58     		ldr	r7, [r3, r2]
 178              	.LVL14:
 118:Generated_Source\PSoC4/CyFlash.c ****             }
 179              		.loc 1 118 0
 180 005c 0022     		mov	r2, #0
 181 005e 02A9     		add	r1, sp, #8
 182              	.LVL15:
 183 0060 5A50     		str	r2, [r3, r1]
 184 0062 00E0     		b	.L13
 185              	.LVL16:
 186              	.L32:
  90:Generated_Source\PSoC4/CyFlash.c ****         uint32 checksum = 0u;
 187              		.loc 1 90 0
 188 0064 0027     		mov	r7, #0
 189              	.LVL17:
 190              	.L13:
 123:Generated_Source\PSoC4/CyFlash.c ****                          (uint32) (CY_FLASH_PAGE_LATCH_START_ADDR             << CY_FLASH_PARAM_ADD
 191              		.loc 1 123 0
 192 0066 544B     		ldr	r3, .L37
 193 0068 0293     		str	r3, [sp, #8]
 127:Generated_Source\PSoC4/CyFlash.c **** 
 194              		.loc 1 127 0
 195 006a 7F23     		mov	r3, #127
 196 006c 0393     		str	r3, [sp, #12]
 129:Generated_Source\PSoC4/CyFlash.c ****         CY_FLASH_CPUSS_SYSREQ_REG = CY_FLASH_CPUSS_REQ_START | CY_FLASH_API_OPCODE_LOAD;
 197              		.loc 1 129 0
 198 006e 534B     		ldr	r3, .L37+4
 199 0070 02AA     		add	r2, sp, #8
 200 0072 1A60     		str	r2, [r3]
 130:Generated_Source\PSoC4/CyFlash.c ****         CY_NOP;
 201              		.loc 1 130 0
 202 0074 5249     		ldr	r1, .L37+8
 203 0076 534A     		ldr	r2, .L37+12
ARM GAS  C:\Users\Elea\AppData\Local\Temp\cckJmM5v.s 			page 19


 204 0078 1160     		str	r1, [r2]
 131:Generated_Source\PSoC4/CyFlash.c ****         retValue = CY_FLASH_API_RETURN;
 205              		.loc 1 131 0
 206              	@ 131 "Generated_Source\PSoC4\CyFlash.c" 1
 207 007a C046     		NOP
 208              	
 209              	@ 0 "" 2
 132:Generated_Source\PSoC4/CyFlash.c **** 
 210              		.loc 1 132 0
 211              		.code	16
 212 007c 1B68     		ldr	r3, [r3]
 213 007e 1B0F     		lsr	r3, r3, #28
 214 0080 0F2B     		cmp	r3, #15
 215 0082 04D1     		bne	.L14
 132:Generated_Source\PSoC4/CyFlash.c **** 
 216              		.loc 1 132 0 is_stmt 0 discriminator 1
 217 0084 4D4B     		ldr	r3, .L37+4
 218 0086 1B68     		ldr	r3, [r3]
 219 0088 FF22     		mov	r2, #255
 220 008a 1340     		and	r3, r2
 221 008c 08E0     		b	.L15
 222              	.L14:
 132:Generated_Source\PSoC4/CyFlash.c **** 
 223              		.loc 1 132 0 discriminator 2
 224 008e 4B4B     		ldr	r3, .L37+4
 225 0090 1B68     		ldr	r3, [r3]
 226 0092 1B0F     		lsr	r3, r3, #28
 227 0094 0A2B     		cmp	r3, #10
 228 0096 02D0     		beq	.L33
 132:Generated_Source\PSoC4/CyFlash.c **** 
 229              		.loc 1 132 0 discriminator 4
 230 0098 484B     		ldr	r3, .L37+4
 231 009a 1B68     		ldr	r3, [r3]
 232 009c 00E0     		b	.L15
 233              	.L33:
 132:Generated_Source\PSoC4/CyFlash.c **** 
 234              		.loc 1 132 0
 235 009e 0023     		mov	r3, #0
 236              	.L15:
 132:Generated_Source\PSoC4/CyFlash.c **** 
 237              		.loc 1 132 0 discriminator 8
 238 00a0 2593     		str	r3, [sp, #148]
 134:Generated_Source\PSoC4/CyFlash.c ****         {
 239              		.loc 1 134 0 is_stmt 1 discriminator 8
 240 00a2 259B     		ldr	r3, [sp, #148]
 241 00a4 002B     		cmp	r3, #0
 242 00a6 00D0     		beq	.LCB229
 243 00a8 82E0     		b	.L17	@long jump
 244              	.LCB229:
 142:Generated_Source\PSoC4/CyFlash.c **** 
 245              		.loc 1 142 0
 246 00aa FFF7FEFF 		bl	CyEnterCriticalSection
 247              	.LVL18:
 248 00ae 0190     		str	r0, [sp, #4]
 249              	.LVL19:
 144:Generated_Source\PSoC4/CyFlash.c **** 
 250              		.loc 1 144 0
ARM GAS  C:\Users\Elea\AppData\Local\Temp\cckJmM5v.s 			page 20


 251 00b0 FFF7FEFF 		bl	CySysFlashClockBackup
 252              	.LVL20:
 253 00b4 2490     		str	r0, [sp, #144]
 153:Generated_Source\PSoC4/CyFlash.c ****             {
 254              		.loc 1 153 0
 255 00b6 259B     		ldr	r3, [sp, #148]
 256 00b8 002B     		cmp	r3, #0
 257 00ba 1FD1     		bne	.L18
 156:Generated_Source\PSoC4/CyFlash.c ****                 parameters[0u] |= (uint32)(rowNum << 16u);
 258              		.loc 1 156 0
 259 00bc 424B     		ldr	r3, .L37+16
 260 00be 0293     		str	r3, [sp, #8]
 157:Generated_Source\PSoC4/CyFlash.c **** 
 261              		.loc 1 157 0
 262 00c0 029A     		ldr	r2, [sp, #8]
 263 00c2 2B04     		lsl	r3, r5, #16
 264 00c4 1343     		orr	r3, r2
 265 00c6 0293     		str	r3, [sp, #8]
 159:Generated_Source\PSoC4/CyFlash.c ****                 CY_FLASH_CPUSS_SYSREQ_REG = CY_FLASH_CPUSS_REQ_START | CY_FLASH_API_OPCODE_WRITE_RO
 266              		.loc 1 159 0
 267 00c8 3C4B     		ldr	r3, .L37+4
 268 00ca 02AA     		add	r2, sp, #8
 269 00cc 1A60     		str	r2, [r3]
 270              	.LVL21:
 160:Generated_Source\PSoC4/CyFlash.c ****                 CY_NOP;
 271              		.loc 1 160 0
 272 00ce 3F49     		ldr	r1, .L37+20
 273 00d0 3C4A     		ldr	r2, .L37+12
 274 00d2 1160     		str	r1, [r2]
 161:Generated_Source\PSoC4/CyFlash.c ****                 retValue = CY_FLASH_API_RETURN;
 275              		.loc 1 161 0
 276              	@ 161 "Generated_Source\PSoC4\CyFlash.c" 1
 277 00d4 C046     		NOP
 278              	
 279              	@ 0 "" 2
 162:Generated_Source\PSoC4/CyFlash.c ****             }
 280              		.loc 1 162 0
 281              		.code	16
 282 00d6 1B68     		ldr	r3, [r3]
 283 00d8 1B0F     		lsr	r3, r3, #28
 284 00da 0F2B     		cmp	r3, #15
 285 00dc 04D1     		bne	.L19
 162:Generated_Source\PSoC4/CyFlash.c ****             }
 286              		.loc 1 162 0 is_stmt 0 discriminator 1
 287 00de 374B     		ldr	r3, .L37+4
 288 00e0 1B68     		ldr	r3, [r3]
 289 00e2 FF22     		mov	r2, #255
 290 00e4 1340     		and	r3, r2
 291 00e6 08E0     		b	.L20
 292              	.L19:
 162:Generated_Source\PSoC4/CyFlash.c ****             }
 293              		.loc 1 162 0 discriminator 2
 294 00e8 344B     		ldr	r3, .L37+4
 295 00ea 1B68     		ldr	r3, [r3]
 296 00ec 1B0F     		lsr	r3, r3, #28
 297 00ee 0A2B     		cmp	r3, #10
 298 00f0 02D0     		beq	.L34
ARM GAS  C:\Users\Elea\AppData\Local\Temp\cckJmM5v.s 			page 21


 162:Generated_Source\PSoC4/CyFlash.c ****             }
 299              		.loc 1 162 0 discriminator 4
 300 00f2 324B     		ldr	r3, .L37+4
 301 00f4 1B68     		ldr	r3, [r3]
 302 00f6 00E0     		b	.L20
 303              	.L34:
 162:Generated_Source\PSoC4/CyFlash.c ****             }
 304              		.loc 1 162 0
 305 00f8 0023     		mov	r3, #0
 306              	.L20:
 162:Generated_Source\PSoC4/CyFlash.c ****             }
 307              		.loc 1 162 0 discriminator 8
 308 00fa 2593     		str	r3, [sp, #148]
 309              	.L18:
 167:Generated_Source\PSoC4/CyFlash.c ****                 {
 310              		.loc 1 167 0 is_stmt 1
 311 00fc 259B     		ldr	r3, [sp, #148]
 312 00fe 002B     		cmp	r3, #0
 313 0100 4AD1     		bne	.L22
 167:Generated_Source\PSoC4/CyFlash.c ****                 {
 314              		.loc 1 167 0 is_stmt 0 discriminator 1
 315 0102 002E     		cmp	r6, #0
 316 0104 48D0     		beq	.L22
 169:Generated_Source\PSoC4/CyFlash.c ****                     parameters[savedIndex] = savedValue;
 317              		.loc 1 169 0 is_stmt 1
 318 0106 04A8     		add	r0, sp, #16
 319 0108 0021     		mov	r1, #0
 320 010a 8022     		mov	r2, #128
 321 010c FFF7FEFF 		bl	memset
 322              	.LVL22:
 170:Generated_Source\PSoC4/CyFlash.c **** 
 323              		.loc 1 170 0
 324 0110 A400     		lsl	r4, r4, #2
 325              	.LVL23:
 326 0112 02AB     		add	r3, sp, #8
 327 0114 E750     		str	r7, [r4, r3]
 173:Generated_Source\PSoC4/CyFlash.c ****                                      (uint32) (CY_FLASH_PAGE_LATCH_START_ADDR             << CY_FLA
 328              		.loc 1 173 0
 329 0116 284B     		ldr	r3, .L37
 330 0118 0293     		str	r3, [sp, #8]
 177:Generated_Source\PSoC4/CyFlash.c **** 
 331              		.loc 1 177 0
 332 011a 7F23     		mov	r3, #127
 333 011c 0393     		str	r3, [sp, #12]
 179:Generated_Source\PSoC4/CyFlash.c ****                     CY_FLASH_CPUSS_SYSREQ_REG = CY_FLASH_CPUSS_REQ_START | CY_FLASH_API_OPCODE_LOAD
 334              		.loc 1 179 0
 335 011e 274B     		ldr	r3, .L37+4
 336 0120 02AA     		add	r2, sp, #8
 337 0122 1A60     		str	r2, [r3]
 180:Generated_Source\PSoC4/CyFlash.c ****                     CY_NOP;
 338              		.loc 1 180 0
 339 0124 2649     		ldr	r1, .L37+8
 340 0126 274A     		ldr	r2, .L37+12
 341 0128 1160     		str	r1, [r2]
 181:Generated_Source\PSoC4/CyFlash.c ****                     retValue = CY_FLASH_API_RETURN;
 342              		.loc 1 181 0
 343              	@ 181 "Generated_Source\PSoC4\CyFlash.c" 1
ARM GAS  C:\Users\Elea\AppData\Local\Temp\cckJmM5v.s 			page 22


 344 012a C046     		NOP
 345              	
 346              	@ 0 "" 2
 182:Generated_Source\PSoC4/CyFlash.c **** 
 347              		.loc 1 182 0
 348              		.code	16
 349 012c 1B68     		ldr	r3, [r3]
 350 012e 1B0F     		lsr	r3, r3, #28
 351 0130 0F2B     		cmp	r3, #15
 352 0132 04D1     		bne	.L23
 182:Generated_Source\PSoC4/CyFlash.c **** 
 353              		.loc 1 182 0 is_stmt 0 discriminator 1
 354 0134 214B     		ldr	r3, .L37+4
 355 0136 1B68     		ldr	r3, [r3]
 356 0138 FF22     		mov	r2, #255
 357 013a 1340     		and	r3, r2
 358 013c 08E0     		b	.L24
 359              	.L23:
 182:Generated_Source\PSoC4/CyFlash.c **** 
 360              		.loc 1 182 0 discriminator 2
 361 013e 1F4B     		ldr	r3, .L37+4
 362 0140 1B68     		ldr	r3, [r3]
 363 0142 1B0F     		lsr	r3, r3, #28
 364 0144 0A2B     		cmp	r3, #10
 365 0146 02D0     		beq	.L35
 182:Generated_Source\PSoC4/CyFlash.c **** 
 366              		.loc 1 182 0 discriminator 4
 367 0148 1C4B     		ldr	r3, .L37+4
 368 014a 1B68     		ldr	r3, [r3]
 369 014c 00E0     		b	.L24
 370              	.L35:
 182:Generated_Source\PSoC4/CyFlash.c **** 
 371              		.loc 1 182 0
 372 014e 0023     		mov	r3, #0
 373              	.L24:
 182:Generated_Source\PSoC4/CyFlash.c **** 
 374              		.loc 1 182 0 discriminator 8
 375 0150 2593     		str	r3, [sp, #148]
 185:Generated_Source\PSoC4/CyFlash.c ****                     {
 376              		.loc 1 185 0 is_stmt 1 discriminator 8
 377 0152 259B     		ldr	r3, [sp, #148]
 378 0154 002B     		cmp	r3, #0
 379 0156 1FD1     		bne	.L22
 188:Generated_Source\PSoC4/CyFlash.c ****                             (uint32) (((uint32) CY_FLASH_KEY_TWO(CY_FLASH_API_OPCODE_PROGRAM_ROW) <
 380              		.loc 1 188 0
 381 0158 1D4B     		ldr	r3, .L37+24
 382 015a 0293     		str	r3, [sp, #8]
 191:Generated_Source\PSoC4/CyFlash.c **** 
 383              		.loc 1 191 0
 384 015c 029B     		ldr	r3, [sp, #8]
 385 015e 2D04     		lsl	r5, r5, #16
 386              	.LVL24:
 387 0160 1D43     		orr	r5, r3
 388 0162 0295     		str	r5, [sp, #8]
 193:Generated_Source\PSoC4/CyFlash.c ****                         CY_FLASH_CPUSS_SYSREQ_REG = CY_FLASH_CPUSS_REQ_START | CY_FLASH_API_OPCODE_
 389              		.loc 1 193 0
 390 0164 154B     		ldr	r3, .L37+4
ARM GAS  C:\Users\Elea\AppData\Local\Temp\cckJmM5v.s 			page 23


 391 0166 02AA     		add	r2, sp, #8
 392 0168 1A60     		str	r2, [r3]
 194:Generated_Source\PSoC4/CyFlash.c ****                         CY_NOP;
 393              		.loc 1 194 0
 394 016a 1A49     		ldr	r1, .L37+28
 395 016c 154A     		ldr	r2, .L37+12
 396 016e 1160     		str	r1, [r2]
 195:Generated_Source\PSoC4/CyFlash.c ****                         retValue = CY_FLASH_API_RETURN;
 397              		.loc 1 195 0
 398              	@ 195 "Generated_Source\PSoC4\CyFlash.c" 1
 399 0170 C046     		NOP
 400              	
 401              	@ 0 "" 2
 196:Generated_Source\PSoC4/CyFlash.c ****                     }
 402              		.loc 1 196 0
 403              		.code	16
 404 0172 1B68     		ldr	r3, [r3]
 405 0174 1B0F     		lsr	r3, r3, #28
 406 0176 0F2B     		cmp	r3, #15
 407 0178 04D1     		bne	.L26
 196:Generated_Source\PSoC4/CyFlash.c ****                     }
 408              		.loc 1 196 0 is_stmt 0 discriminator 1
 409 017a 104B     		ldr	r3, .L37+4
 410 017c 1B68     		ldr	r3, [r3]
 411 017e FF22     		mov	r2, #255
 412 0180 1340     		and	r3, r2
 413 0182 08E0     		b	.L27
 414              	.L26:
 196:Generated_Source\PSoC4/CyFlash.c ****                     }
 415              		.loc 1 196 0 discriminator 2
 416 0184 0D4B     		ldr	r3, .L37+4
 417 0186 1B68     		ldr	r3, [r3]
 418 0188 1B0F     		lsr	r3, r3, #28
 419 018a 0A2B     		cmp	r3, #10
 420 018c 02D0     		beq	.L36
 196:Generated_Source\PSoC4/CyFlash.c ****                     }
 421              		.loc 1 196 0 discriminator 4
 422 018e 0B4B     		ldr	r3, .L37+4
 423 0190 1B68     		ldr	r3, [r3]
 424 0192 00E0     		b	.L27
 425              	.L36:
 196:Generated_Source\PSoC4/CyFlash.c ****                     }
 426              		.loc 1 196 0
 427 0194 0023     		mov	r3, #0
 428              	.L27:
 196:Generated_Source\PSoC4/CyFlash.c ****                     }
 429              		.loc 1 196 0 discriminator 8
 430 0196 2593     		str	r3, [sp, #148]
 431              	.L22:
 201:Generated_Source\PSoC4/CyFlash.c ****             {
 432              		.loc 1 201 0 is_stmt 1
 433 0198 249B     		ldr	r3, [sp, #144]
 434 019a 002B     		cmp	r3, #0
 435 019c 02D1     		bne	.L29
 203:Generated_Source\PSoC4/CyFlash.c ****             }
 436              		.loc 1 203 0
 437 019e FFF7FEFF 		bl	CySysFlashClockRestore
ARM GAS  C:\Users\Elea\AppData\Local\Temp\cckJmM5v.s 			page 24


 438              	.LVL25:
 439 01a2 2490     		str	r0, [sp, #144]
 440              	.L29:
 206:Generated_Source\PSoC4/CyFlash.c ****         }
 441              		.loc 1 206 0
 442 01a4 0198     		ldr	r0, [sp, #4]
 443 01a6 FFF7FEFF 		bl	CyExitCriticalSection
 444              	.LVL26:
 445 01aa 01E0     		b	.L17
 446              	.LVL27:
 447              	.L8:
 211:Generated_Source\PSoC4/CyFlash.c ****     }
 448              		.loc 1 211 0
 449 01ac 0423     		mov	r3, #4
 450 01ae 2593     		str	r3, [sp, #148]
 451              	.LVL28:
 452              	.L17:
 214:Generated_Source\PSoC4/CyFlash.c **** }
 453              		.loc 1 214 0
 454 01b0 2598     		ldr	r0, [sp, #148]
 215:Generated_Source\PSoC4/CyFlash.c **** 
 455              		.loc 1 215 0
 456 01b2 27B0     		add	sp, sp, #156
 457              		@ sp needed
 458 01b4 F0BD     		pop	{r4, r5, r6, r7, pc}
 459              	.L38:
 460 01b6 C046     		.align	2
 461              	.L37:
 462 01b8 B6D70000 		.word	55222
 463 01bc 08000040 		.word	1073741832
 464 01c0 04000080 		.word	-2147483644
 465 01c4 04000040 		.word	1073741828
 466 01c8 B6D80000 		.word	55478
 467 01cc 05000080 		.word	-2147483643
 468 01d0 B6D90000 		.word	55734
 469 01d4 06000080 		.word	-2147483642
 470              		.cfi_endproc
 471              	.LFE0:
 472              		.size	CySysFlashWriteRow, .-CySysFlashWriteRow
 473              		.section	.text.CySysFlashSetWaitCycles,"ax",%progbits
 474              		.align	2
 475              		.global	CySysFlashSetWaitCycles
 476              		.code	16
 477              		.thumb_func
 478              		.type	CySysFlashSetWaitCycles, %function
 479              	CySysFlashSetWaitCycles:
 480              	.LFB1:
 417:Generated_Source\PSoC4/CyFlash.c ****     uint8  interruptState;
 481              		.loc 1 417 0
 482              		.cfi_startproc
 483              	.LVL29:
 484 0000 10B5     		push	{r4, lr}
 485              		.cfi_def_cfa_offset 8
 486              		.cfi_offset 4, -8
 487              		.cfi_offset 14, -4
 488 0002 041C     		mov	r4, r0
 420:Generated_Source\PSoC4/CyFlash.c **** 
ARM GAS  C:\Users\Elea\AppData\Local\Temp\cckJmM5v.s 			page 25


 489              		.loc 1 420 0
 490 0004 FFF7FEFF 		bl	CyEnterCriticalSection
 491              	.LVL30:
 424:Generated_Source\PSoC4/CyFlash.c ****         {
 492              		.loc 1 424 0
 493 0008 182C     		cmp	r4, #24
 494 000a 05D8     		bhi	.L40
 426:Generated_Source\PSoC4/CyFlash.c ****         }
 495              		.loc 1 426 0
 496 000c 074A     		ldr	r2, .L42
 497 000e 1168     		ldr	r1, [r2]
 498 0010 074B     		ldr	r3, .L42+4
 499 0012 0B40     		and	r3, r1
 500 0014 1360     		str	r3, [r2]
 501 0016 05E0     		b	.L41
 502              	.L40:
 430:Generated_Source\PSoC4/CyFlash.c ****         }
 503              		.loc 1 430 0
 504 0018 044A     		ldr	r2, .L42
 505 001a 1368     		ldr	r3, [r2]
 506 001c 8021     		mov	r1, #128
 507 001e C902     		lsl	r1, r1, #11
 508 0020 0B43     		orr	r3, r1
 509 0022 1360     		str	r3, [r2]
 510              	.L41:
 458:Generated_Source\PSoC4/CyFlash.c **** }
 511              		.loc 1 458 0
 512 0024 FFF7FEFF 		bl	CyExitCriticalSection
 513              	.LVL31:
 459:Generated_Source\PSoC4/CyFlash.c **** 
 514              		.loc 1 459 0
 515              		@ sp needed
 516              	.LVL32:
 517 0028 10BD     		pop	{r4, pc}
 518              	.L43:
 519 002a C046     		.align	2
 520              	.L42:
 521 002c 00010B40 		.word	1074462976
 522 0030 FFFFFBFF 		.word	-262145
 523              		.cfi_endproc
 524              	.LFE1:
 525              		.size	CySysFlashSetWaitCycles, .-CySysFlashSetWaitCycles
 526              		.bss
 527              		.align	2
 528              		.set	.LANCHOR0,. + 0
 529              		.type	cySysFlashBackup, %object
 530              		.size	cySysFlashBackup, 4
 531              	cySysFlashBackup:
 532 0000 00000000 		.space	4
 533              		.text
 534              	.Letext0:
 535              		.file 2 "Generated_Source\\PSoC4\\cytypes.h"
 536              		.file 3 "Generated_Source\\PSoC4\\CyFlash.h"
 537              		.file 4 "Generated_Source\\PSoC4\\CyLib.h"
