ARM GAS  C:\Users\Elea\AppData\Local\Temp\ccEVc7b1.s 			page 1


   1              		.cpu cortex-m0
   2              		.fpu softvfp
   3              		.eabi_attribute 20, 1
   4              		.eabi_attribute 21, 1
   5              		.eabi_attribute 23, 3
   6              		.eabi_attribute 24, 1
   7              		.eabi_attribute 25, 1
   8              		.eabi_attribute 26, 1
   9              		.eabi_attribute 30, 1
  10              		.eabi_attribute 34, 0
  11              		.eabi_attribute 18, 4
  12              		.code	16
  13              		.file	"cyPm.c"
  14              		.text
  15              	.Ltext0:
  16              		.cfi_sections	.debug_frame
  17              		.section	.text.CySysPmSleep,"ax",%progbits
  18              		.align	2
  19              		.global	CySysPmSleep
  20              		.code	16
  21              		.thumb_func
  22              		.type	CySysPmSleep, %function
  23              	CySysPmSleep:
  24              	.LFB0:
  25              		.file 1 "Generated_Source\\PSoC4\\cyPm.c"
   1:Generated_Source\PSoC4/cyPm.c **** /***************************************************************************//**
   2:Generated_Source\PSoC4/cyPm.c **** * \file cyPm.c
   3:Generated_Source\PSoC4/cyPm.c **** * \version 5.50
   4:Generated_Source\PSoC4/cyPm.c **** *
   5:Generated_Source\PSoC4/cyPm.c **** * \brief Provides an API for the power management.
   6:Generated_Source\PSoC4/cyPm.c **** *
   7:Generated_Source\PSoC4/cyPm.c **** * \note Documentation of the API's in this file is located in the System
   8:Generated_Source\PSoC4/cyPm.c **** * Reference Guide provided with PSoC Creator.
   9:Generated_Source\PSoC4/cyPm.c **** *
  10:Generated_Source\PSoC4/cyPm.c **** ********************************************************************************
  11:Generated_Source\PSoC4/cyPm.c **** * \copyright
  12:Generated_Source\PSoC4/cyPm.c **** * Copyright 2011-2016, Cypress Semiconductor Corporation.  All rights reserved.
  13:Generated_Source\PSoC4/cyPm.c **** * You may use this file only in accordance with the license, terms, conditions,
  14:Generated_Source\PSoC4/cyPm.c **** * disclaimers, and limitations in the end user license agreement accompanying
  15:Generated_Source\PSoC4/cyPm.c **** * the software package with which this file was provided.
  16:Generated_Source\PSoC4/cyPm.c **** *******************************************************************************/
  17:Generated_Source\PSoC4/cyPm.c **** 
  18:Generated_Source\PSoC4/cyPm.c **** #include "cyPm.h"
  19:Generated_Source\PSoC4/cyPm.c **** #include "CyLib.h"
  20:Generated_Source\PSoC4/cyPm.c **** 
  21:Generated_Source\PSoC4/cyPm.c **** 
  22:Generated_Source\PSoC4/cyPm.c **** /*******************************************************************************
  23:Generated_Source\PSoC4/cyPm.c **** * Function Name: CySysPmSleep
  24:Generated_Source\PSoC4/cyPm.c **** ****************************************************************************//**
  25:Generated_Source\PSoC4/cyPm.c **** *
  26:Generated_Source\PSoC4/cyPm.c **** * Puts the part into the Sleep state. This is a CPU-centric power mode.
  27:Generated_Source\PSoC4/cyPm.c **** * It means that the CPU has indicated that it is in the sleep mode and
  28:Generated_Source\PSoC4/cyPm.c **** * its main clock can be removed. It is identical to Active from a peripheral
  29:Generated_Source\PSoC4/cyPm.c **** * point of view. Any enabled interrupts can cause wakeup from the Sleep mode.
  30:Generated_Source\PSoC4/cyPm.c **** *
  31:Generated_Source\PSoC4/cyPm.c **** *******************************************************************************/
  32:Generated_Source\PSoC4/cyPm.c **** void CySysPmSleep(void)
ARM GAS  C:\Users\Elea\AppData\Local\Temp\ccEVc7b1.s 			page 2


  33:Generated_Source\PSoC4/cyPm.c **** {
  26              		.loc 1 33 0
  27              		.cfi_startproc
  28 0000 08B5     		push	{r3, lr}
  29              		.cfi_def_cfa_offset 8
  30              		.cfi_offset 3, -8
  31              		.cfi_offset 14, -4
  34:Generated_Source\PSoC4/cyPm.c ****     uint8 interruptState;
  35:Generated_Source\PSoC4/cyPm.c **** 
  36:Generated_Source\PSoC4/cyPm.c ****     interruptState = CyEnterCriticalSection();
  32              		.loc 1 36 0
  33 0002 FFF7FEFF 		bl	CyEnterCriticalSection
  34              	.LVL0:
  37:Generated_Source\PSoC4/cyPm.c **** 
  38:Generated_Source\PSoC4/cyPm.c ****     /* CPU enters Sleep mode upon execution of WFI */
  39:Generated_Source\PSoC4/cyPm.c ****     CY_PM_CPU_SCR_REG &= (uint32) (~CY_PM_CPU_SCR_SLEEPDEEP);
  35              		.loc 1 39 0
  36 0006 044A     		ldr	r2, .L2
  37 0008 1368     		ldr	r3, [r2]
  38 000a 0421     		mov	r1, #4
  39 000c 8B43     		bic	r3, r1
  40 000e 1360     		str	r3, [r2]
  40:Generated_Source\PSoC4/cyPm.c **** 
  41:Generated_Source\PSoC4/cyPm.c ****     /* Sleep and wait for interrupt */
  42:Generated_Source\PSoC4/cyPm.c ****     CY_PM_WFI;
  41              		.loc 1 42 0
  42              	@ 42 "Generated_Source\PSoC4\cyPm.c" 1
  43 0010 30BF     		WFI 
  44              	
  45              	@ 0 "" 2
  43:Generated_Source\PSoC4/cyPm.c **** 
  44:Generated_Source\PSoC4/cyPm.c ****     CyExitCriticalSection(interruptState);
  46              		.loc 1 44 0
  47              		.code	16
  48 0012 FFF7FEFF 		bl	CyExitCriticalSection
  49              	.LVL1:
  45:Generated_Source\PSoC4/cyPm.c **** }
  50              		.loc 1 45 0
  51              		@ sp needed
  52 0016 08BD     		pop	{r3, pc}
  53              	.L3:
  54              		.align	2
  55              	.L2:
  56 0018 10ED00E0 		.word	-536810224
  57              		.cfi_endproc
  58              	.LFE0:
  59              		.size	CySysPmSleep, .-CySysPmSleep
  60              		.section	.text.CySysPmDeepSleep,"ax",%progbits
  61              		.align	2
  62              		.global	CySysPmDeepSleep
  63              		.code	16
  64              		.thumb_func
  65              		.type	CySysPmDeepSleep, %function
  66              	CySysPmDeepSleep:
  67              	.LFB1:
  46:Generated_Source\PSoC4/cyPm.c **** 
  47:Generated_Source\PSoC4/cyPm.c **** 
ARM GAS  C:\Users\Elea\AppData\Local\Temp\ccEVc7b1.s 			page 3


  48:Generated_Source\PSoC4/cyPm.c **** /*******************************************************************************
  49:Generated_Source\PSoC4/cyPm.c **** * Function Name: CySysPmDeepSleep
  50:Generated_Source\PSoC4/cyPm.c **** ****************************************************************************//**
  51:Generated_Source\PSoC4/cyPm.c **** *
  52:Generated_Source\PSoC4/cyPm.c **** * Puts the part into the Deep Sleep state. If the firmware attempts to enter
  53:Generated_Source\PSoC4/cyPm.c **** * this mode before the system is ready (that is, when
  54:Generated_Source\PSoC4/cyPm.c **** * PWR_CONTROL.LPM_READY = 0), then the device will go into the Sleep mode
  55:Generated_Source\PSoC4/cyPm.c **** * instead and automatically enter the originally intended mode when the
  56:Generated_Source\PSoC4/cyPm.c **** * holdoff expires.
  57:Generated_Source\PSoC4/cyPm.c **** *
  58:Generated_Source\PSoC4/cyPm.c **** * The wakeup occurs when an interrupt is received from a DeepSleep or
  59:Generated_Source\PSoC4/cyPm.c **** * Hibernate peripheral. For more details, see a corresponding
  60:Generated_Source\PSoC4/cyPm.c **** * peripheral's datasheet.
  61:Generated_Source\PSoC4/cyPm.c **** *
  62:Generated_Source\PSoC4/cyPm.c **** *******************************************************************************/
  63:Generated_Source\PSoC4/cyPm.c **** void CySysPmDeepSleep(void)
  64:Generated_Source\PSoC4/cyPm.c **** {
  68              		.loc 1 64 0
  69              		.cfi_startproc
  70 0000 F0B5     		push	{r4, r5, r6, r7, lr}
  71              		.cfi_def_cfa_offset 20
  72              		.cfi_offset 4, -20
  73              		.cfi_offset 5, -16
  74              		.cfi_offset 6, -12
  75              		.cfi_offset 7, -8
  76              		.cfi_offset 14, -4
  77 0002 83B0     		sub	sp, sp, #12
  78              		.cfi_def_cfa_offset 32
  65:Generated_Source\PSoC4/cyPm.c ****     uint8 interruptState;
  66:Generated_Source\PSoC4/cyPm.c ****     #if(CY_IP_SRSSV2)
  67:Generated_Source\PSoC4/cyPm.c ****         volatile uint32 clkSelectReg;
  68:Generated_Source\PSoC4/cyPm.c ****     #endif /* (CY_IP_SRSSV2) */
  69:Generated_Source\PSoC4/cyPm.c **** 
  70:Generated_Source\PSoC4/cyPm.c ****     interruptState = CyEnterCriticalSection();
  79              		.loc 1 70 0
  80 0004 FFF7FEFF 		bl	CyEnterCriticalSection
  81              	.LVL2:
  82 0008 041C     		mov	r4, r0
  83              	.LVL3:
  71:Generated_Source\PSoC4/cyPm.c **** 
  72:Generated_Source\PSoC4/cyPm.c ****     #if(CY_IP_SRSSV2)
  73:Generated_Source\PSoC4/cyPm.c ****         /* Device enters DeepSleep mode when CPU asserts SLEEPDEEP signal */
  74:Generated_Source\PSoC4/cyPm.c ****         CY_PM_PWR_CONTROL_REG &= (uint32) (~CY_PM_PWR_CONTROL_HIBERNATE);
  84              		.loc 1 74 0
  85 000a 134A     		ldr	r2, .L5
  86 000c 1368     		ldr	r3, [r2]
  87 000e 5B00     		lsl	r3, r3, #1
  88 0010 5B08     		lsr	r3, r3, #1
  89 0012 1360     		str	r3, [r2]
  75:Generated_Source\PSoC4/cyPm.c ****     #endif /* (CY_IP_SRSSV2) */
  76:Generated_Source\PSoC4/cyPm.c **** 
  77:Generated_Source\PSoC4/cyPm.c ****     #if (CY_IP_CPUSS && CY_IP_SRSSV2)
  78:Generated_Source\PSoC4/cyPm.c ****         CY_PM_CPUSS_CONFIG_REG |= CY_PM_CPUSS_CONFIG_FLSH_ACC_BYPASS;
  90              		.loc 1 78 0
  91 0014 8025     		mov	r5, #128
  92 0016 ED05     		lsl	r5, r5, #23
  93 0018 2B68     		ldr	r3, [r5]
ARM GAS  C:\Users\Elea\AppData\Local\Temp\ccEVc7b1.s 			page 4


  94 001a 0226     		mov	r6, #2
  95 001c 3343     		orr	r3, r6
  96 001e 2B60     		str	r3, [r5]
  79:Generated_Source\PSoC4/cyPm.c ****     #endif /* (CY_IP_CPUSS && CY_IP_SRSSV2) */
  80:Generated_Source\PSoC4/cyPm.c **** 
  81:Generated_Source\PSoC4/cyPm.c ****     /* Adjust delay to wait for references to settle on wakeup from Deep Sleep */
  82:Generated_Source\PSoC4/cyPm.c ****     CY_PM_PWR_KEY_DELAY_REG = CY_SFLASH_DPSLP_KEY_DELAY_REG;
  97              		.loc 1 82 0
  98 0020 0E4B     		ldr	r3, .L5+4
  99 0022 1B88     		ldrh	r3, [r3]
 100 0024 9BB2     		uxth	r3, r3
 101 0026 0E4A     		ldr	r2, .L5+8
 102 0028 1360     		str	r3, [r2]
  83:Generated_Source\PSoC4/cyPm.c **** 
  84:Generated_Source\PSoC4/cyPm.c ****     /* CPU enters DeepSleep/Hibernate mode upon execution of WFI */
  85:Generated_Source\PSoC4/cyPm.c ****     CY_PM_CPU_SCR_REG |= CY_PM_CPU_SCR_SLEEPDEEP;
 103              		.loc 1 85 0
 104 002a 0E4A     		ldr	r2, .L5+12
 105 002c 1168     		ldr	r1, [r2]
 106 002e 0423     		mov	r3, #4
 107 0030 0B43     		orr	r3, r1
 108 0032 1360     		str	r3, [r2]
  86:Generated_Source\PSoC4/cyPm.c **** 
  87:Generated_Source\PSoC4/cyPm.c ****     #if(CY_IP_SRSSV2)
  88:Generated_Source\PSoC4/cyPm.c ****         /* Preserve system clock configuration and
  89:Generated_Source\PSoC4/cyPm.c ****         * reduce sysclk to <=12 MHz (Cypress ID #158710, #179888).
  90:Generated_Source\PSoC4/cyPm.c ****         */
  91:Generated_Source\PSoC4/cyPm.c ****         clkSelectReg = CY_SYS_CLK_SELECT_REG;
 109              		.loc 1 91 0
 110 0034 0C4F     		ldr	r7, .L5+16
 111 0036 3B68     		ldr	r3, [r7]
 112 0038 0193     		str	r3, [sp, #4]
  92:Generated_Source\PSoC4/cyPm.c ****         CySysClkWriteSysclkDiv(CY_SYS_CLK_SYSCLK_DIV4);
 113              		.loc 1 92 0
 114 003a 0220     		mov	r0, #2
 115 003c FFF7FEFF 		bl	CySysClkWriteSysclkDiv
 116              	.LVL4:
  93:Generated_Source\PSoC4/cyPm.c ****     #endif /* (CY_IP_SRSSV2) */
  94:Generated_Source\PSoC4/cyPm.c **** 
  95:Generated_Source\PSoC4/cyPm.c ****     /* Sleep and wait for interrupt */
  96:Generated_Source\PSoC4/cyPm.c ****     CY_PM_WFI;
 117              		.loc 1 96 0
 118              	@ 96 "Generated_Source\PSoC4\cyPm.c" 1
 119 0040 30BF     		WFI 
 120              	
 121              	@ 0 "" 2
  97:Generated_Source\PSoC4/cyPm.c **** 
  98:Generated_Source\PSoC4/cyPm.c ****     #if(CY_IP_SRSSV2)
  99:Generated_Source\PSoC4/cyPm.c ****         /* Restore system clock configuration */
 100:Generated_Source\PSoC4/cyPm.c ****         CY_SYS_CLK_SELECT_REG = clkSelectReg;
 122              		.loc 1 100 0
 123              		.code	16
 124 0042 019B     		ldr	r3, [sp, #4]
 125 0044 3B60     		str	r3, [r7]
 101:Generated_Source\PSoC4/cyPm.c ****     #endif /* (CY_IP_SRSSV2) */
 102:Generated_Source\PSoC4/cyPm.c **** 
 103:Generated_Source\PSoC4/cyPm.c ****     #if (CY_IP_CPUSS && CY_IP_SRSSV2)
ARM GAS  C:\Users\Elea\AppData\Local\Temp\ccEVc7b1.s 			page 5


 104:Generated_Source\PSoC4/cyPm.c ****         CY_PM_CPUSS_CONFIG_REG &= (uint32) (~CY_PM_CPUSS_CONFIG_FLSH_ACC_BYPASS);
 126              		.loc 1 104 0
 127 0046 2B68     		ldr	r3, [r5]
 128 0048 B343     		bic	r3, r6
 129 004a 2B60     		str	r3, [r5]
 105:Generated_Source\PSoC4/cyPm.c ****     #endif /* (CY_IP_CPUSS && CY_IP_SRSSV2) */
 106:Generated_Source\PSoC4/cyPm.c **** 
 107:Generated_Source\PSoC4/cyPm.c ****     CyExitCriticalSection(interruptState);
 130              		.loc 1 107 0
 131 004c 201C     		mov	r0, r4
 132 004e FFF7FEFF 		bl	CyExitCriticalSection
 133              	.LVL5:
 108:Generated_Source\PSoC4/cyPm.c **** }
 134              		.loc 1 108 0
 135 0052 03B0     		add	sp, sp, #12
 136              		@ sp needed
 137              	.LVL6:
 138 0054 F0BD     		pop	{r4, r5, r6, r7, pc}
 139              	.L6:
 140 0056 C046     		.align	2
 141              	.L5:
 142 0058 00000B40 		.word	1074462720
 143 005c 52F1FF0F 		.word	268431698
 144 0060 0C000B40 		.word	1074462732
 145 0064 10ED00E0 		.word	-536810224
 146 0068 00010B40 		.word	1074462976
 147              		.cfi_endproc
 148              	.LFE1:
 149              		.size	CySysPmDeepSleep, .-CySysPmDeepSleep
 150              		.section	.text.CySysPmHibernate,"ax",%progbits
 151              		.align	2
 152              		.global	CySysPmHibernate
 153              		.code	16
 154              		.thumb_func
 155              		.type	CySysPmHibernate, %function
 156              	CySysPmHibernate:
 157              	.LFB2:
 109:Generated_Source\PSoC4/cyPm.c **** 
 110:Generated_Source\PSoC4/cyPm.c **** 
 111:Generated_Source\PSoC4/cyPm.c **** #if(CY_IP_SRSSV2)
 112:Generated_Source\PSoC4/cyPm.c **** 
 113:Generated_Source\PSoC4/cyPm.c ****     /*******************************************************************************
 114:Generated_Source\PSoC4/cyPm.c ****     * Function Name: CySysPmHibernate
 115:Generated_Source\PSoC4/cyPm.c ****     ****************************************************************************//**
 116:Generated_Source\PSoC4/cyPm.c ****     *
 117:Generated_Source\PSoC4/cyPm.c ****     * Puts the part into the Hibernate state. Only SRAM and UDBs are retained;
 118:Generated_Source\PSoC4/cyPm.c ****     * most internal supplies are off. Wakeup is possible from a pin or a hibernate
 119:Generated_Source\PSoC4/cyPm.c ****     * comparator only.
 120:Generated_Source\PSoC4/cyPm.c ****     *
 121:Generated_Source\PSoC4/cyPm.c ****     * It is expected that the firmware has already frozen the IO-Cells using
 122:Generated_Source\PSoC4/cyPm.c ****     * CySysPmFreezeIo() function before the call to this function. If this is
 123:Generated_Source\PSoC4/cyPm.c ****     * omitted, the IO-cells will be frozen in the same way as they are
 124:Generated_Source\PSoC4/cyPm.c ****     * in the Active to Deep Sleep transition, but will lose their state on wake up
 125:Generated_Source\PSoC4/cyPm.c ****     * (because of the reset occurring at that time).
 126:Generated_Source\PSoC4/cyPm.c ****     *
 127:Generated_Source\PSoC4/cyPm.c ****     * Because all the CPU state is lost, the CPU will start up at the reset vector.
 128:Generated_Source\PSoC4/cyPm.c ****     * To save the firmware state through the Hibernate low power mode, a
ARM GAS  C:\Users\Elea\AppData\Local\Temp\ccEVc7b1.s 			page 6


 129:Generated_Source\PSoC4/cyPm.c ****     * corresponding variable should be defined with CY_NOINIT attribute. It
 130:Generated_Source\PSoC4/cyPm.c ****     * prevents data from being initialized to zero on startup. The interrupt
 131:Generated_Source\PSoC4/cyPm.c ****     * cause of the hibernate peripheral is retained, such that it can be either
 132:Generated_Source\PSoC4/cyPm.c ****     * read by the firmware or cause an interrupt after the firmware has booted and
 133:Generated_Source\PSoC4/cyPm.c ****     * enabled the corresponding interrupt. To distinguish the wakeup from
 134:Generated_Source\PSoC4/cyPm.c ****     * the Hibernate mode and the general Reset event, the
 135:Generated_Source\PSoC4/cyPm.c ****     * \ref CySysPmGetResetReason() function could be used.
 136:Generated_Source\PSoC4/cyPm.c ****     *
 137:Generated_Source\PSoC4/cyPm.c ****     *******************************************************************************/
 138:Generated_Source\PSoC4/cyPm.c ****     void CySysPmHibernate(void)
 139:Generated_Source\PSoC4/cyPm.c ****     {
 158              		.loc 1 139 0
 159              		.cfi_startproc
 160 0000 08B5     		push	{r3, lr}
 161              		.cfi_def_cfa_offset 8
 162              		.cfi_offset 3, -8
 163              		.cfi_offset 14, -4
 140:Generated_Source\PSoC4/cyPm.c ****         uint8 interruptState;
 141:Generated_Source\PSoC4/cyPm.c **** 
 142:Generated_Source\PSoC4/cyPm.c ****         interruptState = CyEnterCriticalSection();
 164              		.loc 1 142 0
 165 0002 FFF7FEFF 		bl	CyEnterCriticalSection
 166              	.LVL7:
 143:Generated_Source\PSoC4/cyPm.c **** 
 144:Generated_Source\PSoC4/cyPm.c ****         #if (CY_IP_HOBTO_DEVICE)
 145:Generated_Source\PSoC4/cyPm.c ****             /* Disable input buffers for all ports */
 146:Generated_Source\PSoC4/cyPm.c ****             CySysPmHibPinsDisableInputBuf();
 147:Generated_Source\PSoC4/cyPm.c ****         #endif /* (CY_IP_HOBTO_DEVICE) */
 148:Generated_Source\PSoC4/cyPm.c **** 
 149:Generated_Source\PSoC4/cyPm.c ****         /* Device enters Hibernate mode when CPU asserts SLEEPDEEP signal */
 150:Generated_Source\PSoC4/cyPm.c ****         CY_PM_PWR_CONTROL_REG |= CY_PM_PWR_CONTROL_HIBERNATE;
 167              		.loc 1 150 0
 168 0006 0D4A     		ldr	r2, .L8
 169 0008 1368     		ldr	r3, [r2]
 170 000a 8021     		mov	r1, #128
 171 000c 0906     		lsl	r1, r1, #24
 172 000e 0B43     		orr	r3, r1
 173 0010 1360     		str	r3, [r2]
 151:Generated_Source\PSoC4/cyPm.c **** 
 152:Generated_Source\PSoC4/cyPm.c ****         /* Adjust delay to wait for references to settle on wakeup from hibernate */
 153:Generated_Source\PSoC4/cyPm.c ****         CY_PM_PWR_KEY_DELAY_REG = CY_SFLASH_HIB_KEY_DELAY_REG;
 174              		.loc 1 153 0
 175 0012 0B4B     		ldr	r3, .L8+4
 176 0014 1B88     		ldrh	r3, [r3]
 177 0016 9BB2     		uxth	r3, r3
 178 0018 0A4A     		ldr	r2, .L8+8
 179 001a 1360     		str	r3, [r2]
 154:Generated_Source\PSoC4/cyPm.c **** 
 155:Generated_Source\PSoC4/cyPm.c ****         /* CPU enters DeepSleep/Hibernate mode upon execution of WFI */
 156:Generated_Source\PSoC4/cyPm.c ****         CY_PM_CPU_SCR_REG |= CY_PM_CPU_SCR_SLEEPDEEP;
 180              		.loc 1 156 0
 181 001c 0A4A     		ldr	r2, .L8+12
 182 001e 1168     		ldr	r1, [r2]
 183 0020 0423     		mov	r3, #4
 184 0022 0B43     		orr	r3, r1
 185 0024 1360     		str	r3, [r2]
 157:Generated_Source\PSoC4/cyPm.c **** 
ARM GAS  C:\Users\Elea\AppData\Local\Temp\ccEVc7b1.s 			page 7


 158:Generated_Source\PSoC4/cyPm.c ****         /* Save token that will retain through a STOP/WAKEUP sequence
 159:Generated_Source\PSoC4/cyPm.c ****          * thus could be used by CySysPmGetResetReason() to differentiate
 160:Generated_Source\PSoC4/cyPm.c ****          * WAKEUP from a general RESET event.
 161:Generated_Source\PSoC4/cyPm.c ****          */
 162:Generated_Source\PSoC4/cyPm.c ****         CY_PM_PWR_STOP_REG = (CY_PM_PWR_STOP_REG & (uint32)(~CY_PM_PWR_STOP_TOKEN_MASK)) | CY_PM_PW
 186              		.loc 1 162 0
 187 0026 0949     		ldr	r1, .L8+16
 188 0028 0B68     		ldr	r3, [r1]
 189 002a FF22     		mov	r2, #255
 190 002c 9343     		bic	r3, r2
 191 002e 0E3A     		sub	r2, r2, #14
 192 0030 1343     		orr	r3, r2
 193 0032 0B60     		str	r3, [r1]
 163:Generated_Source\PSoC4/cyPm.c **** 
 164:Generated_Source\PSoC4/cyPm.c ****         /* Sleep and wait for interrupt. Wakeup from Hibernate is performed
 165:Generated_Source\PSoC4/cyPm.c ****          * through RESET state, causing a normal Boot procedure to occur.
 166:Generated_Source\PSoC4/cyPm.c ****          * The WFI instruction doesn't put the core to sleep if its wake condition
 167:Generated_Source\PSoC4/cyPm.c ****          * is true when the instruction is executed.
 168:Generated_Source\PSoC4/cyPm.c ****          */
 169:Generated_Source\PSoC4/cyPm.c ****         CY_PM_WFI;
 194              		.loc 1 169 0
 195              	@ 169 "Generated_Source\PSoC4\cyPm.c" 1
 196 0034 30BF     		WFI 
 197              	
 198              	@ 0 "" 2
 170:Generated_Source\PSoC4/cyPm.c **** 
 171:Generated_Source\PSoC4/cyPm.c ****         CyExitCriticalSection(interruptState);
 199              		.loc 1 171 0
 200              		.code	16
 201 0036 FFF7FEFF 		bl	CyExitCriticalSection
 202              	.LVL8:
 172:Generated_Source\PSoC4/cyPm.c ****     }
 203              		.loc 1 172 0
 204              		@ sp needed
 205 003a 08BD     		pop	{r3, pc}
 206              	.L9:
 207              		.align	2
 208              	.L8:
 209 003c 00000B40 		.word	1074462720
 210 0040 50F1FF0F 		.word	268431696
 211 0044 0C000B40 		.word	1074462732
 212 0048 10ED00E0 		.word	-536810224
 213 004c 2C000B40 		.word	1074462764
 214              		.cfi_endproc
 215              	.LFE2:
 216              		.size	CySysPmHibernate, .-CySysPmHibernate
 217              		.section	.text.CySysPmSetWakeupPolarity,"ax",%progbits
 218              		.align	2
 219              		.global	CySysPmSetWakeupPolarity
 220              		.code	16
 221              		.thumb_func
 222              		.type	CySysPmSetWakeupPolarity, %function
 223              	CySysPmSetWakeupPolarity:
 224              	.LFB4:
 173:Generated_Source\PSoC4/cyPm.c **** 
 174:Generated_Source\PSoC4/cyPm.c **** 
 175:Generated_Source\PSoC4/cyPm.c ****     /*******************************************************************************
ARM GAS  C:\Users\Elea\AppData\Local\Temp\ccEVc7b1.s 			page 8


 176:Generated_Source\PSoC4/cyPm.c ****     * Function Name: CySysPmStop
 177:Generated_Source\PSoC4/cyPm.c ****     ****************************************************************************//**
 178:Generated_Source\PSoC4/cyPm.c ****     *
 179:Generated_Source\PSoC4/cyPm.c ****     * Puts the part into the Stop state. All internal supplies are off;
 180:Generated_Source\PSoC4/cyPm.c ****     * no state is retained.
 181:Generated_Source\PSoC4/cyPm.c ****     *
 182:Generated_Source\PSoC4/cyPm.c ****     * Wakeup from Stop is performed by toggling the wakeup pin, causing
 183:Generated_Source\PSoC4/cyPm.c ****     * a normal boot procedure to occur. To configure the wakeup pin,
 184:Generated_Source\PSoC4/cyPm.c ****     * the Digital Input Pin component should be placed on the schematic,
 185:Generated_Source\PSoC4/cyPm.c ****     * assigned to the wakeup pin, and resistively pulled up or down to the inverse
 186:Generated_Source\PSoC4/cyPm.c ****     * state of the wakeup polarity. To distinguish the wakeup from the Stop mode
 187:Generated_Source\PSoC4/cyPm.c ****     * and the general Reset event, \ref CySysPmGetResetReason() function could be
 188:Generated_Source\PSoC4/cyPm.c ****     * used.  The wakeup pin is active low by default. The wakeup pin polarity
 189:Generated_Source\PSoC4/cyPm.c ****     * could be changed with the \ref CySysPmSetWakeupPolarity() function.
 190:Generated_Source\PSoC4/cyPm.c ****     *
 191:Generated_Source\PSoC4/cyPm.c ****     * This function freezes IO cells implicitly. It is not possible to enter
 192:Generated_Source\PSoC4/cyPm.c ****     * the STOP mode before freezing the IO cells. The IO cells remain frozen after
 193:Generated_Source\PSoC4/cyPm.c ****     * awake from the Stop mode until the firmware unfreezes them after booting
 194:Generated_Source\PSoC4/cyPm.c ****     * explicitly with \ref CySysPmUnfreezeIo() function call.
 195:Generated_Source\PSoC4/cyPm.c ****     *
 196:Generated_Source\PSoC4/cyPm.c ****     *******************************************************************************/
 197:Generated_Source\PSoC4/cyPm.c ****     void CySysPmStop(void)
 198:Generated_Source\PSoC4/cyPm.c ****     {
 199:Generated_Source\PSoC4/cyPm.c ****         (void) CyEnterCriticalSection();
 200:Generated_Source\PSoC4/cyPm.c **** 
 201:Generated_Source\PSoC4/cyPm.c ****         /* Update token to indicate Stop mode transition. Preserve only polarity. */
 202:Generated_Source\PSoC4/cyPm.c ****         CY_PM_PWR_STOP_REG = (CY_PM_PWR_STOP_REG & CY_PM_PWR_STOP_POLARITY) | CY_PM_PWR_STOP_TOKEN_
 203:Generated_Source\PSoC4/cyPm.c **** 
 204:Generated_Source\PSoC4/cyPm.c ****         /* Freeze IO-Cells to save IO-Cell state */
 205:Generated_Source\PSoC4/cyPm.c ****         CySysPmFreezeIo();
 206:Generated_Source\PSoC4/cyPm.c **** 
 207:Generated_Source\PSoC4/cyPm.c ****         /* Initiates transition to Stop state */
 208:Generated_Source\PSoC4/cyPm.c ****         CY_PM_PWR_STOP_REG = CY_PM_PWR_STOP_REG | CY_PM_PWR_STOP_STOP;
 209:Generated_Source\PSoC4/cyPm.c **** 
 210:Generated_Source\PSoC4/cyPm.c ****         /* Depending on the clock frequency and internal timing delays,
 211:Generated_Source\PSoC4/cyPm.c ****          * the final AHB transaction may or may not complete. To guard against
 212:Generated_Source\PSoC4/cyPm.c ****          * accidentally executing an unintended instruction, it is recommended
 213:Generated_Source\PSoC4/cyPm.c ****          * to add 2 NOP cycles after the final write to the STOP register.
 214:Generated_Source\PSoC4/cyPm.c ****          */
 215:Generated_Source\PSoC4/cyPm.c ****         CY_NOP;
 216:Generated_Source\PSoC4/cyPm.c ****         CY_NOP;
 217:Generated_Source\PSoC4/cyPm.c **** 
 218:Generated_Source\PSoC4/cyPm.c ****         /* Should never get to this WFI instruction */
 219:Generated_Source\PSoC4/cyPm.c ****         CY_PM_WFI;
 220:Generated_Source\PSoC4/cyPm.c **** 
 221:Generated_Source\PSoC4/cyPm.c ****         /* Wakeup from Stop is performed by toggling of Wakeup pin,
 222:Generated_Source\PSoC4/cyPm.c ****          * causing a normal Boot procedure to occur. No need to exit
 223:Generated_Source\PSoC4/cyPm.c ****          * from the critical section.
 224:Generated_Source\PSoC4/cyPm.c ****          */
 225:Generated_Source\PSoC4/cyPm.c ****     }
 226:Generated_Source\PSoC4/cyPm.c **** 
 227:Generated_Source\PSoC4/cyPm.c **** 
 228:Generated_Source\PSoC4/cyPm.c ****     /*******************************************************************************
 229:Generated_Source\PSoC4/cyPm.c ****     * Function Name: CySysPmSetWakeupPolarity
 230:Generated_Source\PSoC4/cyPm.c ****     ****************************************************************************//**
 231:Generated_Source\PSoC4/cyPm.c ****     *
 232:Generated_Source\PSoC4/cyPm.c ****     * Wake up from the stop mode is performed by toggling the wakeup pin,
ARM GAS  C:\Users\Elea\AppData\Local\Temp\ccEVc7b1.s 			page 9


 233:Generated_Source\PSoC4/cyPm.c ****     * causing a normal boot procedure to occur. This function assigns
 234:Generated_Source\PSoC4/cyPm.c ****     * the wakeup pin active level. Setting the wakeup pin to this level will cause
 235:Generated_Source\PSoC4/cyPm.c ****     * the wakeup from stop mode. The wakeup pin is active low by default.
 236:Generated_Source\PSoC4/cyPm.c ****     *
 237:Generated_Source\PSoC4/cyPm.c ****     * \param polarity
 238:Generated_Source\PSoC4/cyPm.c ****     * - \ref CY_PM_STOP_WAKEUP_ACTIVE_LOW Logical zero will wakeup the chip
 239:Generated_Source\PSoC4/cyPm.c ****     * - \ref CY_PM_STOP_WAKEUP_ACTIVE_HIGH Logical one will wakeup the chip
 240:Generated_Source\PSoC4/cyPm.c ****     *
 241:Generated_Source\PSoC4/cyPm.c ****     *******************************************************************************/
 242:Generated_Source\PSoC4/cyPm.c ****     void CySysPmSetWakeupPolarity(uint32 polarity)
 243:Generated_Source\PSoC4/cyPm.c ****     {
 225              		.loc 1 243 0
 226              		.cfi_startproc
 227              	.LVL9:
 228 0000 10B5     		push	{r4, lr}
 229              		.cfi_def_cfa_offset 8
 230              		.cfi_offset 4, -8
 231              		.cfi_offset 14, -4
 232 0002 041C     		mov	r4, r0
 244:Generated_Source\PSoC4/cyPm.c ****         uint8 interruptState;
 245:Generated_Source\PSoC4/cyPm.c **** 
 246:Generated_Source\PSoC4/cyPm.c ****         interruptState = CyEnterCriticalSection();
 233              		.loc 1 246 0
 234 0004 FFF7FEFF 		bl	CyEnterCriticalSection
 235              	.LVL10:
 247:Generated_Source\PSoC4/cyPm.c **** 
 248:Generated_Source\PSoC4/cyPm.c ****         CY_PM_PWR_STOP_REG = (CY_PM_STOP_WAKEUP_ACTIVE_LOW != polarity) ?
 249:Generated_Source\PSoC4/cyPm.c ****                             (CY_PM_PWR_STOP_REG | CY_PM_PWR_STOP_POLARITY) :
 236              		.loc 1 249 0
 237 0008 002C     		cmp	r4, #0
 238 000a 05D0     		beq	.L11
 239              		.loc 1 249 0 is_stmt 0 discriminator 1
 240 000c 074B     		ldr	r3, .L13
 241 000e 1B68     		ldr	r3, [r3]
 242 0010 8022     		mov	r2, #128
 243 0012 5202     		lsl	r2, r2, #9
 244 0014 1343     		orr	r3, r2
 245 0016 03E0     		b	.L12
 246              	.L11:
 250:Generated_Source\PSoC4/cyPm.c ****                             (CY_PM_PWR_STOP_REG & (uint32) (~CY_PM_PWR_STOP_POLARITY));
 247              		.loc 1 250 0 is_stmt 1 discriminator 2
 248 0018 044B     		ldr	r3, .L13
 249 001a 1A68     		ldr	r2, [r3]
 249:Generated_Source\PSoC4/cyPm.c ****                             (CY_PM_PWR_STOP_REG & (uint32) (~CY_PM_PWR_STOP_POLARITY));
 250              		.loc 1 249 0 discriminator 2
 251 001c 044B     		ldr	r3, .L13+4
 252 001e 1340     		and	r3, r2
 253              	.L12:
 248:Generated_Source\PSoC4/cyPm.c ****                             (CY_PM_PWR_STOP_REG | CY_PM_PWR_STOP_POLARITY) :
 254              		.loc 1 248 0
 255 0020 024A     		ldr	r2, .L13
 256 0022 1360     		str	r3, [r2]
 251:Generated_Source\PSoC4/cyPm.c **** 
 252:Generated_Source\PSoC4/cyPm.c ****         CyExitCriticalSection(interruptState);
 257              		.loc 1 252 0
 258 0024 FFF7FEFF 		bl	CyExitCriticalSection
 259              	.LVL11:
ARM GAS  C:\Users\Elea\AppData\Local\Temp\ccEVc7b1.s 			page 10


 253:Generated_Source\PSoC4/cyPm.c ****     }
 260              		.loc 1 253 0
 261              		@ sp needed
 262              	.LVL12:
 263 0028 10BD     		pop	{r4, pc}
 264              	.L14:
 265 002a C046     		.align	2
 266              	.L13:
 267 002c 2C000B40 		.word	1074462764
 268 0030 FFFFFEFF 		.word	-65537
 269              		.cfi_endproc
 270              	.LFE4:
 271              		.size	CySysPmSetWakeupPolarity, .-CySysPmSetWakeupPolarity
 272              		.section	.text.CySysPmGetResetReason,"ax",%progbits
 273              		.align	2
 274              		.global	CySysPmGetResetReason
 275              		.code	16
 276              		.thumb_func
 277              		.type	CySysPmGetResetReason, %function
 278              	CySysPmGetResetReason:
 279              	.LFB5:
 254:Generated_Source\PSoC4/cyPm.c **** 
 255:Generated_Source\PSoC4/cyPm.c **** 
 256:Generated_Source\PSoC4/cyPm.c ****     /*******************************************************************************
 257:Generated_Source\PSoC4/cyPm.c ****     * Function Name: CySysPmGetResetReason
 258:Generated_Source\PSoC4/cyPm.c ****     ****************************************************************************//**
 259:Generated_Source\PSoC4/cyPm.c ****     *
 260:Generated_Source\PSoC4/cyPm.c ****     * Retrieves the last reset reason - transition from OFF/XRES/STOP/HIBERNATE to
 261:Generated_Source\PSoC4/cyPm.c ****     * the RESET state. Note that waking up from STOP using XRES will be perceived
 262:Generated_Source\PSoC4/cyPm.c ****     * as a general RESET.
 263:Generated_Source\PSoC4/cyPm.c ****     *
 264:Generated_Source\PSoC4/cyPm.c ****     * \return CY_PM_RESET_REASON_UNKN          Unknown reset reason.
 265:Generated_Source\PSoC4/cyPm.c ****     * \return CY_PM_RESET_REASON_XRES          Transition from OFF/XRES to RESET
 266:Generated_Source\PSoC4/cyPm.c ****     * \return CY_PM_RESET_REASON_WAKEUP_HIB    Transition/wakeup from HIBERNATE to RESET
 267:Generated_Source\PSoC4/cyPm.c ****     * \return CY_PM_RESET_REASON_WAKEUP_STOP   Transition/wakeup from STOP to RESET
 268:Generated_Source\PSoC4/cyPm.c ****     *
 269:Generated_Source\PSoC4/cyPm.c ****     *******************************************************************************/
 270:Generated_Source\PSoC4/cyPm.c ****     uint32 CySysPmGetResetReason(void)
 271:Generated_Source\PSoC4/cyPm.c ****     {
 280              		.loc 1 271 0
 281              		.cfi_startproc
 282              	.LVL13:
 272:Generated_Source\PSoC4/cyPm.c ****         uint32 reason = CY_PM_RESET_REASON_UNKN;
 273:Generated_Source\PSoC4/cyPm.c **** 
 274:Generated_Source\PSoC4/cyPm.c ****         switch(CY_PM_PWR_STOP_REG & CY_PM_PWR_STOP_TOKEN_MASK)
 283              		.loc 1 274 0
 284 0000 084B     		ldr	r3, .L21
 285 0002 1B68     		ldr	r3, [r3]
 286 0004 FF22     		mov	r2, #255
 287 0006 1340     		and	r3, r2
 288 0008 F12B     		cmp	r3, #241
 289 000a 05D0     		beq	.L17
 290 000c F22B     		cmp	r3, #242
 291 000e 05D0     		beq	.L18
 292 0010 002B     		cmp	r3, #0
 293 0012 05D0     		beq	.L20
 272:Generated_Source\PSoC4/cyPm.c ****         uint32 reason = CY_PM_RESET_REASON_UNKN;
ARM GAS  C:\Users\Elea\AppData\Local\Temp\ccEVc7b1.s 			page 11


 294              		.loc 1 272 0
 295 0014 0020     		mov	r0, #0
 296 0016 04E0     		b	.L19
 297              	.L17:
 298              	.LVL14:
 275:Generated_Source\PSoC4/cyPm.c ****         {
 276:Generated_Source\PSoC4/cyPm.c ****         /* Power up, XRES */
 277:Generated_Source\PSoC4/cyPm.c ****         case CY_PM_PWR_STOP_TOKEN_XRES:
 278:Generated_Source\PSoC4/cyPm.c ****             reason = CY_PM_RESET_REASON_XRES;
 279:Generated_Source\PSoC4/cyPm.c ****             break;
 280:Generated_Source\PSoC4/cyPm.c **** 
 281:Generated_Source\PSoC4/cyPm.c ****         /* Wakeup from Hibernate */
 282:Generated_Source\PSoC4/cyPm.c ****         case CY_PM_PWR_STOP_TOKEN_HIB:
 283:Generated_Source\PSoC4/cyPm.c ****             reason = CY_PM_RESET_REASON_WAKEUP_HIB;
 299              		.loc 1 283 0
 300 0018 0220     		mov	r0, #2
 284:Generated_Source\PSoC4/cyPm.c ****             break;
 301              		.loc 1 284 0
 302 001a 02E0     		b	.L19
 303              	.LVL15:
 304              	.L18:
 285:Generated_Source\PSoC4/cyPm.c **** 
 286:Generated_Source\PSoC4/cyPm.c ****         /* Wakeup from Stop (through WAKEUP pin assert) */
 287:Generated_Source\PSoC4/cyPm.c ****         case CY_PM_PWR_STOP_TOKEN_STOP:
 288:Generated_Source\PSoC4/cyPm.c ****             reason = CY_PM_RESET_REASON_WAKEUP_STOP;
 305              		.loc 1 288 0
 306 001c 0320     		mov	r0, #3
 289:Generated_Source\PSoC4/cyPm.c ****             break;
 307              		.loc 1 289 0
 308 001e 00E0     		b	.L19
 309              	.LVL16:
 310              	.L20:
 278:Generated_Source\PSoC4/cyPm.c ****             break;
 311              		.loc 1 278 0
 312 0020 0120     		mov	r0, #1
 313              	.LVL17:
 314              	.L19:
 290:Generated_Source\PSoC4/cyPm.c **** 
 291:Generated_Source\PSoC4/cyPm.c ****         /* Unknown reason */
 292:Generated_Source\PSoC4/cyPm.c ****         default:
 293:Generated_Source\PSoC4/cyPm.c ****             break;
 294:Generated_Source\PSoC4/cyPm.c ****         }
 295:Generated_Source\PSoC4/cyPm.c **** 
 296:Generated_Source\PSoC4/cyPm.c ****         return (reason);
 297:Generated_Source\PSoC4/cyPm.c ****     }
 315              		.loc 1 297 0
 316              		@ sp needed
 317 0022 7047     		bx	lr
 318              	.L22:
 319              		.align	2
 320              	.L21:
 321 0024 2C000B40 		.word	1074462764
 322              		.cfi_endproc
 323              	.LFE5:
 324              		.size	CySysPmGetResetReason, .-CySysPmGetResetReason
 325              		.section	.text.CySysPmFreezeIo,"ax",%progbits
 326              		.align	2
ARM GAS  C:\Users\Elea\AppData\Local\Temp\ccEVc7b1.s 			page 12


 327              		.global	CySysPmFreezeIo
 328              		.code	16
 329              		.thumb_func
 330              		.type	CySysPmFreezeIo, %function
 331              	CySysPmFreezeIo:
 332              	.LFB6:
 298:Generated_Source\PSoC4/cyPm.c **** 
 299:Generated_Source\PSoC4/cyPm.c **** 
 300:Generated_Source\PSoC4/cyPm.c ****     /*******************************************************************************
 301:Generated_Source\PSoC4/cyPm.c ****     * Function Name: CySysPmFreezeIo
 302:Generated_Source\PSoC4/cyPm.c ****     ****************************************************************************//**
 303:Generated_Source\PSoC4/cyPm.c ****     *
 304:Generated_Source\PSoC4/cyPm.c ****     * Freezes IO-Cells directly to save the IO-Cell state on wake up from the
 305:Generated_Source\PSoC4/cyPm.c ****     * Hibernate or Stop state. It is not required to call this function before
 306:Generated_Source\PSoC4/cyPm.c ****     * entering the Stop mode, since \ref CySysPmStop() function freezes IO-Cells
 307:Generated_Source\PSoC4/cyPm.c ****     * implicitly.
 308:Generated_Source\PSoC4/cyPm.c ****     *
 309:Generated_Source\PSoC4/cyPm.c ****     * This API is not available for PSoC 4000 family of devices.
 310:Generated_Source\PSoC4/cyPm.c ****     *
 311:Generated_Source\PSoC4/cyPm.c ****     *******************************************************************************/
 312:Generated_Source\PSoC4/cyPm.c ****     void CySysPmFreezeIo(void)
 313:Generated_Source\PSoC4/cyPm.c ****     {
 333              		.loc 1 313 0
 334              		.cfi_startproc
 335 0000 08B5     		push	{r3, lr}
 336              		.cfi_def_cfa_offset 8
 337              		.cfi_offset 3, -8
 338              		.cfi_offset 14, -4
 314:Generated_Source\PSoC4/cyPm.c ****         uint8 interruptState;
 315:Generated_Source\PSoC4/cyPm.c **** 
 316:Generated_Source\PSoC4/cyPm.c ****         interruptState = CyEnterCriticalSection();
 339              		.loc 1 316 0
 340 0002 FFF7FEFF 		bl	CyEnterCriticalSection
 341              	.LVL18:
 317:Generated_Source\PSoC4/cyPm.c **** 
 318:Generated_Source\PSoC4/cyPm.c ****         /* Check FREEZE state to avoid recurrent IO-Cells freeze attempt,
 319:Generated_Source\PSoC4/cyPm.c ****          * since the second call to this function will cause accidental switch
 320:Generated_Source\PSoC4/cyPm.c ****          * to the STOP mode (the system will enter STOP mode immediately after
 321:Generated_Source\PSoC4/cyPm.c ****          * writing to STOP bit since both UNLOCK and FREEZE have been set correctly
 322:Generated_Source\PSoC4/cyPm.c ****          * in a previous call to this function).
 323:Generated_Source\PSoC4/cyPm.c ****          */
 324:Generated_Source\PSoC4/cyPm.c ****         if (0u == (CY_PM_PWR_STOP_REG & CY_PM_PWR_STOP_FREEZE))
 342              		.loc 1 324 0
 343 0006 094B     		ldr	r3, .L25
 344 0008 1B68     		ldr	r3, [r3]
 345 000a 9B03     		lsl	r3, r3, #14
 346 000c 0AD4     		bmi	.L24
 325:Generated_Source\PSoC4/cyPm.c ****         {
 326:Generated_Source\PSoC4/cyPm.c ****             /* Preserve last reset reason and disable overrides the next freeze command by peripher
 327:Generated_Source\PSoC4/cyPm.c ****             CY_PM_PWR_STOP_REG = CY_PM_PWR_STOP_STOP | CY_PM_PWR_STOP_FREEZE | CY_PM_PWR_STOP_UNLOC
 328:Generated_Source\PSoC4/cyPm.c ****                                 (CY_PM_PWR_STOP_REG & (CY_PM_PWR_STOP_TOKEN_MASK | CY_PM_PWR_STOP_P
 347              		.loc 1 328 0
 348 000e 074B     		ldr	r3, .L25
 349 0010 1968     		ldr	r1, [r3]
 350 0012 074A     		ldr	r2, .L25+4
 351 0014 0A40     		and	r2, r1
 327:Generated_Source\PSoC4/cyPm.c ****                                 (CY_PM_PWR_STOP_REG & (CY_PM_PWR_STOP_TOKEN_MASK | CY_PM_PWR_STOP_P
ARM GAS  C:\Users\Elea\AppData\Local\Temp\ccEVc7b1.s 			page 13


 352              		.loc 1 327 0
 353 0016 0749     		ldr	r1, .L25+8
 354 0018 0A43     		orr	r2, r1
 355 001a 1A60     		str	r2, [r3]
 329:Generated_Source\PSoC4/cyPm.c **** 
 330:Generated_Source\PSoC4/cyPm.c ****             /* If reading after writing, read this register three times to delay
 331:Generated_Source\PSoC4/cyPm.c ****             *  enough time for internal settling.
 332:Generated_Source\PSoC4/cyPm.c ****             */
 333:Generated_Source\PSoC4/cyPm.c ****             (void) CY_PM_PWR_STOP_REG;
 356              		.loc 1 333 0
 357 001c 1A68     		ldr	r2, [r3]
 334:Generated_Source\PSoC4/cyPm.c ****             (void) CY_PM_PWR_STOP_REG;
 358              		.loc 1 334 0
 359 001e 1A68     		ldr	r2, [r3]
 335:Generated_Source\PSoC4/cyPm.c **** 
 336:Generated_Source\PSoC4/cyPm.c ****             /* Second write causes the freeze of IO-Cells to save IO-Cell state */
 337:Generated_Source\PSoC4/cyPm.c ****             CY_PM_PWR_STOP_REG = CY_PM_PWR_STOP_REG;
 360              		.loc 1 337 0
 361 0020 1A68     		ldr	r2, [r3]
 362 0022 1A60     		str	r2, [r3]
 363              	.L24:
 338:Generated_Source\PSoC4/cyPm.c ****         }
 339:Generated_Source\PSoC4/cyPm.c **** 
 340:Generated_Source\PSoC4/cyPm.c ****         CyExitCriticalSection(interruptState);
 364              		.loc 1 340 0
 365 0024 FFF7FEFF 		bl	CyExitCriticalSection
 366              	.LVL19:
 341:Generated_Source\PSoC4/cyPm.c ****     }
 367              		.loc 1 341 0
 368              		@ sp needed
 369 0028 08BD     		pop	{r3, pc}
 370              	.L26:
 371 002a C046     		.align	2
 372              	.L25:
 373 002c 2C000B40 		.word	1074462764
 374 0030 FF000100 		.word	65791
 375 0034 003A0280 		.word	-2147337728
 376              		.cfi_endproc
 377              	.LFE6:
 378              		.size	CySysPmFreezeIo, .-CySysPmFreezeIo
 379              		.section	.text.CySysPmStop,"ax",%progbits
 380              		.align	2
 381              		.global	CySysPmStop
 382              		.code	16
 383              		.thumb_func
 384              		.type	CySysPmStop, %function
 385              	CySysPmStop:
 386              	.LFB3:
 198:Generated_Source\PSoC4/cyPm.c ****         (void) CyEnterCriticalSection();
 387              		.loc 1 198 0
 388              		.cfi_startproc
 389 0000 10B5     		push	{r4, lr}
 390              		.cfi_def_cfa_offset 8
 391              		.cfi_offset 4, -8
 392              		.cfi_offset 14, -4
 199:Generated_Source\PSoC4/cyPm.c **** 
 393              		.loc 1 199 0
ARM GAS  C:\Users\Elea\AppData\Local\Temp\ccEVc7b1.s 			page 14


 394 0002 FFF7FEFF 		bl	CyEnterCriticalSection
 395              	.LVL20:
 202:Generated_Source\PSoC4/cyPm.c **** 
 396              		.loc 1 202 0
 397 0006 094C     		ldr	r4, .L28
 398 0008 2268     		ldr	r2, [r4]
 399 000a 8023     		mov	r3, #128
 400 000c 5B02     		lsl	r3, r3, #9
 401 000e 1340     		and	r3, r2
 402 0010 F222     		mov	r2, #242
 403 0012 1343     		orr	r3, r2
 404 0014 2360     		str	r3, [r4]
 205:Generated_Source\PSoC4/cyPm.c **** 
 405              		.loc 1 205 0
 406 0016 FFF7FEFF 		bl	CySysPmFreezeIo
 407              	.LVL21:
 208:Generated_Source\PSoC4/cyPm.c **** 
 408              		.loc 1 208 0
 409 001a 2368     		ldr	r3, [r4]
 410 001c 8022     		mov	r2, #128
 411 001e 1206     		lsl	r2, r2, #24
 412 0020 1343     		orr	r3, r2
 413 0022 2360     		str	r3, [r4]
 215:Generated_Source\PSoC4/cyPm.c ****         CY_NOP;
 414              		.loc 1 215 0
 415              	@ 215 "Generated_Source\PSoC4\cyPm.c" 1
 416 0024 C046     		NOP
 417              	
 418              	@ 0 "" 2
 216:Generated_Source\PSoC4/cyPm.c **** 
 419              		.loc 1 216 0
 420              	@ 216 "Generated_Source\PSoC4\cyPm.c" 1
 421 0026 C046     		NOP
 422              	
 423              	@ 0 "" 2
 219:Generated_Source\PSoC4/cyPm.c **** 
 424              		.loc 1 219 0
 425              	@ 219 "Generated_Source\PSoC4\cyPm.c" 1
 426 0028 30BF     		WFI 
 427              	
 428              	@ 0 "" 2
 225:Generated_Source\PSoC4/cyPm.c **** 
 429              		.loc 1 225 0
 430              		.code	16
 431              		@ sp needed
 432 002a 10BD     		pop	{r4, pc}
 433              	.L29:
 434              		.align	2
 435              	.L28:
 436 002c 2C000B40 		.word	1074462764
 437              		.cfi_endproc
 438              	.LFE3:
 439              		.size	CySysPmStop, .-CySysPmStop
 440              		.section	.text.CySysPmUnfreezeIo,"ax",%progbits
 441              		.align	2
 442              		.global	CySysPmUnfreezeIo
 443              		.code	16
ARM GAS  C:\Users\Elea\AppData\Local\Temp\ccEVc7b1.s 			page 15


 444              		.thumb_func
 445              		.type	CySysPmUnfreezeIo, %function
 446              	CySysPmUnfreezeIo:
 447              	.LFB7:
 342:Generated_Source\PSoC4/cyPm.c **** 
 343:Generated_Source\PSoC4/cyPm.c **** 
 344:Generated_Source\PSoC4/cyPm.c ****     /*******************************************************************************
 345:Generated_Source\PSoC4/cyPm.c ****     * Function Name: CySysPmUnfreezeIo
 346:Generated_Source\PSoC4/cyPm.c ****     ****************************************************************************//**
 347:Generated_Source\PSoC4/cyPm.c ****     *
 348:Generated_Source\PSoC4/cyPm.c ****     * The IO-Cells remain frozen after awake from Hibernate or Stop mode until
 349:Generated_Source\PSoC4/cyPm.c ****     * the firmware unfreezes them after booting. The call of this function
 350:Generated_Source\PSoC4/cyPm.c ****     * unfreezes IO-Cells explicitly.
 351:Generated_Source\PSoC4/cyPm.c ****     *
 352:Generated_Source\PSoC4/cyPm.c ****     * If the firmware intent is to retain the data value on the port, then the
 353:Generated_Source\PSoC4/cyPm.c ****     * value must be read and re-written to the data register before calling this
 354:Generated_Source\PSoC4/cyPm.c ****     * API. Furthermore, the drive mode must be re-programmed.  If this is not done,
 355:Generated_Source\PSoC4/cyPm.c ****     * the pin state will change to default state the moment the freeze is removed.
 356:Generated_Source\PSoC4/cyPm.c ****     *
 357:Generated_Source\PSoC4/cyPm.c ****     * This API is not available for PSoC 4000 family of devices.
 358:Generated_Source\PSoC4/cyPm.c ****     *
 359:Generated_Source\PSoC4/cyPm.c ****     *******************************************************************************/
 360:Generated_Source\PSoC4/cyPm.c ****     void CySysPmUnfreezeIo(void)
 361:Generated_Source\PSoC4/cyPm.c ****     {
 448              		.loc 1 361 0
 449              		.cfi_startproc
 450 0000 10B5     		push	{r4, lr}
 451              		.cfi_def_cfa_offset 8
 452              		.cfi_offset 4, -8
 453              		.cfi_offset 14, -4
 362:Generated_Source\PSoC4/cyPm.c ****         uint8 interruptState;
 363:Generated_Source\PSoC4/cyPm.c **** 
 364:Generated_Source\PSoC4/cyPm.c ****         interruptState = CyEnterCriticalSection();
 454              		.loc 1 364 0
 455 0002 FFF7FEFF 		bl	CyEnterCriticalSection
 456              	.LVL22:
 365:Generated_Source\PSoC4/cyPm.c **** 
 366:Generated_Source\PSoC4/cyPm.c ****         /* Preserve last reset reason and wakeup polarity. Then, unfreeze I/O:
 367:Generated_Source\PSoC4/cyPm.c ****          * write PWR_STOP.FREEZE=0, .UNLOCK=0x3A, .STOP=0, .TOKEN
 368:Generated_Source\PSoC4/cyPm.c ****          */
 369:Generated_Source\PSoC4/cyPm.c ****         CY_PM_PWR_STOP_REG = CY_PM_PWR_STOP_UNLOCK |
 370:Generated_Source\PSoC4/cyPm.c ****                             (CY_PM_PWR_STOP_REG & (CY_PM_PWR_STOP_TOKEN_MASK | CY_PM_PWR_STOP_POLAR
 457              		.loc 1 370 0
 458 0006 084B     		ldr	r3, .L31
 459 0008 1A68     		ldr	r2, [r3]
 460 000a 0849     		ldr	r1, .L31+4
 461 000c 0A40     		and	r2, r1
 369:Generated_Source\PSoC4/cyPm.c ****                             (CY_PM_PWR_STOP_REG & (CY_PM_PWR_STOP_TOKEN_MASK | CY_PM_PWR_STOP_POLAR
 462              		.loc 1 369 0
 463 000e E824     		mov	r4, #232
 464 0010 A401     		lsl	r4, r4, #6
 465 0012 2243     		orr	r2, r4
 466 0014 1A60     		str	r2, [r3]
 371:Generated_Source\PSoC4/cyPm.c **** 
 372:Generated_Source\PSoC4/cyPm.c ****         /* If reading after writing, read this register three times to delay
 373:Generated_Source\PSoC4/cyPm.c ****         *  enough time for internal settling.
 374:Generated_Source\PSoC4/cyPm.c ****         */
ARM GAS  C:\Users\Elea\AppData\Local\Temp\ccEVc7b1.s 			page 16


 375:Generated_Source\PSoC4/cyPm.c ****         (void) CY_PM_PWR_STOP_REG;
 467              		.loc 1 375 0
 468 0016 1A68     		ldr	r2, [r3]
 376:Generated_Source\PSoC4/cyPm.c ****         (void) CY_PM_PWR_STOP_REG;
 469              		.loc 1 376 0
 470 0018 1A68     		ldr	r2, [r3]
 377:Generated_Source\PSoC4/cyPm.c **** 
 378:Generated_Source\PSoC4/cyPm.c ****         /* Lock STOP mode: write PWR_STOP.FREEZE=0, UNLOCK=0x00, STOP=0, .TOKEN */
 379:Generated_Source\PSoC4/cyPm.c ****         CY_PM_PWR_STOP_REG &= (CY_PM_PWR_STOP_TOKEN_MASK | CY_PM_PWR_STOP_POLARITY);
 471              		.loc 1 379 0
 472 001a 1A68     		ldr	r2, [r3]
 473 001c 1140     		and	r1, r2
 474 001e 1960     		str	r1, [r3]
 380:Generated_Source\PSoC4/cyPm.c **** 
 381:Generated_Source\PSoC4/cyPm.c ****         CyExitCriticalSection(interruptState);
 475              		.loc 1 381 0
 476 0020 FFF7FEFF 		bl	CyExitCriticalSection
 477              	.LVL23:
 382:Generated_Source\PSoC4/cyPm.c ****     }
 478              		.loc 1 382 0
 479              		@ sp needed
 480 0024 10BD     		pop	{r4, pc}
 481              	.L32:
 482 0026 C046     		.align	2
 483              	.L31:
 484 0028 2C000B40 		.word	1074462764
 485 002c FF000100 		.word	65791
 486              		.cfi_endproc
 487              	.LFE7:
 488              		.size	CySysPmUnfreezeIo, .-CySysPmUnfreezeIo
 489              		.text
 490              	.Letext0:
 491              		.file 2 "Generated_Source\\PSoC4\\cytypes.h"
 492              		.file 3 "Generated_Source\\PSoC4\\CyLib.h"
