:400000000010002011000000410900004109000008B500F09DFCC04610B5154C23688022D20213432360182000F0C2FD2268114B13402360104A114B1A603022104B1A60A5
:40004000103A104B1A60103A0F4B1A60802212060E4B1A6000232360FE210D4A11600D490D4A11600D490E4A11600E4A136010BD00010B40FFFFFBFF0600008004010B403A
:4000800008020240140202401802024008010B4000000240FE0000404000024022000080800002400C020B4010B572B6002410E0344863001A195200821891881B195B0086
:4000C0001A5AC31858880004104300F0A3FC0134E4B2012CECD92B49081C0C30203100F07FFC9922284B1A600022284B1A6099231B04274A1360274A136080218903264AA7
:400100001160264A1360264A136080229205254B1A60254B197802220A431A70234802783C218A4328390A430270197816220A431A70C0221E4B1A601E4A1F4B1A60042263
:400140001E4B1A601E4A1F4B1A6020221E4B1A601E4A1F4B1A6042221E4B1A601E4A1F4B1A601F4B02221A6006231E4A13601E491E4A11601E4A1360FFF74EFF00F070FC86
:4001800010BDC04618220000100001400C00014000500F4010500F4014500F4020500F4030500F4038500F4000700F4001700F4000000440DBB6D900080004400001044070
:4001C0009BB66D00080104400C010440DBB66D000802044000030440C3B6D90008030440180304400004044031060000080404401804044010B5064C2378002B07D1054BDC
:40020000002B02D0044800E000BF0123237010BD9002002000000000E41D000008B5084B002B03D00748084900E000BF07480368002B00D108BD064B002BFBD09847F9E7D1
:4002400000000000E41D000094020020C80000200000000008B5064B01221A705A70C82000F084FC01F04CFC01F044FC08BDC046AC02002010B584B001AC201C00F0CAFA69
:400280002378F62B06D101AB5B79F32B02D10122044B9A70044B1A68044B1A6001F0A0FC04B010BDAC020020CC0F0640C00F064008B5074BDB78002B02D0012000F084FA24
:4002C000034B1B78002B02D0022000F07DFA08BDAC02002008B500F023FA0D4801F0FCFB0C4801F067FA0C4801F06CFC0020012100F0C2FD0020C821090100F037FE002061
:40030000012100F0D5FD012000F0EEFD08BDC04655020000110600007502000008B501F025F801F0C9F8002001F026F908BDC04608B5012000F0D8FD01F06EF8114B1B78CC
:40034000032B02D100F008FD01E000F013FD012000F0EAFD01F078F8002000F04DFF01E000F0FAFC00F0A8FE0028F9D101F092F9002001F0F9F8002801D0012000E000200A
:4003800008BDC046E602002008B52E4B00221A715A719A71DA714BE02A4B98790130C0B29871294B1B78032B07D1322101F0DAFCC9B2002901D1FFF77BFF224B9B79642BEC
:4003C0000BD1012000F050F9642000F0CFFB002000F04AF900221B4B9A71FFF7A9FF194A537901335371002803D013790133137103E0144B00221A715A71124B5B79322B57
:4004000006D1104B1B79322B02D101220D4BDA710C4B9B78002B03D004220B4B1A700FE0084BDB79002B03D00522074B1A7007E0044B9B78002B03D1024BDB79002BABD06C
:4004400008BDC046AC020020E602002010B5164B1C7A002C01D100F03DF90C2000F05AFC00F028FB022814D100F014FB00F02AFB012000F00BF9FA20400000F077FB002062
:4004800000F004F9042000F09FF90122064B5A7202E0052000F098F900F0FCFA002C01D100F03EF910BDC046AC02002010B562B60022534B1A70FFF70DFFFA20800000F07C
:4004C00055FBFFF7C3FF4E4B1A78052AFBD893004C4AD3589F4600F023F94B4800F046FB012000F0C1F8FA20400000F03FFB002000F0BAF8FFF712FF0122414B1A70E2E7A5
:40050000FFF716FF002803D0404B0122DA705A703E4B5B78002BF3D00222394B1A70D2E700F0D8F8FFF7C4FE012000F09DF8FA20800000F01BFB002000F096F80022334BC2
:400540005A7003322E4B1A70BDE7FFF71DFF2F4B9B78002B1FD000222C4B9A7217E0012000F0A6F8012000F07FF8C8246400201C00F0FCFA002000F09BF8002000F074F8B8
:40058000201C00F0F3FA214A937A013393721F4B9B7A022BE3D900221C4B9A7000F0C0F891E700F0BDF8FFF7EFFE8CE700F092F8032000F009F900F0B3F80022134B9A72A5
:4005C00015E0012000F074F8012000F04DF8642000F0CCFA002000F06BF8002000F044F8FA2000F0C3FA094A937A01339372074B9B7A012BE5D90022014B1A7063E7C04641
:40060000E6020020E81D0000DC050000AC02002008B5134AD3680133D360124A934204D900220F4BDA60FFF711FF0D4BD868642101F098FB00290CD1094B5B7A002B08D0A5
:40064000012000F023F8642000F090FA002000F01DF8042000F0A8FC01F0BAF808BDC046AC020020002F0D0008B5012806D1053001F0EEF8002001F0F7F805E0012001F03B
:40068000F3F8022001F0E4F808BDC04608B5012806D1053001F0F4F8002001F0FDF805E0012001F0F9F8022001F0EAF808BDC04608B5012806D1023001F03EF8012001F0F0
:4006C00045F805E0002001F041F8032001F034F808BDC04608B50122104B1A70062001F031FA062001F016FA062001F097FA062001F07EFA012001F031FA002001F016FAC0
:40070000022000F033FA002001F028FA01F0E8F8142000F02BFA01F011F908BDB402002008B500220C4B1A7001F0EAF8012001F075FA002001F066FA032001F059FA01208A
:4007400001F0F4F9002001F009FA032001F0FAF9012001F0DFF908BDB402002038B5051C002404E0A300585901F0F8F80134042CF8DD0020012206E093005B5958408000EE
:40078000104B185C0132042AF6DD01F0E7F8052404E0A300585901F0E1F801340B2CF8DD0020052206E093005B5958408000054B185C01320B2AF6DD01F0D0F8642000F042
:4007C000D5F938BD181E000008B505281AD880000D4B1B589F460D48FFF7C0FF12E00B483030FFF7BBFF0DE008486030FFF7B6FF08E007481030FFF7B1FF03E00448403061
:40080000FFF7ACFF08BDC046001E0000CC0000204C01002030B587B0051C0023009301930293039301F082F80028FBD0002401F07DF8002805D001F013F96B4618550134EE
:40084000E4B26B461B78552B1FD16B461B79022B01D1082C19D06B469B78012B01D1082C13D06B469B79F62B01D1142C0DD0D52B01D1142C09D0A52B01D1172C05D0D22B7D
:4008800001D1172C01D0172CD1D96B469B79F62B13D12B706B46DB796B716B461B7A6B706B465B7AAB706B469B7AEB706B46DB7A2B716B461B7B6B723CE0D52B13D12B70DB
:4008C0006B46DB796B716B461B7A6B706B465B7AAB706B469B7AEB706B46DB7A2B716B461B7B6B7226E0A52B1CD12B706B46DB796B716B461B7AAB716B465B7AEB716B463A
:400900009B7A2B726B46DB7A6B706B461B7BAB706B465B7BEB706B469B7B2B716B46DB7B6B7207E000232B706B716B70AB70EB702B716B7201F002F8281C07B030BDC04675
:4009400008B501F01BFA03680C2B00D1FEE7FEE770B50F4E0F4D13E029686B68AC68002202E001C901C30432A242FAD1E868002202E0002102C304328242FAD11035013E34
:40098000002EE9D101F000FAFFF790FDFEE7C046010000000023000008B500230AE0032B03D89A000A49505800E00A4899000A4A885001332F2BF2D9FFF776FB0022074B3F
:4009C0001A608022D205116801230B43136008BD000000004109000000000020C0000020F0B50025002711E0BB00C658F3B2FF22964308E06A008A181478A41952782270A4
:400A00000135013BDBB2002BF4D10137042FEBD9F0BDC04608B50A1C002101F0DBF908BD0C4B1B68002803D080221206134301E05B005B08074A1360074B1B68002803D03F
:400A400080229204134301E0044A1340024A13607047C04680031A4008010B40FFFFFFFD08B50120FFF7DCFF08BDC04610B5041C01F0E8F807231C40E40404490B68044A13
:400A8000134023430B6001F0E1F810BD00010B40FFFFC7FF054A136802218B431360044A136801398B4313607047C04608000B4018000B40024B1B68022018407047C0467F
:400AC00004000B400222014B1A60704704000B401F2318401E3B8340181C014B1860704700E100E01F2318401E3B8340181C014B1860704780E100E001BE704738B5041C68
:400B00000D1C1F2802D90020FFF7F6FFA400034B9C4664442068256038BDC0464000002070B5041C0E1E032E02D90020FFF7E4FF1F2C02D90020FFF7DFFF03252540ED0071
:400B4000063501F07FF8A408A400074B9C46644423680322AA409343AE40351C1D43256001F074F870BDC04600E400E010B5041C06E0084B586801F05BF8074B9C466444C0
:400B800080231B029C42F4D8024B9868604301F04FF810BDE40100200080FFFF08B5034B1B7B584301F044F808BDC046E4010020F0B557464E46C0B483B0041C01F042F852
:400BC0000190E71E2D2F74D83F4B1B78DBB2A34208D33E4B1B78DBB29A463D4B1B78DBB2994631E03B4B1B78DBB2A34208D33A4B1B78DBB29A46394B1B78DBB2994623E0BB
:400C0000374B1B78DBB2A34208D3364B1B78DBB29A46354B1B78DBB2994615E0334B1B78DBB2A34208D3324B1B78DBB29A46314B1B78DBB2994607E02F4B1B78DBB29A46A6
:400C40002E4B1B78DBB299462D4BDE5D2F2E09D92A2C07D919222B4B1A60052000F0E8FF192503E0274B1D683F231D40AE4206D2234BDA5D234B1A60052000F0D9FF1F4B2A
:400C80009C4664442378DBB21F4A13601F4B52461A601F4B4A461A600520FFF77FFFAE420AD9174BDA5D174B1A60052000F0C0FF02E00020FFF720FF019800F0C7FF03B0E8
:400CC0000CBC91469A46F0BDC0F1FF0FC1F1FF0FC2F1FF0FC3F1FF0FC4F1FF0FC5F1FF0FC6F1FF0FC7F1FF0FC8F1FF0FC9F1FF0FCAF1FF0FCBF1FF0FCCF1FF0FCDF1FF0FFB
:400D00005C2200002CFF0B4028FF0B401CFF0B4020FF0B4038B5031C0D4C22680225AA4322600C4A11681E2081435B00184008431060116801230B431360FA208000FFF7CB
:400D40002DFFFFF7BFFE23681D43256038BDC04608000B4018000B4008B500F073FF044A136804218B43136030BF00F06FFF08BD10ED00E0F0B583B000F064FF041C134A8E
:400D800013685B005B0813608025ED052B68022633432B600E4B1B889BB20E4A13600E4A116804230B4313600C4F3B6801930220FFF75CFE30BF019B3B602B68B3432B6029
:400DC000201C00F043FF03B0F0BDC04600000B4052F1FF0F0C000B4010ED00E000010B40034B1868C0231B02184000D00120704700010B40034A1368802109060B431360B0
:400E00007047C04604010B4008B500F01BFF044A1368C02109020B43136000F017FF08BD00010B4010B500F00DFF08490A68084B1A408024E40122430A600A681340802261
:400E4000120213430B6000F001FF10BD00010B40FF3FFFFF10B5041E022C02D90020FFF74BFE044B1868E4000134E040041C0120204010BD10020B4038B5041C0D1C0228D6
:400E800002D90020FFF738FE201CFFF7E3FF00280BD1064A1368E4000321081CA04083430D40A5402C1C1C43146038BD0C020B4038B5041C0D1C012802D90020FFF71CFE51
:400EC000201CFFF7C7FF00280AD106490B68E40002340122A2409343A5402C1C1C430C6038BDC0460C020B4010B5041CFFF782FF0C4A136823431360E30704D50020FFF715
:400F0000A9FF0028FAD0E30504D50120FFF7A2FF0028FAD0E30304D50220FFF79BFF0028FAD010BD10020B4010B5041CFFF758FF002818D10C4A1368A3431360E30704D5EF
:400F40000020FFF787FF0028FAD1E30504D50120FFF780FF0028FAD1E30304D50220FFF779FF0028FAD110BD10020B4038B5041C0D1C012802D90020FFF7BEFDC920FFF742
:400F80000DFE074A10682401064BA3409843031C281CA040184310604320FFF7FFFD38BD08020B40FFFF000070B5061C00F04AFE041CFFF715FF002803D0FFF733FF01258C
:400FC00000E000250848331C0340084A106808490840184310601368012D01D1FFF714FF201C00F033FE70BD0404040010020B40FBFBFBFF38B517480368DBB2164A13704E
:401000000F24A343191C154D2A780F2313400B43F02293431A1C2B78A34313430360104A104B1A60104A114B1A60114A1168114B0B40C021C9000B4313600F20FFF752FD72
:401040000F200D49FFF75AFD0F200321FFF768FD38BDC04600FF0840E802002062F1FF0F00020001080008400008A0010400084010000140FFF0FFFF9D16000008B500F05D
:40108000D5FB00F0B7FB0020002100F0BBFB0020002100F0D3FB00F0BFFB00F0A1FB044A136804490B4313600F20FFF711FD08BD0400084000100880024B18780123184096
:4010C0007047C046BC0200204000024B181880887047C046BC02002038B500F0B3FD07490B68F0229343B03A1343054C22683825AA4322600B6000F0A9FD38BD0C00014093
:401100000803044010B5104B1A5C10490B68F02083430B60022A00D10022012A01D1002400E0062400F08EFD09490B68382293431A1CE30013430B6000F088FD054A1368EA
:4011400002218B43136010BDF00200200C000140080304400003044010B5002403E0201CFFF7D0FF0134002CF9D010BDF8B5051C1A4C266824182079013880B2002100F072
:4011800041FB207A013880B2002100F057FB0F20FFF7A8FC12490A68124B1A40207B237C1B04034313430B600F4F3C680F4B1C400F4B1C430F20FFF78BFC281CFFF78CFFFC
:4011C00000F040FD051C3C60002000F031FD094B1E60281C00F03AFDF8BDC046F80100200800084000FF80FF04000840FF1FDFFF200020000C00084008B5054B00221A7053
:40120000C2B29A7181221A70FFF7B0FF08BDC046BC02002008B50E4B1A6843000D49CB189A80FFF76FFF0F20FFF75CFC0A4A11680A4B0B40A02109020B431360084A1168E0
:40124000084B0B4013600F20FFF742FC08BDC0460C000840BC02002004000840FF1FDFFF0800084000FF80FF03231840024B1A68400210431860704704000840CA0807238E
:401280001940063B8B40191C835C194201D0012000E000207047C04610B5041C0134E4B2012C06D004480830211CFFF7E7FF0028F4D0201C10BDC046BC02002010B5CC08E9
:4012C00007231940063B8B40D9B2002A04D0041923781943217003E0041923788B43237010BDC04670B5061C002400250BE0301CFFF782FFFFF7E0FE0128FBD0301CFFF71A
:40130000E3FE24180135002DF1D0A0B270BDC046F8B5051C0F1C1618002333708024337823433370281CFFF7DDFFB84202D23378A34333706408F2D1F8BDC046014B1954E7
:401340007047C046F002002010B5002404E0201C0021FFF7F3FF0134002CF8D0FFF74AFE0020FFF781FFFFF7F7FE10BD38B51F4B5B7A002B04D1FFF7E7FF01221B4B5A727A
:40138000FFF77CFE1A4A11681A4B0B40136000240FE0194D6B889800C31818011818642100F05AFC011C2A1C0C32201CFFF7B0FF0134002CEDD0002208E00F4989180B7BA1
:4013C0005808087401335B080B730132002AF4D0074A1368802149040B431360074A13688021C9030B43136038BDC046BC02002008000840FFFFFFFCF801002004000840DF
:40140000034B1B68002B02DA0122024B1A70704704000840C802002008B5FFF7F1FF0F20FFF760FB064A1168064B0B40136013685B005B08136000F0F9F900F0DBF908BDDB
:4014400004000840FFEFF7FF08B500F0E5F900F0C7F9034B1B78002B01D0FFF70FFE08BDC802002030B5094B1B5C42000849545A0849545208180025057105720648C05CEE
:40148000CB181873054BD45230BDC046C8220000C0020020CC02002010020020F802002010B5041CFFF7A8FEFFF706FE0028FBD1201CFFF7D7FF10BD10B5002403E0201C03
:4014C000FFF7EEFF0134002CF9D010BDF0B5474680B4041C214B1D5C214B5A191779167B5B5D98461F481030211CFFF7C7FE002810D01C4B1B191B7ABE1BB34223DA194E08
:40150000301C1030211C0022FFF7D8FE751943462B7318E0134B1B191B7ABE19B3420EDB104B5D192B7B013BDBB22B73002B0AD10C481030211C0122FFF7C0FE03E0094BA8
:401540005D1943462B7307481030211CFFF796FE002800D0012004BC9046F0BDC822000010020020CC02002008B50020FFF7AEFF002800D0012008BD08B503480021012268
:40158000FFF79CFE08BDC046C402002043184900C818800880B27047F0B54F464646C0B483B0041C354B1E5C354B9A19127A91464100344A8A5A5B7D002B07D0324D0F1CB1
:4015C000495B101CFFF7E2FF021C785363002F49595A914206D800202D4B1855551AADB2012702E08D1AADB20027002F16D1244B9B191B7CAB4211D2254B1B5D204A1219F5
:40160000127D934206D3201CFFF72CFF0022204B1A5516E001331E4A135512E00B021B488046A446C444604600790343D018401A020A63004146CA52634618710022144B94
:401640001A554B466A46D380D688AE420CD2002F0AD0FF2D04D90D4B1C19FF23237207E00A4B1C19257203E0084B1C190023237203B00CBC90469946F0BDC046C8220000ED
:4016800010020020C0020020F8020020CC020020F402002008B5FFF77FFF08BD10B50F20FFF720FA01221E4B1A601E4B1878C0B2FFF7B0FD1C4B1B785BB2002B05DA1A4A75
:4016C000137801218B43137025E0164C2078C0B2FFF7E2FD20702378002B05D1114B1878C0B2FFF743FD16E00F4B1A7801218A431A701B785B060ED500220C4B1A7006E0CB
:401700000B4AD15C0B4AD1540133084A1370074B1B78002BF4D00F20FFF7DAF910BDC04614000840C2020020BC020020E0020020EC020020C4020020034A136838218B4302
:40174000C0001843106070470801044004490A68FD231A404000FB3B184010430860704700010440014B58667047C0460000002010B5041C00F066FA044A1168044B0B409F
:40178000A4031C43146000F061FA10BD08E400E0FF3FFFFF80229200014B1A607047C04600E100E080229200014B1A607047C04680E100E010B5041CFFF7F4FF201CFFF71F
:4017C000D1FF0320FFF7D4FFFFF7E4FF10BDC04680229200014B1A607047C04680E200E0034A1368802109060B4313607047C04600000240024A13685B005B0813607047A1
:4018000000000240034A13681B0C1B04184310607047C04600000240034A1368802109060B4313607047C04640000240024A13685B005B081360704740000240034A13681D
:401840001B0C1B04184310607047C04640000240034A1168034B0B40400518431060704708000440FFFF1FFF044A11687F230B40C001C0B2184310607047C04600000440D7
:40188000034A1168034B0B40800418431060704708000440FFFFE3FF04490A68BF231A4080017F3B18401043086070470000044008B500F0AFF808BD08B500F0BDF808BD13
:4018C00008B500F059F808BD08B5044A1368802109060B431360FFF7EBFF08BD0000064008B5064B1B78002B04D1FFF7E9FF0122024B1A70FFF7E8FF08BDC046E20200201E
:4019000008B5FFF7D9FF044A13685B005B0813600022024B1A6008BD00000640880F0640014B18687047C04640030640024B1B680F2018407047C04608030640054B1A6808
:40194000802149020A431A601968034A0A401A607047C04604030640FFFFFEFF044B1B680F221340082BF9D0024B18607047C046080206404002064010B5144A144B1A6075
:401980000023144A13600121134A1160134A14480260072413480460134803601348016013490A60134A1360134A1360134A1360134A1360134A13600421134A1160134A9E
:4019C00013601268124B1A8010BDC0460B00000200000640400006404800064007000080000306400403064010030640440006400002064004020640880E0640C80E06403D
:401A0000480F0640080F0640C80F0640880F0640E402002005490B68F0229343603A13430B60034B1A88034B1A60704710000140E4020020880F0640064A1368F0218B435B
:401A40001360054B1A68E423DB001340034A13807047C04610000140880F0640E402002008B5FFF763FF002802D0FFF759FF01E0054B1868054A1368D82189000B40116005
:401A80001B02184308BDC04640030640C00F0640014B58647047C0460000002010B5041C00F0D0F8044A1168044B0B40A4031C43146000F0CBF810BD00E400E0FF3FFFFF68
:401AC0000222014B1A60704700E100E00222014B1A60704780E100E010B5041CFFF7F6FF201CFFF7D5FF0320FFF7D8FFFFF7E8FF10BDC0460222014B1A60704780E200E049
:401B0000034A10680423184010608008C0B2704710010440034A1168034B0B40800418431060704708030440FFFFE3FF04490A68BF231A4080017F3B184010430860704757
:401B400000030440034A1168034B0B40400518431060704708030440FFFF1FFF044A11687F230B40C001C0B2184310607047C04600030440014B98667047C04600000020B0
:401B800010B5041C00F05EF8044A1168044B0B40A4051C43146000F059F810BD08E400E0FFFF3FFF8022D200014B1A607047C04600E100E08022D200014B1A607047C04658
:401BC00080E100E010B5041CFFF7F4FF201CFFF7D1FF0020FFF7D4FFFFF7E4FF10BDC0468022D200014B1A607047C04680E200E0034A136838218B43C000184310607047D5
:401C00000804044004490A68FD231A404000FB3B184010430860704700040440034A136807218B43184310607047C046080404400230800804D0C0460138FDD1C046C04656
:401C4000C0467047EFF3108072B6704780F310887047C046C046C046002243088B4274D303098B425FD3030A8B4244D3030B8B4228D3030C8B420DD3FF22090212BA030C6C
:401C80008B4202D31212090265D0030B8B4219D300E0090AC30B8B4201D3CB03C01A5241830B8B4201D38B03C01A5241430B8B4201D34B03C01A5241030B8B4201D30B0329
:401CC000C01A5241C30A8B4201D3CB02C01A5241830A8B4201D38B02C01A5241430A8B4201D34B02C01A5241030A8B4201D30B02C01A5241CDD2C3098B4201D3CB01C01A25
:401D0000524183098B4201D38B01C01A524143098B4201D34B01C01A524103098B4201D30B01C01A5241C3088B4201D3CB00C01A524183088B4201D38B00C01A524143080B
:401D40008B4201D34B00C01A5241411A00D20146524110467047FFE701B5002000F00CF802BDC0460029F7D003B5FFF775FF0EBC4243891A1847C0467047C046014B18688F
:401D80007047C046880200200E4B70B500251E1C0D4CE41AA410A54204D0AB00F35898470135F8E700F09AFA084B00251E1C084CE41AA410A54204D0AB00F358984701352D
:401DC000F8E770BDE8220000E8220000E8220000F0220000031C8218934202D019700133FAE7704700000000D604000010050000200500004A050000A2050000AC05000037
:401E000004080000D6070000DE070000E8070000F2070000FC07000000000000070000000E000000090000001C0000001B0000001200000015000000380000003F000000F6
:401E4000360000003100000024000000230000002A0000002D00000070000000770000007E000000790000006C0000006B0000006200000065000000480000004F0000004A
:401E8000460000004100000054000000530000005A0000005D000000E0000000E7000000EE000000E9000000FC000000FB000000F2000000F5000000D8000000DF0000000A
:401EC000D6000000D1000000C4000000C3000000CA000000CD00000090000000970000009E000000990000008C0000008B0000008200000085000000A8000000AF0000004A
:401F0000A6000000A1000000B4000000B3000000BA000000BD000000C7000000C0000000C9000000CE000000DB000000DC000000D5000000D2000000FF000000F800000009
:401F4000F1000000F6000000E3000000E4000000ED000000EA000000B7000000B0000000B9000000BE000000AB000000AC000000A5000000A20000008F0000008800000049
:401F8000810000008600000093000000940000009D0000009A0000002700000020000000290000002E0000003B0000003C00000035000000320000001F0000001800000009
:401FC000110000001600000003000000040000000D0000000A0000005700000050000000590000005E0000004B0000004C00000045000000420000006F0000006800000049
:40200000610000006600000073000000740000007D0000007A000000890000008E000000870000008000000095000000920000009B0000009C000000B1000000B600000018
:40204000BF000000B8000000AD000000AA000000A3000000A4000000F9000000FE000000F7000000F0000000E5000000E2000000EB000000EC000000C1000000C600000048
:40208000CF000000C8000000DD000000DA000000D3000000D4000000690000006E000000670000006000000075000000720000007B0000007C000000510000005600000008
:4020C0005F000000580000004D0000004A0000004300000044000000190000001E000000170000001000000005000000020000000B0000000C000000210000002600000048
:402100002F000000280000003D0000003A00000033000000340000004E00000049000000400000004700000052000000550000005C0000005B000000760000007100000007
:40214000780000007F0000006A0000006D00000064000000630000003E00000039000000300000003700000022000000250000002C0000002B000000060000000100000047
:40218000080000000F0000001A0000001D0000001400000013000000AE000000A9000000A0000000A7000000B2000000B5000000BC000000BB000000960000009100000007
:4021C000980000009F0000008A0000008D0000008400000083000000DE000000D9000000D0000000D7000000C2000000C5000000CC000000CB000000E6000000E100000047
:40220000E8000000EF000000FA000000FD000000F4000000F300000000300F40000400400F40000404320F4002330F4003420F4007430F4002600F40B880BE40D804DF01FA
:4022400018018C016C407008DC0361028C488D029480A408D802E40802011101030405060708090A0B0C0E0F101112131415161718191B1C1D1E1F20212223252627282945
:402280002A2B2E2F303132333435000008000440080104400802044008030440080404400000014004000140080001400C000140100001400000044000010440000204407B
:4022C00000030440000404400000000001000000020000000300000043000000F8B5C046F8BC08BC9E4670471D02000099090000F8B5C046F8BC08BC9E467047F5010000C3
:4023000010230000C8000020C801000070000000000000005500000000000000070000000000000001000000F6000000AF000000450000004C000000450000004100000030
:40234000200000005500000000000000070000000000000001000000F6000000B0000000450000004C000000450000004100000020000000550000000000000007000000A7
:402380000000000001000000F6000000F2000000450000004C0000004500000041000000200000005500000000000000070000000000000001000000F6000000F1000000B9
:4023C000450000004C0000004500000041000000200000005500000000000000070000000000000001000000F6000000F0000000450000004C00000045000000410000004C
:402400002000000055000000000000000500000000000000050000000100000000000000FF000000FF000000FF000000010000000000E02EC05D00001800000000366E0136
:402440000000FF0F0200000002000000500000005000000008030440010000001E0000001E00000005000000320000001E01000000000000000000000000000000000000C8
:4024800000000000000000000000000000000000D8220000000000000000000000000000000000000000000000000000000000000000000000000000000000000000000022
:4024C0000000000000000000000000000000000028020020000000000000000000000000000000000000000000000000000000000000000000000000000000000000000092
:40250000000000000000000000000000000000000000000000000000000000000000000000000000000000000000000000000000000000000000000000000000000000009B
:40254000000000000000000000000000000000000000000000000000000000000000000000000000000000000000000000000000000000000000000000000000000000005B
:40258000000000000000000000000000000000000000000000000000000000000000000000000000000000000000000000000000000000000000000000000000000000001B
:4025C00000000000000000000000000000000000000000000000000000000000000000000000000000000000000000000000000000000000000000000000000000000000DB
:0200000490303A
:020000003BF5CE
:0200000490402A
:1000000000000000000000000000000000000000F0
:0200000490501A
:0C0000000002041A1193110004254D8821
:0200000490600A
:0100000001FE
:00000001FF