ARM GAS  C:\Users\Elea\AppData\Local\Temp\cc9RSUeu.s 			page 1


   1              		.cpu cortex-m0
   2              		.fpu softvfp
   3              		.eabi_attribute 20, 1
   4              		.eabi_attribute 21, 1
   5              		.eabi_attribute 23, 3
   6              		.eabi_attribute 24, 1
   7              		.eabi_attribute 25, 1
   8              		.eabi_attribute 26, 1
   9              		.eabi_attribute 30, 1
  10              		.eabi_attribute 34, 0
  11              		.eabi_attribute 18, 4
  12              		.code	16
  13              		.file	"EnoUART_SPI_UART.c"
  14              		.text
  15              	.Ltext0:
  16              		.cfi_sections	.debug_frame
  17              		.section	.text.EnoUART_SpiUartReadRxData,"ax",%progbits
  18              		.align	2
  19              		.global	EnoUART_SpiUartReadRxData
  20              		.code	16
  21              		.thumb_func
  22              		.type	EnoUART_SpiUartReadRxData, %function
  23              	EnoUART_SpiUartReadRxData:
  24              	.LFB0:
  25              		.file 1 "Generated_Source\\PSoC4\\EnoUART_SPI_UART.c"
   1:Generated_Source\PSoC4/EnoUART_SPI_UART.c **** /***************************************************************************//**
   2:Generated_Source\PSoC4/EnoUART_SPI_UART.c **** * \file EnoUART_SPI_UART.c
   3:Generated_Source\PSoC4/EnoUART_SPI_UART.c **** * \version 3.20
   4:Generated_Source\PSoC4/EnoUART_SPI_UART.c **** *
   5:Generated_Source\PSoC4/EnoUART_SPI_UART.c **** * \brief
   6:Generated_Source\PSoC4/EnoUART_SPI_UART.c **** *  This file provides the source code to the API for the SCB Component in
   7:Generated_Source\PSoC4/EnoUART_SPI_UART.c **** *  SPI and UART modes.
   8:Generated_Source\PSoC4/EnoUART_SPI_UART.c **** *
   9:Generated_Source\PSoC4/EnoUART_SPI_UART.c **** * Note:
  10:Generated_Source\PSoC4/EnoUART_SPI_UART.c **** *
  11:Generated_Source\PSoC4/EnoUART_SPI_UART.c **** *******************************************************************************
  12:Generated_Source\PSoC4/EnoUART_SPI_UART.c **** * \copyright
  13:Generated_Source\PSoC4/EnoUART_SPI_UART.c **** * Copyright 2013-2016, Cypress Semiconductor Corporation.  All rights reserved.
  14:Generated_Source\PSoC4/EnoUART_SPI_UART.c **** * You may use this file only in accordance with the license, terms, conditions,
  15:Generated_Source\PSoC4/EnoUART_SPI_UART.c **** * disclaimers, and limitations in the end user license agreement accompanying
  16:Generated_Source\PSoC4/EnoUART_SPI_UART.c **** * the software package with which this file was provided.
  17:Generated_Source\PSoC4/EnoUART_SPI_UART.c **** *******************************************************************************/
  18:Generated_Source\PSoC4/EnoUART_SPI_UART.c **** 
  19:Generated_Source\PSoC4/EnoUART_SPI_UART.c **** #include "EnoUART_PVT.h"
  20:Generated_Source\PSoC4/EnoUART_SPI_UART.c **** #include "EnoUART_SPI_UART_PVT.h"
  21:Generated_Source\PSoC4/EnoUART_SPI_UART.c **** 
  22:Generated_Source\PSoC4/EnoUART_SPI_UART.c **** /***************************************
  23:Generated_Source\PSoC4/EnoUART_SPI_UART.c **** *        SPI/UART Private Vars
  24:Generated_Source\PSoC4/EnoUART_SPI_UART.c **** ***************************************/
  25:Generated_Source\PSoC4/EnoUART_SPI_UART.c **** 
  26:Generated_Source\PSoC4/EnoUART_SPI_UART.c **** #if(EnoUART_INTERNAL_RX_SW_BUFFER_CONST)
  27:Generated_Source\PSoC4/EnoUART_SPI_UART.c ****     /* Start index to put data into the software receive buffer.*/
  28:Generated_Source\PSoC4/EnoUART_SPI_UART.c ****     volatile uint32 EnoUART_rxBufferHead;
  29:Generated_Source\PSoC4/EnoUART_SPI_UART.c ****     /* Start index to get data from the software receive buffer.*/
  30:Generated_Source\PSoC4/EnoUART_SPI_UART.c ****     volatile uint32 EnoUART_rxBufferTail;
  31:Generated_Source\PSoC4/EnoUART_SPI_UART.c ****     /**
  32:Generated_Source\PSoC4/EnoUART_SPI_UART.c ****     * \addtogroup group_globals
ARM GAS  C:\Users\Elea\AppData\Local\Temp\cc9RSUeu.s 			page 2


  33:Generated_Source\PSoC4/EnoUART_SPI_UART.c ****     * \{
  34:Generated_Source\PSoC4/EnoUART_SPI_UART.c ****     */
  35:Generated_Source\PSoC4/EnoUART_SPI_UART.c ****     /** Sets when internal software receive buffer overflow
  36:Generated_Source\PSoC4/EnoUART_SPI_UART.c ****     *  was occurred.
  37:Generated_Source\PSoC4/EnoUART_SPI_UART.c ****     */
  38:Generated_Source\PSoC4/EnoUART_SPI_UART.c ****     volatile uint8  EnoUART_rxBufferOverflow;
  39:Generated_Source\PSoC4/EnoUART_SPI_UART.c ****     /** \} globals */
  40:Generated_Source\PSoC4/EnoUART_SPI_UART.c **** #endif /* (EnoUART_INTERNAL_RX_SW_BUFFER_CONST) */
  41:Generated_Source\PSoC4/EnoUART_SPI_UART.c **** 
  42:Generated_Source\PSoC4/EnoUART_SPI_UART.c **** #if(EnoUART_INTERNAL_TX_SW_BUFFER_CONST)
  43:Generated_Source\PSoC4/EnoUART_SPI_UART.c ****     /* Start index to put data into the software transmit buffer.*/
  44:Generated_Source\PSoC4/EnoUART_SPI_UART.c ****     volatile uint32 EnoUART_txBufferHead;
  45:Generated_Source\PSoC4/EnoUART_SPI_UART.c ****     /* Start index to get data from the software transmit buffer.*/
  46:Generated_Source\PSoC4/EnoUART_SPI_UART.c ****     volatile uint32 EnoUART_txBufferTail;
  47:Generated_Source\PSoC4/EnoUART_SPI_UART.c **** #endif /* (EnoUART_INTERNAL_TX_SW_BUFFER_CONST) */
  48:Generated_Source\PSoC4/EnoUART_SPI_UART.c **** 
  49:Generated_Source\PSoC4/EnoUART_SPI_UART.c **** #if(EnoUART_INTERNAL_RX_SW_BUFFER)
  50:Generated_Source\PSoC4/EnoUART_SPI_UART.c ****     /* Add one element to the buffer to receive full packet. One byte in receive buffer is always e
  51:Generated_Source\PSoC4/EnoUART_SPI_UART.c ****     volatile uint8 EnoUART_rxBufferInternal[EnoUART_INTERNAL_RX_BUFFER_SIZE];
  52:Generated_Source\PSoC4/EnoUART_SPI_UART.c **** #endif /* (EnoUART_INTERNAL_RX_SW_BUFFER) */
  53:Generated_Source\PSoC4/EnoUART_SPI_UART.c **** 
  54:Generated_Source\PSoC4/EnoUART_SPI_UART.c **** #if(EnoUART_INTERNAL_TX_SW_BUFFER)
  55:Generated_Source\PSoC4/EnoUART_SPI_UART.c ****     volatile uint8 EnoUART_txBufferInternal[EnoUART_TX_BUFFER_SIZE];
  56:Generated_Source\PSoC4/EnoUART_SPI_UART.c **** #endif /* (EnoUART_INTERNAL_TX_SW_BUFFER) */
  57:Generated_Source\PSoC4/EnoUART_SPI_UART.c **** 
  58:Generated_Source\PSoC4/EnoUART_SPI_UART.c **** 
  59:Generated_Source\PSoC4/EnoUART_SPI_UART.c **** #if(EnoUART_RX_DIRECTION)
  60:Generated_Source\PSoC4/EnoUART_SPI_UART.c ****     /*******************************************************************************
  61:Generated_Source\PSoC4/EnoUART_SPI_UART.c ****     * Function Name: EnoUART_SpiUartReadRxData
  62:Generated_Source\PSoC4/EnoUART_SPI_UART.c ****     ****************************************************************************//**
  63:Generated_Source\PSoC4/EnoUART_SPI_UART.c ****     *
  64:Generated_Source\PSoC4/EnoUART_SPI_UART.c ****     *  Retrieves the next data element from the receive buffer.
  65:Generated_Source\PSoC4/EnoUART_SPI_UART.c ****     *   - RX software buffer is disabled: Returns data element retrieved from
  66:Generated_Source\PSoC4/EnoUART_SPI_UART.c ****     *     RX FIFO. Undefined data will be returned if the RX FIFO is empty.
  67:Generated_Source\PSoC4/EnoUART_SPI_UART.c ****     *   - RX software buffer is enabled: Returns data element from the software
  68:Generated_Source\PSoC4/EnoUART_SPI_UART.c ****     *     receive buffer. Zero value is returned if the software receive buffer
  69:Generated_Source\PSoC4/EnoUART_SPI_UART.c ****     *     is empty.
  70:Generated_Source\PSoC4/EnoUART_SPI_UART.c ****     *
  71:Generated_Source\PSoC4/EnoUART_SPI_UART.c ****     * \return
  72:Generated_Source\PSoC4/EnoUART_SPI_UART.c ****     *  Next data element from the receive buffer. 
  73:Generated_Source\PSoC4/EnoUART_SPI_UART.c ****     *  The amount of data bits to be received depends on RX data bits selection 
  74:Generated_Source\PSoC4/EnoUART_SPI_UART.c ****     *  (the data bit counting starts from LSB of return value).
  75:Generated_Source\PSoC4/EnoUART_SPI_UART.c ****     *
  76:Generated_Source\PSoC4/EnoUART_SPI_UART.c ****     * \globalvars
  77:Generated_Source\PSoC4/EnoUART_SPI_UART.c ****     *  EnoUART_rxBufferHead - the start index to put data into the 
  78:Generated_Source\PSoC4/EnoUART_SPI_UART.c ****     *  software receive buffer.
  79:Generated_Source\PSoC4/EnoUART_SPI_UART.c ****     *  EnoUART_rxBufferTail - the start index to get data from the 
  80:Generated_Source\PSoC4/EnoUART_SPI_UART.c ****     *  software receive buffer.
  81:Generated_Source\PSoC4/EnoUART_SPI_UART.c ****     *
  82:Generated_Source\PSoC4/EnoUART_SPI_UART.c ****     *******************************************************************************/
  83:Generated_Source\PSoC4/EnoUART_SPI_UART.c ****     uint32 EnoUART_SpiUartReadRxData(void)
  84:Generated_Source\PSoC4/EnoUART_SPI_UART.c ****     {
  26              		.loc 1 84 0
  27              		.cfi_startproc
  28              	.LVL0:
  85:Generated_Source\PSoC4/EnoUART_SPI_UART.c ****         uint32 rxData = 0u;
  86:Generated_Source\PSoC4/EnoUART_SPI_UART.c **** 
ARM GAS  C:\Users\Elea\AppData\Local\Temp\cc9RSUeu.s 			page 3


  87:Generated_Source\PSoC4/EnoUART_SPI_UART.c ****     #if (EnoUART_INTERNAL_RX_SW_BUFFER_CONST)
  88:Generated_Source\PSoC4/EnoUART_SPI_UART.c ****         uint32 locTail;
  89:Generated_Source\PSoC4/EnoUART_SPI_UART.c ****     #endif /* (EnoUART_INTERNAL_RX_SW_BUFFER_CONST) */
  90:Generated_Source\PSoC4/EnoUART_SPI_UART.c **** 
  91:Generated_Source\PSoC4/EnoUART_SPI_UART.c ****         #if (EnoUART_CHECK_RX_SW_BUFFER)
  92:Generated_Source\PSoC4/EnoUART_SPI_UART.c ****         {
  93:Generated_Source\PSoC4/EnoUART_SPI_UART.c ****             if (EnoUART_rxBufferHead != EnoUART_rxBufferTail)
  94:Generated_Source\PSoC4/EnoUART_SPI_UART.c ****             {
  95:Generated_Source\PSoC4/EnoUART_SPI_UART.c ****                 /* There is data in RX software buffer */
  96:Generated_Source\PSoC4/EnoUART_SPI_UART.c **** 
  97:Generated_Source\PSoC4/EnoUART_SPI_UART.c ****                 /* Calculate index to read from */
  98:Generated_Source\PSoC4/EnoUART_SPI_UART.c ****                 locTail = (EnoUART_rxBufferTail + 1u);
  99:Generated_Source\PSoC4/EnoUART_SPI_UART.c **** 
 100:Generated_Source\PSoC4/EnoUART_SPI_UART.c ****                 if (EnoUART_INTERNAL_RX_BUFFER_SIZE == locTail)
 101:Generated_Source\PSoC4/EnoUART_SPI_UART.c ****                 {
 102:Generated_Source\PSoC4/EnoUART_SPI_UART.c ****                     locTail = 0u;
 103:Generated_Source\PSoC4/EnoUART_SPI_UART.c ****                 }
 104:Generated_Source\PSoC4/EnoUART_SPI_UART.c **** 
 105:Generated_Source\PSoC4/EnoUART_SPI_UART.c ****                 /* Get data from RX software buffer */
 106:Generated_Source\PSoC4/EnoUART_SPI_UART.c ****                 rxData = EnoUART_GetWordFromRxBuffer(locTail);
 107:Generated_Source\PSoC4/EnoUART_SPI_UART.c **** 
 108:Generated_Source\PSoC4/EnoUART_SPI_UART.c ****                 /* Change index in the buffer */
 109:Generated_Source\PSoC4/EnoUART_SPI_UART.c ****                 EnoUART_rxBufferTail = locTail;
 110:Generated_Source\PSoC4/EnoUART_SPI_UART.c **** 
 111:Generated_Source\PSoC4/EnoUART_SPI_UART.c ****                 #if (EnoUART_CHECK_UART_RTS_CONTROL_FLOW)
 112:Generated_Source\PSoC4/EnoUART_SPI_UART.c ****                 {
 113:Generated_Source\PSoC4/EnoUART_SPI_UART.c ****                     /* Check if RX Not Empty is disabled in the interrupt */
 114:Generated_Source\PSoC4/EnoUART_SPI_UART.c ****                     if (0u == (EnoUART_INTR_RX_MASK_REG & EnoUART_INTR_RX_NOT_EMPTY))
 115:Generated_Source\PSoC4/EnoUART_SPI_UART.c ****                     {
 116:Generated_Source\PSoC4/EnoUART_SPI_UART.c ****                         /* Enable RX Not Empty interrupt source to continue
 117:Generated_Source\PSoC4/EnoUART_SPI_UART.c ****                         * receiving data into software buffer.
 118:Generated_Source\PSoC4/EnoUART_SPI_UART.c ****                         */
 119:Generated_Source\PSoC4/EnoUART_SPI_UART.c ****                         EnoUART_INTR_RX_MASK_REG |= EnoUART_INTR_RX_NOT_EMPTY;
 120:Generated_Source\PSoC4/EnoUART_SPI_UART.c ****                     }
 121:Generated_Source\PSoC4/EnoUART_SPI_UART.c ****                 }
 122:Generated_Source\PSoC4/EnoUART_SPI_UART.c ****                 #endif
 123:Generated_Source\PSoC4/EnoUART_SPI_UART.c **** 
 124:Generated_Source\PSoC4/EnoUART_SPI_UART.c ****             }
 125:Generated_Source\PSoC4/EnoUART_SPI_UART.c ****         }
 126:Generated_Source\PSoC4/EnoUART_SPI_UART.c ****         #else
 127:Generated_Source\PSoC4/EnoUART_SPI_UART.c ****         {
 128:Generated_Source\PSoC4/EnoUART_SPI_UART.c ****             /* Read data from RX FIFO */
 129:Generated_Source\PSoC4/EnoUART_SPI_UART.c ****             rxData = EnoUART_RX_FIFO_RD_REG;
  29              		.loc 1 129 0
  30 0000 014B     		ldr	r3, .L2
  31 0002 1868     		ldr	r0, [r3]
  32              	.LVL1:
 130:Generated_Source\PSoC4/EnoUART_SPI_UART.c ****         }
 131:Generated_Source\PSoC4/EnoUART_SPI_UART.c ****         #endif
 132:Generated_Source\PSoC4/EnoUART_SPI_UART.c **** 
 133:Generated_Source\PSoC4/EnoUART_SPI_UART.c ****         return (rxData);
 134:Generated_Source\PSoC4/EnoUART_SPI_UART.c ****     }
  33              		.loc 1 134 0
  34              		@ sp needed
  35 0004 7047     		bx	lr
  36              	.L3:
  37 0006 C046     		.align	2
ARM GAS  C:\Users\Elea\AppData\Local\Temp\cc9RSUeu.s 			page 4


  38              	.L2:
  39 0008 40030640 		.word	1074135872
  40              		.cfi_endproc
  41              	.LFE0:
  42              		.size	EnoUART_SpiUartReadRxData, .-EnoUART_SpiUartReadRxData
  43              		.section	.text.EnoUART_SpiUartGetRxBufferSize,"ax",%progbits
  44              		.align	2
  45              		.global	EnoUART_SpiUartGetRxBufferSize
  46              		.code	16
  47              		.thumb_func
  48              		.type	EnoUART_SpiUartGetRxBufferSize, %function
  49              	EnoUART_SpiUartGetRxBufferSize:
  50              	.LFB1:
 135:Generated_Source\PSoC4/EnoUART_SPI_UART.c **** 
 136:Generated_Source\PSoC4/EnoUART_SPI_UART.c **** 
 137:Generated_Source\PSoC4/EnoUART_SPI_UART.c ****     /*******************************************************************************
 138:Generated_Source\PSoC4/EnoUART_SPI_UART.c ****     * Function Name: EnoUART_SpiUartGetRxBufferSize
 139:Generated_Source\PSoC4/EnoUART_SPI_UART.c ****     ****************************************************************************//**
 140:Generated_Source\PSoC4/EnoUART_SPI_UART.c ****     *
 141:Generated_Source\PSoC4/EnoUART_SPI_UART.c ****     *  Returns the number of received data elements in the receive buffer.
 142:Generated_Source\PSoC4/EnoUART_SPI_UART.c ****     *   - RX software buffer disabled: returns the number of used entries in
 143:Generated_Source\PSoC4/EnoUART_SPI_UART.c ****     *     RX FIFO.
 144:Generated_Source\PSoC4/EnoUART_SPI_UART.c ****     *   - RX software buffer enabled: returns the number of elements which were
 145:Generated_Source\PSoC4/EnoUART_SPI_UART.c ****     *     placed in the receive buffer. This does not include the hardware RX FIFO.
 146:Generated_Source\PSoC4/EnoUART_SPI_UART.c ****     *
 147:Generated_Source\PSoC4/EnoUART_SPI_UART.c ****     * \return
 148:Generated_Source\PSoC4/EnoUART_SPI_UART.c ****     *  Number of received data elements.
 149:Generated_Source\PSoC4/EnoUART_SPI_UART.c ****     *
 150:Generated_Source\PSoC4/EnoUART_SPI_UART.c ****     * \globalvars
 151:Generated_Source\PSoC4/EnoUART_SPI_UART.c ****     *  EnoUART_rxBufferHead - the start index to put data into the 
 152:Generated_Source\PSoC4/EnoUART_SPI_UART.c ****     *  software receive buffer.
 153:Generated_Source\PSoC4/EnoUART_SPI_UART.c ****     *  EnoUART_rxBufferTail - the start index to get data from the 
 154:Generated_Source\PSoC4/EnoUART_SPI_UART.c ****     *  software receive buffer.
 155:Generated_Source\PSoC4/EnoUART_SPI_UART.c ****     *
 156:Generated_Source\PSoC4/EnoUART_SPI_UART.c ****     *******************************************************************************/
 157:Generated_Source\PSoC4/EnoUART_SPI_UART.c ****     uint32 EnoUART_SpiUartGetRxBufferSize(void)
 158:Generated_Source\PSoC4/EnoUART_SPI_UART.c ****     {
  51              		.loc 1 158 0
  52              		.cfi_startproc
 159:Generated_Source\PSoC4/EnoUART_SPI_UART.c ****         uint32 size;
 160:Generated_Source\PSoC4/EnoUART_SPI_UART.c ****     #if (EnoUART_INTERNAL_RX_SW_BUFFER_CONST)
 161:Generated_Source\PSoC4/EnoUART_SPI_UART.c ****         uint32 locHead;
 162:Generated_Source\PSoC4/EnoUART_SPI_UART.c ****     #endif /* (EnoUART_INTERNAL_RX_SW_BUFFER_CONST) */
 163:Generated_Source\PSoC4/EnoUART_SPI_UART.c **** 
 164:Generated_Source\PSoC4/EnoUART_SPI_UART.c ****         #if (EnoUART_CHECK_RX_SW_BUFFER)
 165:Generated_Source\PSoC4/EnoUART_SPI_UART.c ****         {
 166:Generated_Source\PSoC4/EnoUART_SPI_UART.c ****             locHead = EnoUART_rxBufferHead;
 167:Generated_Source\PSoC4/EnoUART_SPI_UART.c **** 
 168:Generated_Source\PSoC4/EnoUART_SPI_UART.c ****             if(locHead >= EnoUART_rxBufferTail)
 169:Generated_Source\PSoC4/EnoUART_SPI_UART.c ****             {
 170:Generated_Source\PSoC4/EnoUART_SPI_UART.c ****                 size = (locHead - EnoUART_rxBufferTail);
 171:Generated_Source\PSoC4/EnoUART_SPI_UART.c ****             }
 172:Generated_Source\PSoC4/EnoUART_SPI_UART.c ****             else
 173:Generated_Source\PSoC4/EnoUART_SPI_UART.c ****             {
 174:Generated_Source\PSoC4/EnoUART_SPI_UART.c ****                 size = (locHead + (EnoUART_INTERNAL_RX_BUFFER_SIZE - EnoUART_rxBufferTail));
 175:Generated_Source\PSoC4/EnoUART_SPI_UART.c ****             }
 176:Generated_Source\PSoC4/EnoUART_SPI_UART.c ****         }
ARM GAS  C:\Users\Elea\AppData\Local\Temp\cc9RSUeu.s 			page 5


 177:Generated_Source\PSoC4/EnoUART_SPI_UART.c ****         #else
 178:Generated_Source\PSoC4/EnoUART_SPI_UART.c ****         {
 179:Generated_Source\PSoC4/EnoUART_SPI_UART.c ****             size = EnoUART_GET_RX_FIFO_ENTRIES;
  53              		.loc 1 179 0
  54 0000 024B     		ldr	r3, .L5
  55 0002 1B68     		ldr	r3, [r3]
  56 0004 0F20     		mov	r0, #15
  57 0006 1840     		and	r0, r3
  58              	.LVL2:
 180:Generated_Source\PSoC4/EnoUART_SPI_UART.c ****         }
 181:Generated_Source\PSoC4/EnoUART_SPI_UART.c ****         #endif
 182:Generated_Source\PSoC4/EnoUART_SPI_UART.c **** 
 183:Generated_Source\PSoC4/EnoUART_SPI_UART.c ****         return (size);
 184:Generated_Source\PSoC4/EnoUART_SPI_UART.c ****     }
  59              		.loc 1 184 0
  60              		@ sp needed
  61 0008 7047     		bx	lr
  62              	.L6:
  63 000a C046     		.align	2
  64              	.L5:
  65 000c 08030640 		.word	1074135816
  66              		.cfi_endproc
  67              	.LFE1:
  68              		.size	EnoUART_SpiUartGetRxBufferSize, .-EnoUART_SpiUartGetRxBufferSize
  69              		.section	.text.EnoUART_SpiUartClearRxBuffer,"ax",%progbits
  70              		.align	2
  71              		.global	EnoUART_SpiUartClearRxBuffer
  72              		.code	16
  73              		.thumb_func
  74              		.type	EnoUART_SpiUartClearRxBuffer, %function
  75              	EnoUART_SpiUartClearRxBuffer:
  76              	.LFB2:
 185:Generated_Source\PSoC4/EnoUART_SPI_UART.c **** 
 186:Generated_Source\PSoC4/EnoUART_SPI_UART.c **** 
 187:Generated_Source\PSoC4/EnoUART_SPI_UART.c ****     /*******************************************************************************
 188:Generated_Source\PSoC4/EnoUART_SPI_UART.c ****     * Function Name: EnoUART_SpiUartClearRxBuffer
 189:Generated_Source\PSoC4/EnoUART_SPI_UART.c ****     ****************************************************************************//**
 190:Generated_Source\PSoC4/EnoUART_SPI_UART.c ****     *
 191:Generated_Source\PSoC4/EnoUART_SPI_UART.c ****     *  Clears the receive buffer and RX FIFO.
 192:Generated_Source\PSoC4/EnoUART_SPI_UART.c ****     *
 193:Generated_Source\PSoC4/EnoUART_SPI_UART.c ****     * \globalvars
 194:Generated_Source\PSoC4/EnoUART_SPI_UART.c ****     *  EnoUART_rxBufferHead - the start index to put data into the 
 195:Generated_Source\PSoC4/EnoUART_SPI_UART.c ****     *  software receive buffer.
 196:Generated_Source\PSoC4/EnoUART_SPI_UART.c ****     *  EnoUART_rxBufferTail - the start index to get data from the 
 197:Generated_Source\PSoC4/EnoUART_SPI_UART.c ****     *  software receive buffer.
 198:Generated_Source\PSoC4/EnoUART_SPI_UART.c ****     *
 199:Generated_Source\PSoC4/EnoUART_SPI_UART.c ****     *******************************************************************************/
 200:Generated_Source\PSoC4/EnoUART_SPI_UART.c ****     void EnoUART_SpiUartClearRxBuffer(void)
 201:Generated_Source\PSoC4/EnoUART_SPI_UART.c ****     {
  77              		.loc 1 201 0
  78              		.cfi_startproc
 202:Generated_Source\PSoC4/EnoUART_SPI_UART.c ****         #if (EnoUART_CHECK_RX_SW_BUFFER)
 203:Generated_Source\PSoC4/EnoUART_SPI_UART.c ****         {
 204:Generated_Source\PSoC4/EnoUART_SPI_UART.c ****             /* Lock from component interruption */
 205:Generated_Source\PSoC4/EnoUART_SPI_UART.c ****             EnoUART_DisableInt();
 206:Generated_Source\PSoC4/EnoUART_SPI_UART.c **** 
 207:Generated_Source\PSoC4/EnoUART_SPI_UART.c ****             /* Flush RX software buffer */
ARM GAS  C:\Users\Elea\AppData\Local\Temp\cc9RSUeu.s 			page 6


 208:Generated_Source\PSoC4/EnoUART_SPI_UART.c ****             EnoUART_rxBufferHead = EnoUART_rxBufferTail;
 209:Generated_Source\PSoC4/EnoUART_SPI_UART.c ****             EnoUART_rxBufferOverflow = 0u;
 210:Generated_Source\PSoC4/EnoUART_SPI_UART.c **** 
 211:Generated_Source\PSoC4/EnoUART_SPI_UART.c ****             EnoUART_CLEAR_RX_FIFO;
 212:Generated_Source\PSoC4/EnoUART_SPI_UART.c ****             EnoUART_ClearRxInterruptSource(EnoUART_INTR_RX_ALL);
 213:Generated_Source\PSoC4/EnoUART_SPI_UART.c **** 
 214:Generated_Source\PSoC4/EnoUART_SPI_UART.c ****             #if (EnoUART_CHECK_UART_RTS_CONTROL_FLOW)
 215:Generated_Source\PSoC4/EnoUART_SPI_UART.c ****             {
 216:Generated_Source\PSoC4/EnoUART_SPI_UART.c ****                 /* Enable RX Not Empty interrupt source to continue receiving
 217:Generated_Source\PSoC4/EnoUART_SPI_UART.c ****                 * data into software buffer.
 218:Generated_Source\PSoC4/EnoUART_SPI_UART.c ****                 */
 219:Generated_Source\PSoC4/EnoUART_SPI_UART.c ****                 EnoUART_INTR_RX_MASK_REG |= EnoUART_INTR_RX_NOT_EMPTY;
 220:Generated_Source\PSoC4/EnoUART_SPI_UART.c ****             }
 221:Generated_Source\PSoC4/EnoUART_SPI_UART.c ****             #endif
 222:Generated_Source\PSoC4/EnoUART_SPI_UART.c ****             
 223:Generated_Source\PSoC4/EnoUART_SPI_UART.c ****             /* Release lock */
 224:Generated_Source\PSoC4/EnoUART_SPI_UART.c ****             EnoUART_EnableInt();
 225:Generated_Source\PSoC4/EnoUART_SPI_UART.c ****         }
 226:Generated_Source\PSoC4/EnoUART_SPI_UART.c ****         #else
 227:Generated_Source\PSoC4/EnoUART_SPI_UART.c ****         {
 228:Generated_Source\PSoC4/EnoUART_SPI_UART.c ****             EnoUART_CLEAR_RX_FIFO;
  79              		.loc 1 228 0
  80 0000 054B     		ldr	r3, .L8
  81 0002 1A68     		ldr	r2, [r3]
  82 0004 8021     		mov	r1, #128
  83 0006 4902     		lsl	r1, r1, #9
  84 0008 0A43     		orr	r2, r1
  85 000a 1A60     		str	r2, [r3]
  86 000c 1968     		ldr	r1, [r3]
  87 000e 034A     		ldr	r2, .L8+4
  88 0010 0A40     		and	r2, r1
  89 0012 1A60     		str	r2, [r3]
 229:Generated_Source\PSoC4/EnoUART_SPI_UART.c ****         }
 230:Generated_Source\PSoC4/EnoUART_SPI_UART.c ****         #endif
 231:Generated_Source\PSoC4/EnoUART_SPI_UART.c ****     }
  90              		.loc 1 231 0
  91              		@ sp needed
  92 0014 7047     		bx	lr
  93              	.L9:
  94 0016 C046     		.align	2
  95              	.L8:
  96 0018 04030640 		.word	1074135812
  97 001c FFFFFEFF 		.word	-65537
  98              		.cfi_endproc
  99              	.LFE2:
 100              		.size	EnoUART_SpiUartClearRxBuffer, .-EnoUART_SpiUartClearRxBuffer
 101              		.section	.text.EnoUART_SpiUartWriteTxData,"ax",%progbits
 102              		.align	2
 103              		.global	EnoUART_SpiUartWriteTxData
 104              		.code	16
 105              		.thumb_func
 106              		.type	EnoUART_SpiUartWriteTxData, %function
 107              	EnoUART_SpiUartWriteTxData:
 108              	.LFB3:
 232:Generated_Source\PSoC4/EnoUART_SPI_UART.c **** 
 233:Generated_Source\PSoC4/EnoUART_SPI_UART.c **** #endif /* (EnoUART_RX_DIRECTION) */
 234:Generated_Source\PSoC4/EnoUART_SPI_UART.c **** 
ARM GAS  C:\Users\Elea\AppData\Local\Temp\cc9RSUeu.s 			page 7


 235:Generated_Source\PSoC4/EnoUART_SPI_UART.c **** 
 236:Generated_Source\PSoC4/EnoUART_SPI_UART.c **** #if(EnoUART_TX_DIRECTION)
 237:Generated_Source\PSoC4/EnoUART_SPI_UART.c ****     /*******************************************************************************
 238:Generated_Source\PSoC4/EnoUART_SPI_UART.c ****     * Function Name: EnoUART_SpiUartWriteTxData
 239:Generated_Source\PSoC4/EnoUART_SPI_UART.c ****     ****************************************************************************//**
 240:Generated_Source\PSoC4/EnoUART_SPI_UART.c ****     *
 241:Generated_Source\PSoC4/EnoUART_SPI_UART.c ****     *  Places a data entry into the transmit buffer to be sent at the next available
 242:Generated_Source\PSoC4/EnoUART_SPI_UART.c ****     *  bus time.
 243:Generated_Source\PSoC4/EnoUART_SPI_UART.c ****     *  This function is blocking and waits until there is space available to put the
 244:Generated_Source\PSoC4/EnoUART_SPI_UART.c ****     *  requested data in the transmit buffer.
 245:Generated_Source\PSoC4/EnoUART_SPI_UART.c ****     *
 246:Generated_Source\PSoC4/EnoUART_SPI_UART.c ****     *  \param txDataByte: the data to be transmitted.
 247:Generated_Source\PSoC4/EnoUART_SPI_UART.c ****     *   The amount of data bits to be transmitted depends on TX data bits selection 
 248:Generated_Source\PSoC4/EnoUART_SPI_UART.c ****     *   (the data bit counting starts from LSB of txDataByte).
 249:Generated_Source\PSoC4/EnoUART_SPI_UART.c ****     *
 250:Generated_Source\PSoC4/EnoUART_SPI_UART.c ****     * \globalvars
 251:Generated_Source\PSoC4/EnoUART_SPI_UART.c ****     *  EnoUART_txBufferHead - the start index to put data into the 
 252:Generated_Source\PSoC4/EnoUART_SPI_UART.c ****     *  software transmit buffer.
 253:Generated_Source\PSoC4/EnoUART_SPI_UART.c ****     *  EnoUART_txBufferTail - start index to get data from the software
 254:Generated_Source\PSoC4/EnoUART_SPI_UART.c ****     *  transmit buffer.
 255:Generated_Source\PSoC4/EnoUART_SPI_UART.c ****     *
 256:Generated_Source\PSoC4/EnoUART_SPI_UART.c ****     *******************************************************************************/
 257:Generated_Source\PSoC4/EnoUART_SPI_UART.c ****     void EnoUART_SpiUartWriteTxData(uint32 txData)
 258:Generated_Source\PSoC4/EnoUART_SPI_UART.c ****     {
 109              		.loc 1 258 0
 110              		.cfi_startproc
 111              	.LVL3:
 112              	.L11:
 259:Generated_Source\PSoC4/EnoUART_SPI_UART.c ****     #if (EnoUART_INTERNAL_TX_SW_BUFFER_CONST)
 260:Generated_Source\PSoC4/EnoUART_SPI_UART.c ****         uint32 locHead;
 261:Generated_Source\PSoC4/EnoUART_SPI_UART.c ****     #endif /* (EnoUART_INTERNAL_TX_SW_BUFFER_CONST) */
 262:Generated_Source\PSoC4/EnoUART_SPI_UART.c **** 
 263:Generated_Source\PSoC4/EnoUART_SPI_UART.c ****         #if (EnoUART_CHECK_TX_SW_BUFFER)
 264:Generated_Source\PSoC4/EnoUART_SPI_UART.c ****         {
 265:Generated_Source\PSoC4/EnoUART_SPI_UART.c ****             /* Put data directly into the TX FIFO */
 266:Generated_Source\PSoC4/EnoUART_SPI_UART.c ****             if ((EnoUART_txBufferHead == EnoUART_txBufferTail) &&
 267:Generated_Source\PSoC4/EnoUART_SPI_UART.c ****                 (EnoUART_SPI_UART_FIFO_SIZE != EnoUART_GET_TX_FIFO_ENTRIES))
 268:Generated_Source\PSoC4/EnoUART_SPI_UART.c ****             {
 269:Generated_Source\PSoC4/EnoUART_SPI_UART.c ****                 /* TX software buffer is empty: put data directly in TX FIFO */
 270:Generated_Source\PSoC4/EnoUART_SPI_UART.c ****                 EnoUART_TX_FIFO_WR_REG = txData;
 271:Generated_Source\PSoC4/EnoUART_SPI_UART.c ****             }
 272:Generated_Source\PSoC4/EnoUART_SPI_UART.c ****             /* Put data into TX software buffer */
 273:Generated_Source\PSoC4/EnoUART_SPI_UART.c ****             else
 274:Generated_Source\PSoC4/EnoUART_SPI_UART.c ****             {
 275:Generated_Source\PSoC4/EnoUART_SPI_UART.c ****                 /* Head index to put data */
 276:Generated_Source\PSoC4/EnoUART_SPI_UART.c ****                 locHead = (EnoUART_txBufferHead + 1u);
 277:Generated_Source\PSoC4/EnoUART_SPI_UART.c **** 
 278:Generated_Source\PSoC4/EnoUART_SPI_UART.c ****                 /* Adjust TX software buffer index */
 279:Generated_Source\PSoC4/EnoUART_SPI_UART.c ****                 if (EnoUART_TX_BUFFER_SIZE == locHead)
 280:Generated_Source\PSoC4/EnoUART_SPI_UART.c ****                 {
 281:Generated_Source\PSoC4/EnoUART_SPI_UART.c ****                     locHead = 0u;
 282:Generated_Source\PSoC4/EnoUART_SPI_UART.c ****                 }
 283:Generated_Source\PSoC4/EnoUART_SPI_UART.c **** 
 284:Generated_Source\PSoC4/EnoUART_SPI_UART.c ****                 /* Wait for space in TX software buffer */
 285:Generated_Source\PSoC4/EnoUART_SPI_UART.c ****                 while (locHead == EnoUART_txBufferTail)
 286:Generated_Source\PSoC4/EnoUART_SPI_UART.c ****                 {
 287:Generated_Source\PSoC4/EnoUART_SPI_UART.c ****                 }
ARM GAS  C:\Users\Elea\AppData\Local\Temp\cc9RSUeu.s 			page 8


 288:Generated_Source\PSoC4/EnoUART_SPI_UART.c **** 
 289:Generated_Source\PSoC4/EnoUART_SPI_UART.c ****                 /* TX software buffer has at least one room */
 290:Generated_Source\PSoC4/EnoUART_SPI_UART.c **** 
 291:Generated_Source\PSoC4/EnoUART_SPI_UART.c ****                 /* Clear old status of INTR_TX_NOT_FULL. It sets at the end of transfer when TX FIF
 292:Generated_Source\PSoC4/EnoUART_SPI_UART.c ****                 EnoUART_ClearTxInterruptSource(EnoUART_INTR_TX_NOT_FULL);
 293:Generated_Source\PSoC4/EnoUART_SPI_UART.c **** 
 294:Generated_Source\PSoC4/EnoUART_SPI_UART.c ****                 EnoUART_PutWordInTxBuffer(locHead, txData);
 295:Generated_Source\PSoC4/EnoUART_SPI_UART.c **** 
 296:Generated_Source\PSoC4/EnoUART_SPI_UART.c ****                 EnoUART_txBufferHead = locHead;
 297:Generated_Source\PSoC4/EnoUART_SPI_UART.c **** 
 298:Generated_Source\PSoC4/EnoUART_SPI_UART.c ****                 /* Check if TX Not Full is disabled in interrupt */
 299:Generated_Source\PSoC4/EnoUART_SPI_UART.c ****                 if (0u == (EnoUART_INTR_TX_MASK_REG & EnoUART_INTR_TX_NOT_FULL))
 300:Generated_Source\PSoC4/EnoUART_SPI_UART.c ****                 {
 301:Generated_Source\PSoC4/EnoUART_SPI_UART.c ****                     /* Enable TX Not Full interrupt source to transmit from software buffer */
 302:Generated_Source\PSoC4/EnoUART_SPI_UART.c ****                     EnoUART_INTR_TX_MASK_REG |= (uint32) EnoUART_INTR_TX_NOT_FULL;
 303:Generated_Source\PSoC4/EnoUART_SPI_UART.c ****                 }
 304:Generated_Source\PSoC4/EnoUART_SPI_UART.c ****             }
 305:Generated_Source\PSoC4/EnoUART_SPI_UART.c ****         }
 306:Generated_Source\PSoC4/EnoUART_SPI_UART.c ****         #else
 307:Generated_Source\PSoC4/EnoUART_SPI_UART.c ****         {
 308:Generated_Source\PSoC4/EnoUART_SPI_UART.c ****             /* Wait until TX FIFO has space to put data element */
 309:Generated_Source\PSoC4/EnoUART_SPI_UART.c ****             while (EnoUART_SPI_UART_FIFO_SIZE == EnoUART_GET_TX_FIFO_ENTRIES)
 113              		.loc 1 309 0 discriminator 1
 114 0000 044B     		ldr	r3, .L12
 115 0002 1B68     		ldr	r3, [r3]
 116 0004 0F22     		mov	r2, #15
 117 0006 1340     		and	r3, r2
 118 0008 082B     		cmp	r3, #8
 119 000a F9D0     		beq	.L11
 310:Generated_Source\PSoC4/EnoUART_SPI_UART.c ****             {
 311:Generated_Source\PSoC4/EnoUART_SPI_UART.c ****             }
 312:Generated_Source\PSoC4/EnoUART_SPI_UART.c **** 
 313:Generated_Source\PSoC4/EnoUART_SPI_UART.c ****             EnoUART_TX_FIFO_WR_REG = txData;
 120              		.loc 1 313 0
 121 000c 024B     		ldr	r3, .L12+4
 122 000e 1860     		str	r0, [r3]
 314:Generated_Source\PSoC4/EnoUART_SPI_UART.c ****         }
 315:Generated_Source\PSoC4/EnoUART_SPI_UART.c ****         #endif
 316:Generated_Source\PSoC4/EnoUART_SPI_UART.c ****     }
 123              		.loc 1 316 0
 124              		@ sp needed
 125 0010 7047     		bx	lr
 126              	.L13:
 127 0012 C046     		.align	2
 128              	.L12:
 129 0014 08020640 		.word	1074135560
 130 0018 40020640 		.word	1074135616
 131              		.cfi_endproc
 132              	.LFE3:
 133              		.size	EnoUART_SpiUartWriteTxData, .-EnoUART_SpiUartWriteTxData
 134              		.section	.text.EnoUART_SpiUartPutArray,"ax",%progbits
 135              		.align	2
 136              		.global	EnoUART_SpiUartPutArray
 137              		.code	16
 138              		.thumb_func
 139              		.type	EnoUART_SpiUartPutArray, %function
 140              	EnoUART_SpiUartPutArray:
ARM GAS  C:\Users\Elea\AppData\Local\Temp\cc9RSUeu.s 			page 9


 141              	.LFB4:
 317:Generated_Source\PSoC4/EnoUART_SPI_UART.c **** 
 318:Generated_Source\PSoC4/EnoUART_SPI_UART.c **** 
 319:Generated_Source\PSoC4/EnoUART_SPI_UART.c ****     /*******************************************************************************
 320:Generated_Source\PSoC4/EnoUART_SPI_UART.c ****     * Function Name: EnoUART_SpiUartPutArray
 321:Generated_Source\PSoC4/EnoUART_SPI_UART.c ****     ****************************************************************************//**
 322:Generated_Source\PSoC4/EnoUART_SPI_UART.c ****     *
 323:Generated_Source\PSoC4/EnoUART_SPI_UART.c ****     *  Places an array of data into the transmit buffer to be sent.
 324:Generated_Source\PSoC4/EnoUART_SPI_UART.c ****     *  This function is blocking and waits until there is a space available to put
 325:Generated_Source\PSoC4/EnoUART_SPI_UART.c ****     *  all the requested data in the transmit buffer. The array size can be greater
 326:Generated_Source\PSoC4/EnoUART_SPI_UART.c ****     *  than transmit buffer size.
 327:Generated_Source\PSoC4/EnoUART_SPI_UART.c ****     *
 328:Generated_Source\PSoC4/EnoUART_SPI_UART.c ****     * \param wrBuf: pointer to an array of data to be placed in transmit buffer. 
 329:Generated_Source\PSoC4/EnoUART_SPI_UART.c ****     *  The width of the data to be transmitted depends on TX data width selection 
 330:Generated_Source\PSoC4/EnoUART_SPI_UART.c ****     *  (the data bit counting starts from LSB for each array element).
 331:Generated_Source\PSoC4/EnoUART_SPI_UART.c ****     * \param count: number of data elements to be placed in the transmit buffer.
 332:Generated_Source\PSoC4/EnoUART_SPI_UART.c ****     *
 333:Generated_Source\PSoC4/EnoUART_SPI_UART.c ****     * \globalvars
 334:Generated_Source\PSoC4/EnoUART_SPI_UART.c ****     *  EnoUART_txBufferHead - the start index to put data into the 
 335:Generated_Source\PSoC4/EnoUART_SPI_UART.c ****     *  software transmit buffer.
 336:Generated_Source\PSoC4/EnoUART_SPI_UART.c ****     *  EnoUART_txBufferTail - start index to get data from the software
 337:Generated_Source\PSoC4/EnoUART_SPI_UART.c ****     *  transmit buffer.
 338:Generated_Source\PSoC4/EnoUART_SPI_UART.c ****     *
 339:Generated_Source\PSoC4/EnoUART_SPI_UART.c ****     *******************************************************************************/
 340:Generated_Source\PSoC4/EnoUART_SPI_UART.c ****     void EnoUART_SpiUartPutArray(const uint8 wrBuf[], uint32 count)
 341:Generated_Source\PSoC4/EnoUART_SPI_UART.c ****     {
 142              		.loc 1 341 0
 143              		.cfi_startproc
 144              	.LVL4:
 145 0000 70B5     		push	{r4, r5, r6, lr}
 146              		.cfi_def_cfa_offset 16
 147              		.cfi_offset 4, -16
 148              		.cfi_offset 5, -12
 149              		.cfi_offset 6, -8
 150              		.cfi_offset 14, -4
 151 0002 061C     		mov	r6, r0
 152 0004 0D1C     		mov	r5, r1
 153              	.LVL5:
 342:Generated_Source\PSoC4/EnoUART_SPI_UART.c ****         uint32 i;
 343:Generated_Source\PSoC4/EnoUART_SPI_UART.c **** 
 344:Generated_Source\PSoC4/EnoUART_SPI_UART.c ****         for (i=0u; i < count; i++)
 154              		.loc 1 344 0
 155 0006 0024     		mov	r4, #0
 156 0008 03E0     		b	.L15
 157              	.LVL6:
 158              	.L16:
 345:Generated_Source\PSoC4/EnoUART_SPI_UART.c ****         {
 346:Generated_Source\PSoC4/EnoUART_SPI_UART.c ****             EnoUART_SpiUartWriteTxData((uint32) wrBuf[i]);
 159              		.loc 1 346 0 discriminator 3
 160 000a 305D     		ldrb	r0, [r6, r4]
 161 000c FFF7FEFF 		bl	EnoUART_SpiUartWriteTxData
 162              	.LVL7:
 344:Generated_Source\PSoC4/EnoUART_SPI_UART.c ****         {
 163              		.loc 1 344 0 discriminator 3
 164 0010 0134     		add	r4, r4, #1
 165              	.LVL8:
 166              	.L15:
ARM GAS  C:\Users\Elea\AppData\Local\Temp\cc9RSUeu.s 			page 10


 344:Generated_Source\PSoC4/EnoUART_SPI_UART.c ****         {
 167              		.loc 1 344 0 is_stmt 0 discriminator 1
 168 0012 AC42     		cmp	r4, r5
 169 0014 F9D3     		bcc	.L16
 347:Generated_Source\PSoC4/EnoUART_SPI_UART.c ****         }
 348:Generated_Source\PSoC4/EnoUART_SPI_UART.c ****     }
 170              		.loc 1 348 0 is_stmt 1
 171              		@ sp needed
 172              	.LVL9:
 173              	.LVL10:
 174              	.LVL11:
 175 0016 70BD     		pop	{r4, r5, r6, pc}
 176              		.cfi_endproc
 177              	.LFE4:
 178              		.size	EnoUART_SpiUartPutArray, .-EnoUART_SpiUartPutArray
 179              		.section	.text.EnoUART_SpiUartGetTxBufferSize,"ax",%progbits
 180              		.align	2
 181              		.global	EnoUART_SpiUartGetTxBufferSize
 182              		.code	16
 183              		.thumb_func
 184              		.type	EnoUART_SpiUartGetTxBufferSize, %function
 185              	EnoUART_SpiUartGetTxBufferSize:
 186              	.LFB5:
 349:Generated_Source\PSoC4/EnoUART_SPI_UART.c **** 
 350:Generated_Source\PSoC4/EnoUART_SPI_UART.c **** 
 351:Generated_Source\PSoC4/EnoUART_SPI_UART.c ****     /*******************************************************************************
 352:Generated_Source\PSoC4/EnoUART_SPI_UART.c ****     * Function Name: EnoUART_SpiUartGetTxBufferSize
 353:Generated_Source\PSoC4/EnoUART_SPI_UART.c ****     ****************************************************************************//**
 354:Generated_Source\PSoC4/EnoUART_SPI_UART.c ****     *
 355:Generated_Source\PSoC4/EnoUART_SPI_UART.c ****     *  Returns the number of elements currently in the transmit buffer.
 356:Generated_Source\PSoC4/EnoUART_SPI_UART.c ****     *   - TX software buffer is disabled: returns the number of used entries in
 357:Generated_Source\PSoC4/EnoUART_SPI_UART.c ****     *     TX FIFO.
 358:Generated_Source\PSoC4/EnoUART_SPI_UART.c ****     *   - TX software buffer is enabled: returns the number of elements currently
 359:Generated_Source\PSoC4/EnoUART_SPI_UART.c ****     *     used in the transmit buffer. This number does not include used entries in
 360:Generated_Source\PSoC4/EnoUART_SPI_UART.c ****     *     the TX FIFO. The transmit buffer size is zero until the TX FIFO is
 361:Generated_Source\PSoC4/EnoUART_SPI_UART.c ****     *     not full.
 362:Generated_Source\PSoC4/EnoUART_SPI_UART.c ****     *
 363:Generated_Source\PSoC4/EnoUART_SPI_UART.c ****     * \return
 364:Generated_Source\PSoC4/EnoUART_SPI_UART.c ****     *  Number of data elements ready to transmit.
 365:Generated_Source\PSoC4/EnoUART_SPI_UART.c ****     *
 366:Generated_Source\PSoC4/EnoUART_SPI_UART.c ****     * \globalvars
 367:Generated_Source\PSoC4/EnoUART_SPI_UART.c ****     *  EnoUART_txBufferHead - the start index to put data into the 
 368:Generated_Source\PSoC4/EnoUART_SPI_UART.c ****     *  software transmit buffer.
 369:Generated_Source\PSoC4/EnoUART_SPI_UART.c ****     *  EnoUART_txBufferTail - start index to get data from the software
 370:Generated_Source\PSoC4/EnoUART_SPI_UART.c ****     *  transmit buffer.
 371:Generated_Source\PSoC4/EnoUART_SPI_UART.c ****     *
 372:Generated_Source\PSoC4/EnoUART_SPI_UART.c ****     *******************************************************************************/
 373:Generated_Source\PSoC4/EnoUART_SPI_UART.c ****     uint32 EnoUART_SpiUartGetTxBufferSize(void)
 374:Generated_Source\PSoC4/EnoUART_SPI_UART.c ****     {
 187              		.loc 1 374 0
 188              		.cfi_startproc
 375:Generated_Source\PSoC4/EnoUART_SPI_UART.c ****         uint32 size;
 376:Generated_Source\PSoC4/EnoUART_SPI_UART.c ****     #if (EnoUART_INTERNAL_TX_SW_BUFFER_CONST)
 377:Generated_Source\PSoC4/EnoUART_SPI_UART.c ****         uint32 locTail;
 378:Generated_Source\PSoC4/EnoUART_SPI_UART.c ****     #endif /* (EnoUART_INTERNAL_TX_SW_BUFFER_CONST) */
 379:Generated_Source\PSoC4/EnoUART_SPI_UART.c **** 
 380:Generated_Source\PSoC4/EnoUART_SPI_UART.c ****         #if (EnoUART_CHECK_TX_SW_BUFFER)
ARM GAS  C:\Users\Elea\AppData\Local\Temp\cc9RSUeu.s 			page 11


 381:Generated_Source\PSoC4/EnoUART_SPI_UART.c ****         {
 382:Generated_Source\PSoC4/EnoUART_SPI_UART.c ****             /* Get current Tail index */
 383:Generated_Source\PSoC4/EnoUART_SPI_UART.c ****             locTail = EnoUART_txBufferTail;
 384:Generated_Source\PSoC4/EnoUART_SPI_UART.c **** 
 385:Generated_Source\PSoC4/EnoUART_SPI_UART.c ****             if (EnoUART_txBufferHead >= locTail)
 386:Generated_Source\PSoC4/EnoUART_SPI_UART.c ****             {
 387:Generated_Source\PSoC4/EnoUART_SPI_UART.c ****                 size = (EnoUART_txBufferHead - locTail);
 388:Generated_Source\PSoC4/EnoUART_SPI_UART.c ****             }
 389:Generated_Source\PSoC4/EnoUART_SPI_UART.c ****             else
 390:Generated_Source\PSoC4/EnoUART_SPI_UART.c ****             {
 391:Generated_Source\PSoC4/EnoUART_SPI_UART.c ****                 size = (EnoUART_txBufferHead + (EnoUART_TX_BUFFER_SIZE - locTail));
 392:Generated_Source\PSoC4/EnoUART_SPI_UART.c ****             }
 393:Generated_Source\PSoC4/EnoUART_SPI_UART.c ****         }
 394:Generated_Source\PSoC4/EnoUART_SPI_UART.c ****         #else
 395:Generated_Source\PSoC4/EnoUART_SPI_UART.c ****         {
 396:Generated_Source\PSoC4/EnoUART_SPI_UART.c ****             size = EnoUART_GET_TX_FIFO_ENTRIES;
 189              		.loc 1 396 0
 190 0000 024B     		ldr	r3, .L18
 191 0002 1B68     		ldr	r3, [r3]
 192 0004 0F20     		mov	r0, #15
 193 0006 1840     		and	r0, r3
 194              	.LVL12:
 397:Generated_Source\PSoC4/EnoUART_SPI_UART.c ****         }
 398:Generated_Source\PSoC4/EnoUART_SPI_UART.c ****         #endif
 399:Generated_Source\PSoC4/EnoUART_SPI_UART.c **** 
 400:Generated_Source\PSoC4/EnoUART_SPI_UART.c ****         return (size);
 401:Generated_Source\PSoC4/EnoUART_SPI_UART.c ****     }
 195              		.loc 1 401 0
 196              		@ sp needed
 197 0008 7047     		bx	lr
 198              	.L19:
 199 000a C046     		.align	2
 200              	.L18:
 201 000c 08020640 		.word	1074135560
 202              		.cfi_endproc
 203              	.LFE5:
 204              		.size	EnoUART_SpiUartGetTxBufferSize, .-EnoUART_SpiUartGetTxBufferSize
 205              		.section	.text.EnoUART_SpiUartClearTxBuffer,"ax",%progbits
 206              		.align	2
 207              		.global	EnoUART_SpiUartClearTxBuffer
 208              		.code	16
 209              		.thumb_func
 210              		.type	EnoUART_SpiUartClearTxBuffer, %function
 211              	EnoUART_SpiUartClearTxBuffer:
 212              	.LFB6:
 402:Generated_Source\PSoC4/EnoUART_SPI_UART.c **** 
 403:Generated_Source\PSoC4/EnoUART_SPI_UART.c **** 
 404:Generated_Source\PSoC4/EnoUART_SPI_UART.c ****     /*******************************************************************************
 405:Generated_Source\PSoC4/EnoUART_SPI_UART.c ****     * Function Name: EnoUART_SpiUartClearTxBuffer
 406:Generated_Source\PSoC4/EnoUART_SPI_UART.c ****     ****************************************************************************//**
 407:Generated_Source\PSoC4/EnoUART_SPI_UART.c ****     *
 408:Generated_Source\PSoC4/EnoUART_SPI_UART.c ****     *  Clears the transmit buffer and TX FIFO.
 409:Generated_Source\PSoC4/EnoUART_SPI_UART.c ****     *
 410:Generated_Source\PSoC4/EnoUART_SPI_UART.c ****     * \globalvars
 411:Generated_Source\PSoC4/EnoUART_SPI_UART.c ****     *  EnoUART_txBufferHead - the start index to put data into the 
 412:Generated_Source\PSoC4/EnoUART_SPI_UART.c ****     *  software transmit buffer.
 413:Generated_Source\PSoC4/EnoUART_SPI_UART.c ****     *  EnoUART_txBufferTail - start index to get data from the software
ARM GAS  C:\Users\Elea\AppData\Local\Temp\cc9RSUeu.s 			page 12


 414:Generated_Source\PSoC4/EnoUART_SPI_UART.c ****     *  transmit buffer.
 415:Generated_Source\PSoC4/EnoUART_SPI_UART.c ****     *
 416:Generated_Source\PSoC4/EnoUART_SPI_UART.c ****     *******************************************************************************/
 417:Generated_Source\PSoC4/EnoUART_SPI_UART.c ****     void EnoUART_SpiUartClearTxBuffer(void)
 418:Generated_Source\PSoC4/EnoUART_SPI_UART.c ****     {
 213              		.loc 1 418 0
 214              		.cfi_startproc
 419:Generated_Source\PSoC4/EnoUART_SPI_UART.c ****         #if (EnoUART_CHECK_TX_SW_BUFFER)
 420:Generated_Source\PSoC4/EnoUART_SPI_UART.c ****         {
 421:Generated_Source\PSoC4/EnoUART_SPI_UART.c ****             /* Lock from component interruption */
 422:Generated_Source\PSoC4/EnoUART_SPI_UART.c ****             EnoUART_DisableInt();
 423:Generated_Source\PSoC4/EnoUART_SPI_UART.c **** 
 424:Generated_Source\PSoC4/EnoUART_SPI_UART.c ****             /* Flush TX software buffer */
 425:Generated_Source\PSoC4/EnoUART_SPI_UART.c ****             EnoUART_txBufferHead = EnoUART_txBufferTail;
 426:Generated_Source\PSoC4/EnoUART_SPI_UART.c **** 
 427:Generated_Source\PSoC4/EnoUART_SPI_UART.c ****             EnoUART_INTR_TX_MASK_REG &= (uint32) ~EnoUART_INTR_TX_NOT_FULL;
 428:Generated_Source\PSoC4/EnoUART_SPI_UART.c ****             EnoUART_CLEAR_TX_FIFO;
 429:Generated_Source\PSoC4/EnoUART_SPI_UART.c ****             EnoUART_ClearTxInterruptSource(EnoUART_INTR_TX_ALL);
 430:Generated_Source\PSoC4/EnoUART_SPI_UART.c **** 
 431:Generated_Source\PSoC4/EnoUART_SPI_UART.c ****             /* Release lock */
 432:Generated_Source\PSoC4/EnoUART_SPI_UART.c ****             EnoUART_EnableInt();
 433:Generated_Source\PSoC4/EnoUART_SPI_UART.c ****         }
 434:Generated_Source\PSoC4/EnoUART_SPI_UART.c ****         #else
 435:Generated_Source\PSoC4/EnoUART_SPI_UART.c ****         {
 436:Generated_Source\PSoC4/EnoUART_SPI_UART.c ****             EnoUART_CLEAR_TX_FIFO;
 215              		.loc 1 436 0
 216 0000 054B     		ldr	r3, .L21
 217 0002 1A68     		ldr	r2, [r3]
 218 0004 8021     		mov	r1, #128
 219 0006 4902     		lsl	r1, r1, #9
 220 0008 0A43     		orr	r2, r1
 221 000a 1A60     		str	r2, [r3]
 222 000c 1968     		ldr	r1, [r3]
 223 000e 034A     		ldr	r2, .L21+4
 224 0010 0A40     		and	r2, r1
 225 0012 1A60     		str	r2, [r3]
 437:Generated_Source\PSoC4/EnoUART_SPI_UART.c ****         }
 438:Generated_Source\PSoC4/EnoUART_SPI_UART.c ****         #endif
 439:Generated_Source\PSoC4/EnoUART_SPI_UART.c ****     }
 226              		.loc 1 439 0
 227              		@ sp needed
 228 0014 7047     		bx	lr
 229              	.L22:
 230 0016 C046     		.align	2
 231              	.L21:
 232 0018 04020640 		.word	1074135556
 233 001c FFFFFEFF 		.word	-65537
 234              		.cfi_endproc
 235              	.LFE6:
 236              		.size	EnoUART_SpiUartClearTxBuffer, .-EnoUART_SpiUartClearTxBuffer
 237              		.section	.text.EnoUART_SpiUartDisableIntRx,"ax",%progbits
 238              		.align	2
 239              		.global	EnoUART_SpiUartDisableIntRx
 240              		.code	16
 241              		.thumb_func
 242              		.type	EnoUART_SpiUartDisableIntRx, %function
 243              	EnoUART_SpiUartDisableIntRx:
ARM GAS  C:\Users\Elea\AppData\Local\Temp\cc9RSUeu.s 			page 13


 244              	.LFB7:
 440:Generated_Source\PSoC4/EnoUART_SPI_UART.c **** 
 441:Generated_Source\PSoC4/EnoUART_SPI_UART.c **** #endif /* (EnoUART_TX_DIRECTION) */
 442:Generated_Source\PSoC4/EnoUART_SPI_UART.c **** 
 443:Generated_Source\PSoC4/EnoUART_SPI_UART.c **** 
 444:Generated_Source\PSoC4/EnoUART_SPI_UART.c **** /*******************************************************************************
 445:Generated_Source\PSoC4/EnoUART_SPI_UART.c **** * Function Name: EnoUART_SpiUartDisableIntRx
 446:Generated_Source\PSoC4/EnoUART_SPI_UART.c **** ****************************************************************************//**
 447:Generated_Source\PSoC4/EnoUART_SPI_UART.c **** *
 448:Generated_Source\PSoC4/EnoUART_SPI_UART.c **** *  Disables the RX interrupt sources.
 449:Generated_Source\PSoC4/EnoUART_SPI_UART.c **** *
 450:Generated_Source\PSoC4/EnoUART_SPI_UART.c **** *  \return
 451:Generated_Source\PSoC4/EnoUART_SPI_UART.c **** *   Returns the RX interrupt sources enabled before the function call.
 452:Generated_Source\PSoC4/EnoUART_SPI_UART.c **** *
 453:Generated_Source\PSoC4/EnoUART_SPI_UART.c **** *******************************************************************************/
 454:Generated_Source\PSoC4/EnoUART_SPI_UART.c **** uint32 EnoUART_SpiUartDisableIntRx(void)
 455:Generated_Source\PSoC4/EnoUART_SPI_UART.c **** {
 245              		.loc 1 455 0
 246              		.cfi_startproc
 456:Generated_Source\PSoC4/EnoUART_SPI_UART.c ****     uint32 intSource;
 457:Generated_Source\PSoC4/EnoUART_SPI_UART.c **** 
 458:Generated_Source\PSoC4/EnoUART_SPI_UART.c ****     intSource = EnoUART_GetRxInterruptMode();
 247              		.loc 1 458 0
 248 0000 024B     		ldr	r3, .L24
 249 0002 1868     		ldr	r0, [r3]
 250              	.LVL13:
 459:Generated_Source\PSoC4/EnoUART_SPI_UART.c **** 
 460:Generated_Source\PSoC4/EnoUART_SPI_UART.c ****     EnoUART_SetRxInterruptMode(EnoUART_NO_INTR_SOURCES);
 251              		.loc 1 460 0
 252 0004 0022     		mov	r2, #0
 253 0006 1A60     		str	r2, [r3]
 461:Generated_Source\PSoC4/EnoUART_SPI_UART.c **** 
 462:Generated_Source\PSoC4/EnoUART_SPI_UART.c ****     return (intSource);
 463:Generated_Source\PSoC4/EnoUART_SPI_UART.c **** }
 254              		.loc 1 463 0
 255              		@ sp needed
 256 0008 7047     		bx	lr
 257              	.L25:
 258 000a C046     		.align	2
 259              	.L24:
 260 000c C80F0640 		.word	1074139080
 261              		.cfi_endproc
 262              	.LFE7:
 263              		.size	EnoUART_SpiUartDisableIntRx, .-EnoUART_SpiUartDisableIntRx
 264              		.section	.text.EnoUART_SpiUartDisableIntTx,"ax",%progbits
 265              		.align	2
 266              		.global	EnoUART_SpiUartDisableIntTx
 267              		.code	16
 268              		.thumb_func
 269              		.type	EnoUART_SpiUartDisableIntTx, %function
 270              	EnoUART_SpiUartDisableIntTx:
 271              	.LFB8:
 464:Generated_Source\PSoC4/EnoUART_SPI_UART.c **** 
 465:Generated_Source\PSoC4/EnoUART_SPI_UART.c **** 
 466:Generated_Source\PSoC4/EnoUART_SPI_UART.c **** /*******************************************************************************
 467:Generated_Source\PSoC4/EnoUART_SPI_UART.c **** * Function Name: EnoUART_SpiUartDisableIntTx
 468:Generated_Source\PSoC4/EnoUART_SPI_UART.c **** ****************************************************************************//**
ARM GAS  C:\Users\Elea\AppData\Local\Temp\cc9RSUeu.s 			page 14


 469:Generated_Source\PSoC4/EnoUART_SPI_UART.c **** *
 470:Generated_Source\PSoC4/EnoUART_SPI_UART.c **** *  Disables TX interrupt sources.
 471:Generated_Source\PSoC4/EnoUART_SPI_UART.c **** *
 472:Generated_Source\PSoC4/EnoUART_SPI_UART.c **** *  \return
 473:Generated_Source\PSoC4/EnoUART_SPI_UART.c **** *   Returns TX interrupt sources enabled before function call.
 474:Generated_Source\PSoC4/EnoUART_SPI_UART.c **** *
 475:Generated_Source\PSoC4/EnoUART_SPI_UART.c **** *******************************************************************************/
 476:Generated_Source\PSoC4/EnoUART_SPI_UART.c **** uint32 EnoUART_SpiUartDisableIntTx(void)
 477:Generated_Source\PSoC4/EnoUART_SPI_UART.c **** {
 272              		.loc 1 477 0
 273              		.cfi_startproc
 478:Generated_Source\PSoC4/EnoUART_SPI_UART.c ****     uint32 intSourceMask;
 479:Generated_Source\PSoC4/EnoUART_SPI_UART.c **** 
 480:Generated_Source\PSoC4/EnoUART_SPI_UART.c ****     intSourceMask = EnoUART_GetTxInterruptMode();
 274              		.loc 1 480 0
 275 0000 024B     		ldr	r3, .L27
 276 0002 1868     		ldr	r0, [r3]
 277              	.LVL14:
 481:Generated_Source\PSoC4/EnoUART_SPI_UART.c **** 
 482:Generated_Source\PSoC4/EnoUART_SPI_UART.c ****     EnoUART_SetTxInterruptMode(EnoUART_NO_INTR_SOURCES);
 278              		.loc 1 482 0
 279 0004 0022     		mov	r2, #0
 280 0006 1A60     		str	r2, [r3]
 483:Generated_Source\PSoC4/EnoUART_SPI_UART.c **** 
 484:Generated_Source\PSoC4/EnoUART_SPI_UART.c ****     return (intSourceMask);
 485:Generated_Source\PSoC4/EnoUART_SPI_UART.c **** }
 281              		.loc 1 485 0
 282              		@ sp needed
 283 0008 7047     		bx	lr
 284              	.L28:
 285 000a C046     		.align	2
 286              	.L27:
 287 000c 880F0640 		.word	1074139016
 288              		.cfi_endproc
 289              	.LFE8:
 290              		.size	EnoUART_SpiUartDisableIntTx, .-EnoUART_SpiUartDisableIntTx
 291              		.text
 292              	.Letext0:
 293              		.file 2 "Generated_Source\\PSoC4/cytypes.h"
