ARM GAS  C:\Users\Elea\AppData\Local\Temp\ccpYzos7.s 			page 1


   1              		.cpu cortex-m0
   2              		.fpu softvfp
   3              		.eabi_attribute 20, 1
   4              		.eabi_attribute 21, 1
   5              		.eabi_attribute 23, 3
   6              		.eabi_attribute 24, 1
   7              		.eabi_attribute 25, 1
   8              		.eabi_attribute 26, 1
   9              		.eabi_attribute 30, 1
  10              		.eabi_attribute 34, 0
  11              		.eabi_attribute 18, 4
  12              		.code	16
  13              		.file	"IsrExternalINPUT.c"
  14              		.text
  15              	.Ltext0:
  16              		.cfi_sections	.debug_frame
  17              		.section	.text.IsrExternalINPUT_Interrupt,"ax",%progbits
  18              		.align	2
  19              		.global	IsrExternalINPUT_Interrupt
  20              		.code	16
  21              		.thumb_func
  22              		.type	IsrExternalINPUT_Interrupt, %function
  23              	IsrExternalINPUT_Interrupt:
  24              	.LFB3:
  25              		.file 1 "Generated_Source\\PSoC4\\IsrExternalINPUT.c"
   1:Generated_Source\PSoC4/IsrExternalINPUT.c **** /*******************************************************************************
   2:Generated_Source\PSoC4/IsrExternalINPUT.c **** * File Name: IsrExternalINPUT.c  
   3:Generated_Source\PSoC4/IsrExternalINPUT.c **** * Version 1.70
   4:Generated_Source\PSoC4/IsrExternalINPUT.c **** *
   5:Generated_Source\PSoC4/IsrExternalINPUT.c **** *  Description:
   6:Generated_Source\PSoC4/IsrExternalINPUT.c **** *   API for controlling the state of an interrupt.
   7:Generated_Source\PSoC4/IsrExternalINPUT.c **** *
   8:Generated_Source\PSoC4/IsrExternalINPUT.c **** *
   9:Generated_Source\PSoC4/IsrExternalINPUT.c **** *  Note:
  10:Generated_Source\PSoC4/IsrExternalINPUT.c **** *
  11:Generated_Source\PSoC4/IsrExternalINPUT.c **** ********************************************************************************
  12:Generated_Source\PSoC4/IsrExternalINPUT.c **** * Copyright 2008-2015, Cypress Semiconductor Corporation.  All rights reserved.
  13:Generated_Source\PSoC4/IsrExternalINPUT.c **** * You may use this file only in accordance with the license, terms, conditions, 
  14:Generated_Source\PSoC4/IsrExternalINPUT.c **** * disclaimers, and limitations in the end user license agreement accompanying 
  15:Generated_Source\PSoC4/IsrExternalINPUT.c **** * the software package with which this file was provided.
  16:Generated_Source\PSoC4/IsrExternalINPUT.c **** *******************************************************************************/
  17:Generated_Source\PSoC4/IsrExternalINPUT.c **** 
  18:Generated_Source\PSoC4/IsrExternalINPUT.c **** 
  19:Generated_Source\PSoC4/IsrExternalINPUT.c **** #include <cydevice_trm.h>
  20:Generated_Source\PSoC4/IsrExternalINPUT.c **** #include <CyLib.h>
  21:Generated_Source\PSoC4/IsrExternalINPUT.c **** #include <IsrExternalINPUT.h>
  22:Generated_Source\PSoC4/IsrExternalINPUT.c **** #include "cyapicallbacks.h"
  23:Generated_Source\PSoC4/IsrExternalINPUT.c **** 
  24:Generated_Source\PSoC4/IsrExternalINPUT.c **** #if !defined(IsrExternalINPUT__REMOVED) /* Check for removal by optimization */
  25:Generated_Source\PSoC4/IsrExternalINPUT.c **** 
  26:Generated_Source\PSoC4/IsrExternalINPUT.c **** /*******************************************************************************
  27:Generated_Source\PSoC4/IsrExternalINPUT.c **** *  Place your includes, defines and code here 
  28:Generated_Source\PSoC4/IsrExternalINPUT.c **** ********************************************************************************/
  29:Generated_Source\PSoC4/IsrExternalINPUT.c **** /* `#START IsrExternalINPUT_intc` */
  30:Generated_Source\PSoC4/IsrExternalINPUT.c **** 
  31:Generated_Source\PSoC4/IsrExternalINPUT.c **** /* `#END` */
  32:Generated_Source\PSoC4/IsrExternalINPUT.c **** 
ARM GAS  C:\Users\Elea\AppData\Local\Temp\ccpYzos7.s 			page 2


  33:Generated_Source\PSoC4/IsrExternalINPUT.c **** extern cyisraddress CyRamVectors[CYINT_IRQ_BASE + CY_NUM_INTERRUPTS];
  34:Generated_Source\PSoC4/IsrExternalINPUT.c **** 
  35:Generated_Source\PSoC4/IsrExternalINPUT.c **** /* Declared in startup, used to set unused interrupts to. */
  36:Generated_Source\PSoC4/IsrExternalINPUT.c **** CY_ISR_PROTO(IntDefaultHandler);
  37:Generated_Source\PSoC4/IsrExternalINPUT.c **** 
  38:Generated_Source\PSoC4/IsrExternalINPUT.c **** 
  39:Generated_Source\PSoC4/IsrExternalINPUT.c **** /*******************************************************************************
  40:Generated_Source\PSoC4/IsrExternalINPUT.c **** * Function Name: IsrExternalINPUT_Start
  41:Generated_Source\PSoC4/IsrExternalINPUT.c **** ********************************************************************************
  42:Generated_Source\PSoC4/IsrExternalINPUT.c **** *
  43:Generated_Source\PSoC4/IsrExternalINPUT.c **** * Summary:
  44:Generated_Source\PSoC4/IsrExternalINPUT.c **** *  Set up the interrupt and enable it. This function disables the interrupt, 
  45:Generated_Source\PSoC4/IsrExternalINPUT.c **** *  sets the default interrupt vector, sets the priority from the value in the
  46:Generated_Source\PSoC4/IsrExternalINPUT.c **** *  Design Wide Resources Interrupt Editor, then enables the interrupt to the 
  47:Generated_Source\PSoC4/IsrExternalINPUT.c **** *  interrupt controller.
  48:Generated_Source\PSoC4/IsrExternalINPUT.c **** *
  49:Generated_Source\PSoC4/IsrExternalINPUT.c **** * Parameters:  
  50:Generated_Source\PSoC4/IsrExternalINPUT.c **** *   None
  51:Generated_Source\PSoC4/IsrExternalINPUT.c **** *
  52:Generated_Source\PSoC4/IsrExternalINPUT.c **** * Return:
  53:Generated_Source\PSoC4/IsrExternalINPUT.c **** *   None
  54:Generated_Source\PSoC4/IsrExternalINPUT.c **** *
  55:Generated_Source\PSoC4/IsrExternalINPUT.c **** *******************************************************************************/
  56:Generated_Source\PSoC4/IsrExternalINPUT.c **** void IsrExternalINPUT_Start(void)
  57:Generated_Source\PSoC4/IsrExternalINPUT.c **** {
  58:Generated_Source\PSoC4/IsrExternalINPUT.c ****     /* For all we know the interrupt is active. */
  59:Generated_Source\PSoC4/IsrExternalINPUT.c ****     IsrExternalINPUT_Disable();
  60:Generated_Source\PSoC4/IsrExternalINPUT.c **** 
  61:Generated_Source\PSoC4/IsrExternalINPUT.c ****     /* Set the ISR to point to the IsrExternalINPUT Interrupt. */
  62:Generated_Source\PSoC4/IsrExternalINPUT.c ****     IsrExternalINPUT_SetVector(&IsrExternalINPUT_Interrupt);
  63:Generated_Source\PSoC4/IsrExternalINPUT.c **** 
  64:Generated_Source\PSoC4/IsrExternalINPUT.c ****     /* Set the priority. */
  65:Generated_Source\PSoC4/IsrExternalINPUT.c ****     IsrExternalINPUT_SetPriority((uint8)IsrExternalINPUT_INTC_PRIOR_NUMBER);
  66:Generated_Source\PSoC4/IsrExternalINPUT.c **** 
  67:Generated_Source\PSoC4/IsrExternalINPUT.c ****     /* Enable it. */
  68:Generated_Source\PSoC4/IsrExternalINPUT.c ****     IsrExternalINPUT_Enable();
  69:Generated_Source\PSoC4/IsrExternalINPUT.c **** }
  70:Generated_Source\PSoC4/IsrExternalINPUT.c **** 
  71:Generated_Source\PSoC4/IsrExternalINPUT.c **** 
  72:Generated_Source\PSoC4/IsrExternalINPUT.c **** /*******************************************************************************
  73:Generated_Source\PSoC4/IsrExternalINPUT.c **** * Function Name: IsrExternalINPUT_StartEx
  74:Generated_Source\PSoC4/IsrExternalINPUT.c **** ********************************************************************************
  75:Generated_Source\PSoC4/IsrExternalINPUT.c **** *
  76:Generated_Source\PSoC4/IsrExternalINPUT.c **** * Summary:
  77:Generated_Source\PSoC4/IsrExternalINPUT.c **** *  Sets up the interrupt and enables it. This function disables the interrupt,
  78:Generated_Source\PSoC4/IsrExternalINPUT.c **** *  sets the interrupt vector based on the address passed in, sets the priority 
  79:Generated_Source\PSoC4/IsrExternalINPUT.c **** *  from the value in the Design Wide Resources Interrupt Editor, then enables 
  80:Generated_Source\PSoC4/IsrExternalINPUT.c **** *  the interrupt to the interrupt controller.
  81:Generated_Source\PSoC4/IsrExternalINPUT.c **** *  
  82:Generated_Source\PSoC4/IsrExternalINPUT.c **** *  When defining ISR functions, the CY_ISR and CY_ISR_PROTO macros should be 
  83:Generated_Source\PSoC4/IsrExternalINPUT.c **** *  used to provide consistent definition across compilers:
  84:Generated_Source\PSoC4/IsrExternalINPUT.c **** *  
  85:Generated_Source\PSoC4/IsrExternalINPUT.c **** *  Function definition example:
  86:Generated_Source\PSoC4/IsrExternalINPUT.c **** *   CY_ISR(MyISR)
  87:Generated_Source\PSoC4/IsrExternalINPUT.c **** *   {
  88:Generated_Source\PSoC4/IsrExternalINPUT.c **** *   }
  89:Generated_Source\PSoC4/IsrExternalINPUT.c **** *   Function prototype example:
ARM GAS  C:\Users\Elea\AppData\Local\Temp\ccpYzos7.s 			page 3


  90:Generated_Source\PSoC4/IsrExternalINPUT.c **** *   CY_ISR_PROTO(MyISR);
  91:Generated_Source\PSoC4/IsrExternalINPUT.c **** *
  92:Generated_Source\PSoC4/IsrExternalINPUT.c **** * Parameters:  
  93:Generated_Source\PSoC4/IsrExternalINPUT.c **** *   address: Address of the ISR to set in the interrupt vector table.
  94:Generated_Source\PSoC4/IsrExternalINPUT.c **** *
  95:Generated_Source\PSoC4/IsrExternalINPUT.c **** * Return:
  96:Generated_Source\PSoC4/IsrExternalINPUT.c **** *   None
  97:Generated_Source\PSoC4/IsrExternalINPUT.c **** *
  98:Generated_Source\PSoC4/IsrExternalINPUT.c **** *******************************************************************************/
  99:Generated_Source\PSoC4/IsrExternalINPUT.c **** void IsrExternalINPUT_StartEx(cyisraddress address)
 100:Generated_Source\PSoC4/IsrExternalINPUT.c **** {
 101:Generated_Source\PSoC4/IsrExternalINPUT.c ****     /* For all we know the interrupt is active. */
 102:Generated_Source\PSoC4/IsrExternalINPUT.c ****     IsrExternalINPUT_Disable();
 103:Generated_Source\PSoC4/IsrExternalINPUT.c **** 
 104:Generated_Source\PSoC4/IsrExternalINPUT.c ****     /* Set the ISR to point to the IsrExternalINPUT Interrupt. */
 105:Generated_Source\PSoC4/IsrExternalINPUT.c ****     IsrExternalINPUT_SetVector(address);
 106:Generated_Source\PSoC4/IsrExternalINPUT.c **** 
 107:Generated_Source\PSoC4/IsrExternalINPUT.c ****     /* Set the priority. */
 108:Generated_Source\PSoC4/IsrExternalINPUT.c ****     IsrExternalINPUT_SetPriority((uint8)IsrExternalINPUT_INTC_PRIOR_NUMBER);
 109:Generated_Source\PSoC4/IsrExternalINPUT.c **** 
 110:Generated_Source\PSoC4/IsrExternalINPUT.c ****     /* Enable it. */
 111:Generated_Source\PSoC4/IsrExternalINPUT.c ****     IsrExternalINPUT_Enable();
 112:Generated_Source\PSoC4/IsrExternalINPUT.c **** }
 113:Generated_Source\PSoC4/IsrExternalINPUT.c **** 
 114:Generated_Source\PSoC4/IsrExternalINPUT.c **** 
 115:Generated_Source\PSoC4/IsrExternalINPUT.c **** /*******************************************************************************
 116:Generated_Source\PSoC4/IsrExternalINPUT.c **** * Function Name: IsrExternalINPUT_Stop
 117:Generated_Source\PSoC4/IsrExternalINPUT.c **** ********************************************************************************
 118:Generated_Source\PSoC4/IsrExternalINPUT.c **** *
 119:Generated_Source\PSoC4/IsrExternalINPUT.c **** * Summary:
 120:Generated_Source\PSoC4/IsrExternalINPUT.c **** *   Disables and removes the interrupt.
 121:Generated_Source\PSoC4/IsrExternalINPUT.c **** *
 122:Generated_Source\PSoC4/IsrExternalINPUT.c **** * Parameters:  
 123:Generated_Source\PSoC4/IsrExternalINPUT.c **** *   None
 124:Generated_Source\PSoC4/IsrExternalINPUT.c **** *
 125:Generated_Source\PSoC4/IsrExternalINPUT.c **** * Return:
 126:Generated_Source\PSoC4/IsrExternalINPUT.c **** *   None
 127:Generated_Source\PSoC4/IsrExternalINPUT.c **** *
 128:Generated_Source\PSoC4/IsrExternalINPUT.c **** *******************************************************************************/
 129:Generated_Source\PSoC4/IsrExternalINPUT.c **** void IsrExternalINPUT_Stop(void)
 130:Generated_Source\PSoC4/IsrExternalINPUT.c **** {
 131:Generated_Source\PSoC4/IsrExternalINPUT.c ****     /* Disable this interrupt. */
 132:Generated_Source\PSoC4/IsrExternalINPUT.c ****     IsrExternalINPUT_Disable();
 133:Generated_Source\PSoC4/IsrExternalINPUT.c **** 
 134:Generated_Source\PSoC4/IsrExternalINPUT.c ****     /* Set the ISR to point to the passive one. */
 135:Generated_Source\PSoC4/IsrExternalINPUT.c ****     IsrExternalINPUT_SetVector(&IntDefaultHandler);
 136:Generated_Source\PSoC4/IsrExternalINPUT.c **** }
 137:Generated_Source\PSoC4/IsrExternalINPUT.c **** 
 138:Generated_Source\PSoC4/IsrExternalINPUT.c **** 
 139:Generated_Source\PSoC4/IsrExternalINPUT.c **** /*******************************************************************************
 140:Generated_Source\PSoC4/IsrExternalINPUT.c **** * Function Name: IsrExternalINPUT_Interrupt
 141:Generated_Source\PSoC4/IsrExternalINPUT.c **** ********************************************************************************
 142:Generated_Source\PSoC4/IsrExternalINPUT.c **** *
 143:Generated_Source\PSoC4/IsrExternalINPUT.c **** * Summary:
 144:Generated_Source\PSoC4/IsrExternalINPUT.c **** *   The default Interrupt Service Routine for IsrExternalINPUT.
 145:Generated_Source\PSoC4/IsrExternalINPUT.c **** *
 146:Generated_Source\PSoC4/IsrExternalINPUT.c **** *   Add custom code between the START and END comments to keep the next version
ARM GAS  C:\Users\Elea\AppData\Local\Temp\ccpYzos7.s 			page 4


 147:Generated_Source\PSoC4/IsrExternalINPUT.c **** *   of this file from over-writing your code.
 148:Generated_Source\PSoC4/IsrExternalINPUT.c **** *
 149:Generated_Source\PSoC4/IsrExternalINPUT.c **** *   Note You may use either the default ISR by using this API, or you may define
 150:Generated_Source\PSoC4/IsrExternalINPUT.c **** *   your own separate ISR through ISR_StartEx().
 151:Generated_Source\PSoC4/IsrExternalINPUT.c **** *
 152:Generated_Source\PSoC4/IsrExternalINPUT.c **** * Parameters:  
 153:Generated_Source\PSoC4/IsrExternalINPUT.c **** *   None
 154:Generated_Source\PSoC4/IsrExternalINPUT.c **** *
 155:Generated_Source\PSoC4/IsrExternalINPUT.c **** * Return:
 156:Generated_Source\PSoC4/IsrExternalINPUT.c **** *   None
 157:Generated_Source\PSoC4/IsrExternalINPUT.c **** *
 158:Generated_Source\PSoC4/IsrExternalINPUT.c **** *******************************************************************************/
 159:Generated_Source\PSoC4/IsrExternalINPUT.c **** CY_ISR(IsrExternalINPUT_Interrupt)
 160:Generated_Source\PSoC4/IsrExternalINPUT.c **** {
  26              		.loc 1 160 0
  27              		.cfi_startproc
 161:Generated_Source\PSoC4/IsrExternalINPUT.c ****     #ifdef IsrExternalINPUT_INTERRUPT_INTERRUPT_CALLBACK
 162:Generated_Source\PSoC4/IsrExternalINPUT.c ****         IsrExternalINPUT_Interrupt_InterruptCallback();
 163:Generated_Source\PSoC4/IsrExternalINPUT.c ****     #endif /* IsrExternalINPUT_INTERRUPT_INTERRUPT_CALLBACK */ 
 164:Generated_Source\PSoC4/IsrExternalINPUT.c **** 
 165:Generated_Source\PSoC4/IsrExternalINPUT.c ****     /*  Place your Interrupt code here. */
 166:Generated_Source\PSoC4/IsrExternalINPUT.c ****     /* `#START IsrExternalINPUT_Interrupt` */
 167:Generated_Source\PSoC4/IsrExternalINPUT.c **** 
 168:Generated_Source\PSoC4/IsrExternalINPUT.c ****     /* `#END` */
 169:Generated_Source\PSoC4/IsrExternalINPUT.c **** }
  28              		.loc 1 169 0
  29              		@ sp needed
  30 0000 7047     		bx	lr
  31              		.cfi_endproc
  32              	.LFE3:
  33              		.size	IsrExternalINPUT_Interrupt, .-IsrExternalINPUT_Interrupt
  34 0002 C046     		.section	.text.IsrExternalINPUT_SetVector,"ax",%progbits
  35              		.align	2
  36              		.global	IsrExternalINPUT_SetVector
  37              		.code	16
  38              		.thumb_func
  39              		.type	IsrExternalINPUT_SetVector, %function
  40              	IsrExternalINPUT_SetVector:
  41              	.LFB4:
 170:Generated_Source\PSoC4/IsrExternalINPUT.c **** 
 171:Generated_Source\PSoC4/IsrExternalINPUT.c **** 
 172:Generated_Source\PSoC4/IsrExternalINPUT.c **** /*******************************************************************************
 173:Generated_Source\PSoC4/IsrExternalINPUT.c **** * Function Name: IsrExternalINPUT_SetVector
 174:Generated_Source\PSoC4/IsrExternalINPUT.c **** ********************************************************************************
 175:Generated_Source\PSoC4/IsrExternalINPUT.c **** *
 176:Generated_Source\PSoC4/IsrExternalINPUT.c **** * Summary:
 177:Generated_Source\PSoC4/IsrExternalINPUT.c **** *   Change the ISR vector for the Interrupt. Note calling IsrExternalINPUT_Start
 178:Generated_Source\PSoC4/IsrExternalINPUT.c **** *   will override any effect this method would have had. To set the vector 
 179:Generated_Source\PSoC4/IsrExternalINPUT.c **** *   before the component has been started use IsrExternalINPUT_StartEx instead.
 180:Generated_Source\PSoC4/IsrExternalINPUT.c **** * 
 181:Generated_Source\PSoC4/IsrExternalINPUT.c **** *   When defining ISR functions, the CY_ISR and CY_ISR_PROTO macros should be 
 182:Generated_Source\PSoC4/IsrExternalINPUT.c **** *   used to provide consistent definition across compilers:
 183:Generated_Source\PSoC4/IsrExternalINPUT.c **** *
 184:Generated_Source\PSoC4/IsrExternalINPUT.c **** *   Function definition example:
 185:Generated_Source\PSoC4/IsrExternalINPUT.c **** *   CY_ISR(MyISR)
 186:Generated_Source\PSoC4/IsrExternalINPUT.c **** *   {
 187:Generated_Source\PSoC4/IsrExternalINPUT.c **** *   }
ARM GAS  C:\Users\Elea\AppData\Local\Temp\ccpYzos7.s 			page 5


 188:Generated_Source\PSoC4/IsrExternalINPUT.c **** *
 189:Generated_Source\PSoC4/IsrExternalINPUT.c **** *   Function prototype example:
 190:Generated_Source\PSoC4/IsrExternalINPUT.c **** *     CY_ISR_PROTO(MyISR);
 191:Generated_Source\PSoC4/IsrExternalINPUT.c **** *
 192:Generated_Source\PSoC4/IsrExternalINPUT.c **** * Parameters:
 193:Generated_Source\PSoC4/IsrExternalINPUT.c **** *   address: Address of the ISR to set in the interrupt vector table.
 194:Generated_Source\PSoC4/IsrExternalINPUT.c **** *
 195:Generated_Source\PSoC4/IsrExternalINPUT.c **** * Return:
 196:Generated_Source\PSoC4/IsrExternalINPUT.c **** *   None
 197:Generated_Source\PSoC4/IsrExternalINPUT.c **** *
 198:Generated_Source\PSoC4/IsrExternalINPUT.c **** *******************************************************************************/
 199:Generated_Source\PSoC4/IsrExternalINPUT.c **** void IsrExternalINPUT_SetVector(cyisraddress address)
 200:Generated_Source\PSoC4/IsrExternalINPUT.c **** {
  42              		.loc 1 200 0
  43              		.cfi_startproc
  44              	.LVL0:
 201:Generated_Source\PSoC4/IsrExternalINPUT.c ****     CyRamVectors[CYINT_IRQ_BASE + IsrExternalINPUT__INTC_NUMBER] = address;
  45              		.loc 1 201 0
  46 0000 014B     		ldr	r3, .L3
  47 0002 5864     		str	r0, [r3, #68]
 202:Generated_Source\PSoC4/IsrExternalINPUT.c **** }
  48              		.loc 1 202 0
  49              		@ sp needed
  50 0004 7047     		bx	lr
  51              	.L4:
  52 0006 C046     		.align	2
  53              	.L3:
  54 0008 00000000 		.word	CyRamVectors
  55              		.cfi_endproc
  56              	.LFE4:
  57              		.size	IsrExternalINPUT_SetVector, .-IsrExternalINPUT_SetVector
  58              		.section	.text.IsrExternalINPUT_GetVector,"ax",%progbits
  59              		.align	2
  60              		.global	IsrExternalINPUT_GetVector
  61              		.code	16
  62              		.thumb_func
  63              		.type	IsrExternalINPUT_GetVector, %function
  64              	IsrExternalINPUT_GetVector:
  65              	.LFB5:
 203:Generated_Source\PSoC4/IsrExternalINPUT.c **** 
 204:Generated_Source\PSoC4/IsrExternalINPUT.c **** 
 205:Generated_Source\PSoC4/IsrExternalINPUT.c **** /*******************************************************************************
 206:Generated_Source\PSoC4/IsrExternalINPUT.c **** * Function Name: IsrExternalINPUT_GetVector
 207:Generated_Source\PSoC4/IsrExternalINPUT.c **** ********************************************************************************
 208:Generated_Source\PSoC4/IsrExternalINPUT.c **** *
 209:Generated_Source\PSoC4/IsrExternalINPUT.c **** * Summary:
 210:Generated_Source\PSoC4/IsrExternalINPUT.c **** *   Gets the "address" of the current ISR vector for the Interrupt.
 211:Generated_Source\PSoC4/IsrExternalINPUT.c **** *
 212:Generated_Source\PSoC4/IsrExternalINPUT.c **** * Parameters:
 213:Generated_Source\PSoC4/IsrExternalINPUT.c **** *   None
 214:Generated_Source\PSoC4/IsrExternalINPUT.c **** *
 215:Generated_Source\PSoC4/IsrExternalINPUT.c **** * Return:
 216:Generated_Source\PSoC4/IsrExternalINPUT.c **** *   Address of the ISR in the interrupt vector table.
 217:Generated_Source\PSoC4/IsrExternalINPUT.c **** *
 218:Generated_Source\PSoC4/IsrExternalINPUT.c **** *******************************************************************************/
 219:Generated_Source\PSoC4/IsrExternalINPUT.c **** cyisraddress IsrExternalINPUT_GetVector(void)
 220:Generated_Source\PSoC4/IsrExternalINPUT.c **** {
ARM GAS  C:\Users\Elea\AppData\Local\Temp\ccpYzos7.s 			page 6


  66              		.loc 1 220 0
  67              		.cfi_startproc
 221:Generated_Source\PSoC4/IsrExternalINPUT.c ****     return CyRamVectors[CYINT_IRQ_BASE + IsrExternalINPUT__INTC_NUMBER];
  68              		.loc 1 221 0
  69 0000 014B     		ldr	r3, .L6
  70 0002 586C     		ldr	r0, [r3, #68]
 222:Generated_Source\PSoC4/IsrExternalINPUT.c **** }
  71              		.loc 1 222 0
  72              		@ sp needed
  73 0004 7047     		bx	lr
  74              	.L7:
  75 0006 C046     		.align	2
  76              	.L6:
  77 0008 00000000 		.word	CyRamVectors
  78              		.cfi_endproc
  79              	.LFE5:
  80              		.size	IsrExternalINPUT_GetVector, .-IsrExternalINPUT_GetVector
  81              		.section	.text.IsrExternalINPUT_SetPriority,"ax",%progbits
  82              		.align	2
  83              		.global	IsrExternalINPUT_SetPriority
  84              		.code	16
  85              		.thumb_func
  86              		.type	IsrExternalINPUT_SetPriority, %function
  87              	IsrExternalINPUT_SetPriority:
  88              	.LFB6:
 223:Generated_Source\PSoC4/IsrExternalINPUT.c **** 
 224:Generated_Source\PSoC4/IsrExternalINPUT.c **** 
 225:Generated_Source\PSoC4/IsrExternalINPUT.c **** /*******************************************************************************
 226:Generated_Source\PSoC4/IsrExternalINPUT.c **** * Function Name: IsrExternalINPUT_SetPriority
 227:Generated_Source\PSoC4/IsrExternalINPUT.c **** ********************************************************************************
 228:Generated_Source\PSoC4/IsrExternalINPUT.c **** *
 229:Generated_Source\PSoC4/IsrExternalINPUT.c **** * Summary:
 230:Generated_Source\PSoC4/IsrExternalINPUT.c **** *   Sets the Priority of the Interrupt. 
 231:Generated_Source\PSoC4/IsrExternalINPUT.c **** *
 232:Generated_Source\PSoC4/IsrExternalINPUT.c **** *   Note calling IsrExternalINPUT_Start or IsrExternalINPUT_StartEx will 
 233:Generated_Source\PSoC4/IsrExternalINPUT.c **** *   override any effect this API would have had. This API should only be called
 234:Generated_Source\PSoC4/IsrExternalINPUT.c **** *   after IsrExternalINPUT_Start or IsrExternalINPUT_StartEx has been called. 
 235:Generated_Source\PSoC4/IsrExternalINPUT.c **** *   To set the initial priority for the component, use the Design-Wide Resources
 236:Generated_Source\PSoC4/IsrExternalINPUT.c **** *   Interrupt Editor.
 237:Generated_Source\PSoC4/IsrExternalINPUT.c **** *
 238:Generated_Source\PSoC4/IsrExternalINPUT.c **** *   Note This API has no effect on Non-maskable interrupt NMI).
 239:Generated_Source\PSoC4/IsrExternalINPUT.c **** *
 240:Generated_Source\PSoC4/IsrExternalINPUT.c **** * Parameters:
 241:Generated_Source\PSoC4/IsrExternalINPUT.c **** *   priority: Priority of the interrupt, 0 being the highest priority
 242:Generated_Source\PSoC4/IsrExternalINPUT.c **** *             PSoC 3 and PSoC 5LP: Priority is from 0 to 7.
 243:Generated_Source\PSoC4/IsrExternalINPUT.c **** *             PSoC 4: Priority is from 0 to 3.
 244:Generated_Source\PSoC4/IsrExternalINPUT.c **** *
 245:Generated_Source\PSoC4/IsrExternalINPUT.c **** * Return:
 246:Generated_Source\PSoC4/IsrExternalINPUT.c **** *   None
 247:Generated_Source\PSoC4/IsrExternalINPUT.c **** *
 248:Generated_Source\PSoC4/IsrExternalINPUT.c **** *******************************************************************************/
 249:Generated_Source\PSoC4/IsrExternalINPUT.c **** void IsrExternalINPUT_SetPriority(uint8 priority)
 250:Generated_Source\PSoC4/IsrExternalINPUT.c **** {
  89              		.loc 1 250 0
  90              		.cfi_startproc
  91              	.LVL1:
  92 0000 10B5     		push	{r4, lr}
ARM GAS  C:\Users\Elea\AppData\Local\Temp\ccpYzos7.s 			page 7


  93              		.cfi_def_cfa_offset 8
  94              		.cfi_offset 4, -8
  95              		.cfi_offset 14, -4
  96 0002 041C     		mov	r4, r0
  97              	.LVL2:
 251:Generated_Source\PSoC4/IsrExternalINPUT.c **** 	uint8 interruptState;
 252:Generated_Source\PSoC4/IsrExternalINPUT.c ****     uint32 priorityOffset = ((IsrExternalINPUT__INTC_NUMBER % 4u) * 8u) + 6u;
 253:Generated_Source\PSoC4/IsrExternalINPUT.c ****     
 254:Generated_Source\PSoC4/IsrExternalINPUT.c **** 	interruptState = CyEnterCriticalSection();
  98              		.loc 1 254 0
  99 0004 FFF7FEFF 		bl	CyEnterCriticalSection
 100              	.LVL3:
 255:Generated_Source\PSoC4/IsrExternalINPUT.c ****     *IsrExternalINPUT_INTC_PRIOR = (*IsrExternalINPUT_INTC_PRIOR & (uint32)(~IsrExternalINPUT__INTC
 101              		.loc 1 255 0
 102 0008 044A     		ldr	r2, .L9
 103 000a 1168     		ldr	r1, [r2]
 104 000c 044B     		ldr	r3, .L9+4
 105 000e 0B40     		and	r3, r1
 256:Generated_Source\PSoC4/IsrExternalINPUT.c ****                                     ((uint32)priority << priorityOffset);
 106              		.loc 1 256 0
 107 0010 A403     		lsl	r4, r4, #14
 255:Generated_Source\PSoC4/IsrExternalINPUT.c ****     *IsrExternalINPUT_INTC_PRIOR = (*IsrExternalINPUT_INTC_PRIOR & (uint32)(~IsrExternalINPUT__INTC
 108              		.loc 1 255 0
 109 0012 1C43     		orr	r4, r3
 110 0014 1460     		str	r4, [r2]
 257:Generated_Source\PSoC4/IsrExternalINPUT.c **** 	CyExitCriticalSection(interruptState);
 111              		.loc 1 257 0
 112 0016 FFF7FEFF 		bl	CyExitCriticalSection
 113              	.LVL4:
 258:Generated_Source\PSoC4/IsrExternalINPUT.c **** }
 114              		.loc 1 258 0
 115              		@ sp needed
 116 001a 10BD     		pop	{r4, pc}
 117              	.L10:
 118              		.align	2
 119              	.L9:
 120 001c 00E400E0 		.word	-536812544
 121 0020 FF3FFFFF 		.word	-49153
 122              		.cfi_endproc
 123              	.LFE6:
 124              		.size	IsrExternalINPUT_SetPriority, .-IsrExternalINPUT_SetPriority
 125              		.section	.text.IsrExternalINPUT_GetPriority,"ax",%progbits
 126              		.align	2
 127              		.global	IsrExternalINPUT_GetPriority
 128              		.code	16
 129              		.thumb_func
 130              		.type	IsrExternalINPUT_GetPriority, %function
 131              	IsrExternalINPUT_GetPriority:
 132              	.LFB7:
 259:Generated_Source\PSoC4/IsrExternalINPUT.c **** 
 260:Generated_Source\PSoC4/IsrExternalINPUT.c **** 
 261:Generated_Source\PSoC4/IsrExternalINPUT.c **** /*******************************************************************************
 262:Generated_Source\PSoC4/IsrExternalINPUT.c **** * Function Name: IsrExternalINPUT_GetPriority
 263:Generated_Source\PSoC4/IsrExternalINPUT.c **** ********************************************************************************
 264:Generated_Source\PSoC4/IsrExternalINPUT.c **** *
 265:Generated_Source\PSoC4/IsrExternalINPUT.c **** * Summary:
 266:Generated_Source\PSoC4/IsrExternalINPUT.c **** *   Gets the Priority of the Interrupt.
ARM GAS  C:\Users\Elea\AppData\Local\Temp\ccpYzos7.s 			page 8


 267:Generated_Source\PSoC4/IsrExternalINPUT.c **** *
 268:Generated_Source\PSoC4/IsrExternalINPUT.c **** * Parameters:
 269:Generated_Source\PSoC4/IsrExternalINPUT.c **** *   None
 270:Generated_Source\PSoC4/IsrExternalINPUT.c **** *
 271:Generated_Source\PSoC4/IsrExternalINPUT.c **** * Return:
 272:Generated_Source\PSoC4/IsrExternalINPUT.c **** *   Priority of the interrupt, 0 being the highest priority
 273:Generated_Source\PSoC4/IsrExternalINPUT.c **** *    PSoC 3 and PSoC 5LP: Priority is from 0 to 7.
 274:Generated_Source\PSoC4/IsrExternalINPUT.c **** *    PSoC 4: Priority is from 0 to 3.
 275:Generated_Source\PSoC4/IsrExternalINPUT.c **** *
 276:Generated_Source\PSoC4/IsrExternalINPUT.c **** *******************************************************************************/
 277:Generated_Source\PSoC4/IsrExternalINPUT.c **** uint8 IsrExternalINPUT_GetPriority(void)
 278:Generated_Source\PSoC4/IsrExternalINPUT.c **** {
 133              		.loc 1 278 0
 134              		.cfi_startproc
 135              	.LVL5:
 279:Generated_Source\PSoC4/IsrExternalINPUT.c ****     uint32 priority;
 280:Generated_Source\PSoC4/IsrExternalINPUT.c **** 	uint32 priorityOffset = ((IsrExternalINPUT__INTC_NUMBER % 4u) * 8u) + 6u;
 281:Generated_Source\PSoC4/IsrExternalINPUT.c **** 
 282:Generated_Source\PSoC4/IsrExternalINPUT.c ****     priority = (*IsrExternalINPUT_INTC_PRIOR & IsrExternalINPUT__INTC_PRIOR_MASK) >> priorityOffset
 136              		.loc 1 282 0
 137 0000 024B     		ldr	r3, .L12
 138 0002 1868     		ldr	r0, [r3]
 139 0004 0004     		lsl	r0, r0, #16
 140              	.LVL6:
 283:Generated_Source\PSoC4/IsrExternalINPUT.c **** 
 284:Generated_Source\PSoC4/IsrExternalINPUT.c ****     return (uint8)priority;
 141              		.loc 1 284 0
 142 0006 800F     		lsr	r0, r0, #30
 143              	.LVL7:
 285:Generated_Source\PSoC4/IsrExternalINPUT.c **** }
 144              		.loc 1 285 0
 145              		@ sp needed
 146 0008 7047     		bx	lr
 147              	.L13:
 148 000a C046     		.align	2
 149              	.L12:
 150 000c 00E400E0 		.word	-536812544
 151              		.cfi_endproc
 152              	.LFE7:
 153              		.size	IsrExternalINPUT_GetPriority, .-IsrExternalINPUT_GetPriority
 154              		.section	.text.IsrExternalINPUT_Enable,"ax",%progbits
 155              		.align	2
 156              		.global	IsrExternalINPUT_Enable
 157              		.code	16
 158              		.thumb_func
 159              		.type	IsrExternalINPUT_Enable, %function
 160              	IsrExternalINPUT_Enable:
 161              	.LFB8:
 286:Generated_Source\PSoC4/IsrExternalINPUT.c **** 
 287:Generated_Source\PSoC4/IsrExternalINPUT.c **** 
 288:Generated_Source\PSoC4/IsrExternalINPUT.c **** /*******************************************************************************
 289:Generated_Source\PSoC4/IsrExternalINPUT.c **** * Function Name: IsrExternalINPUT_Enable
 290:Generated_Source\PSoC4/IsrExternalINPUT.c **** ********************************************************************************
 291:Generated_Source\PSoC4/IsrExternalINPUT.c **** *
 292:Generated_Source\PSoC4/IsrExternalINPUT.c **** * Summary:
 293:Generated_Source\PSoC4/IsrExternalINPUT.c **** *   Enables the interrupt to the interrupt controller. Do not call this function
 294:Generated_Source\PSoC4/IsrExternalINPUT.c **** *   unless ISR_Start() has been called or the functionality of the ISR_Start() 
ARM GAS  C:\Users\Elea\AppData\Local\Temp\ccpYzos7.s 			page 9


 295:Generated_Source\PSoC4/IsrExternalINPUT.c **** *   function, which sets the vector and the priority, has been called.
 296:Generated_Source\PSoC4/IsrExternalINPUT.c **** *
 297:Generated_Source\PSoC4/IsrExternalINPUT.c **** * Parameters:
 298:Generated_Source\PSoC4/IsrExternalINPUT.c **** *   None
 299:Generated_Source\PSoC4/IsrExternalINPUT.c **** *
 300:Generated_Source\PSoC4/IsrExternalINPUT.c **** * Return:
 301:Generated_Source\PSoC4/IsrExternalINPUT.c **** *   None
 302:Generated_Source\PSoC4/IsrExternalINPUT.c **** *
 303:Generated_Source\PSoC4/IsrExternalINPUT.c **** *******************************************************************************/
 304:Generated_Source\PSoC4/IsrExternalINPUT.c **** void IsrExternalINPUT_Enable(void)
 305:Generated_Source\PSoC4/IsrExternalINPUT.c **** {
 162              		.loc 1 305 0
 163              		.cfi_startproc
 306:Generated_Source\PSoC4/IsrExternalINPUT.c ****     /* Enable the general interrupt. */
 307:Generated_Source\PSoC4/IsrExternalINPUT.c ****     *IsrExternalINPUT_INTC_SET_EN = IsrExternalINPUT__INTC_MASK;
 164              		.loc 1 307 0
 165 0000 0222     		mov	r2, #2
 166 0002 014B     		ldr	r3, .L15
 167 0004 1A60     		str	r2, [r3]
 308:Generated_Source\PSoC4/IsrExternalINPUT.c **** }
 168              		.loc 1 308 0
 169              		@ sp needed
 170 0006 7047     		bx	lr
 171              	.L16:
 172              		.align	2
 173              	.L15:
 174 0008 00E100E0 		.word	-536813312
 175              		.cfi_endproc
 176              	.LFE8:
 177              		.size	IsrExternalINPUT_Enable, .-IsrExternalINPUT_Enable
 178              		.section	.text.IsrExternalINPUT_GetState,"ax",%progbits
 179              		.align	2
 180              		.global	IsrExternalINPUT_GetState
 181              		.code	16
 182              		.thumb_func
 183              		.type	IsrExternalINPUT_GetState, %function
 184              	IsrExternalINPUT_GetState:
 185              	.LFB9:
 309:Generated_Source\PSoC4/IsrExternalINPUT.c **** 
 310:Generated_Source\PSoC4/IsrExternalINPUT.c **** 
 311:Generated_Source\PSoC4/IsrExternalINPUT.c **** /*******************************************************************************
 312:Generated_Source\PSoC4/IsrExternalINPUT.c **** * Function Name: IsrExternalINPUT_GetState
 313:Generated_Source\PSoC4/IsrExternalINPUT.c **** ********************************************************************************
 314:Generated_Source\PSoC4/IsrExternalINPUT.c **** *
 315:Generated_Source\PSoC4/IsrExternalINPUT.c **** * Summary:
 316:Generated_Source\PSoC4/IsrExternalINPUT.c **** *   Gets the state (enabled, disabled) of the Interrupt.
 317:Generated_Source\PSoC4/IsrExternalINPUT.c **** *
 318:Generated_Source\PSoC4/IsrExternalINPUT.c **** * Parameters:
 319:Generated_Source\PSoC4/IsrExternalINPUT.c **** *   None
 320:Generated_Source\PSoC4/IsrExternalINPUT.c **** *
 321:Generated_Source\PSoC4/IsrExternalINPUT.c **** * Return:
 322:Generated_Source\PSoC4/IsrExternalINPUT.c **** *   1 if enabled, 0 if disabled.
 323:Generated_Source\PSoC4/IsrExternalINPUT.c **** *
 324:Generated_Source\PSoC4/IsrExternalINPUT.c **** *******************************************************************************/
 325:Generated_Source\PSoC4/IsrExternalINPUT.c **** uint8 IsrExternalINPUT_GetState(void)
 326:Generated_Source\PSoC4/IsrExternalINPUT.c **** {
 186              		.loc 1 326 0
ARM GAS  C:\Users\Elea\AppData\Local\Temp\ccpYzos7.s 			page 10


 187              		.cfi_startproc
 327:Generated_Source\PSoC4/IsrExternalINPUT.c ****     /* Get the state of the general interrupt. */
 328:Generated_Source\PSoC4/IsrExternalINPUT.c ****     return ((*IsrExternalINPUT_INTC_SET_EN & (uint32)IsrExternalINPUT__INTC_MASK) != 0u) ? 1u:0u;
 188              		.loc 1 328 0
 189 0000 034B     		ldr	r3, .L20
 190 0002 1B68     		ldr	r3, [r3]
 191 0004 9B07     		lsl	r3, r3, #30
 192 0006 01D5     		bpl	.L19
 193 0008 0120     		mov	r0, #1
 194 000a 00E0     		b	.L18
 195              	.L19:
 196 000c 0020     		mov	r0, #0
 197              	.L18:
 329:Generated_Source\PSoC4/IsrExternalINPUT.c **** }
 198              		.loc 1 329 0 discriminator 4
 199              		@ sp needed
 200 000e 7047     		bx	lr
 201              	.L21:
 202              		.align	2
 203              	.L20:
 204 0010 00E100E0 		.word	-536813312
 205              		.cfi_endproc
 206              	.LFE9:
 207              		.size	IsrExternalINPUT_GetState, .-IsrExternalINPUT_GetState
 208              		.section	.text.IsrExternalINPUT_Disable,"ax",%progbits
 209              		.align	2
 210              		.global	IsrExternalINPUT_Disable
 211              		.code	16
 212              		.thumb_func
 213              		.type	IsrExternalINPUT_Disable, %function
 214              	IsrExternalINPUT_Disable:
 215              	.LFB10:
 330:Generated_Source\PSoC4/IsrExternalINPUT.c **** 
 331:Generated_Source\PSoC4/IsrExternalINPUT.c **** 
 332:Generated_Source\PSoC4/IsrExternalINPUT.c **** /*******************************************************************************
 333:Generated_Source\PSoC4/IsrExternalINPUT.c **** * Function Name: IsrExternalINPUT_Disable
 334:Generated_Source\PSoC4/IsrExternalINPUT.c **** ********************************************************************************
 335:Generated_Source\PSoC4/IsrExternalINPUT.c **** *
 336:Generated_Source\PSoC4/IsrExternalINPUT.c **** * Summary:
 337:Generated_Source\PSoC4/IsrExternalINPUT.c **** *   Disables the Interrupt in the interrupt controller.
 338:Generated_Source\PSoC4/IsrExternalINPUT.c **** *
 339:Generated_Source\PSoC4/IsrExternalINPUT.c **** * Parameters:
 340:Generated_Source\PSoC4/IsrExternalINPUT.c **** *   None
 341:Generated_Source\PSoC4/IsrExternalINPUT.c **** *
 342:Generated_Source\PSoC4/IsrExternalINPUT.c **** * Return:
 343:Generated_Source\PSoC4/IsrExternalINPUT.c **** *   None
 344:Generated_Source\PSoC4/IsrExternalINPUT.c **** *
 345:Generated_Source\PSoC4/IsrExternalINPUT.c **** *******************************************************************************/
 346:Generated_Source\PSoC4/IsrExternalINPUT.c **** void IsrExternalINPUT_Disable(void)
 347:Generated_Source\PSoC4/IsrExternalINPUT.c **** {
 216              		.loc 1 347 0
 217              		.cfi_startproc
 348:Generated_Source\PSoC4/IsrExternalINPUT.c ****     /* Disable the general interrupt. */
 349:Generated_Source\PSoC4/IsrExternalINPUT.c ****     *IsrExternalINPUT_INTC_CLR_EN = IsrExternalINPUT__INTC_MASK;
 218              		.loc 1 349 0
 219 0000 0222     		mov	r2, #2
 220 0002 014B     		ldr	r3, .L23
ARM GAS  C:\Users\Elea\AppData\Local\Temp\ccpYzos7.s 			page 11


 221 0004 1A60     		str	r2, [r3]
 350:Generated_Source\PSoC4/IsrExternalINPUT.c **** }
 222              		.loc 1 350 0
 223              		@ sp needed
 224 0006 7047     		bx	lr
 225              	.L24:
 226              		.align	2
 227              	.L23:
 228 0008 80E100E0 		.word	-536813184
 229              		.cfi_endproc
 230              	.LFE10:
 231              		.size	IsrExternalINPUT_Disable, .-IsrExternalINPUT_Disable
 232              		.section	.text.IsrExternalINPUT_Start,"ax",%progbits
 233              		.align	2
 234              		.global	IsrExternalINPUT_Start
 235              		.code	16
 236              		.thumb_func
 237              		.type	IsrExternalINPUT_Start, %function
 238              	IsrExternalINPUT_Start:
 239              	.LFB0:
  57:Generated_Source\PSoC4/IsrExternalINPUT.c ****     /* For all we know the interrupt is active. */
 240              		.loc 1 57 0
 241              		.cfi_startproc
 242 0000 08B5     		push	{r3, lr}
 243              		.cfi_def_cfa_offset 8
 244              		.cfi_offset 3, -8
 245              		.cfi_offset 14, -4
  59:Generated_Source\PSoC4/IsrExternalINPUT.c **** 
 246              		.loc 1 59 0
 247 0002 FFF7FEFF 		bl	IsrExternalINPUT_Disable
 248              	.LVL8:
  62:Generated_Source\PSoC4/IsrExternalINPUT.c **** 
 249              		.loc 1 62 0
 250 0006 0448     		ldr	r0, .L26
 251 0008 FFF7FEFF 		bl	IsrExternalINPUT_SetVector
 252              	.LVL9:
  65:Generated_Source\PSoC4/IsrExternalINPUT.c **** 
 253              		.loc 1 65 0
 254 000c 0320     		mov	r0, #3
 255 000e FFF7FEFF 		bl	IsrExternalINPUT_SetPriority
 256              	.LVL10:
  68:Generated_Source\PSoC4/IsrExternalINPUT.c **** }
 257              		.loc 1 68 0
 258 0012 FFF7FEFF 		bl	IsrExternalINPUT_Enable
 259              	.LVL11:
  69:Generated_Source\PSoC4/IsrExternalINPUT.c **** 
 260              		.loc 1 69 0
 261              		@ sp needed
 262 0016 08BD     		pop	{r3, pc}
 263              	.L27:
 264              		.align	2
 265              	.L26:
 266 0018 00000000 		.word	IsrExternalINPUT_Interrupt
 267              		.cfi_endproc
 268              	.LFE0:
 269              		.size	IsrExternalINPUT_Start, .-IsrExternalINPUT_Start
 270              		.section	.text.IsrExternalINPUT_StartEx,"ax",%progbits
ARM GAS  C:\Users\Elea\AppData\Local\Temp\ccpYzos7.s 			page 12


 271              		.align	2
 272              		.global	IsrExternalINPUT_StartEx
 273              		.code	16
 274              		.thumb_func
 275              		.type	IsrExternalINPUT_StartEx, %function
 276              	IsrExternalINPUT_StartEx:
 277              	.LFB1:
 100:Generated_Source\PSoC4/IsrExternalINPUT.c ****     /* For all we know the interrupt is active. */
 278              		.loc 1 100 0
 279              		.cfi_startproc
 280              	.LVL12:
 281 0000 10B5     		push	{r4, lr}
 282              		.cfi_def_cfa_offset 8
 283              		.cfi_offset 4, -8
 284              		.cfi_offset 14, -4
 285 0002 041C     		mov	r4, r0
 102:Generated_Source\PSoC4/IsrExternalINPUT.c **** 
 286              		.loc 1 102 0
 287 0004 FFF7FEFF 		bl	IsrExternalINPUT_Disable
 288              	.LVL13:
 105:Generated_Source\PSoC4/IsrExternalINPUT.c **** 
 289              		.loc 1 105 0
 290 0008 201C     		mov	r0, r4
 291 000a FFF7FEFF 		bl	IsrExternalINPUT_SetVector
 292              	.LVL14:
 108:Generated_Source\PSoC4/IsrExternalINPUT.c **** 
 293              		.loc 1 108 0
 294 000e 0320     		mov	r0, #3
 295 0010 FFF7FEFF 		bl	IsrExternalINPUT_SetPriority
 296              	.LVL15:
 111:Generated_Source\PSoC4/IsrExternalINPUT.c **** }
 297              		.loc 1 111 0
 298 0014 FFF7FEFF 		bl	IsrExternalINPUT_Enable
 299              	.LVL16:
 112:Generated_Source\PSoC4/IsrExternalINPUT.c **** 
 300              		.loc 1 112 0
 301              		@ sp needed
 302              	.LVL17:
 303 0018 10BD     		pop	{r4, pc}
 304              		.cfi_endproc
 305              	.LFE1:
 306              		.size	IsrExternalINPUT_StartEx, .-IsrExternalINPUT_StartEx
 307 001a C046     		.section	.text.IsrExternalINPUT_Stop,"ax",%progbits
 308              		.align	2
 309              		.global	IsrExternalINPUT_Stop
 310              		.code	16
 311              		.thumb_func
 312              		.type	IsrExternalINPUT_Stop, %function
 313              	IsrExternalINPUT_Stop:
 314              	.LFB2:
 130:Generated_Source\PSoC4/IsrExternalINPUT.c ****     /* Disable this interrupt. */
 315              		.loc 1 130 0
 316              		.cfi_startproc
 317 0000 08B5     		push	{r3, lr}
 318              		.cfi_def_cfa_offset 8
 319              		.cfi_offset 3, -8
 320              		.cfi_offset 14, -4
ARM GAS  C:\Users\Elea\AppData\Local\Temp\ccpYzos7.s 			page 13


 132:Generated_Source\PSoC4/IsrExternalINPUT.c **** 
 321              		.loc 1 132 0
 322 0002 FFF7FEFF 		bl	IsrExternalINPUT_Disable
 323              	.LVL18:
 135:Generated_Source\PSoC4/IsrExternalINPUT.c **** }
 324              		.loc 1 135 0
 325 0006 0248     		ldr	r0, .L30
 326 0008 FFF7FEFF 		bl	IsrExternalINPUT_SetVector
 327              	.LVL19:
 136:Generated_Source\PSoC4/IsrExternalINPUT.c **** 
 328              		.loc 1 136 0
 329              		@ sp needed
 330 000c 08BD     		pop	{r3, pc}
 331              	.L31:
 332 000e C046     		.align	2
 333              	.L30:
 334 0010 00000000 		.word	IntDefaultHandler
 335              		.cfi_endproc
 336              	.LFE2:
 337              		.size	IsrExternalINPUT_Stop, .-IsrExternalINPUT_Stop
 338              		.section	.text.IsrExternalINPUT_SetPending,"ax",%progbits
 339              		.align	2
 340              		.global	IsrExternalINPUT_SetPending
 341              		.code	16
 342              		.thumb_func
 343              		.type	IsrExternalINPUT_SetPending, %function
 344              	IsrExternalINPUT_SetPending:
 345              	.LFB11:
 351:Generated_Source\PSoC4/IsrExternalINPUT.c **** 
 352:Generated_Source\PSoC4/IsrExternalINPUT.c **** 
 353:Generated_Source\PSoC4/IsrExternalINPUT.c **** /*******************************************************************************
 354:Generated_Source\PSoC4/IsrExternalINPUT.c **** * Function Name: IsrExternalINPUT_SetPending
 355:Generated_Source\PSoC4/IsrExternalINPUT.c **** ********************************************************************************
 356:Generated_Source\PSoC4/IsrExternalINPUT.c **** *
 357:Generated_Source\PSoC4/IsrExternalINPUT.c **** * Summary:
 358:Generated_Source\PSoC4/IsrExternalINPUT.c **** *   Causes the Interrupt to enter the pending state, a software method of
 359:Generated_Source\PSoC4/IsrExternalINPUT.c **** *   generating the interrupt.
 360:Generated_Source\PSoC4/IsrExternalINPUT.c **** *
 361:Generated_Source\PSoC4/IsrExternalINPUT.c **** * Parameters:
 362:Generated_Source\PSoC4/IsrExternalINPUT.c **** *   None
 363:Generated_Source\PSoC4/IsrExternalINPUT.c **** *
 364:Generated_Source\PSoC4/IsrExternalINPUT.c **** * Return:
 365:Generated_Source\PSoC4/IsrExternalINPUT.c **** *   None
 366:Generated_Source\PSoC4/IsrExternalINPUT.c **** *
 367:Generated_Source\PSoC4/IsrExternalINPUT.c **** * Side Effects:
 368:Generated_Source\PSoC4/IsrExternalINPUT.c **** *   If interrupts are enabled and the interrupt is set up properly, the ISR is
 369:Generated_Source\PSoC4/IsrExternalINPUT.c **** *   entered (depending on the priority of this interrupt and other pending 
 370:Generated_Source\PSoC4/IsrExternalINPUT.c **** *   interrupts).
 371:Generated_Source\PSoC4/IsrExternalINPUT.c **** *
 372:Generated_Source\PSoC4/IsrExternalINPUT.c **** *******************************************************************************/
 373:Generated_Source\PSoC4/IsrExternalINPUT.c **** void IsrExternalINPUT_SetPending(void)
 374:Generated_Source\PSoC4/IsrExternalINPUT.c **** {
 346              		.loc 1 374 0
 347              		.cfi_startproc
 375:Generated_Source\PSoC4/IsrExternalINPUT.c ****     *IsrExternalINPUT_INTC_SET_PD = IsrExternalINPUT__INTC_MASK;
 348              		.loc 1 375 0
 349 0000 0222     		mov	r2, #2
ARM GAS  C:\Users\Elea\AppData\Local\Temp\ccpYzos7.s 			page 14


 350 0002 014B     		ldr	r3, .L33
 351 0004 1A60     		str	r2, [r3]
 376:Generated_Source\PSoC4/IsrExternalINPUT.c **** }
 352              		.loc 1 376 0
 353              		@ sp needed
 354 0006 7047     		bx	lr
 355              	.L34:
 356              		.align	2
 357              	.L33:
 358 0008 00E200E0 		.word	-536813056
 359              		.cfi_endproc
 360              	.LFE11:
 361              		.size	IsrExternalINPUT_SetPending, .-IsrExternalINPUT_SetPending
 362              		.section	.text.IsrExternalINPUT_ClearPending,"ax",%progbits
 363              		.align	2
 364              		.global	IsrExternalINPUT_ClearPending
 365              		.code	16
 366              		.thumb_func
 367              		.type	IsrExternalINPUT_ClearPending, %function
 368              	IsrExternalINPUT_ClearPending:
 369              	.LFB12:
 377:Generated_Source\PSoC4/IsrExternalINPUT.c **** 
 378:Generated_Source\PSoC4/IsrExternalINPUT.c **** 
 379:Generated_Source\PSoC4/IsrExternalINPUT.c **** /*******************************************************************************
 380:Generated_Source\PSoC4/IsrExternalINPUT.c **** * Function Name: IsrExternalINPUT_ClearPending
 381:Generated_Source\PSoC4/IsrExternalINPUT.c **** ********************************************************************************
 382:Generated_Source\PSoC4/IsrExternalINPUT.c **** *
 383:Generated_Source\PSoC4/IsrExternalINPUT.c **** * Summary:
 384:Generated_Source\PSoC4/IsrExternalINPUT.c **** *   Clears a pending interrupt in the interrupt controller.
 385:Generated_Source\PSoC4/IsrExternalINPUT.c **** *
 386:Generated_Source\PSoC4/IsrExternalINPUT.c **** *   Note Some interrupt sources are clear-on-read and require the block 
 387:Generated_Source\PSoC4/IsrExternalINPUT.c **** *   interrupt/status register to be read/cleared with the appropriate block API 
 388:Generated_Source\PSoC4/IsrExternalINPUT.c **** *   (GPIO, UART, and so on). Otherwise the ISR will continue to remain in 
 389:Generated_Source\PSoC4/IsrExternalINPUT.c **** *   pending state even though the interrupt itself is cleared using this API.
 390:Generated_Source\PSoC4/IsrExternalINPUT.c **** *
 391:Generated_Source\PSoC4/IsrExternalINPUT.c **** * Parameters:
 392:Generated_Source\PSoC4/IsrExternalINPUT.c **** *   None
 393:Generated_Source\PSoC4/IsrExternalINPUT.c **** *
 394:Generated_Source\PSoC4/IsrExternalINPUT.c **** * Return:
 395:Generated_Source\PSoC4/IsrExternalINPUT.c **** *   None
 396:Generated_Source\PSoC4/IsrExternalINPUT.c **** *
 397:Generated_Source\PSoC4/IsrExternalINPUT.c **** *******************************************************************************/
 398:Generated_Source\PSoC4/IsrExternalINPUT.c **** void IsrExternalINPUT_ClearPending(void)
 399:Generated_Source\PSoC4/IsrExternalINPUT.c **** {
 370              		.loc 1 399 0
 371              		.cfi_startproc
 400:Generated_Source\PSoC4/IsrExternalINPUT.c ****     *IsrExternalINPUT_INTC_CLR_PD = IsrExternalINPUT__INTC_MASK;
 372              		.loc 1 400 0
 373 0000 0222     		mov	r2, #2
 374 0002 014B     		ldr	r3, .L36
 375 0004 1A60     		str	r2, [r3]
 401:Generated_Source\PSoC4/IsrExternalINPUT.c **** }
 376              		.loc 1 401 0
 377              		@ sp needed
 378 0006 7047     		bx	lr
 379              	.L37:
 380              		.align	2
ARM GAS  C:\Users\Elea\AppData\Local\Temp\ccpYzos7.s 			page 15


 381              	.L36:
 382 0008 80E200E0 		.word	-536812928
 383              		.cfi_endproc
 384              	.LFE12:
 385              		.size	IsrExternalINPUT_ClearPending, .-IsrExternalINPUT_ClearPending
 386              		.text
 387              	.Letext0:
 388              		.file 2 "Generated_Source\\PSoC4/cytypes.h"
 389              		.file 3 "Generated_Source\\PSoC4/CyLib.h"
