:4000000000100020110000004D0700004D07000008B500F09DFBC04610B5154C23688022D20213432360182000F0C2FC2268114B13402360104A114B1A603022104B1A6093
:40004000103A104B1A60103A0F4B1A60802212060E4B1A6000232360FE210D4A11600D490D4A11600D490E4A11600E4A136010BD00010B40FFFFFBFF0600008004010B403A
:4000800008020240140202401802024008010B4000000240FE0000404000024022000080800002400C020B4010B572B6002410E0354863001A195200821891881B195B0085
:4000C0001A5AC31858880004104300F0A3FB0134E4B2012CECD92C49081C0C30203100F07FFB9922294B1A600022294B1A6099231B04284A1360284A136080218903274AA3
:400100001160274A1360274A136080229205264B1A60264B197802220A431A70244802783C218A4328390A430270197816220A431A70C0221F4B1A601F4A204B1A6004225B
:400140001F4B1A601F4A204B1A6020221F4B1A60FF231F4A13601F4A136043221E4B1A601E4A1F4B1A6003221E4B1A6006231E4A136031211D4A11601D4A1360FFF74CFF68
:4001800000F06EFB10BDC04650250000100001400C00014000500F4010500F4014500F4020500F4030500F4038500F4000700F4001700F4000000440DBB6D9000800044021
:4001C000000104409BB66D00080104400C010440000204401802044000030440C086D900080304401803044000040440080404401804044010B5064C2378002B07D1054BA9
:40020000002B02D0044800E000BF0123237010BD20020020000000003421000008B5084B002B03D00748084900E000BF07480368002B00D108BD064B002BFBD09847F9E7ED
:40024000000000003421000024020020C80000200000000008B50122044B1A70C82000F085FB00F09FFE00F097FE08BD3C02002008B5054A136801331360042000F094FDE2
:4002800001F094FB08BDC046CC00002008B5062001F010FC062001F09DFB012001F0FEFB002001F08BFB0A2000F060FB002001F0F5FB0C2000F02EFC00F0FCFA02280DD12C
:4002C00000F0E8FA00F0FEFA012000F08BF9FA20400000F04BFB002000F084F900F0DAFA012001F06BFB032001F0E4FB012001F071FB08BD08B5012001F08EFB002001F0B7
:4003000075FB032001F07EFB012001F063FB012001F0D0FB154800F031FE154801F038FB144800F023FB012000F04AF9FA20400000F01CFB002000F043F90020012100F0D9
:400340009BFC0020C821090100F010FD0020012100F0AEFC012000F0C7FC00F023FF01F0B7F8002001F034F908BDC0465502000071020000C409000010B58A4C0023237083
:400380006370012000F0B0FC01F052F800F0F2FB012000F0C9FCA378002B16D101F060F800F0B0FF01E000F0D7FB00F067FE0028F9D101F0B1F9012001F0AEF901F0F8F88B
:4003C000002802D00122774B5A70764B1B78012B17D1022000F094F9012000F0F1F8012000F012F9FA20800000F0C0FA002000F00BF9002000F0E4F86A4B00221A7001325F
:400400009A70684B5B78012B17D1012000F078F9012000F0D5F8012000F0F6F8FA20800000F0A4FA002000F0EFF8002000F0C8F85C4B00225A7001329A705A4BDB78012BD6
:400440000FD1594B1868642101F04AFD002908D1012000F0C7F8322000F088FA002000F0C1F8514B1A68514B9A421CD900224E4B1A60642000F07AFA0B2000F04BFB00F063
:4004800019FA02280AD100F005FA00F01BFA042000F036F90122434BDA7004E000F0FAF9052000F02DF93F4B9B78002B00D164E73C4B00221A715A716FE03A4A9379591CB9
:4004C0009171182B0BD90022364B9A71012000F077F8642000F04AFA002000F071F8012000F002FC00F0A4FF00F044FB012000F01BFC00F0B5FF00F005FF01E000F02CFBEB
:4005000000F0BCFD0028F9D1264A53790133537101F002F9012001F0FFF801F049F8002804D0204A13790133137103E01D4B00221A715A711B4B5B79322B2ED1194A1279D4
:4005400093422AD10022174B9A70032000F0D8F8012000F059F8012000F032F8642000F005FA002000F050F8002000F029F8FA2000F0FCF9012000F047F8012000F020F829
:40058000642000F0F3F9002000F03EF8002000F017F800F04DFFFFF7ADFE024B9B78002B8BD1EAE63C020020CC000020002F0D0008B562B6FFF79EFEFFF768FEFFF7DCFEC9
:4005C00008B5012806D1053001F08CFA002001F07DFA05E0012001F079FA022001F082FA08BDC04608B5012806D1053001F092FA002001F083FA05E0012001F07FFA0220B7
:4006000001F088FA08BDC04608B5012806D1023001F08CF9012001F07DF905E0002001F079F9032001F082F908BDC04638B5051C062001F03FFA062001F0CCF9062001F07C
:40064000EBF9062001F0DEF9012001F027FA002001F0B4F9022000F089F9002001F01EFA00F0E0FB142000F081F9002404E0A300585900F0F7FB0134042CF8DD00200122D6
:4006800006E093005B59584080001C4B185C0132042AF6DD00F0E6FB052404E0A300585900F0E0FB01340B2CF8DD0020052206E093005B5958408000104B185C01320B2AE5
:4006C000F6DD00F0CFFB642000F050F900F0BAFB012001F0A1F9002001F088F9032001F091F9012001F06AF9002001F0D7F9032001F0E0F9012001F06DF938BD502100000E
:4007000008B505281AD880000D4B1B589F460D48FFF78CFF12E00B483030FFF787FF0DE008486030FFF782FF08E007481030FFF77DFF03E004484030FFF778FF08BDC046B2
:4007400038210000D000002050010020FEE7C04670B50F4E0F4D13E029686B68AC68002202E001C901C30432A242FAD1E868002202E0002102C304328242FAD11035013E91
:40078000002EE9D101F0A8FCFFF712FFFEE7C04601000000AC26000008B500230AE0032B03D89A000A49505800E00A4899000A4A885001332F2BF2D9FFF776FC0022074B63
:4007C0001A608022D205116801230B43136008BD000000004D07000000000020C0000020F0B50025002711E0BB00C658F3B2FF22964308E06A008A181478A419527822709C
:400800000135013BDBB2002BF4D10137042FEBD9F0BDC04608B50A1C002101F083FC08BD0C4B1B68002803D080221206134301E05B005B08074A1360074B1B68002803D096
:4008400080229204134301E0044A1340024A13607047C04680031A4008010B40FFFFFFFD08B50120FFF7DCFF08BDC04610B5041C01F068F907231C40E40404490B68044A94
:40088000134023430B6001F061F910BD00010B40FFFFC7FF054A136802218B431360044A136801398B4313607047C04608000B4018000B40024B1B68022018407047C04600
:4008C00004000B400222014B1A60704704000B401F2318401E3B8340181C014B1860704700E100E01F2318401E3B8340181C014B1860704780E100E001BE704738B5041C6A
:400900000D1C1F2802D90020FFF7F6FFA400034B9C4664442068256038BDC0464000002070B5041C0E1E032E02D90020FFF7E4FF1F2C02D90020FFF7DFFF03252540ED0073
:40094000063501F0FFF8A408A400074B9C46644423680322AA409343AE40351C1D43256001F0F4F870BDC04600E400E010B5041C06E0084B186801F0DBF8074B9C46644482
:4009800080231B029C42F4D8024B5868604301F0CFF810BDE80100200080FFFF08B5034B1B7A584301F0C4F808BDC046E8010020F0B557464E46C0B483B0041C01F0C2F80D
:4009C0000190E71E2D2F74D83F4B1B78DBB2A34208D33E4B1B78DBB29A463D4B1B78DBB2994631E03B4B1B78DBB2A34208D33A4B1B78DBB29A46394B1B78DBB2994623E0BD
:400A0000374B1B78DBB2A34208D3364B1B78DBB29A46354B1B78DBB2994615E0334B1B78DBB2A34208D3324B1B78DBB29A46314B1B78DBB2994607E02F4B1B78DBB29A46A8
:400A40002E4B1B78DBB299462D4BDE5D2F2E09D92A2C07D919222B4B1A60052001F068F8192503E0274B1D683F231D40AE4206D2234BDA5D234B1A60052001F059F81F4B38
:400A80009C4664442378DBB21F4A13601F4B52461A601F4B4A461A600520FFF77FFFAE420AD9174BDA5D174B1A60052001F040F802E00020FFF720FF019801F047F803B0F6
:400AC0000CBC91469A46F0BDC0F1FF0FC1F1FF0FC2F1FF0FC3F1FF0FC4F1FF0FC5F1FF0FC6F1FF0FC7F1FF0FC8F1FF0FC9F1FF0FCAF1FF0FCBF1FF0FCCF1FF0FCDF1FF0FFD
:400B0000942500002CFF0B4028FF0B401CFF0B4020FF0B4038B5031C0D4C22680225AA4322600C4A11681E2081435B00184008431060116801230B431360FA208000FFF792
:400B40002DFFFFF7BFFE23681D43256038BDC04608000B4018000B4008B500F0F3FF044A136804218B43136030BF00F0EFFF08BD10ED00E0F0B583B000F0E4FF041C134A10
:400B800013685B005B0813608025ED052B68022633432B600E4B1B889BB20E4A13600E4A116804230B4313600C4F3B6801930220FFF75CFE30BF019B3B602B68B3432B602B
:400BC000201C00F0C3FF03B0F0BDC04600000B4052F1FF0F0C000B4010ED00E000010B40034B1868C0231B02184000D00120704700010B40034A1368802109060B43136032
:400C00007047C04604010B4008B500F09BFF044A1368C02109020B43136000F097FF08BD00010B4010B500F08DFF08490A68084B1A408024E40122430A600A6813408022E3
:400C4000120213430B6000F081FF10BD00010B40FF3FFFFF10B5041E022C02D90020FFF74BFE044B1868E4000134E040041C0120204010BD10020B4038B5041C0D1C022858
:400C800002D90020FFF738FE201CFFF7E3FF00280BD1064A1368E4000321081CA04083430D40A5402C1C1C43146038BD0C020B4038B5041C0D1C012802D90020FFF71CFE53
:400CC000201CFFF7C7FF00280AD106490B68E40002340122A2409343A5402C1C1C430C6038BDC0460C020B4010B5041CFFF782FF0C4A136823431360E30704D50020FFF717
:400D0000A9FF0028FAD0E30504D50120FFF7A2FF0028FAD0E30304D50220FFF79BFF0028FAD010BD10020B4010B5041CFFF758FF002818D10C4A1368A3431360E30704D5F1
:400D40000020FFF787FF0028FAD1E30504D50120FFF780FF0028FAD1E30304D50220FFF779FF0028FAD110BD10020B4038B5041C0D1C012802D90020FFF7BEFDC920FFF744
:400D80000DFE074A10682401064BA3409843031C281CA040184310604320FFF7FFFD38BD08020B40FFFF000070B5061C00F0CAFE041CFFF715FF002803D0FFF733FF01250E
:400DC00000E000250848331C0340084A106808490840184310601368012D01D1FFF714FF201C00F0B3FE70BD0404040010020B40FBFBFBFF08B500F08BF808BD08B500F055
:400E000091F808BD08B500F03BF808BD08B5044A1368802109060B431360FFF7EBFF08BD0000064008B5064B1B78002B04D1FFF7E9FF0122024B1A70FFF7E8FF08BDC046BC
:400E40004C02002008B5FFF7D9FF044A13685B005B0813600022024B1A6008BD00000640880F0640044B1B680F221340082BF9D0024B18607047C046080206404002064002
:400E800010B5124A124B1A600023124A13600121114A1160114A12480260072411480460114803601148016011490A60114A1360114A1360114A1360114A1360114A13601B
:400EC000114A1360114A136010BDC0460B00000200000640400006404800064007000080000306400403064010030640440006400002064004020640880E0640C80E064090
:400F0000480F0640080F0640C80F0640880F064003490B68F0229343603A13430B60704710000140024A1368F0218B431360704710000140014B58647047C04600000020AD
:400F400010B5041C00F0FEFD044A1168044B0B40A4031C43146000F0F9FD10BD00E400E0FF3FFFFF0222014B1A60704700E100E00222014B1A60704780E100E010B5041CEA
:400F8000FFF7F6FF201CFFF7D5FF0320FFF7D8FFFFF7E8FF10BDC0460222014B1A60704780E200E0034A10680423184010608008C0B270471001044038B517480368DBB2BF
:400FC000164A13700F24A343191C154D2A780F2313400B43F02293431A1C2B78A34313430360104A104B1A60104A114B1A60114A1168114B0B40C021C9000B4313600F2015
:40100000FFF770FC0F200D49FFF778FC0F200321FFF786FC38BDC04600FF08407802002062F1FF0F00020001080008400008A0010400084010000140FFF0FFFF2917000091
:4010400008B500F019FD00F0FBFC0020002100F0FFFC0020002100F017FD00F003FD00F0E5FC044A136804490B4313600F20FFF72FFC08BD0400084000100880024B1878E7
:40108000012318407047C046500200204000024B181880887047C04650020020F8B5104F3C5C3818027955005519EDB29200D6B200F048FDA4003B199C6822680F21B140CA
:4010C0008A43111C0422B2400A43DE6933680721A9408B433360226000F038FDF8BDC046C4250000F8B519490C5C0B181E79B200D2B275007519EDB2154B185CA300CB188F
:401100009F683B680F2191408B433B60022800D10020012801D1002700E0062700F012FDA4000A4B1C19E1690B680722AA4093431A1C3B1CAB4013430B6000F007FD216BC5
:401140000B680122B24093430B60F8BDC42500009002002010B5002403E0201CFFF7C2FF0134012CF9D910BD03231840024B1A6840021043186070470400084008B5002359
:4011800003E00021064AD1540133012BF9D9FFF713FF0020FFF7E8FFFFF7DCFF08BDC0469002002008B50B4B1B7A002B04D1FFF7E5FF0122074B1A72FFF742FF00F058FB34
:4011C0000122044B5A72044A13688021C9030B43136008BD5002002004000840CA0807231940063B8B40191C835C194201D0012000E000207047C04610B5041C0134E4B208
:40120000022C06D004480830211CFFF7E7FF0028F4D0201C10BDC046F8010020F8B5041C234B44331B5C9B00224A9E582248211CFFF7D4FF214B9E4203D88640FF20000453
:4012400006431F4B185D013880B2002100F000FC1C4B185D013880B2002100F015FC0F20FFF740FB18490A68184B1A40184B185D184B1B5D1B04034313430B60164F3D6892
:40128000164B1D40164B1D430F20FFF721FB201CFFF704FF00F056FC041C3D60002000F047FC104B1E60201C00F050FCF8BDC046C4250000F80100207C020020FFFFFEFF40
:4012C00094020020840200200800084000FF80FF880200208C02002004000840FF1FDFFF200020000C00084008B5054B00221A70C2B29A7281221A70FFF790FF08BDC046DA
:401300005002002010B50B4C00232370FF33A372A07AC0B2FFF770FFA072A37ADBB2012B07D8217801220A432270A07AC0B2FFF775FF10BD5002002038B5051C174B1C68A6
:40134000A4B24300164AD3189C80164B44331B5C9B00154A9A58154B9A4208D81448291CFFF73CFF6B000E4AD31804419C80281CFFF7B8FE0F20FFF7B5FA0E4A11680E4B47
:401380000B40A02109020B4313600C4A11680C4B0B4013600F20FFF79BFA38BD0C00084050020020C4250000F8010020FFFFFEFF7C02002004000840FF1FDFFF08000840C9
:4013C00000FF80FF10B5CC0807231940063B8B40D9B2002A04D0041923781943217003E0041923788B43237010BDC04670B5061C002400250BE0301CFFF776FFFFF73EFEE6
:401400000128FBD0301CFFF741FE24180135002DF1D0A0B270BDC046034B1B68002B02DA0122024B1A707047040008405C02002008B5FFF7F1FF0F20FFF754FA064A116820
:40144000064B0B40136013685B005B08136000F013FB00F0F5FA08BD04000840FFEFF7FF08B500F0FFFA00F0E1FA034B1B78002B01D0FFF7E5FD08BD5C02002030B5094B3D
:401480001B5C42000849545A0849545208180025057105720648C05CCB181873054BD45230BDC0460826000054020020600200200C020020A402002010B5041CFFF714FF02
:4014C000FFF7DCFD0028FBD1201CFFF7D7FF10BD10B5002403E0201CFFF7EEFF0134012CF9D910BDF0B5474680B4041C224B1D5C224B5A191779224A565D5B5D984621486E
:401500001030211CFFF76AFE002810D01D4B1B191B7ABE1BB34223DA1A4E301C1030211C0022FFF74FFF751943462B7318E0154B1B191B7ABE19B3420EDB124B5D192B7B31
:40154000013BDBB22B73002B0AD10E481030211C0122FFF737FF03E00A4B5D1943462B7308481030211CFFF739FE002800D0012004BC9046F0BDC046082600000C0200204F
:40158000A80200206002002070B5084B1C5C181805792D190026201CFFF7A4FF002800D001260134AC42F6D3301C70BD1426000038B50025002406E0201CFFF7E5FF0028E8
:4015C00000D001250134012CF6D9281C38BDC04638B5084B1C5C181805792D19EDB20648211C0122FFF7EEFE0134E4B2AC42F6D338BDC0461426000000020020431849002D
:40160000C818800880B27047F0B54F464646C0B483B0041C374B1B5C9946374B4A469B5C98464200354BD65A354B9B7A002B07D0344D171C515B301CFFF7E0FF061C785316
:40164000E1B231482D4A00F047FB63002F4A9A5AB24206D800212E4B1955B51AADB2012702E0951BADB20027002F16D1294B49465B5CAB4211D2264B1B5D214A1219127AF2
:40168000934206D3201CFFF7F9FE0022204B1A5513E001331E4A13550FE013021B498C460919087918433018801A020A63006646F25208710022164B1A5543466A46D380F0
:4016C000D688AE420CD2002F0AD0FF2D04D90F4B1C19FF23237207E00C4B1C19257203E00A4B1C190023237203B00CBC90469946F0BDC046082600009802002054020020F6
:401700000C020020A4020020C4020020600200209C020020A002002010B5041C00F052F8201CFFF771FF10BD10B50F20FFF7DAF801221E4B1A601E4B1878C0B2FFF7FCFD23
:401740001C4B1B785BB2002B05DA1A4A137801218B43137026E0164C2078C0B2FFF74CFD20702378DBB2012B05D8114B1878C0B2FFF754FD16E00F4B1A7801218A431A7084
:401780001B785B060ED500220B4B1A7006E00B4AD15C0B4AD1540133074A1370064B1B78002BF4D00F20FFF793F810BD140008405A02002050020020740200208002002094
:4017C00000020020064B1B5C064AD25C51080648C1540648C154D2080549CA547047C046082600001002002098020020A0020020A8020020024A136840218B431360704799
:4018000004000840044A1168044B0B40802189000B4313607047C04608000840FFFCFFFC38B5002308E00D49CA5C55080C4CE55401325208CA54013302789A42F3D80F207C
:40184000FFF750F8074A1168074B0B4007490B4313600F20FFF73CF838BDC046880200208C02002008000840FFFCFFFC0002000138B5204B02221A705A709A701632DA8041
:401880001D4A9A801D4A9A60FFF7B4FF002304E099001B481B4A88500133164A52789A42F6D8002306E00421174AD1540239174AD1540133012BF6D9FFF7A4FF0D4C144D5E
:4018C000201C291C00F068F9201C00F076F9201C291C00F061F9201C00F090F9201CFFF79FFF002403E0201CFFF76CFF0134012CF9D938BDC4020020CC0400001C26000066
:401900000000FF0FF801002084020020940200209A0D000004490A68FD231A404000FB3B184010430860704700010440034A136838218B43C0001843106070470801044041
:40194000014B58667047C0460000002010B5041C00F0F8F8044A1168044B0B40A4031C43146000F0F3F810BD08E400E0FF3FFFFF80229200014B1A607047C04600E100E0B8
:4019800080229200014B1A607047C04680E100E010B5041CFFF7F4FF201CFFF7D1FF0320FFF7D4FFFFF7E4FF10BDC04680229200014B1A607047C04680E200E004490A680F
:4019C000BF231A4080017F3B184010430860704700030440034A1168034B0B40800418431060704708030440FFFFE3FF04490A68FD231A404000FB3B184010430860704752
:401A000000040440034A136838218B43C00018431060704708040440034A136807218B43184310607047C04608040440034A1368802109060B4313607047C046000002400F
:401A4000024A13685B005B081360704700000240034A13681B0C1B04184310607047C04600000240034A1368802109060B4313607047C04640000240024A13685B005B08A0
:401A80001360704740000240034A13681B0C1B04184310607047C04640000240044A11687F230B40C001C0B2184310607047C04600030440034A1168034B0B4040051843AD
:401AC0001060704708030440FFFF1FFF044A11687F230B40C001C0B2184310607047C04600000440034A1168034B0B40400518431060704708000440FFFF1FFF04490A6854
:401B0000BF231A4080017F3B184010430860704700000440034A1168034B0B40800418431060704708000440FFFFE3FF000000000230800804D0C0460138FDD1C046C046E8
:401B4000C0467047EFF3108072B6704780F310887047C046C046C046F7B59C180023071C08268025019100922370237800982B432370BB689B6C9847019B984202D2237831
:401B8000AB432370013E6D08002EEED12378F82B01D9F8232370F7BD70B5051C0E1C00242B789C4208D2AB68221C281C311C1B68FFF7D2FF0134F3E770BD38B5051C002480
:401BC0002B789C4219D2AA6813681B5DDB080F2B00D90F23D16BD268C95C1155AA68042B04D9936D906B211C012203E0936D906B211C002298470134E2E738BDF0B5041CFE
:401C0000002687B063789E4262D2A3685A6C925D0392002A01D1013203921A6C925D019201992278914251D29A689B69515C0F221140B2000492002205910499019D5A50F3
:401C4000019B5B000293039B019A9B189D423DD2A768E388A0885843FB68595D00F04AF93B68595D00F0B6F8059B5843194B40005A2802D95B084008FAE7BA6904991B0CCF
:401C80001B045350A36882085B6B01215855A368C008DB69029F5A550F22A36849421B6A5855A3685B6A5A55A368986AC1530021D86AC153186B9B68C1535B1919780135EC
:401CC0000A401A703B1C02330293BCE7013699E707B0F0BD0000FFFFF0B585684E002B6B925B9B191C8887B0141B0094AC6A1A80A45B6B6A0294EC6A5F5CA45B2B6A039428
:401D00006C6B7F00645C5B180494AC680193645C1B780594009CE40FA4460F24251C6744009C3D40AC46E51764196C409C4203D2012B05D0013B00E00133FF273F2B00D8BA
:401D40009F00019D2B7065460F2D29D0002D24D0BC4225D8059C029F24090094974200D9171C039D954200D2151C009A092A01D8141C01343A1C0A2C14D1EA1B934206D9F8
:401D8000049A92089A42924152429B1A00E001338268D26953543A1C04E0151C644601E0151C00246746836824015B6A5F5483689F6ABA53DA6A9B6895530F225B181D782A
:401DC0002A401A7083689B6859180B781C430C7007B0F0BD002243088B4274D303098B425FD3030A8B4244D3030B8B4228D3030C8B420DD3FF22090212BA030C8B4202D316
:401E00001212090265D0030B8B4219D300E0090AC30B8B4201D3CB03C01A5241830B8B4201D38B03C01A5241430B8B4201D34B03C01A5241030B8B4201D30B03C01A5241DC
:401E4000C30A8B4201D3CB02C01A5241830A8B4201D38B02C01A5241430A8B4201D34B02C01A5241030A8B4201D30B02C01A5241CDD2C3098B4201D3CB01C01A52418309F1
:401E80008B4201D38B01C01A524143098B4201D34B01C01A524103098B4201D30B01C01A5241C3088B4201D3CB00C01A524183088B4201D38B00C01A524143088B4201D308
:401EC0004B00C01A5241411A00D20146524110467047FFE701B5002000F0FCF802BDC0460029F7D003B5FFF775FF0EBC4243891A1847C04603460B437FD4002243088B4224
:401F000074D303098B425FD3030A8B4244D3030B8B4228D3030C8B420DD3FF22090212BA030C8B4202D31212090265D0030B8B4219D300E0090AC30B8B4201D3CB03C01AEE
:401F40005241830B8B4201D38B03C01A5241430B8B4201D34B03C01A5241030B8B4201D30B03C01A5241C30A8B4201D3CB02C01A5241830A8B4201D38B02C01A5241430AB3
:401F80008B4201D34B02C01A5241030A8B4201D30B02C01A5241CDD2C3098B4201D3CB01C01A524183098B4201D38B01C01A524143098B4201D34B01C01A524103098B42B4
:401FC00001D30B01C01A5241C3088B4201D3CB00C01A524183088B4201D38B00C01A524143088B4201D34B00C01A5241411A00D201465241104670475DE0CA0F00D04942A3
:40200000031000D34042534000229C4603098B422DD3030A8B4212D3FC22890112BA030A8B420CD3890192118B4208D3890192118B4204D389013AD0921100E08909C309C1
:402040008B4201D3CB01C01A524183098B4201D38B01C01A524143098B4201D34B01C01A524103098B4201D30B01C01A5241C3088B4201D3CB00C01A524183088B4201D3C4
:402080008B00C01A5241D9D243088B4201D34B00C01A5241411A00D20146634652415B10104601D34042002B00D54942704763465B1000D3404201B5002000F00BF802BDDF
:4020C0000029F8D003B5FFF715FF0EBC4243891A1847C0467047C0460E4B70B500251E1C0D4CE41AA410A54204D0AB00F35898470135F8E700F0C8FA084B00251E1C084CD4
:40210000E41AA410A54204D0AB00F35898470135F8E770BD9426000094260000942600009C260000031C8218934202D019700133FAE77047000000003C0700000E0700001E
:4021400016070000200700002A0700003407000000000000070000000E000000090000001C0000001B0000001200000015000000380000003F000000360000003100000055
:4021800024000000230000002A0000002D00000070000000770000007E000000790000006C0000006B0000006200000065000000480000004F0000004600000041000000E7
:4021C00054000000530000005A0000005D000000E0000000E7000000EE000000E9000000FC000000FB000000F2000000F5000000D8000000DF000000D6000000D1000000A7
:40220000C4000000C3000000CA000000CD00000090000000970000009E000000990000008C0000008B0000008200000085000000A8000000AF000000A6000000A100000066
:40224000B4000000B3000000BA000000BD000000C7000000C0000000C9000000CE000000DB000000DC000000D5000000D2000000FF000000F8000000F1000000F600000026
:40228000E3000000E4000000ED000000EA000000B7000000B0000000B9000000BE000000AB000000AC000000A5000000A20000008F000000880000008100000086000000E6
:4022C00093000000940000009D0000009A0000002700000020000000290000002E0000003B0000003C00000035000000320000001F000000180000001100000016000000A6
:4023000003000000040000000D0000000A0000005700000050000000590000005E0000004B0000004C00000045000000420000006F00000068000000610000006600000065
:4023400073000000740000007D0000007A000000890000008E000000870000008000000095000000920000009B0000009C000000B1000000B6000000BF000000B800000025
:40238000AD000000AA000000A3000000A4000000F9000000FE000000F7000000F0000000E5000000E2000000EB000000EC000000C1000000C6000000CF000000C8000000E5
:4023C000DD000000DA000000D3000000D4000000690000006E000000670000006000000075000000720000007B0000007C00000051000000560000005F00000058000000A5
:402400004D0000004A0000004300000044000000190000001E000000170000001000000005000000020000000B0000000C00000021000000260000002F0000002800000064
:402440003D0000003A00000033000000340000004E00000049000000400000004700000052000000550000005C0000005B0000007600000071000000780000007F00000024
:402480006A0000006D00000064000000630000003E00000039000000300000003700000022000000250000002C0000002B0000000600000001000000080000000F000000E4
:4024C0001A0000001D0000001400000013000000AE000000A9000000A0000000A7000000B2000000B5000000BC000000BB0000009600000091000000980000009F000000A4
:402500008A0000008D0000008400000083000000DE000000D9000000D0000000D7000000C2000000C5000000CC000000CB000000E6000000E1000000E8000000EF00000063
:40254000FA000000FD000000F4000000F300000000300F40000400400F40000404320F4002330F4003420F4007430F4002600F40B880BE40D804DF0118018C016C407008C4
:40258000DC0361028C488D029480A408D802E40802011101030405060708090A0B0C0E0F101112131415161718191B1C1D1E1F2021222325262728292A2B2E2F3031323354
:4025C0003435000003020000010400000000014004000140080001400C000140100001400800044008010440080204400803044008040440000004400001044000020440A6
:4026000000030440000404400001000002000000100000000001000001010000880200208C02002018020020840200209402002008260000F8010020B8020020AC02002018
:40264000B0020020C0020020B4020020BC020020D00200207C020020782600001426000018260000ED1300001D1200008D100000DD110000C51300000101010202020204AB
:402680000404040404040404F8B5C046F8BC08BC9E4670471D02000099070000F8B5C046F8BC08BC9E467047F5010000C0260000C800002058010000B800000000000000DA
:4026C00000000000012F0D005500000000000000070000000000000001000000F6000000AF000000450000004C00000045000000410000002000000055000000000000000F
:40270000070000000000000001000000F6000000B0000000450000004C0000004500000041000000200000005500000000000000070000000000000001000000F600000061
:40274000F2000000450000004C0000004500000041000000200000005500000000000000070000000000000001000000F6000000F1000000450000004C0000004500000016
:4027800041000000200000005500000000000000070000000000000001000000F6000000F0000000450000004C0000004500000041000000200000005500000000000000E9
:4027C0000500000000000000050000000100000000000000FF000000FF000000FF0000000000E02EC05D00001800000000366E010000FF0F0000FF0F02000000080304407C
:402800000802044001050000323200001E1E01000502000000000000000000000000000000000000000000000000000000000000000000000000000000000000000000009C
:402840000000000000000000000000000000000000000000000000000000000000000000000000000000000000000000000000000000000000000000000000000000000058
:402880000000000000000000000000000000000000000000000000000000000000000000000000000000000000000000000000000000000000000000000000000000000018
:4028C00000000000000000000000000000000000000000000000000000000000000000000000000000000000000000000000000000000000000000000000000000000000D8
:402900000000000000000000000000000000000000000000000000000000000000000000000000000000000000000000000000000000000000000000000000000000000097
:0200000490303A
:02000000555851
:0200000490402A
:1000000000000000000000000000000000000000F0
:0200000490501A
:0C0000000002041A11931100042666EBA4
:0200000490600A
:0100000001FE
:00000001FF