ARM GAS  C:\Users\Elea\AppData\Local\Temp\cc1OObKh.s 			page 1


   1              		.cpu cortex-m0
   2              		.fpu softvfp
   3              		.eabi_attribute 20, 1
   4              		.eabi_attribute 21, 1
   5              		.eabi_attribute 23, 3
   6              		.eabi_attribute 24, 1
   7              		.eabi_attribute 25, 1
   8              		.eabi_attribute 26, 1
   9              		.eabi_attribute 30, 1
  10              		.eabi_attribute 34, 0
  11              		.eabi_attribute 18, 4
  12              		.code	16
  13              		.file	"SinUsar_13.c"
  14              		.text
  15              	.Ltext0:
  16              		.cfi_sections	.debug_frame
  17              		.section	.text.SinUsar_13_SetDriveMode,"ax",%progbits
  18              		.align	2
  19              		.global	SinUsar_13_SetDriveMode
  20              		.code	16
  21              		.thumb_func
  22              		.type	SinUsar_13_SetDriveMode, %function
  23              	SinUsar_13_SetDriveMode:
  24              	.LFB0:
  25              		.file 1 "Generated_Source\\PSoC4\\SinUsar_13.c"
   1:Generated_Source\PSoC4/SinUsar_13.c **** /*******************************************************************************
   2:Generated_Source\PSoC4/SinUsar_13.c **** * File Name: SinUsar_13.c  
   3:Generated_Source\PSoC4/SinUsar_13.c **** * Version 2.20
   4:Generated_Source\PSoC4/SinUsar_13.c **** *
   5:Generated_Source\PSoC4/SinUsar_13.c **** * Description:
   6:Generated_Source\PSoC4/SinUsar_13.c **** *  This file contains API to enable firmware control of a Pins component.
   7:Generated_Source\PSoC4/SinUsar_13.c **** *
   8:Generated_Source\PSoC4/SinUsar_13.c **** ********************************************************************************
   9:Generated_Source\PSoC4/SinUsar_13.c **** * Copyright 2008-2015, Cypress Semiconductor Corporation.  All rights reserved.
  10:Generated_Source\PSoC4/SinUsar_13.c **** * You may use this file only in accordance with the license, terms, conditions, 
  11:Generated_Source\PSoC4/SinUsar_13.c **** * disclaimers, and limitations in the end user license agreement accompanying 
  12:Generated_Source\PSoC4/SinUsar_13.c **** * the software package with which this file was provided.
  13:Generated_Source\PSoC4/SinUsar_13.c **** *******************************************************************************/
  14:Generated_Source\PSoC4/SinUsar_13.c **** 
  15:Generated_Source\PSoC4/SinUsar_13.c **** #include "cytypes.h"
  16:Generated_Source\PSoC4/SinUsar_13.c **** #include "SinUsar_13.h"
  17:Generated_Source\PSoC4/SinUsar_13.c **** 
  18:Generated_Source\PSoC4/SinUsar_13.c **** 
  19:Generated_Source\PSoC4/SinUsar_13.c **** #if defined(SinUsar_13__PC)
  20:Generated_Source\PSoC4/SinUsar_13.c ****     #define SinUsar_13_SetP4PinDriveMode(shift, mode)  \
  21:Generated_Source\PSoC4/SinUsar_13.c ****     do { \
  22:Generated_Source\PSoC4/SinUsar_13.c ****         SinUsar_13_PC =   (SinUsar_13_PC & \
  23:Generated_Source\PSoC4/SinUsar_13.c ****                                 (uint32)(~(uint32)(SinUsar_13_DRIVE_MODE_IND_MASK << \
  24:Generated_Source\PSoC4/SinUsar_13.c ****                                 (SinUsar_13_DRIVE_MODE_BITS * (shift))))) | \
  25:Generated_Source\PSoC4/SinUsar_13.c ****                                 (uint32)((uint32)(mode) << \
  26:Generated_Source\PSoC4/SinUsar_13.c ****                                 (SinUsar_13_DRIVE_MODE_BITS * (shift))); \
  27:Generated_Source\PSoC4/SinUsar_13.c ****     } while (0)
  28:Generated_Source\PSoC4/SinUsar_13.c **** #else
  29:Generated_Source\PSoC4/SinUsar_13.c ****     #if (CY_PSOC4_4200L)
  30:Generated_Source\PSoC4/SinUsar_13.c ****         #define SinUsar_13_SetP4PinDriveMode(shift, mode)  \
  31:Generated_Source\PSoC4/SinUsar_13.c ****         do { \
  32:Generated_Source\PSoC4/SinUsar_13.c ****             SinUsar_13_USBIO_CTRL_REG = (SinUsar_13_USBIO_CTRL_REG & \
ARM GAS  C:\Users\Elea\AppData\Local\Temp\cc1OObKh.s 			page 2


  33:Generated_Source\PSoC4/SinUsar_13.c ****                                     (uint32)(~(uint32)(SinUsar_13_DRIVE_MODE_IND_MASK << \
  34:Generated_Source\PSoC4/SinUsar_13.c ****                                     (SinUsar_13_DRIVE_MODE_BITS * (shift))))) | \
  35:Generated_Source\PSoC4/SinUsar_13.c ****                                     (uint32)((uint32)(mode) << \
  36:Generated_Source\PSoC4/SinUsar_13.c ****                                     (SinUsar_13_DRIVE_MODE_BITS * (shift))); \
  37:Generated_Source\PSoC4/SinUsar_13.c ****         } while (0)
  38:Generated_Source\PSoC4/SinUsar_13.c ****     #endif
  39:Generated_Source\PSoC4/SinUsar_13.c **** #endif
  40:Generated_Source\PSoC4/SinUsar_13.c ****   
  41:Generated_Source\PSoC4/SinUsar_13.c **** 
  42:Generated_Source\PSoC4/SinUsar_13.c **** #if defined(SinUsar_13__PC) || (CY_PSOC4_4200L) 
  43:Generated_Source\PSoC4/SinUsar_13.c ****     /*******************************************************************************
  44:Generated_Source\PSoC4/SinUsar_13.c ****     * Function Name: SinUsar_13_SetDriveMode
  45:Generated_Source\PSoC4/SinUsar_13.c ****     ****************************************************************************//**
  46:Generated_Source\PSoC4/SinUsar_13.c ****     *
  47:Generated_Source\PSoC4/SinUsar_13.c ****     * \brief Sets the drive mode for each of the Pins component's pins.
  48:Generated_Source\PSoC4/SinUsar_13.c ****     * 
  49:Generated_Source\PSoC4/SinUsar_13.c ****     * <b>Note</b> This affects all pins in the Pins component instance. Use the
  50:Generated_Source\PSoC4/SinUsar_13.c ****     * Per-Pin APIs if you wish to control individual pin's drive modes.
  51:Generated_Source\PSoC4/SinUsar_13.c ****     *
  52:Generated_Source\PSoC4/SinUsar_13.c ****     * <b>Note</b> USBIOs have limited drive functionality. Refer to the Drive Mode
  53:Generated_Source\PSoC4/SinUsar_13.c ****     * parameter for more information.
  54:Generated_Source\PSoC4/SinUsar_13.c ****     *
  55:Generated_Source\PSoC4/SinUsar_13.c ****     * \param mode
  56:Generated_Source\PSoC4/SinUsar_13.c ****     *  Mode for the selected signals. Valid options are documented in 
  57:Generated_Source\PSoC4/SinUsar_13.c ****     *  \ref driveMode.
  58:Generated_Source\PSoC4/SinUsar_13.c ****     *
  59:Generated_Source\PSoC4/SinUsar_13.c ****     * \return
  60:Generated_Source\PSoC4/SinUsar_13.c ****     *  None
  61:Generated_Source\PSoC4/SinUsar_13.c ****     *
  62:Generated_Source\PSoC4/SinUsar_13.c ****     * \sideeffect
  63:Generated_Source\PSoC4/SinUsar_13.c ****     *  If you use read-modify-write operations that are not atomic, the ISR can
  64:Generated_Source\PSoC4/SinUsar_13.c ****     *  cause corruption of this function. An ISR that interrupts this function 
  65:Generated_Source\PSoC4/SinUsar_13.c ****     *  and performs writes to the Pins component Drive Mode registers can cause 
  66:Generated_Source\PSoC4/SinUsar_13.c ****     *  corrupted port data. To avoid this issue, you should either use the Per-Pin
  67:Generated_Source\PSoC4/SinUsar_13.c ****     *  APIs (primary method) or disable interrupts around this function.
  68:Generated_Source\PSoC4/SinUsar_13.c ****     *
  69:Generated_Source\PSoC4/SinUsar_13.c ****     * \funcusage
  70:Generated_Source\PSoC4/SinUsar_13.c ****     *  \snippet SinUsar_13_SUT.c usage_SinUsar_13_SetDriveMode
  71:Generated_Source\PSoC4/SinUsar_13.c ****     *******************************************************************************/
  72:Generated_Source\PSoC4/SinUsar_13.c ****     void SinUsar_13_SetDriveMode(uint8 mode)
  73:Generated_Source\PSoC4/SinUsar_13.c ****     {
  26              		.loc 1 73 0
  27              		.cfi_startproc
  28              	.LVL0:
  74:Generated_Source\PSoC4/SinUsar_13.c **** 		SinUsar_13_SetP4PinDriveMode(SinUsar_13__0__SHIFT, mode);
  29              		.loc 1 74 0
  30 0000 034A     		ldr	r2, .L2
  31 0002 1368     		ldr	r3, [r2]
  32 0004 3821     		mov	r1, #56
  33 0006 8B43     		bic	r3, r1
  34 0008 C000     		lsl	r0, r0, #3
  35              	.LVL1:
  36 000a 1843     		orr	r0, r3
  37 000c 1060     		str	r0, [r2]
  75:Generated_Source\PSoC4/SinUsar_13.c ****     }
  38              		.loc 1 75 0
  39              		@ sp needed
ARM GAS  C:\Users\Elea\AppData\Local\Temp\cc1OObKh.s 			page 3


  40 000e 7047     		bx	lr
  41              	.L3:
  42              		.align	2
  43              	.L2:
  44 0010 08000440 		.word	1074003976
  45              		.cfi_endproc
  46              	.LFE0:
  47              		.size	SinUsar_13_SetDriveMode, .-SinUsar_13_SetDriveMode
  48              		.section	.text.SinUsar_13_Write,"ax",%progbits
  49              		.align	2
  50              		.global	SinUsar_13_Write
  51              		.code	16
  52              		.thumb_func
  53              		.type	SinUsar_13_Write, %function
  54              	SinUsar_13_Write:
  55              	.LFB1:
  76:Generated_Source\PSoC4/SinUsar_13.c **** #endif
  77:Generated_Source\PSoC4/SinUsar_13.c **** 
  78:Generated_Source\PSoC4/SinUsar_13.c **** 
  79:Generated_Source\PSoC4/SinUsar_13.c **** /*******************************************************************************
  80:Generated_Source\PSoC4/SinUsar_13.c **** * Function Name: SinUsar_13_Write
  81:Generated_Source\PSoC4/SinUsar_13.c **** ****************************************************************************//**
  82:Generated_Source\PSoC4/SinUsar_13.c **** *
  83:Generated_Source\PSoC4/SinUsar_13.c **** * \brief Writes the value to the physical port (data output register), masking
  84:Generated_Source\PSoC4/SinUsar_13.c **** *  and shifting the bits appropriately. 
  85:Generated_Source\PSoC4/SinUsar_13.c **** *
  86:Generated_Source\PSoC4/SinUsar_13.c **** * The data output register controls the signal applied to the physical pin in 
  87:Generated_Source\PSoC4/SinUsar_13.c **** * conjunction with the drive mode parameter. This function avoids changing 
  88:Generated_Source\PSoC4/SinUsar_13.c **** * other bits in the port by using the appropriate method (read-modify-write or
  89:Generated_Source\PSoC4/SinUsar_13.c **** * bit banding).
  90:Generated_Source\PSoC4/SinUsar_13.c **** *
  91:Generated_Source\PSoC4/SinUsar_13.c **** * <b>Note</b> This function should not be used on a hardware digital output pin 
  92:Generated_Source\PSoC4/SinUsar_13.c **** * as it is driven by the hardware signal attached to it.
  93:Generated_Source\PSoC4/SinUsar_13.c **** *
  94:Generated_Source\PSoC4/SinUsar_13.c **** * \param value
  95:Generated_Source\PSoC4/SinUsar_13.c **** *  Value to write to the component instance.
  96:Generated_Source\PSoC4/SinUsar_13.c **** *
  97:Generated_Source\PSoC4/SinUsar_13.c **** * \return 
  98:Generated_Source\PSoC4/SinUsar_13.c **** *  None 
  99:Generated_Source\PSoC4/SinUsar_13.c **** *
 100:Generated_Source\PSoC4/SinUsar_13.c **** * \sideeffect
 101:Generated_Source\PSoC4/SinUsar_13.c **** *  If you use read-modify-write operations that are not atomic; the Interrupt 
 102:Generated_Source\PSoC4/SinUsar_13.c **** *  Service Routines (ISR) can cause corruption of this function. An ISR that 
 103:Generated_Source\PSoC4/SinUsar_13.c **** *  interrupts this function and performs writes to the Pins component data 
 104:Generated_Source\PSoC4/SinUsar_13.c **** *  register can cause corrupted port data. To avoid this issue, you should 
 105:Generated_Source\PSoC4/SinUsar_13.c **** *  either use the Per-Pin APIs (primary method) or disable interrupts around 
 106:Generated_Source\PSoC4/SinUsar_13.c **** *  this function.
 107:Generated_Source\PSoC4/SinUsar_13.c **** *
 108:Generated_Source\PSoC4/SinUsar_13.c **** * \funcusage
 109:Generated_Source\PSoC4/SinUsar_13.c **** *  \snippet SinUsar_13_SUT.c usage_SinUsar_13_Write
 110:Generated_Source\PSoC4/SinUsar_13.c **** *******************************************************************************/
 111:Generated_Source\PSoC4/SinUsar_13.c **** void SinUsar_13_Write(uint8 value)
 112:Generated_Source\PSoC4/SinUsar_13.c **** {
  56              		.loc 1 112 0
  57              		.cfi_startproc
  58              	.LVL2:
 113:Generated_Source\PSoC4/SinUsar_13.c ****     uint8 drVal = (uint8)(SinUsar_13_DR & (uint8)(~SinUsar_13_MASK));
ARM GAS  C:\Users\Elea\AppData\Local\Temp\cc1OObKh.s 			page 4


  59              		.loc 1 113 0
  60 0000 0449     		ldr	r1, .L5
  61 0002 0A68     		ldr	r2, [r1]
  62 0004 FD23     		mov	r3, #253
  63 0006 1A40     		and	r2, r3
  64              	.LVL3:
 114:Generated_Source\PSoC4/SinUsar_13.c ****     drVal = (drVal | ((uint8)(value << SinUsar_13_SHIFT) & SinUsar_13_MASK));
  65              		.loc 1 114 0
  66 0008 4000     		lsl	r0, r0, #1
  67              	.LVL4:
  68 000a FB3B     		sub	r3, r3, #251
  69 000c 1840     		and	r0, r3
  70 000e 1043     		orr	r0, r2
  71              	.LVL5:
 115:Generated_Source\PSoC4/SinUsar_13.c ****     SinUsar_13_DR = (uint32)drVal;
  72              		.loc 1 115 0
  73 0010 0860     		str	r0, [r1]
 116:Generated_Source\PSoC4/SinUsar_13.c **** }
  74              		.loc 1 116 0
  75              		@ sp needed
  76 0012 7047     		bx	lr
  77              	.L6:
  78              		.align	2
  79              	.L5:
  80 0014 00000440 		.word	1074003968
  81              		.cfi_endproc
  82              	.LFE1:
  83              		.size	SinUsar_13_Write, .-SinUsar_13_Write
  84              		.section	.text.SinUsar_13_Read,"ax",%progbits
  85              		.align	2
  86              		.global	SinUsar_13_Read
  87              		.code	16
  88              		.thumb_func
  89              		.type	SinUsar_13_Read, %function
  90              	SinUsar_13_Read:
  91              	.LFB2:
 117:Generated_Source\PSoC4/SinUsar_13.c **** 
 118:Generated_Source\PSoC4/SinUsar_13.c **** 
 119:Generated_Source\PSoC4/SinUsar_13.c **** /*******************************************************************************
 120:Generated_Source\PSoC4/SinUsar_13.c **** * Function Name: SinUsar_13_Read
 121:Generated_Source\PSoC4/SinUsar_13.c **** ****************************************************************************//**
 122:Generated_Source\PSoC4/SinUsar_13.c **** *
 123:Generated_Source\PSoC4/SinUsar_13.c **** * \brief Reads the associated physical port (pin status register) and masks 
 124:Generated_Source\PSoC4/SinUsar_13.c **** *  the required bits according to the width and bit position of the component
 125:Generated_Source\PSoC4/SinUsar_13.c **** *  instance. 
 126:Generated_Source\PSoC4/SinUsar_13.c **** *
 127:Generated_Source\PSoC4/SinUsar_13.c **** * The pin's status register returns the current logic level present on the 
 128:Generated_Source\PSoC4/SinUsar_13.c **** * physical pin.
 129:Generated_Source\PSoC4/SinUsar_13.c **** *
 130:Generated_Source\PSoC4/SinUsar_13.c **** * \return 
 131:Generated_Source\PSoC4/SinUsar_13.c **** *  The current value for the pins in the component as a right justified number.
 132:Generated_Source\PSoC4/SinUsar_13.c **** *
 133:Generated_Source\PSoC4/SinUsar_13.c **** * \funcusage
 134:Generated_Source\PSoC4/SinUsar_13.c **** *  \snippet SinUsar_13_SUT.c usage_SinUsar_13_Read  
 135:Generated_Source\PSoC4/SinUsar_13.c **** *******************************************************************************/
 136:Generated_Source\PSoC4/SinUsar_13.c **** uint8 SinUsar_13_Read(void)
 137:Generated_Source\PSoC4/SinUsar_13.c **** {
ARM GAS  C:\Users\Elea\AppData\Local\Temp\cc1OObKh.s 			page 5


  92              		.loc 1 137 0
  93              		.cfi_startproc
 138:Generated_Source\PSoC4/SinUsar_13.c ****     return (uint8)((SinUsar_13_PS & SinUsar_13_MASK) >> SinUsar_13_SHIFT);
  94              		.loc 1 138 0
  95 0000 024B     		ldr	r3, .L8
  96 0002 1868     		ldr	r0, [r3]
  97 0004 8007     		lsl	r0, r0, #30
  98 0006 C00F     		lsr	r0, r0, #31
 139:Generated_Source\PSoC4/SinUsar_13.c **** }
  99              		.loc 1 139 0
 100              		@ sp needed
 101 0008 7047     		bx	lr
 102              	.L9:
 103 000a C046     		.align	2
 104              	.L8:
 105 000c 04000440 		.word	1074003972
 106              		.cfi_endproc
 107              	.LFE2:
 108              		.size	SinUsar_13_Read, .-SinUsar_13_Read
 109              		.section	.text.SinUsar_13_ReadDataReg,"ax",%progbits
 110              		.align	2
 111              		.global	SinUsar_13_ReadDataReg
 112              		.code	16
 113              		.thumb_func
 114              		.type	SinUsar_13_ReadDataReg, %function
 115              	SinUsar_13_ReadDataReg:
 116              	.LFB3:
 140:Generated_Source\PSoC4/SinUsar_13.c **** 
 141:Generated_Source\PSoC4/SinUsar_13.c **** 
 142:Generated_Source\PSoC4/SinUsar_13.c **** /*******************************************************************************
 143:Generated_Source\PSoC4/SinUsar_13.c **** * Function Name: SinUsar_13_ReadDataReg
 144:Generated_Source\PSoC4/SinUsar_13.c **** ****************************************************************************//**
 145:Generated_Source\PSoC4/SinUsar_13.c **** *
 146:Generated_Source\PSoC4/SinUsar_13.c **** * \brief Reads the associated physical port's data output register and masks 
 147:Generated_Source\PSoC4/SinUsar_13.c **** *  the correct bits according to the width and bit position of the component 
 148:Generated_Source\PSoC4/SinUsar_13.c **** *  instance. 
 149:Generated_Source\PSoC4/SinUsar_13.c **** *
 150:Generated_Source\PSoC4/SinUsar_13.c **** * The data output register controls the signal applied to the physical pin in 
 151:Generated_Source\PSoC4/SinUsar_13.c **** * conjunction with the drive mode parameter. This is not the same as the 
 152:Generated_Source\PSoC4/SinUsar_13.c **** * preferred SinUsar_13_Read() API because the 
 153:Generated_Source\PSoC4/SinUsar_13.c **** * SinUsar_13_ReadDataReg() reads the data register instead of the status 
 154:Generated_Source\PSoC4/SinUsar_13.c **** * register. For output pins this is a useful function to determine the value 
 155:Generated_Source\PSoC4/SinUsar_13.c **** * just written to the pin.
 156:Generated_Source\PSoC4/SinUsar_13.c **** *
 157:Generated_Source\PSoC4/SinUsar_13.c **** * \return 
 158:Generated_Source\PSoC4/SinUsar_13.c **** *  The current value of the data register masked and shifted into a right 
 159:Generated_Source\PSoC4/SinUsar_13.c **** *  justified number for the component instance.
 160:Generated_Source\PSoC4/SinUsar_13.c **** *
 161:Generated_Source\PSoC4/SinUsar_13.c **** * \funcusage
 162:Generated_Source\PSoC4/SinUsar_13.c **** *  \snippet SinUsar_13_SUT.c usage_SinUsar_13_ReadDataReg 
 163:Generated_Source\PSoC4/SinUsar_13.c **** *******************************************************************************/
 164:Generated_Source\PSoC4/SinUsar_13.c **** uint8 SinUsar_13_ReadDataReg(void)
 165:Generated_Source\PSoC4/SinUsar_13.c **** {
 117              		.loc 1 165 0
 118              		.cfi_startproc
 166:Generated_Source\PSoC4/SinUsar_13.c ****     return (uint8)((SinUsar_13_DR & SinUsar_13_MASK) >> SinUsar_13_SHIFT);
 119              		.loc 1 166 0
ARM GAS  C:\Users\Elea\AppData\Local\Temp\cc1OObKh.s 			page 6


 120 0000 024B     		ldr	r3, .L11
 121 0002 1868     		ldr	r0, [r3]
 122 0004 8007     		lsl	r0, r0, #30
 123 0006 C00F     		lsr	r0, r0, #31
 167:Generated_Source\PSoC4/SinUsar_13.c **** }
 124              		.loc 1 167 0
 125              		@ sp needed
 126 0008 7047     		bx	lr
 127              	.L12:
 128 000a C046     		.align	2
 129              	.L11:
 130 000c 00000440 		.word	1074003968
 131              		.cfi_endproc
 132              	.LFE3:
 133              		.size	SinUsar_13_ReadDataReg, .-SinUsar_13_ReadDataReg
 134              		.section	.text.SinUsar_13_SetInterruptMode,"ax",%progbits
 135              		.align	2
 136              		.global	SinUsar_13_SetInterruptMode
 137              		.code	16
 138              		.thumb_func
 139              		.type	SinUsar_13_SetInterruptMode, %function
 140              	SinUsar_13_SetInterruptMode:
 141              	.LFB4:
 168:Generated_Source\PSoC4/SinUsar_13.c **** 
 169:Generated_Source\PSoC4/SinUsar_13.c **** 
 170:Generated_Source\PSoC4/SinUsar_13.c **** /*******************************************************************************
 171:Generated_Source\PSoC4/SinUsar_13.c **** * Function Name: SinUsar_13_SetInterruptMode
 172:Generated_Source\PSoC4/SinUsar_13.c **** ****************************************************************************//**
 173:Generated_Source\PSoC4/SinUsar_13.c **** *
 174:Generated_Source\PSoC4/SinUsar_13.c **** * \brief Configures the interrupt mode for each of the Pins component's
 175:Generated_Source\PSoC4/SinUsar_13.c **** *  pins. Alternatively you may set the interrupt mode for all the pins
 176:Generated_Source\PSoC4/SinUsar_13.c **** *  specified in the Pins component.
 177:Generated_Source\PSoC4/SinUsar_13.c **** *
 178:Generated_Source\PSoC4/SinUsar_13.c **** *  <b>Note</b> The interrupt is port-wide and therefore any enabled pin
 179:Generated_Source\PSoC4/SinUsar_13.c **** *  interrupt may trigger it.
 180:Generated_Source\PSoC4/SinUsar_13.c **** *
 181:Generated_Source\PSoC4/SinUsar_13.c **** * \param position
 182:Generated_Source\PSoC4/SinUsar_13.c **** *  The pin position as listed in the Pins component. You may OR these to be 
 183:Generated_Source\PSoC4/SinUsar_13.c **** *  able to configure the interrupt mode of multiple pins within a Pins 
 184:Generated_Source\PSoC4/SinUsar_13.c **** *  component. Or you may use SinUsar_13_INTR_ALL to configure the
 185:Generated_Source\PSoC4/SinUsar_13.c **** *  interrupt mode of all the pins in the Pins component.       
 186:Generated_Source\PSoC4/SinUsar_13.c **** *  - SinUsar_13_0_INTR       (First pin in the list)
 187:Generated_Source\PSoC4/SinUsar_13.c **** *  - SinUsar_13_1_INTR       (Second pin in the list)
 188:Generated_Source\PSoC4/SinUsar_13.c **** *  - ...
 189:Generated_Source\PSoC4/SinUsar_13.c **** *  - SinUsar_13_INTR_ALL     (All pins in Pins component)
 190:Generated_Source\PSoC4/SinUsar_13.c **** *
 191:Generated_Source\PSoC4/SinUsar_13.c **** * \param mode
 192:Generated_Source\PSoC4/SinUsar_13.c **** *  Interrupt mode for the selected pins. Valid options are documented in
 193:Generated_Source\PSoC4/SinUsar_13.c **** *  \ref intrMode.
 194:Generated_Source\PSoC4/SinUsar_13.c **** *
 195:Generated_Source\PSoC4/SinUsar_13.c **** * \return 
 196:Generated_Source\PSoC4/SinUsar_13.c **** *  None
 197:Generated_Source\PSoC4/SinUsar_13.c **** *  
 198:Generated_Source\PSoC4/SinUsar_13.c **** * \sideeffect
 199:Generated_Source\PSoC4/SinUsar_13.c **** *  It is recommended that the interrupt be disabled before calling this 
 200:Generated_Source\PSoC4/SinUsar_13.c **** *  function to avoid unintended interrupt requests. Note that the interrupt
 201:Generated_Source\PSoC4/SinUsar_13.c **** *  type is port wide, and therefore will trigger for any enabled pin on the 
ARM GAS  C:\Users\Elea\AppData\Local\Temp\cc1OObKh.s 			page 7


 202:Generated_Source\PSoC4/SinUsar_13.c **** *  port.
 203:Generated_Source\PSoC4/SinUsar_13.c **** *
 204:Generated_Source\PSoC4/SinUsar_13.c **** * \funcusage
 205:Generated_Source\PSoC4/SinUsar_13.c **** *  \snippet SinUsar_13_SUT.c usage_SinUsar_13_SetInterruptMode
 206:Generated_Source\PSoC4/SinUsar_13.c **** *******************************************************************************/
 207:Generated_Source\PSoC4/SinUsar_13.c **** void SinUsar_13_SetInterruptMode(uint16 position, uint16 mode)
 208:Generated_Source\PSoC4/SinUsar_13.c **** {
 142              		.loc 1 208 0
 143              		.cfi_startproc
 144              	.LVL6:
 209:Generated_Source\PSoC4/SinUsar_13.c ****     uint32 intrCfg;
 210:Generated_Source\PSoC4/SinUsar_13.c ****     
 211:Generated_Source\PSoC4/SinUsar_13.c ****     intrCfg =  SinUsar_13_INTCFG & (uint32)(~(uint32)position);
 145              		.loc 1 211 0
 146 0000 034A     		ldr	r2, .L14
 147 0002 1368     		ldr	r3, [r2]
 148 0004 8343     		bic	r3, r0
 149              	.LVL7:
 212:Generated_Source\PSoC4/SinUsar_13.c ****     SinUsar_13_INTCFG = intrCfg | ((uint32)position & (uint32)mode);
 150              		.loc 1 212 0
 151 0006 0140     		and	r1, r0
 152              	.LVL8:
 153 0008 1943     		orr	r1, r3
 154 000a 1160     		str	r1, [r2]
 213:Generated_Source\PSoC4/SinUsar_13.c **** }
 155              		.loc 1 213 0
 156              		@ sp needed
 157 000c 7047     		bx	lr
 158              	.L15:
 159 000e C046     		.align	2
 160              	.L14:
 161 0010 0C000440 		.word	1074003980
 162              		.cfi_endproc
 163              	.LFE4:
 164              		.size	SinUsar_13_SetInterruptMode, .-SinUsar_13_SetInterruptMode
 165              		.section	.text.SinUsar_13_ClearInterrupt,"ax",%progbits
 166              		.align	2
 167              		.global	SinUsar_13_ClearInterrupt
 168              		.code	16
 169              		.thumb_func
 170              		.type	SinUsar_13_ClearInterrupt, %function
 171              	SinUsar_13_ClearInterrupt:
 172              	.LFB5:
 214:Generated_Source\PSoC4/SinUsar_13.c **** 
 215:Generated_Source\PSoC4/SinUsar_13.c **** 
 216:Generated_Source\PSoC4/SinUsar_13.c **** /*******************************************************************************
 217:Generated_Source\PSoC4/SinUsar_13.c **** * Function Name: SinUsar_13_ClearInterrupt
 218:Generated_Source\PSoC4/SinUsar_13.c **** ****************************************************************************//**
 219:Generated_Source\PSoC4/SinUsar_13.c **** *
 220:Generated_Source\PSoC4/SinUsar_13.c **** * \brief Clears any active interrupts attached with the component and returns 
 221:Generated_Source\PSoC4/SinUsar_13.c **** *  the value of the interrupt status register allowing determination of which
 222:Generated_Source\PSoC4/SinUsar_13.c **** *  pins generated an interrupt event.
 223:Generated_Source\PSoC4/SinUsar_13.c **** *
 224:Generated_Source\PSoC4/SinUsar_13.c **** * \return 
 225:Generated_Source\PSoC4/SinUsar_13.c **** *  The right-shifted current value of the interrupt status register. Each pin 
 226:Generated_Source\PSoC4/SinUsar_13.c **** *  has one bit set if it generated an interrupt event. For example, bit 0 is 
 227:Generated_Source\PSoC4/SinUsar_13.c **** *  for pin 0 and bit 1 is for pin 1 of the Pins component.
ARM GAS  C:\Users\Elea\AppData\Local\Temp\cc1OObKh.s 			page 8


 228:Generated_Source\PSoC4/SinUsar_13.c **** *  
 229:Generated_Source\PSoC4/SinUsar_13.c **** * \sideeffect
 230:Generated_Source\PSoC4/SinUsar_13.c **** *  Clears all bits of the physical port's interrupt status register, not just
 231:Generated_Source\PSoC4/SinUsar_13.c **** *  those associated with the Pins component.
 232:Generated_Source\PSoC4/SinUsar_13.c **** *
 233:Generated_Source\PSoC4/SinUsar_13.c **** * \funcusage
 234:Generated_Source\PSoC4/SinUsar_13.c **** *  \snippet SinUsar_13_SUT.c usage_SinUsar_13_ClearInterrupt
 235:Generated_Source\PSoC4/SinUsar_13.c **** *******************************************************************************/
 236:Generated_Source\PSoC4/SinUsar_13.c **** uint8 SinUsar_13_ClearInterrupt(void)
 237:Generated_Source\PSoC4/SinUsar_13.c **** {
 173              		.loc 1 237 0
 174              		.cfi_startproc
 238:Generated_Source\PSoC4/SinUsar_13.c **** 	uint8 maskedStatus = (uint8)(SinUsar_13_INTSTAT & SinUsar_13_MASK);
 175              		.loc 1 238 0
 176 0000 034A     		ldr	r2, .L17
 177 0002 1068     		ldr	r0, [r2]
 178 0004 0223     		mov	r3, #2
 179 0006 1840     		and	r0, r3
 180              	.LVL9:
 239:Generated_Source\PSoC4/SinUsar_13.c **** 	SinUsar_13_INTSTAT = maskedStatus;
 181              		.loc 1 239 0
 182 0008 1060     		str	r0, [r2]
 240:Generated_Source\PSoC4/SinUsar_13.c ****     return maskedStatus >> SinUsar_13_SHIFT;
 183              		.loc 1 240 0
 184 000a 4008     		lsr	r0, r0, #1
 185              	.LVL10:
 186 000c C0B2     		uxtb	r0, r0
 241:Generated_Source\PSoC4/SinUsar_13.c **** }
 187              		.loc 1 241 0
 188              		@ sp needed
 189 000e 7047     		bx	lr
 190              	.L18:
 191              		.align	2
 192              	.L17:
 193 0010 10000440 		.word	1074003984
 194              		.cfi_endproc
 195              	.LFE5:
 196              		.size	SinUsar_13_ClearInterrupt, .-SinUsar_13_ClearInterrupt
 197              		.text
 198              	.Letext0:
 199              		.file 2 "Generated_Source\\PSoC4\\cytypes.h"
