ARM GAS  C:\Users\Elea\AppData\Local\Temp\cccuFkW1.s 			page 1


   1              		.cpu cortex-m0
   2              		.fpu softvfp
   3              		.eabi_attribute 20, 1
   4              		.eabi_attribute 21, 1
   5              		.eabi_attribute 23, 3
   6              		.eabi_attribute 24, 1
   7              		.eabi_attribute 25, 1
   8              		.eabi_attribute 26, 1
   9              		.eabi_attribute 30, 1
  10              		.eabi_attribute 34, 0
  11              		.eabi_attribute 18, 4
  12              		.code	16
  13              		.file	"UART_rx.c"
  14              		.text
  15              	.Ltext0:
  16              		.cfi_sections	.debug_frame
  17              		.section	.text.UART_rx_SetDriveMode,"ax",%progbits
  18              		.align	2
  19              		.global	UART_rx_SetDriveMode
  20              		.code	16
  21              		.thumb_func
  22              		.type	UART_rx_SetDriveMode, %function
  23              	UART_rx_SetDriveMode:
  24              	.LFB0:
  25              		.file 1 "Generated_Source\\PSoC4\\UART_rx.c"
   1:Generated_Source\PSoC4/UART_rx.c **** /*******************************************************************************
   2:Generated_Source\PSoC4/UART_rx.c **** * File Name: UART_rx.c  
   3:Generated_Source\PSoC4/UART_rx.c **** * Version 2.20
   4:Generated_Source\PSoC4/UART_rx.c **** *
   5:Generated_Source\PSoC4/UART_rx.c **** * Description:
   6:Generated_Source\PSoC4/UART_rx.c **** *  This file contains API to enable firmware control of a Pins component.
   7:Generated_Source\PSoC4/UART_rx.c **** *
   8:Generated_Source\PSoC4/UART_rx.c **** ********************************************************************************
   9:Generated_Source\PSoC4/UART_rx.c **** * Copyright 2008-2015, Cypress Semiconductor Corporation.  All rights reserved.
  10:Generated_Source\PSoC4/UART_rx.c **** * You may use this file only in accordance with the license, terms, conditions, 
  11:Generated_Source\PSoC4/UART_rx.c **** * disclaimers, and limitations in the end user license agreement accompanying 
  12:Generated_Source\PSoC4/UART_rx.c **** * the software package with which this file was provided.
  13:Generated_Source\PSoC4/UART_rx.c **** *******************************************************************************/
  14:Generated_Source\PSoC4/UART_rx.c **** 
  15:Generated_Source\PSoC4/UART_rx.c **** #include "cytypes.h"
  16:Generated_Source\PSoC4/UART_rx.c **** #include "UART_rx.h"
  17:Generated_Source\PSoC4/UART_rx.c **** 
  18:Generated_Source\PSoC4/UART_rx.c **** 
  19:Generated_Source\PSoC4/UART_rx.c **** #if defined(UART_rx__PC)
  20:Generated_Source\PSoC4/UART_rx.c ****     #define UART_rx_SetP4PinDriveMode(shift, mode)  \
  21:Generated_Source\PSoC4/UART_rx.c ****     do { \
  22:Generated_Source\PSoC4/UART_rx.c ****         UART_rx_PC =   (UART_rx_PC & \
  23:Generated_Source\PSoC4/UART_rx.c ****                                 (uint32)(~(uint32)(UART_rx_DRIVE_MODE_IND_MASK << \
  24:Generated_Source\PSoC4/UART_rx.c ****                                 (UART_rx_DRIVE_MODE_BITS * (shift))))) | \
  25:Generated_Source\PSoC4/UART_rx.c ****                                 (uint32)((uint32)(mode) << \
  26:Generated_Source\PSoC4/UART_rx.c ****                                 (UART_rx_DRIVE_MODE_BITS * (shift))); \
  27:Generated_Source\PSoC4/UART_rx.c ****     } while (0)
  28:Generated_Source\PSoC4/UART_rx.c **** #else
  29:Generated_Source\PSoC4/UART_rx.c ****     #if (CY_PSOC4_4200L)
  30:Generated_Source\PSoC4/UART_rx.c ****         #define UART_rx_SetP4PinDriveMode(shift, mode)  \
  31:Generated_Source\PSoC4/UART_rx.c ****         do { \
  32:Generated_Source\PSoC4/UART_rx.c ****             UART_rx_USBIO_CTRL_REG = (UART_rx_USBIO_CTRL_REG & \
ARM GAS  C:\Users\Elea\AppData\Local\Temp\cccuFkW1.s 			page 2


  33:Generated_Source\PSoC4/UART_rx.c ****                                     (uint32)(~(uint32)(UART_rx_DRIVE_MODE_IND_MASK << \
  34:Generated_Source\PSoC4/UART_rx.c ****                                     (UART_rx_DRIVE_MODE_BITS * (shift))))) | \
  35:Generated_Source\PSoC4/UART_rx.c ****                                     (uint32)((uint32)(mode) << \
  36:Generated_Source\PSoC4/UART_rx.c ****                                     (UART_rx_DRIVE_MODE_BITS * (shift))); \
  37:Generated_Source\PSoC4/UART_rx.c ****         } while (0)
  38:Generated_Source\PSoC4/UART_rx.c ****     #endif
  39:Generated_Source\PSoC4/UART_rx.c **** #endif
  40:Generated_Source\PSoC4/UART_rx.c ****   
  41:Generated_Source\PSoC4/UART_rx.c **** 
  42:Generated_Source\PSoC4/UART_rx.c **** #if defined(UART_rx__PC) || (CY_PSOC4_4200L) 
  43:Generated_Source\PSoC4/UART_rx.c ****     /*******************************************************************************
  44:Generated_Source\PSoC4/UART_rx.c ****     * Function Name: UART_rx_SetDriveMode
  45:Generated_Source\PSoC4/UART_rx.c ****     ****************************************************************************//**
  46:Generated_Source\PSoC4/UART_rx.c ****     *
  47:Generated_Source\PSoC4/UART_rx.c ****     * \brief Sets the drive mode for each of the Pins component's pins.
  48:Generated_Source\PSoC4/UART_rx.c ****     * 
  49:Generated_Source\PSoC4/UART_rx.c ****     * <b>Note</b> This affects all pins in the Pins component instance. Use the
  50:Generated_Source\PSoC4/UART_rx.c ****     * Per-Pin APIs if you wish to control individual pin's drive modes.
  51:Generated_Source\PSoC4/UART_rx.c ****     *
  52:Generated_Source\PSoC4/UART_rx.c ****     * <b>Note</b> USBIOs have limited drive functionality. Refer to the Drive Mode
  53:Generated_Source\PSoC4/UART_rx.c ****     * parameter for more information.
  54:Generated_Source\PSoC4/UART_rx.c ****     *
  55:Generated_Source\PSoC4/UART_rx.c ****     * \param mode
  56:Generated_Source\PSoC4/UART_rx.c ****     *  Mode for the selected signals. Valid options are documented in 
  57:Generated_Source\PSoC4/UART_rx.c ****     *  \ref driveMode.
  58:Generated_Source\PSoC4/UART_rx.c ****     *
  59:Generated_Source\PSoC4/UART_rx.c ****     * \return
  60:Generated_Source\PSoC4/UART_rx.c ****     *  None
  61:Generated_Source\PSoC4/UART_rx.c ****     *
  62:Generated_Source\PSoC4/UART_rx.c ****     * \sideeffect
  63:Generated_Source\PSoC4/UART_rx.c ****     *  If you use read-modify-write operations that are not atomic, the ISR can
  64:Generated_Source\PSoC4/UART_rx.c ****     *  cause corruption of this function. An ISR that interrupts this function 
  65:Generated_Source\PSoC4/UART_rx.c ****     *  and performs writes to the Pins component Drive Mode registers can cause 
  66:Generated_Source\PSoC4/UART_rx.c ****     *  corrupted port data. To avoid this issue, you should either use the Per-Pin
  67:Generated_Source\PSoC4/UART_rx.c ****     *  APIs (primary method) or disable interrupts around this function.
  68:Generated_Source\PSoC4/UART_rx.c ****     *
  69:Generated_Source\PSoC4/UART_rx.c ****     * \funcusage
  70:Generated_Source\PSoC4/UART_rx.c ****     *  \snippet UART_rx_SUT.c usage_UART_rx_SetDriveMode
  71:Generated_Source\PSoC4/UART_rx.c ****     *******************************************************************************/
  72:Generated_Source\PSoC4/UART_rx.c ****     void UART_rx_SetDriveMode(uint8 mode)
  73:Generated_Source\PSoC4/UART_rx.c ****     {
  26              		.loc 1 73 0
  27              		.cfi_startproc
  28              	.LVL0:
  74:Generated_Source\PSoC4/UART_rx.c **** 		UART_rx_SetP4PinDriveMode(UART_rx__0__SHIFT, mode);
  29              		.loc 1 74 0
  30 0000 034A     		ldr	r2, .L2
  31 0002 1368     		ldr	r3, [r2]
  32 0004 0721     		mov	r1, #7
  33 0006 8B43     		bic	r3, r1
  34 0008 1843     		orr	r0, r3
  35              	.LVL1:
  36 000a 1060     		str	r0, [r2]
  75:Generated_Source\PSoC4/UART_rx.c ****     }
  37              		.loc 1 75 0
  38              		@ sp needed
  39 000c 7047     		bx	lr
ARM GAS  C:\Users\Elea\AppData\Local\Temp\cccuFkW1.s 			page 3


  40              	.L3:
  41 000e C046     		.align	2
  42              	.L2:
  43 0010 08040440 		.word	1074005000
  44              		.cfi_endproc
  45              	.LFE0:
  46              		.size	UART_rx_SetDriveMode, .-UART_rx_SetDriveMode
  47              		.section	.text.UART_rx_Write,"ax",%progbits
  48              		.align	2
  49              		.global	UART_rx_Write
  50              		.code	16
  51              		.thumb_func
  52              		.type	UART_rx_Write, %function
  53              	UART_rx_Write:
  54              	.LFB1:
  76:Generated_Source\PSoC4/UART_rx.c **** #endif
  77:Generated_Source\PSoC4/UART_rx.c **** 
  78:Generated_Source\PSoC4/UART_rx.c **** 
  79:Generated_Source\PSoC4/UART_rx.c **** /*******************************************************************************
  80:Generated_Source\PSoC4/UART_rx.c **** * Function Name: UART_rx_Write
  81:Generated_Source\PSoC4/UART_rx.c **** ****************************************************************************//**
  82:Generated_Source\PSoC4/UART_rx.c **** *
  83:Generated_Source\PSoC4/UART_rx.c **** * \brief Writes the value to the physical port (data output register), masking
  84:Generated_Source\PSoC4/UART_rx.c **** *  and shifting the bits appropriately. 
  85:Generated_Source\PSoC4/UART_rx.c **** *
  86:Generated_Source\PSoC4/UART_rx.c **** * The data output register controls the signal applied to the physical pin in 
  87:Generated_Source\PSoC4/UART_rx.c **** * conjunction with the drive mode parameter. This function avoids changing 
  88:Generated_Source\PSoC4/UART_rx.c **** * other bits in the port by using the appropriate method (read-modify-write or
  89:Generated_Source\PSoC4/UART_rx.c **** * bit banding).
  90:Generated_Source\PSoC4/UART_rx.c **** *
  91:Generated_Source\PSoC4/UART_rx.c **** * <b>Note</b> This function should not be used on a hardware digital output pin 
  92:Generated_Source\PSoC4/UART_rx.c **** * as it is driven by the hardware signal attached to it.
  93:Generated_Source\PSoC4/UART_rx.c **** *
  94:Generated_Source\PSoC4/UART_rx.c **** * \param value
  95:Generated_Source\PSoC4/UART_rx.c **** *  Value to write to the component instance.
  96:Generated_Source\PSoC4/UART_rx.c **** *
  97:Generated_Source\PSoC4/UART_rx.c **** * \return 
  98:Generated_Source\PSoC4/UART_rx.c **** *  None 
  99:Generated_Source\PSoC4/UART_rx.c **** *
 100:Generated_Source\PSoC4/UART_rx.c **** * \sideeffect
 101:Generated_Source\PSoC4/UART_rx.c **** *  If you use read-modify-write operations that are not atomic; the Interrupt 
 102:Generated_Source\PSoC4/UART_rx.c **** *  Service Routines (ISR) can cause corruption of this function. An ISR that 
 103:Generated_Source\PSoC4/UART_rx.c **** *  interrupts this function and performs writes to the Pins component data 
 104:Generated_Source\PSoC4/UART_rx.c **** *  register can cause corrupted port data. To avoid this issue, you should 
 105:Generated_Source\PSoC4/UART_rx.c **** *  either use the Per-Pin APIs (primary method) or disable interrupts around 
 106:Generated_Source\PSoC4/UART_rx.c **** *  this function.
 107:Generated_Source\PSoC4/UART_rx.c **** *
 108:Generated_Source\PSoC4/UART_rx.c **** * \funcusage
 109:Generated_Source\PSoC4/UART_rx.c **** *  \snippet UART_rx_SUT.c usage_UART_rx_Write
 110:Generated_Source\PSoC4/UART_rx.c **** *******************************************************************************/
 111:Generated_Source\PSoC4/UART_rx.c **** void UART_rx_Write(uint8 value)
 112:Generated_Source\PSoC4/UART_rx.c **** {
  55              		.loc 1 112 0
  56              		.cfi_startproc
  57              	.LVL2:
  58 0000 031C     		mov	r3, r0
 113:Generated_Source\PSoC4/UART_rx.c ****     uint8 drVal = (uint8)(UART_rx_DR & (uint8)(~UART_rx_MASK));
ARM GAS  C:\Users\Elea\AppData\Local\Temp\cccuFkW1.s 			page 4


  59              		.loc 1 113 0
  60 0002 0449     		ldr	r1, .L5
  61 0004 0868     		ldr	r0, [r1]
  62              	.LVL3:
  63 0006 FE22     		mov	r2, #254
  64 0008 0240     		and	r2, r0
  65              	.LVL4:
 114:Generated_Source\PSoC4/UART_rx.c ****     drVal = (drVal | ((uint8)(value << UART_rx_SHIFT) & UART_rx_MASK));
  66              		.loc 1 114 0
  67 000a 0120     		mov	r0, #1
  68 000c 1840     		and	r0, r3
  69 000e 1043     		orr	r0, r2
  70              	.LVL5:
 115:Generated_Source\PSoC4/UART_rx.c ****     UART_rx_DR = (uint32)drVal;
  71              		.loc 1 115 0
  72 0010 0860     		str	r0, [r1]
 116:Generated_Source\PSoC4/UART_rx.c **** }
  73              		.loc 1 116 0
  74              		@ sp needed
  75 0012 7047     		bx	lr
  76              	.L6:
  77              		.align	2
  78              	.L5:
  79 0014 00040440 		.word	1074004992
  80              		.cfi_endproc
  81              	.LFE1:
  82              		.size	UART_rx_Write, .-UART_rx_Write
  83              		.section	.text.UART_rx_Read,"ax",%progbits
  84              		.align	2
  85              		.global	UART_rx_Read
  86              		.code	16
  87              		.thumb_func
  88              		.type	UART_rx_Read, %function
  89              	UART_rx_Read:
  90              	.LFB2:
 117:Generated_Source\PSoC4/UART_rx.c **** 
 118:Generated_Source\PSoC4/UART_rx.c **** 
 119:Generated_Source\PSoC4/UART_rx.c **** /*******************************************************************************
 120:Generated_Source\PSoC4/UART_rx.c **** * Function Name: UART_rx_Read
 121:Generated_Source\PSoC4/UART_rx.c **** ****************************************************************************//**
 122:Generated_Source\PSoC4/UART_rx.c **** *
 123:Generated_Source\PSoC4/UART_rx.c **** * \brief Reads the associated physical port (pin status register) and masks 
 124:Generated_Source\PSoC4/UART_rx.c **** *  the required bits according to the width and bit position of the component
 125:Generated_Source\PSoC4/UART_rx.c **** *  instance. 
 126:Generated_Source\PSoC4/UART_rx.c **** *
 127:Generated_Source\PSoC4/UART_rx.c **** * The pin's status register returns the current logic level present on the 
 128:Generated_Source\PSoC4/UART_rx.c **** * physical pin.
 129:Generated_Source\PSoC4/UART_rx.c **** *
 130:Generated_Source\PSoC4/UART_rx.c **** * \return 
 131:Generated_Source\PSoC4/UART_rx.c **** *  The current value for the pins in the component as a right justified number.
 132:Generated_Source\PSoC4/UART_rx.c **** *
 133:Generated_Source\PSoC4/UART_rx.c **** * \funcusage
 134:Generated_Source\PSoC4/UART_rx.c **** *  \snippet UART_rx_SUT.c usage_UART_rx_Read  
 135:Generated_Source\PSoC4/UART_rx.c **** *******************************************************************************/
 136:Generated_Source\PSoC4/UART_rx.c **** uint8 UART_rx_Read(void)
 137:Generated_Source\PSoC4/UART_rx.c **** {
  91              		.loc 1 137 0
ARM GAS  C:\Users\Elea\AppData\Local\Temp\cccuFkW1.s 			page 5


  92              		.cfi_startproc
 138:Generated_Source\PSoC4/UART_rx.c ****     return (uint8)((UART_rx_PS & UART_rx_MASK) >> UART_rx_SHIFT);
  93              		.loc 1 138 0
  94 0000 024B     		ldr	r3, .L8
  95 0002 1868     		ldr	r0, [r3]
  96 0004 0123     		mov	r3, #1
  97 0006 1840     		and	r0, r3
 139:Generated_Source\PSoC4/UART_rx.c **** }
  98              		.loc 1 139 0
  99              		@ sp needed
 100 0008 7047     		bx	lr
 101              	.L9:
 102 000a C046     		.align	2
 103              	.L8:
 104 000c 04040440 		.word	1074004996
 105              		.cfi_endproc
 106              	.LFE2:
 107              		.size	UART_rx_Read, .-UART_rx_Read
 108              		.section	.text.UART_rx_ReadDataReg,"ax",%progbits
 109              		.align	2
 110              		.global	UART_rx_ReadDataReg
 111              		.code	16
 112              		.thumb_func
 113              		.type	UART_rx_ReadDataReg, %function
 114              	UART_rx_ReadDataReg:
 115              	.LFB3:
 140:Generated_Source\PSoC4/UART_rx.c **** 
 141:Generated_Source\PSoC4/UART_rx.c **** 
 142:Generated_Source\PSoC4/UART_rx.c **** /*******************************************************************************
 143:Generated_Source\PSoC4/UART_rx.c **** * Function Name: UART_rx_ReadDataReg
 144:Generated_Source\PSoC4/UART_rx.c **** ****************************************************************************//**
 145:Generated_Source\PSoC4/UART_rx.c **** *
 146:Generated_Source\PSoC4/UART_rx.c **** * \brief Reads the associated physical port's data output register and masks 
 147:Generated_Source\PSoC4/UART_rx.c **** *  the correct bits according to the width and bit position of the component 
 148:Generated_Source\PSoC4/UART_rx.c **** *  instance. 
 149:Generated_Source\PSoC4/UART_rx.c **** *
 150:Generated_Source\PSoC4/UART_rx.c **** * The data output register controls the signal applied to the physical pin in 
 151:Generated_Source\PSoC4/UART_rx.c **** * conjunction with the drive mode parameter. This is not the same as the 
 152:Generated_Source\PSoC4/UART_rx.c **** * preferred UART_rx_Read() API because the 
 153:Generated_Source\PSoC4/UART_rx.c **** * UART_rx_ReadDataReg() reads the data register instead of the status 
 154:Generated_Source\PSoC4/UART_rx.c **** * register. For output pins this is a useful function to determine the value 
 155:Generated_Source\PSoC4/UART_rx.c **** * just written to the pin.
 156:Generated_Source\PSoC4/UART_rx.c **** *
 157:Generated_Source\PSoC4/UART_rx.c **** * \return 
 158:Generated_Source\PSoC4/UART_rx.c **** *  The current value of the data register masked and shifted into a right 
 159:Generated_Source\PSoC4/UART_rx.c **** *  justified number for the component instance.
 160:Generated_Source\PSoC4/UART_rx.c **** *
 161:Generated_Source\PSoC4/UART_rx.c **** * \funcusage
 162:Generated_Source\PSoC4/UART_rx.c **** *  \snippet UART_rx_SUT.c usage_UART_rx_ReadDataReg 
 163:Generated_Source\PSoC4/UART_rx.c **** *******************************************************************************/
 164:Generated_Source\PSoC4/UART_rx.c **** uint8 UART_rx_ReadDataReg(void)
 165:Generated_Source\PSoC4/UART_rx.c **** {
 116              		.loc 1 165 0
 117              		.cfi_startproc
 166:Generated_Source\PSoC4/UART_rx.c ****     return (uint8)((UART_rx_DR & UART_rx_MASK) >> UART_rx_SHIFT);
 118              		.loc 1 166 0
 119 0000 024B     		ldr	r3, .L11
ARM GAS  C:\Users\Elea\AppData\Local\Temp\cccuFkW1.s 			page 6


 120 0002 1868     		ldr	r0, [r3]
 121 0004 0123     		mov	r3, #1
 122 0006 1840     		and	r0, r3
 167:Generated_Source\PSoC4/UART_rx.c **** }
 123              		.loc 1 167 0
 124              		@ sp needed
 125 0008 7047     		bx	lr
 126              	.L12:
 127 000a C046     		.align	2
 128              	.L11:
 129 000c 00040440 		.word	1074004992
 130              		.cfi_endproc
 131              	.LFE3:
 132              		.size	UART_rx_ReadDataReg, .-UART_rx_ReadDataReg
 133              		.section	.text.UART_rx_SetInterruptMode,"ax",%progbits
 134              		.align	2
 135              		.global	UART_rx_SetInterruptMode
 136              		.code	16
 137              		.thumb_func
 138              		.type	UART_rx_SetInterruptMode, %function
 139              	UART_rx_SetInterruptMode:
 140              	.LFB4:
 168:Generated_Source\PSoC4/UART_rx.c **** 
 169:Generated_Source\PSoC4/UART_rx.c **** 
 170:Generated_Source\PSoC4/UART_rx.c **** /*******************************************************************************
 171:Generated_Source\PSoC4/UART_rx.c **** * Function Name: UART_rx_SetInterruptMode
 172:Generated_Source\PSoC4/UART_rx.c **** ****************************************************************************//**
 173:Generated_Source\PSoC4/UART_rx.c **** *
 174:Generated_Source\PSoC4/UART_rx.c **** * \brief Configures the interrupt mode for each of the Pins component's
 175:Generated_Source\PSoC4/UART_rx.c **** *  pins. Alternatively you may set the interrupt mode for all the pins
 176:Generated_Source\PSoC4/UART_rx.c **** *  specified in the Pins component.
 177:Generated_Source\PSoC4/UART_rx.c **** *
 178:Generated_Source\PSoC4/UART_rx.c **** *  <b>Note</b> The interrupt is port-wide and therefore any enabled pin
 179:Generated_Source\PSoC4/UART_rx.c **** *  interrupt may trigger it.
 180:Generated_Source\PSoC4/UART_rx.c **** *
 181:Generated_Source\PSoC4/UART_rx.c **** * \param position
 182:Generated_Source\PSoC4/UART_rx.c **** *  The pin position as listed in the Pins component. You may OR these to be 
 183:Generated_Source\PSoC4/UART_rx.c **** *  able to configure the interrupt mode of multiple pins within a Pins 
 184:Generated_Source\PSoC4/UART_rx.c **** *  component. Or you may use UART_rx_INTR_ALL to configure the
 185:Generated_Source\PSoC4/UART_rx.c **** *  interrupt mode of all the pins in the Pins component.       
 186:Generated_Source\PSoC4/UART_rx.c **** *  - UART_rx_0_INTR       (First pin in the list)
 187:Generated_Source\PSoC4/UART_rx.c **** *  - UART_rx_1_INTR       (Second pin in the list)
 188:Generated_Source\PSoC4/UART_rx.c **** *  - ...
 189:Generated_Source\PSoC4/UART_rx.c **** *  - UART_rx_INTR_ALL     (All pins in Pins component)
 190:Generated_Source\PSoC4/UART_rx.c **** *
 191:Generated_Source\PSoC4/UART_rx.c **** * \param mode
 192:Generated_Source\PSoC4/UART_rx.c **** *  Interrupt mode for the selected pins. Valid options are documented in
 193:Generated_Source\PSoC4/UART_rx.c **** *  \ref intrMode.
 194:Generated_Source\PSoC4/UART_rx.c **** *
 195:Generated_Source\PSoC4/UART_rx.c **** * \return 
 196:Generated_Source\PSoC4/UART_rx.c **** *  None
 197:Generated_Source\PSoC4/UART_rx.c **** *  
 198:Generated_Source\PSoC4/UART_rx.c **** * \sideeffect
 199:Generated_Source\PSoC4/UART_rx.c **** *  It is recommended that the interrupt be disabled before calling this 
 200:Generated_Source\PSoC4/UART_rx.c **** *  function to avoid unintended interrupt requests. Note that the interrupt
 201:Generated_Source\PSoC4/UART_rx.c **** *  type is port wide, and therefore will trigger for any enabled pin on the 
 202:Generated_Source\PSoC4/UART_rx.c **** *  port.
ARM GAS  C:\Users\Elea\AppData\Local\Temp\cccuFkW1.s 			page 7


 203:Generated_Source\PSoC4/UART_rx.c **** *
 204:Generated_Source\PSoC4/UART_rx.c **** * \funcusage
 205:Generated_Source\PSoC4/UART_rx.c **** *  \snippet UART_rx_SUT.c usage_UART_rx_SetInterruptMode
 206:Generated_Source\PSoC4/UART_rx.c **** *******************************************************************************/
 207:Generated_Source\PSoC4/UART_rx.c **** void UART_rx_SetInterruptMode(uint16 position, uint16 mode)
 208:Generated_Source\PSoC4/UART_rx.c **** {
 141              		.loc 1 208 0
 142              		.cfi_startproc
 143              	.LVL6:
 209:Generated_Source\PSoC4/UART_rx.c ****     uint32 intrCfg;
 210:Generated_Source\PSoC4/UART_rx.c ****     
 211:Generated_Source\PSoC4/UART_rx.c ****     intrCfg =  UART_rx_INTCFG & (uint32)(~(uint32)position);
 144              		.loc 1 211 0
 145 0000 034A     		ldr	r2, .L14
 146 0002 1368     		ldr	r3, [r2]
 147 0004 8343     		bic	r3, r0
 148              	.LVL7:
 212:Generated_Source\PSoC4/UART_rx.c ****     UART_rx_INTCFG = intrCfg | ((uint32)position & (uint32)mode);
 149              		.loc 1 212 0
 150 0006 0140     		and	r1, r0
 151              	.LVL8:
 152 0008 1943     		orr	r1, r3
 153 000a 1160     		str	r1, [r2]
 213:Generated_Source\PSoC4/UART_rx.c **** }
 154              		.loc 1 213 0
 155              		@ sp needed
 156 000c 7047     		bx	lr
 157              	.L15:
 158 000e C046     		.align	2
 159              	.L14:
 160 0010 0C040440 		.word	1074005004
 161              		.cfi_endproc
 162              	.LFE4:
 163              		.size	UART_rx_SetInterruptMode, .-UART_rx_SetInterruptMode
 164              		.section	.text.UART_rx_ClearInterrupt,"ax",%progbits
 165              		.align	2
 166              		.global	UART_rx_ClearInterrupt
 167              		.code	16
 168              		.thumb_func
 169              		.type	UART_rx_ClearInterrupt, %function
 170              	UART_rx_ClearInterrupt:
 171              	.LFB5:
 214:Generated_Source\PSoC4/UART_rx.c **** 
 215:Generated_Source\PSoC4/UART_rx.c **** 
 216:Generated_Source\PSoC4/UART_rx.c **** /*******************************************************************************
 217:Generated_Source\PSoC4/UART_rx.c **** * Function Name: UART_rx_ClearInterrupt
 218:Generated_Source\PSoC4/UART_rx.c **** ****************************************************************************//**
 219:Generated_Source\PSoC4/UART_rx.c **** *
 220:Generated_Source\PSoC4/UART_rx.c **** * \brief Clears any active interrupts attached with the component and returns 
 221:Generated_Source\PSoC4/UART_rx.c **** *  the value of the interrupt status register allowing determination of which
 222:Generated_Source\PSoC4/UART_rx.c **** *  pins generated an interrupt event.
 223:Generated_Source\PSoC4/UART_rx.c **** *
 224:Generated_Source\PSoC4/UART_rx.c **** * \return 
 225:Generated_Source\PSoC4/UART_rx.c **** *  The right-shifted current value of the interrupt status register. Each pin 
 226:Generated_Source\PSoC4/UART_rx.c **** *  has one bit set if it generated an interrupt event. For example, bit 0 is 
 227:Generated_Source\PSoC4/UART_rx.c **** *  for pin 0 and bit 1 is for pin 1 of the Pins component.
 228:Generated_Source\PSoC4/UART_rx.c **** *  
ARM GAS  C:\Users\Elea\AppData\Local\Temp\cccuFkW1.s 			page 8


 229:Generated_Source\PSoC4/UART_rx.c **** * \sideeffect
 230:Generated_Source\PSoC4/UART_rx.c **** *  Clears all bits of the physical port's interrupt status register, not just
 231:Generated_Source\PSoC4/UART_rx.c **** *  those associated with the Pins component.
 232:Generated_Source\PSoC4/UART_rx.c **** *
 233:Generated_Source\PSoC4/UART_rx.c **** * \funcusage
 234:Generated_Source\PSoC4/UART_rx.c **** *  \snippet UART_rx_SUT.c usage_UART_rx_ClearInterrupt
 235:Generated_Source\PSoC4/UART_rx.c **** *******************************************************************************/
 236:Generated_Source\PSoC4/UART_rx.c **** uint8 UART_rx_ClearInterrupt(void)
 237:Generated_Source\PSoC4/UART_rx.c **** {
 172              		.loc 1 237 0
 173              		.cfi_startproc
 238:Generated_Source\PSoC4/UART_rx.c **** 	uint8 maskedStatus = (uint8)(UART_rx_INTSTAT & UART_rx_MASK);
 174              		.loc 1 238 0
 175 0000 024A     		ldr	r2, .L17
 176 0002 1068     		ldr	r0, [r2]
 177 0004 0123     		mov	r3, #1
 178 0006 1840     		and	r0, r3
 179              	.LVL9:
 239:Generated_Source\PSoC4/UART_rx.c **** 	UART_rx_INTSTAT = maskedStatus;
 180              		.loc 1 239 0
 181 0008 1060     		str	r0, [r2]
 240:Generated_Source\PSoC4/UART_rx.c ****     return maskedStatus >> UART_rx_SHIFT;
 241:Generated_Source\PSoC4/UART_rx.c **** }
 182              		.loc 1 241 0
 183              		@ sp needed
 184 000a 7047     		bx	lr
 185              	.L18:
 186              		.align	2
 187              	.L17:
 188 000c 10040440 		.word	1074005008
 189              		.cfi_endproc
 190              	.LFE5:
 191              		.size	UART_rx_ClearInterrupt, .-UART_rx_ClearInterrupt
 192              		.text
 193              	.Letext0:
 194              		.file 2 "Generated_Source\\PSoC4\\cytypes.h"
